{"contracts/Auction.sol":{"BasicDutchAuction":{"abi":[{"inputs":[{"internalType":"uint256","name":"_reservePrice","type":"uint256"},{"internalType":"uint256","name":"_numBlocksAuctionOpen","type":"uint256"},{"internalType":"uint256","name":"_offerPriceDecrement","type":"uint256"}],"stateMutability":"nonpayable","type":"constructor"},{"anonymous":false,"inputs":[{"indexed":false,"internalType":"address","name":"bidder","type":"address"},{"indexed":false,"internalType":"uint256","name":"amount","type":"uint256"}],"name":"Refund","type":"event"},{"anonymous":false,"inputs":[{"indexed":false,"internalType":"address","name":"bidder","type":"address"},{"indexed":false,"internalType":"uint256","name":"amount","type":"uint256"}],"name":"RefundWithdrawal","type":"event"},{"inputs":[],"name":"auctionEndTime","outputs":[{"internalType":"uint256","name":"","type":"uint256"}],"stateMutability":"view","type":"function"},{"inputs":[],"name":"auctionEnded","outputs":[{"internalType":"bool","name":"","type":"bool"}],"stateMutability":"view","type":"function"},{"inputs":[],"name":"bid","outputs":[],"stateMutability":"payable","type":"function"},{"inputs":[],"name":"endAuction","outputs":[],"stateMutability":"nonpayable","type":"function"},{"inputs":[],"name":"highestBid","outputs":[{"internalType":"uint256","name":"","type":"uint256"}],"stateMutability":"view","type":"function"},{"inputs":[],"name":"highestBidder","outputs":[{"internalType":"address","name":"","type":"address"}],"stateMutability":"view","type":"function"},{"inputs":[],"name":"initialPrice","outputs":[{"internalType":"uint256","name":"","type":"uint256"}],"stateMutability":"view","type":"function"},{"inputs":[],"name":"numBlocksAuctionOpen","outputs":[{"internalType":"uint256","name":"","type":"uint256"}],"stateMutability":"view","type":"function"},{"inputs":[],"name":"offerPriceDecrement","outputs":[{"internalType":"uint256","name":"","type":"uint256"}],"stateMutability":"view","type":"function"},{"inputs":[],"name":"refund","outputs":[],"stateMutability":"nonpayable","type":"function"},{"inputs":[],"name":"reservePrice","outputs":[{"internalType":"uint256","name":"","type":"uint256"}],"stateMutability":"view","type":"function"},{"inputs":[],"name":"seller","outputs":[{"internalType":"address payable","name":"","type":"address"}],"stateMutability":"view","type":"function"},{"inputs":[],"name":"withdrawRefund","outputs":[],"stateMutability":"nonpayable","type":"function"}],"evm":{"bytecode":{"linkReferences":{},"object":"60806040523480156200001157600080fd5b5060405162002783380380620027838339818101604052810190620000379190620005d0565b6200006b7fa6b0e31d7ad43029c60fd660807fa9c9bda516145827b85da0167262948a8b0a60001b6200058d60201b60201c565b6200009f7fbdf0182a03acd3094b1547c0d0652aee84cd7007880ec2a1fab147348279d05d60001b6200058d60201b60201c565b620000d37fcf83eb22532f266da04781213c027aeeabe4efff01769e026677787763c8860760001b6200058d60201b60201c565b336000806101000a81548173ffffffffffffffffffffffffffffffffffffffff021916908373ffffffffffffffffffffffffffffffffffffffff160217905550620001477f34d5bbc89d760d57bee398305409a5cf37395b4463d29da5296d577f970eb0e460001b6200058d60201b60201c565b6200017b7f30ba85864f126d5caeaed92d7732fe4ae197b05ad2c5d95cf1c6a428a06e46dc60001b6200058d60201b60201c565b82600181905550620001b67f01c90fae1a15f9d76352f7f02c69972708a3408ca6be616f36afbaaaffd872c460001b6200058d60201b60201c565b620001ea7f15aaa3b25629b4ae8d58134a378f82791be7e805f341cfc2cf9e7501211abf6360001b6200058d60201b60201c565b81600281905550620002257fd02eee3f44070f15cea9158f53e4e159f6dd546cd7f24e8b63f896b77896065c60001b6200058d60201b60201c565b620002597f734942b4e2120264430f831a2f2aaab34d195a46b9ecb447433df6d478987e9e60001b6200058d60201b60201c565b80600381905550620002947fd9803d3b3f5dd1c637b89e1a127859606abe6eedf6d92669251bddb3502dffc360001b6200058d60201b60201c565b620002c87fbe22f1935b33ec7acb3b775470f7608ea5e310405266ca1eaef47c37729b2e0360001b6200058d60201b60201c565b6000600354600254620002dc91906200065b565b9050620003127f83a3ab173f0051f76f2e4daa51538a22fecc37b7a9b43affae6b9f7bc76b0db360001b6200058d60201b60201c565b620003467febf5e74278d1d2db7a32346532a63d8db951585d12030469967b4ec351b0d0be60001b6200058d60201b60201c565b6200037a7f1fb0c09b093d80bdb7772e52cde7aec073705718659488fae3422d641b111a2a60001b6200058d60201b60201c565b600154811115620003c2576040517f08c379a0000000000000000000000000000000000000000000000000000000008152600401620003b99062000707565b60405180910390fd5b620003f67f15a1d2eadf966615101dd33eb3039da4cbf8ebb584fb01cfaffaf63c5fab79ba60001b6200058d60201b60201c565b6200042a7f8f3977092c3970b2f5933d3a2ff0f07101b3c8bfa14d61ad00b6d635c41eaca460001b6200058d60201b60201c565b6200045e7ffed1c838928cdded005695d60c02a62471efa4033d0975349e49793d2661cea860001b6200058d60201b60201c565b806001546200046e919062000729565b600481905550620004a87fabd6c2b8bff72635966135027f2e87ebfb131e3344ed2beeb8ffca500122e95060001b6200058d60201b60201c565b620004dc7f02d8d7a6aaa99c19e9bffb038d998e237ffb6c1e8cab8c67cf589343a04b849360001b6200058d60201b60201c565b600f600254620004ed91906200065b565b42620004fa919062000764565b600581905550620005347f31c3b2cffabfb62618003d65ce5d575ddb864bfb02edec48e4b45f1b84faee6b60001b6200058d60201b60201c565b620005687fdfbd37e8e0201349a4b34123d08632022f6732bfc4653371474141b68211d9b560001b6200058d60201b60201c565b6000600660006101000a81548160ff021916908315150217905550505050506200079f565b50565b600080fd5b6000819050919050565b620005aa8162000595565b8114620005b657600080fd5b50565b600081519050620005ca816200059f565b92915050565b600080600060608486031215620005ec57620005eb62000590565b5b6000620005fc86828701620005b9565b93505060206200060f86828701620005b9565b92505060406200062286828701620005b9565b9150509250925092565b7f4e487b7100000000000000000000000000000000000000000000000000000000600052601160045260246000fd5b6000620006688262000595565b9150620006758362000595565b9250828202620006858162000595565b915082820484148315176200069f576200069e6200062c565b5b5092915050565b600082825260208201905092915050565b7f496e76616c69642061756374696f6e20706172616d65746572732e0000000000600082015250565b6000620006ef601b83620006a6565b9150620006fc82620006b7565b602082019050919050565b600060208201905081810360008301526200072281620006e0565b9050919050565b6000620007368262000595565b9150620007438362000595565b92508282039050818111156200075e576200075d6200062c565b5b92915050565b6000620007718262000595565b91506200077e8362000595565b92508282019050808211156200079957620007986200062c565b5b92915050565b611fd480620007af6000396000f3fe6080604052600436106100c25760003560e01c8063590e1ae31161007f578063d3642a8811610059578063d3642a8814610201578063d57bde791461022c578063db2e1eed14610257578063fe67a54b14610282576100c2565b8063590e1ae31461019457806386433374146101ab57806391f90157146101d6576100c2565b806308551a53146100c7578063110f8874146100f25780631998aeef146101095780631d0806ae146101135780633103ea621461013e5780634b449cba14610169575b600080fd5b3480156100d357600080fd5b506100dc610299565b6040516100e99190611996565b60405180910390f35b3480156100fe57600080fd5b506101076102bd565b005b610111610886565b005b34801561011f57600080fd5b50610128610f67565b60405161013591906119ca565b60405180910390f35b34801561014a57600080fd5b50610153610f6d565b60405161016091906119ca565b60405180910390f35b34801561017557600080fd5b5061017e610f73565b60405161018b91906119ca565b60405180910390f35b3480156101a057600080fd5b506101a9610f79565b005b3480156101b757600080fd5b506101c06114a4565b6040516101cd9190611a00565b60405180910390f35b3480156101e257600080fd5b506101eb6114b7565b6040516101f89190611a3c565b60405180910390f35b34801561020d57600080fd5b506102166114dd565b60405161022391906119ca565b60405180910390f35b34801561023857600080fd5b506102416114e3565b60405161024e91906119ca565b60405180910390f35b34801561026357600080fd5b5061026c6114e9565b60405161027991906119ca565b60405180910390f35b34801561028e57600080fd5b506102976114ef565b005b60008054906101000a900473ffffffffffffffffffffffffffffffffffffffff1681565b6102e97f2b584d3071886734ffeec3a9b9790ae2825779ad9230e73f68d6e48223afbf8c60001b611952565b6103147ecc0fdc6e921be795b1b5d647122a50aedf02e2028f4795160e07b89800053d60001b611952565b6103407fdc03ed211127179a6994048bd4afefbd6bfcae9ee1801b8f35373ea8b9f570ef60001b611952565b61036c7f94dced6ad533ffbc856c928c70828a94f8c2729bec1fe74be372affe1750441160001b611952565b600660009054906101000a900460ff166103bb576040517f08c379a00000000000000000000000000000000000000000000000000000000081526004016103b290611ab4565b60405180910390fd5b6103e77fc70912ef7b96ec7566d2a57f22fb8d0305eaaf4c68a6f352f2a1e2e35d5da37d60001b611952565b6104137fe7328961840bc2de641dbe5f14d06d06727f835dff5aa2ca8fb9b64100d757a460001b611952565b61043f7f7e9c95f618f32d037bf06fc4774cf8484793a605144f51ad238e30228dbf070160001b611952565b61046b7f6def551250c192217518befc374df7540c837403028d27fb8b19d20dc87ca59360001b611952565b600660019054906101000a900473ffffffffffffffffffffffffffffffffffffffff1673ffffffffffffffffffffffffffffffffffffffff163373ffffffffffffffffffffffffffffffffffffffff16036104fb576040517f08c379a00000000000000000000000000000000000000000000000000000000081526004016104f290611b46565b60405180910390fd5b6105277f879646b2f17153e90b7339cd500184b9b3f8308ed0394f4e8420c3a81d53f3f060001b611952565b6105537f5f70406991f01670c132e3cb26aa5ead57d3a8b0c5a7a2c92b8a02d17ec2f57960001b611952565b61057f7f4dc10e5139e568ebce837464ab975853e7e1f5395372d21e75d5cfa83cc9fd7760001b611952565b6000600860003373ffffffffffffffffffffffffffffffffffffffff1673ffffffffffffffffffffffffffffffffffffffff1681526020019081526020016000205490506105ef7f91a24d39c0eb4d0d233cdc0e81386e56be74f0fd9b81c42dc9bc5a3c1f6cc69c60001b611952565b61061b7fcb4f31cc334f3102e588f9cfba05f4b230bf696dd2984264a73a83908283bf0d60001b611952565b6106477fc1599f1b62d2a8845413ace77657c8e0dc4121b27578dfabd74c64f2c6463a6460001b611952565b6000811161068a576040517f08c379a000000000000000000000000000000000000000000000000000000000815260040161068190611bb2565b60405180910390fd5b6106b67f3f50eb9f4d76baadddc2253f3e10d935ac8c9a4aa7e6fe44adaad3c6889f0d4860001b611952565b6106e27f9fe02d3902f19fbe1ccad3d9353fa47708139d323b45838c717e11aa8bf7011e60001b611952565b61070e7f3bb367229d4d8172db449b36ff3672188fe67aa95374b8a44120f7f8d3cc343d60001b611952565b6000600860003373ffffffffffffffffffffffffffffffffffffffff1673ffffffffffffffffffffffffffffffffffffffff1681526020019081526020016000208190555061077f7ff42403656c209d8379a04355cd59f3823a0926e91f403f50a175e77530f8dc5d60001b611952565b6107ab7f2d70e0f5ff57792296a890b8d972db0e423728b91042b4b90c30c390141d5ade60001b611952565b3373ffffffffffffffffffffffffffffffffffffffff166108fc829081150290604051600060405180830381858888f193505050501580156107f1573d6000803e3d6000fd5b5061081e7fa1e0d17456ee97640b919fea7e95e672d16230fa2d586f915797d8dd9a07b8f860001b611952565b61084a7f2a469a19fea8b595c5c8acd1e8a1d0008cffc228db2f74ee4ffcfd2abf96e6c460001b611952565b7ff9922a0c01ab47885e389a38642ab35c02f97cc09d44c58de533ec24cd178a33338260405161087b929190611bd2565b60405180910390a150565b6108b27fdec264dac6b1349d9b709b4f1d7abfaa5b279780bf44172356aa417347f3fb5260001b611952565b6108de7fee825acc8ad2153815ce641a8b85fc82f2cfbbf46b700f47701fbf039fecdc5a60001b611952565b61090a7f59b0a80462a9b970d9f3b7a85ba0255714717a52cd2d24ec08ad6d5603cc817860001b611952565b6109367f2f2adffd430f38c8ab3fcc1780602f5a28f11860d682f258d032dfd5f0012ea660001b611952565b600660009054906101000a900460ff1615610986576040517f08c379a000000000000000000000000000000000000000000000000000000000815260040161097d90611c47565b60405180910390fd5b6109b27fa2850811168b4581a7ee0ef92d8d6af86fa9f41ea9ba98b546f5d73f07c0d29c60001b611952565b6109de7f8938a9a69b5eebbed308768dce92304b6c103c5edbdc96dd9f63b61bf8429a6b60001b611952565b610a0a7f77077ae9fcc77d5cc0e98b892772fc6dd9f3d9d52532d7d76633cdb8cfbc686e60001b611952565b610a367ff664d1ded7b055ac657638809c4e4a0203bcf3a013868d383b9dcfec3976135d60001b611952565b6005544210610a7a576040517f08c379a0000000000000000000000000000000000000000000000000000000008152600401610a7190611cb3565b60405180910390fd5b610aa67fd56c48e86a89fe5ea8236d37a223f4372a43db10204f178b483460de57f80cae60001b611952565b610ad27f23a173d7b8292d9bc6db6d73b38778d98536171d4ece8d9a7198384ca63ec00660001b611952565b610afe7fdff035fe6659d2d124848a0157e8711abbde6687e6e38fea46f4037e8205e75860001b611952565b610b2a7f058ebcdc435b27ca4f9ffdc59c507217997028ebe05af207e2e18ca7a5ddb1eb60001b611952565b6007543411610b6e576040517f08c379a0000000000000000000000000000000000000000000000000000000008152600401610b6590611d1f565b60405180910390fd5b610b9a7ffc8dc7a0ca820a33dfee85959fd0e4d5d42468f36e199f25043519ebbf98fcf560001b611952565b610bc67fd0f5b1cd7067cf2754524c0c95a16ac243536f8044f6cf9e9e867c80f79195a560001b611952565b610bf27f3e6efbff11c2f52b543fa3b8466d788ba69f432406f8da263549191ab555a9b560001b611952565b610c1e7f70ff917fd8dba1ed1181bb27e75dab5fd0bb798b87a50ff8bc7dcd50963537f060001b611952565b600154341015610c63576040517f08c379a0000000000000000000000000000000000000000000000000000000008152600401610c5a90611db1565b60405180910390fd5b610c8f7f3fb4b663056678627beecf0dc910eecb0f10efc1fbd98a356efb58007199bcb360001b611952565b610cbb7fc03903a07fa2a2d49dd2991a6507444c07f288a1740f05bef124dcdaaab0816360001b611952565b610ce77f7fa1e72bc0aa7aa7045dc341587149f1eb015f3206568f113470820b99d0574560001b611952565b600073ffffffffffffffffffffffffffffffffffffffff16600660019054906101000a900473ffffffffffffffffffffffffffffffffffffffff1673ffffffffffffffffffffffffffffffffffffffff1614610e4057610d697f0f3793d2228195c8d11710d77889f0a419f773678ec67261fd1c2f2a390cd79f60001b611952565b610d957fbdc3c813b6af29eb6086c3eae9bb1975cb9c5a90e464b82761eee55a322b88a460001b611952565b610dc17fd97cc11eab801ec1f40efcb6cdbacd591f435ea4625304428efdab3b7e6e9c1a60001b611952565b60075460086000600660019054906101000a900473ffffffffffffffffffffffffffffffffffffffff1673ffffffffffffffffffffffffffffffffffffffff1673ffffffffffffffffffffffffffffffffffffffff1681526020019081526020016000206000828254610e349190611e00565b92505081905550610e6d565b610e6c7f7d64df3ed71a0484840ef159bf0a90358424ef2ea4d323b23270514e088ce7ba60001b611952565b5b610e997f2dca49dab9de463e86286e66fc722d324c09ca3b781a2ff48943d937258bdf5160001b611952565b610ec57f02ec55dec3afe7c940ffe3f5f3dafceb7b0175870eacbb785c290544fd2257c860001b611952565b33600660016101000a81548173ffffffffffffffffffffffffffffffffffffffff021916908373ffffffffffffffffffffffffffffffffffffffff160217905550610f327fcc9b72fa058535914495b42dfc93b53a49f8c0857bb327b1006d414b53e375a160001b611952565b610f5e7f218adebbaebfe611e1480c8e1e4a8568a57a5a5fef05305d81f5ac51f50b691c60001b611952565b34600781905550565b60045481565b60025481565b60055481565b610fa57f04b1de654f6c4db92a21687642191aac4409e90cb19b996be15cfa25a849819d60001b611952565b610fd17fdb63e66a6724192672f543201716ca377cffd2c4a8ca86ca0450bbed3d89eca860001b611952565b610ffd7f868df93ddce5cd7c2c2fe7d74e5b5cf629c69be54f07c298e764ee338035ce0b60001b611952565b6110297fe788645063cd9d6b2bf69838b6e0a17a52a652a8fa87a4d2153cd0133eb3a89260001b611952565b600660009054906101000a900460ff16611078576040517f08c379a000000000000000000000000000000000000000000000000000000000815260040161106f90611ab4565b60405180910390fd5b6110a47f8d6bbcf03fd034eed6fbd38ca4b54d40641e0d526706b936ac3280ec5b1244af60001b611952565b6110d07f6eb32b03aaa5402c6de52033823361295b2471b398bb243c56e1b65555d3014d60001b611952565b6110fc7f3fa12bd871dd4ffe389e411eb4ac5a038166dee82739a94e834cfa110be103fd60001b611952565b6111287fbe40b78a3e73bf5f79c43bea467e9f81c0535f2f4a3973461df7638cb4aa785b60001b611952565b600660019054906101000a900473ffffffffffffffffffffffffffffffffffffffff1673ffffffffffffffffffffffffffffffffffffffff163373ffffffffffffffffffffffffffffffffffffffff16036111b8576040517f08c379a00000000000000000000000000000000000000000000000000000000081526004016111af90611ea6565b60405180910390fd5b6111e47f16cd0104bfa6a10f8606af25c922a3085dbbebb783ad8e929adab2438db5e06360001b611952565b6112107fcc68918bb70cff75526e6f4e7e42f10d7cf84996f284ca8caa6e138438c4728660001b611952565b61123c7f9ed01000de1c287c6c9cbe5a6d575e60588c505fe0586f28bb01c28d3665320960001b611952565b6000600860003373ffffffffffffffffffffffffffffffffffffffff1673ffffffffffffffffffffffffffffffffffffffff1681526020019081526020016000205490506112ac7f5064f5b428b9f59a385f368cee83b1bdfe60f348c9a61393637526c0727bb12760001b611952565b6112d87f9d2cc3951a8ee81d859d5243be9619c86346a65a8d3b6361186ee6251ddc6d4760001b611952565b6113047ff50af5fb1c3dc52e86d175d8c31c57f66943f9c7779b8b61a779ec7d432cfc0b60001b611952565b60008111611347576040517f08c379a000000000000000000000000000000000000000000000000000000000815260040161133e90611f12565b60405180910390fd5b6113737fbc63fe9f63340be5d591bc561dafde9465ca4418799ae7c8b52a14d317588b1c60001b611952565b61139f7f53f942053b416721a66272c1572587221507ceb9e6b86ca0cc6c4b1918e9c9f660001b611952565b6113cb7f3e6ccffee274e9bfe5678d98699dcbff05dffd57062a5f47a1be38001623a6fd60001b611952565b6000600860003373ffffffffffffffffffffffffffffffffffffffff1673ffffffffffffffffffffffffffffffffffffffff1681526020019081526020016000208190555061143c7f954b0bc9a081be2817f317735caa34a58f00427fbdbf2ce870d7901d2d9c369060001b611952565b6114687f3cfcd718b528e9f5bc1e5f38982e472dccf685e80c371f0203345461441e8f4860001b611952565b7fbb28353e4598c3b9199101a66e0989549b659a59a54d2c27fbb183f1932c8e6d3382604051611499929190611bd2565b60405180910390a150565b600660009054906101000a900460ff1681565b600660019054906101000a900473ffffffffffffffffffffffffffffffffffffffff1681565b60035481565b60075481565b60015481565b61151b7f8c6f7dfeee267032b1957e2d0c03d899934ccbfb46dd1c12e84754cf1ff0b5f660001b611952565b6115477f19bd8f9e23e980b26a6d7e5665823b5f7489040468b68986912958787728efd460001b611952565b6115737f8a4da8820a2bccf08eb124fc396212f68a4809aeaa65d62d5b6df05770d1296760001b611952565b61159f7fc39375cd9cf1edf3d84e88ee51a58a9f720500cfefbe097c9d6ed3098de06c0c60001b611952565b600660009054906101000a900460ff16156115ef576040517f08c379a00000000000000000000000000000000000000000000000000000000081526004016115e690611c47565b60405180910390fd5b61161b7f9c4ee24990eca85f6f9d6926638e077b7ca76b577f7280416f5176f08260ca0460001b611952565b6116477f4fb26aff184633ac002035d55d33367201adf217506f8f9720f2ad109354d55360001b611952565b6116737f3702527419079f047bb8fa66949df58eab47ec1d810ab6000ef852dc489fdf0860001b611952565b61169f7f1e5c18dc8d91855f7b3f9f562e2ae720f1799e2c464ed986e512b07b348f7a6160001b611952565b6005544210156116e4576040517f08c379a00000000000000000000000000000000000000000000000000000000081526004016116db90611f7e565b60405180910390fd5b6117107f73b6d05a7f37d906fe063e3e30d3acdcefd37495c43d7d9be449094a3f575c9160001b611952565b61173c7fe63b88181028c07066b322c5bd0588528e3e863f75979641f06cf50dbcb6050d60001b611952565b6117687fac48b160636f6f66f5d87f5f70f9be13c56526d9492d8408a2f2f2f83119d8ff60001b611952565b6001600660006101000a81548160ff0219169083151502179055506117af7f3c8bfe07f8bc9246c63f7e77e0765c8866a522e1a9982aac9424028936f8f84d60001b611952565b6117db7fdb9ed8ea40187b7c282ee2e2905dce2b27dd430cb3a8294897d5bd13995c609f60001b611952565b600073ffffffffffffffffffffffffffffffffffffffff16600660019054906101000a900473ffffffffffffffffffffffffffffffffffffffff1673ffffffffffffffffffffffffffffffffffffffff16146119235761185d7fa1e6c60bf7b41aed48770dcb42971a936765702ba9b24d9e670f32e8d545f9fd60001b611952565b6118897f0cfbb5268ef10672f0ace135c4fe01d824e8462931841de6aeb997e04d316d4e60001b611952565b6118b57f3b399e067cc112a741a29b6ffc60e586056339977ef0b3625aea19f7a21b478d60001b611952565b60008054906101000a900473ffffffffffffffffffffffffffffffffffffffff1673ffffffffffffffffffffffffffffffffffffffff166108fc6007549081150290604051600060405180830381858888f1935050505015801561191d573d6000803e3d6000fd5b50611950565b61194f7f05ed7ba778fb868bef069bb9437f1925e5abd15c6b10dfe97ba9f8105e5a0e6e60001b611952565b5b565b50565b600073ffffffffffffffffffffffffffffffffffffffff82169050919050565b600061198082611955565b9050919050565b61199081611975565b82525050565b60006020820190506119ab6000830184611987565b92915050565b6000819050919050565b6119c4816119b1565b82525050565b60006020820190506119df60008301846119bb565b92915050565b60008115159050919050565b6119fa816119e5565b82525050565b6000602082019050611a1560008301846119f1565b92915050565b6000611a2682611955565b9050919050565b611a3681611a1b565b82525050565b6000602082019050611a516000830184611a2d565b92915050565b600082825260208201905092915050565b7f41756374696f6e20686173206e6f7420656e6465642e00000000000000000000600082015250565b6000611a9e601683611a57565b9150611aa982611a68565b602082019050919050565b60006020820190508181036000830152611acd81611a91565b9050919050565b7f57696e6e696e67206269646465722063616e6e6f74207769746864726177207260008201527f6566756e642e0000000000000000000000000000000000000000000000000000602082015250565b6000611b30602683611a57565b9150611b3b82611ad4565b604082019050919050565b60006020820190508181036000830152611b5f81611b23565b9050919050565b7f4e6f2066756e647320746f2077697468647261772e0000000000000000000000600082015250565b6000611b9c601583611a57565b9150611ba782611b66565b602082019050919050565b60006020820190508181036000830152611bcb81611b8f565b9050919050565b6000604082019050611be76000830185611a2d565b611bf460208301846119bb565b9392505050565b7f41756374696f6e2068617320616c726561647920656e6465642e000000000000600082015250565b6000611c31601a83611a57565b9150611c3c82611bfb565b602082019050919050565b60006020820190508181036000830152611c6081611c24565b9050919050565b7f41756374696f6e206973206e6f206c6f6e676572206f70656e2e000000000000600082015250565b6000611c9d601a83611a57565b9150611ca882611c67565b602082019050919050565b60006020820190508181036000830152611ccc81611c90565b9050919050565b7f546865726520697320616c7265616479206120686967686572206269642e0000600082015250565b6000611d09601e83611a57565b9150611d1482611cd3565b602082019050919050565b60006020820190508181036000830152611d3881611cfc565b9050919050565b7f42696420616d6f756e742069732062656c6f772074686520726573657276652060008201527f70726963652e0000000000000000000000000000000000000000000000000000602082015250565b6000611d9b602683611a57565b9150611da682611d3f565b604082019050919050565b60006020820190508181036000830152611dca81611d8e565b9050919050565b7f4e487b7100000000000000000000000000000000000000000000000000000000600052601160045260246000fd5b6000611e0b826119b1565b9150611e16836119b1565b9250828201905080821115611e2e57611e2d611dd1565b5b92915050565b7f596f752063616e6e6f7420726566756e64206173207468652077696e6e696e6760008201527f206269646465722e000000000000000000000000000000000000000000000000602082015250565b6000611e90602883611a57565b9150611e9b82611e34565b604082019050919050565b60006020820190508181036000830152611ebf81611e83565b9050919050565b7f4e6f2066756e647320746f20726566756e642e00000000000000000000000000600082015250565b6000611efc601383611a57565b9150611f0782611ec6565b602082019050919050565b60006020820190508181036000830152611f2b81611eef565b9050919050565b7f41756374696f6e206973207374696c6c206f70656e2e00000000000000000000600082015250565b6000611f68601683611a57565b9150611f7382611f32565b602082019050919050565b60006020820190508181036000830152611f9781611f5b565b905091905056fea2646970667358221220e8cd2b74aaf875e6388970ec85532b9f95f596697bc60a0eef85e4a1e2f6969964736f6c63430008120033","opcodes":"PUSH1 0x80 PUSH1 0x40 MSTORE CALLVALUE DUP1 ISZERO PUSH3 0x11 JUMPI PUSH1 0x0 DUP1 REVERT JUMPDEST POP PUSH1 0x40 MLOAD PUSH3 0x2783 CODESIZE SUB DUP1 PUSH3 0x2783 DUP4 CODECOPY DUP2 DUP2 ADD PUSH1 0x40 MSTORE DUP2 ADD SWAP1 PUSH3 0x37 SWAP2 SWAP1 PUSH3 0x5D0 JUMP JUMPDEST PUSH3 0x6B PUSH32 0xA6B0E31D7AD43029C60FD660807FA9C9BDA516145827B85DA0167262948A8B0A PUSH1 0x0 SHL PUSH3 0x58D PUSH1 0x20 SHL PUSH1 0x20 SHR JUMP JUMPDEST PUSH3 0x9F PUSH32 0xBDF0182A03ACD3094B1547C0D0652AEE84CD7007880EC2A1FAB147348279D05D PUSH1 0x0 SHL PUSH3 0x58D PUSH1 0x20 SHL PUSH1 0x20 SHR JUMP JUMPDEST PUSH3 0xD3 PUSH32 0xCF83EB22532F266DA04781213C027AEEABE4EFFF01769E026677787763C88607 PUSH1 0x0 SHL PUSH3 0x58D PUSH1 0x20 SHL PUSH1 0x20 SHR JUMP JUMPDEST CALLER PUSH1 0x0 DUP1 PUSH2 0x100 EXP DUP2 SLOAD DUP2 PUSH20 0xFFFFFFFFFFFFFFFFFFFFFFFFFFFFFFFFFFFFFFFF MUL NOT AND SWAP1 DUP4 PUSH20 0xFFFFFFFFFFFFFFFFFFFFFFFFFFFFFFFFFFFFFFFF AND MUL OR SWAP1 SSTORE POP PUSH3 0x147 PUSH32 0x34D5BBC89D760D57BEE398305409A5CF37395B4463D29DA5296D577F970EB0E4 PUSH1 0x0 SHL PUSH3 0x58D PUSH1 0x20 SHL PUSH1 0x20 SHR JUMP JUMPDEST PUSH3 0x17B PUSH32 0x30BA85864F126D5CAEAED92D7732FE4AE197B05AD2C5D95CF1C6A428A06E46DC PUSH1 0x0 SHL PUSH3 0x58D PUSH1 0x20 SHL PUSH1 0x20 SHR JUMP JUMPDEST DUP3 PUSH1 0x1 DUP2 SWAP1 SSTORE POP PUSH3 0x1B6 PUSH32 0x1C90FAE1A15F9D76352F7F02C69972708A3408CA6BE616F36AFBAAAFFD872C4 PUSH1 0x0 SHL PUSH3 0x58D PUSH1 0x20 SHL PUSH1 0x20 SHR JUMP JUMPDEST PUSH3 0x1EA PUSH32 0x15AAA3B25629B4AE8D58134A378F82791BE7E805F341CFC2CF9E7501211ABF63 PUSH1 0x0 SHL PUSH3 0x58D PUSH1 0x20 SHL PUSH1 0x20 SHR JUMP JUMPDEST DUP2 PUSH1 0x2 DUP2 SWAP1 SSTORE POP PUSH3 0x225 PUSH32 0xD02EEE3F44070F15CEA9158F53E4E159F6DD546CD7F24E8B63F896B77896065C PUSH1 0x0 SHL PUSH3 0x58D PUSH1 0x20 SHL PUSH1 0x20 SHR JUMP JUMPDEST PUSH3 0x259 PUSH32 0x734942B4E2120264430F831A2F2AAAB34D195A46B9ECB447433DF6D478987E9E PUSH1 0x0 SHL PUSH3 0x58D PUSH1 0x20 SHL PUSH1 0x20 SHR JUMP JUMPDEST DUP1 PUSH1 0x3 DUP2 SWAP1 SSTORE POP PUSH3 0x294 PUSH32 0xD9803D3B3F5DD1C637B89E1A127859606ABE6EEDF6D92669251BDDB3502DFFC3 PUSH1 0x0 SHL PUSH3 0x58D PUSH1 0x20 SHL PUSH1 0x20 SHR JUMP JUMPDEST PUSH3 0x2C8 PUSH32 0xBE22F1935B33EC7ACB3B775470F7608EA5E310405266CA1EAEF47C37729B2E03 PUSH1 0x0 SHL PUSH3 0x58D PUSH1 0x20 SHL PUSH1 0x20 SHR JUMP JUMPDEST PUSH1 0x0 PUSH1 0x3 SLOAD PUSH1 0x2 SLOAD PUSH3 0x2DC SWAP2 SWAP1 PUSH3 0x65B JUMP JUMPDEST SWAP1 POP PUSH3 0x312 PUSH32 0x83A3AB173F0051F76F2E4DAA51538A22FECC37B7A9B43AFFAE6B9F7BC76B0DB3 PUSH1 0x0 SHL PUSH3 0x58D PUSH1 0x20 SHL PUSH1 0x20 SHR JUMP JUMPDEST PUSH3 0x346 PUSH32 0xEBF5E74278D1D2DB7A32346532A63D8DB951585D12030469967B4EC351B0D0BE PUSH1 0x0 SHL PUSH3 0x58D PUSH1 0x20 SHL PUSH1 0x20 SHR JUMP JUMPDEST PUSH3 0x37A PUSH32 0x1FB0C09B093D80BDB7772E52CDE7AEC073705718659488FAE3422D641B111A2A PUSH1 0x0 SHL PUSH3 0x58D PUSH1 0x20 SHL PUSH1 0x20 SHR JUMP JUMPDEST PUSH1 0x1 SLOAD DUP2 GT ISZERO PUSH3 0x3C2 JUMPI PUSH1 0x40 MLOAD PUSH32 0x8C379A000000000000000000000000000000000000000000000000000000000 DUP2 MSTORE PUSH1 0x4 ADD PUSH3 0x3B9 SWAP1 PUSH3 0x707 JUMP JUMPDEST PUSH1 0x40 MLOAD DUP1 SWAP2 SUB SWAP1 REVERT JUMPDEST PUSH3 0x3F6 PUSH32 0x15A1D2EADF966615101DD33EB3039DA4CBF8EBB584FB01CFAFFAF63C5FAB79BA PUSH1 0x0 SHL PUSH3 0x58D PUSH1 0x20 SHL PUSH1 0x20 SHR JUMP JUMPDEST PUSH3 0x42A PUSH32 0x8F3977092C3970B2F5933D3A2FF0F07101B3C8BFA14D61AD00B6D635C41EACA4 PUSH1 0x0 SHL PUSH3 0x58D PUSH1 0x20 SHL PUSH1 0x20 SHR JUMP JUMPDEST PUSH3 0x45E PUSH32 0xFED1C838928CDDED005695D60C02A62471EFA4033D0975349E49793D2661CEA8 PUSH1 0x0 SHL PUSH3 0x58D PUSH1 0x20 SHL PUSH1 0x20 SHR JUMP JUMPDEST DUP1 PUSH1 0x1 SLOAD PUSH3 0x46E SWAP2 SWAP1 PUSH3 0x729 JUMP JUMPDEST PUSH1 0x4 DUP2 SWAP1 SSTORE POP PUSH3 0x4A8 PUSH32 0xABD6C2B8BFF72635966135027F2E87EBFB131E3344ED2BEEB8FFCA500122E950 PUSH1 0x0 SHL PUSH3 0x58D PUSH1 0x20 SHL PUSH1 0x20 SHR JUMP JUMPDEST PUSH3 0x4DC PUSH32 0x2D8D7A6AAA99C19E9BFFB038D998E237FFB6C1E8CAB8C67CF589343A04B8493 PUSH1 0x0 SHL PUSH3 0x58D PUSH1 0x20 SHL PUSH1 0x20 SHR JUMP JUMPDEST PUSH1 0xF PUSH1 0x2 SLOAD PUSH3 0x4ED SWAP2 SWAP1 PUSH3 0x65B JUMP JUMPDEST TIMESTAMP PUSH3 0x4FA SWAP2 SWAP1 PUSH3 0x764 JUMP JUMPDEST PUSH1 0x5 DUP2 SWAP1 SSTORE POP PUSH3 0x534 PUSH32 0x31C3B2CFFABFB62618003D65CE5D575DDB864BFB02EDEC48E4B45F1B84FAEE6B PUSH1 0x0 SHL PUSH3 0x58D PUSH1 0x20 SHL PUSH1 0x20 SHR JUMP JUMPDEST PUSH3 0x568 PUSH32 0xDFBD37E8E0201349A4B34123D08632022F6732BFC4653371474141B68211D9B5 PUSH1 0x0 SHL PUSH3 0x58D PUSH1 0x20 SHL PUSH1 0x20 SHR JUMP JUMPDEST PUSH1 0x0 PUSH1 0x6 PUSH1 0x0 PUSH2 0x100 EXP DUP2 SLOAD DUP2 PUSH1 0xFF MUL NOT AND SWAP1 DUP4 ISZERO ISZERO MUL OR SWAP1 SSTORE POP POP POP POP POP PUSH3 0x79F JUMP JUMPDEST POP JUMP JUMPDEST PUSH1 0x0 DUP1 REVERT JUMPDEST PUSH1 0x0 DUP2 SWAP1 POP SWAP2 SWAP1 POP JUMP JUMPDEST PUSH3 0x5AA DUP2 PUSH3 0x595 JUMP JUMPDEST DUP2 EQ PUSH3 0x5B6 JUMPI PUSH1 0x0 DUP1 REVERT JUMPDEST POP JUMP JUMPDEST PUSH1 0x0 DUP2 MLOAD SWAP1 POP PUSH3 0x5CA DUP2 PUSH3 0x59F JUMP JUMPDEST SWAP3 SWAP2 POP POP JUMP JUMPDEST PUSH1 0x0 DUP1 PUSH1 0x0 PUSH1 0x60 DUP5 DUP7 SUB SLT ISZERO PUSH3 0x5EC JUMPI PUSH3 0x5EB PUSH3 0x590 JUMP JUMPDEST JUMPDEST PUSH1 0x0 PUSH3 0x5FC DUP7 DUP3 DUP8 ADD PUSH3 0x5B9 JUMP JUMPDEST SWAP4 POP POP PUSH1 0x20 PUSH3 0x60F DUP7 DUP3 DUP8 ADD PUSH3 0x5B9 JUMP JUMPDEST SWAP3 POP POP PUSH1 0x40 PUSH3 0x622 DUP7 DUP3 DUP8 ADD PUSH3 0x5B9 JUMP JUMPDEST SWAP2 POP POP SWAP3 POP SWAP3 POP SWAP3 JUMP JUMPDEST PUSH32 0x4E487B7100000000000000000000000000000000000000000000000000000000 PUSH1 0x0 MSTORE PUSH1 0x11 PUSH1 0x4 MSTORE PUSH1 0x24 PUSH1 0x0 REVERT JUMPDEST PUSH1 0x0 PUSH3 0x668 DUP3 PUSH3 0x595 JUMP JUMPDEST SWAP2 POP PUSH3 0x675 DUP4 PUSH3 0x595 JUMP JUMPDEST SWAP3 POP DUP3 DUP3 MUL PUSH3 0x685 DUP2 PUSH3 0x595 JUMP JUMPDEST SWAP2 POP DUP3 DUP3 DIV DUP5 EQ DUP4 ISZERO OR PUSH3 0x69F JUMPI PUSH3 0x69E PUSH3 0x62C JUMP JUMPDEST JUMPDEST POP SWAP3 SWAP2 POP POP JUMP JUMPDEST PUSH1 0x0 DUP3 DUP3 MSTORE PUSH1 0x20 DUP3 ADD SWAP1 POP SWAP3 SWAP2 POP POP JUMP JUMPDEST PUSH32 0x496E76616C69642061756374696F6E20706172616D65746572732E0000000000 PUSH1 0x0 DUP3 ADD MSTORE POP JUMP JUMPDEST PUSH1 0x0 PUSH3 0x6EF PUSH1 0x1B DUP4 PUSH3 0x6A6 JUMP JUMPDEST SWAP2 POP PUSH3 0x6FC DUP3 PUSH3 0x6B7 JUMP JUMPDEST PUSH1 0x20 DUP3 ADD SWAP1 POP SWAP2 SWAP1 POP JUMP JUMPDEST PUSH1 0x0 PUSH1 0x20 DUP3 ADD SWAP1 POP DUP2 DUP2 SUB PUSH1 0x0 DUP4 ADD MSTORE PUSH3 0x722 DUP2 PUSH3 0x6E0 JUMP JUMPDEST SWAP1 POP SWAP2 SWAP1 POP JUMP JUMPDEST PUSH1 0x0 PUSH3 0x736 DUP3 PUSH3 0x595 JUMP JUMPDEST SWAP2 POP PUSH3 0x743 DUP4 PUSH3 0x595 JUMP JUMPDEST SWAP3 POP DUP3 DUP3 SUB SWAP1 POP DUP2 DUP2 GT ISZERO PUSH3 0x75E JUMPI PUSH3 0x75D PUSH3 0x62C JUMP JUMPDEST JUMPDEST SWAP3 SWAP2 POP POP JUMP JUMPDEST PUSH1 0x0 PUSH3 0x771 DUP3 PUSH3 0x595 JUMP JUMPDEST SWAP2 POP PUSH3 0x77E DUP4 PUSH3 0x595 JUMP JUMPDEST SWAP3 POP DUP3 DUP3 ADD SWAP1 POP DUP1 DUP3 GT ISZERO PUSH3 0x799 JUMPI PUSH3 0x798 PUSH3 0x62C JUMP JUMPDEST JUMPDEST SWAP3 SWAP2 POP POP JUMP JUMPDEST PUSH2 0x1FD4 DUP1 PUSH3 0x7AF PUSH1 0x0 CODECOPY PUSH1 0x0 RETURN INVALID PUSH1 0x80 PUSH1 0x40 MSTORE PUSH1 0x4 CALLDATASIZE LT PUSH2 0xC2 JUMPI PUSH1 0x0 CALLDATALOAD PUSH1 0xE0 SHR DUP1 PUSH4 0x590E1AE3 GT PUSH2 0x7F JUMPI DUP1 PUSH4 0xD3642A88 GT PUSH2 0x59 JUMPI DUP1 PUSH4 0xD3642A88 EQ PUSH2 0x201 JUMPI DUP1 PUSH4 0xD57BDE79 EQ PUSH2 0x22C JUMPI DUP1 PUSH4 0xDB2E1EED EQ PUSH2 0x257 JUMPI DUP1 PUSH4 0xFE67A54B EQ PUSH2 0x282 JUMPI PUSH2 0xC2 JUMP JUMPDEST DUP1 PUSH4 0x590E1AE3 EQ PUSH2 0x194 JUMPI DUP1 PUSH4 0x86433374 EQ PUSH2 0x1AB JUMPI DUP1 PUSH4 0x91F90157 EQ PUSH2 0x1D6 JUMPI PUSH2 0xC2 JUMP JUMPDEST DUP1 PUSH4 0x8551A53 EQ PUSH2 0xC7 JUMPI DUP1 PUSH4 0x110F8874 EQ PUSH2 0xF2 JUMPI DUP1 PUSH4 0x1998AEEF EQ PUSH2 0x109 JUMPI DUP1 PUSH4 0x1D0806AE EQ PUSH2 0x113 JUMPI DUP1 PUSH4 0x3103EA62 EQ PUSH2 0x13E JUMPI DUP1 PUSH4 0x4B449CBA EQ PUSH2 0x169 JUMPI JUMPDEST PUSH1 0x0 DUP1 REVERT JUMPDEST CALLVALUE DUP1 ISZERO PUSH2 0xD3 JUMPI PUSH1 0x0 DUP1 REVERT JUMPDEST POP PUSH2 0xDC PUSH2 0x299 JUMP JUMPDEST PUSH1 0x40 MLOAD PUSH2 0xE9 SWAP2 SWAP1 PUSH2 0x1996 JUMP JUMPDEST PUSH1 0x40 MLOAD DUP1 SWAP2 SUB SWAP1 RETURN JUMPDEST CALLVALUE DUP1 ISZERO PUSH2 0xFE JUMPI PUSH1 0x0 DUP1 REVERT JUMPDEST POP PUSH2 0x107 PUSH2 0x2BD JUMP JUMPDEST STOP JUMPDEST PUSH2 0x111 PUSH2 0x886 JUMP JUMPDEST STOP JUMPDEST CALLVALUE DUP1 ISZERO PUSH2 0x11F JUMPI PUSH1 0x0 DUP1 REVERT JUMPDEST POP PUSH2 0x128 PUSH2 0xF67 JUMP JUMPDEST PUSH1 0x40 MLOAD PUSH2 0x135 SWAP2 SWAP1 PUSH2 0x19CA JUMP JUMPDEST PUSH1 0x40 MLOAD DUP1 SWAP2 SUB SWAP1 RETURN JUMPDEST CALLVALUE DUP1 ISZERO PUSH2 0x14A JUMPI PUSH1 0x0 DUP1 REVERT JUMPDEST POP PUSH2 0x153 PUSH2 0xF6D JUMP JUMPDEST PUSH1 0x40 MLOAD PUSH2 0x160 SWAP2 SWAP1 PUSH2 0x19CA JUMP JUMPDEST PUSH1 0x40 MLOAD DUP1 SWAP2 SUB SWAP1 RETURN JUMPDEST CALLVALUE DUP1 ISZERO PUSH2 0x175 JUMPI PUSH1 0x0 DUP1 REVERT JUMPDEST POP PUSH2 0x17E PUSH2 0xF73 JUMP JUMPDEST PUSH1 0x40 MLOAD PUSH2 0x18B SWAP2 SWAP1 PUSH2 0x19CA JUMP JUMPDEST PUSH1 0x40 MLOAD DUP1 SWAP2 SUB SWAP1 RETURN JUMPDEST CALLVALUE DUP1 ISZERO PUSH2 0x1A0 JUMPI PUSH1 0x0 DUP1 REVERT JUMPDEST POP PUSH2 0x1A9 PUSH2 0xF79 JUMP JUMPDEST STOP JUMPDEST CALLVALUE DUP1 ISZERO PUSH2 0x1B7 JUMPI PUSH1 0x0 DUP1 REVERT JUMPDEST POP PUSH2 0x1C0 PUSH2 0x14A4 JUMP JUMPDEST PUSH1 0x40 MLOAD PUSH2 0x1CD SWAP2 SWAP1 PUSH2 0x1A00 JUMP JUMPDEST PUSH1 0x40 MLOAD DUP1 SWAP2 SUB SWAP1 RETURN JUMPDEST CALLVALUE DUP1 ISZERO PUSH2 0x1E2 JUMPI PUSH1 0x0 DUP1 REVERT JUMPDEST POP PUSH2 0x1EB PUSH2 0x14B7 JUMP JUMPDEST PUSH1 0x40 MLOAD PUSH2 0x1F8 SWAP2 SWAP1 PUSH2 0x1A3C JUMP JUMPDEST PUSH1 0x40 MLOAD DUP1 SWAP2 SUB SWAP1 RETURN JUMPDEST CALLVALUE DUP1 ISZERO PUSH2 0x20D JUMPI PUSH1 0x0 DUP1 REVERT JUMPDEST POP PUSH2 0x216 PUSH2 0x14DD JUMP JUMPDEST PUSH1 0x40 MLOAD PUSH2 0x223 SWAP2 SWAP1 PUSH2 0x19CA JUMP JUMPDEST PUSH1 0x40 MLOAD DUP1 SWAP2 SUB SWAP1 RETURN JUMPDEST CALLVALUE DUP1 ISZERO PUSH2 0x238 JUMPI PUSH1 0x0 DUP1 REVERT JUMPDEST POP PUSH2 0x241 PUSH2 0x14E3 JUMP JUMPDEST PUSH1 0x40 MLOAD PUSH2 0x24E SWAP2 SWAP1 PUSH2 0x19CA JUMP JUMPDEST PUSH1 0x40 MLOAD DUP1 SWAP2 SUB SWAP1 RETURN JUMPDEST CALLVALUE DUP1 ISZERO PUSH2 0x263 JUMPI PUSH1 0x0 DUP1 REVERT JUMPDEST POP PUSH2 0x26C PUSH2 0x14E9 JUMP JUMPDEST PUSH1 0x40 MLOAD PUSH2 0x279 SWAP2 SWAP1 PUSH2 0x19CA JUMP JUMPDEST PUSH1 0x40 MLOAD DUP1 SWAP2 SUB SWAP1 RETURN JUMPDEST CALLVALUE DUP1 ISZERO PUSH2 0x28E JUMPI PUSH1 0x0 DUP1 REVERT JUMPDEST POP PUSH2 0x297 PUSH2 0x14EF JUMP JUMPDEST STOP JUMPDEST PUSH1 0x0 DUP1 SLOAD SWAP1 PUSH2 0x100 EXP SWAP1 DIV PUSH20 0xFFFFFFFFFFFFFFFFFFFFFFFFFFFFFFFFFFFFFFFF AND DUP2 JUMP JUMPDEST PUSH2 0x2E9 PUSH32 0x2B584D3071886734FFEEC3A9B9790AE2825779AD9230E73F68D6E48223AFBF8C PUSH1 0x0 SHL PUSH2 0x1952 JUMP JUMPDEST PUSH2 0x314 PUSH31 0xCC0FDC6E921BE795B1B5D647122A50AEDF02E2028F4795160E07B89800053D PUSH1 0x0 SHL PUSH2 0x1952 JUMP JUMPDEST PUSH2 0x340 PUSH32 0xDC03ED211127179A6994048BD4AFEFBD6BFCAE9EE1801B8F35373EA8B9F570EF PUSH1 0x0 SHL PUSH2 0x1952 JUMP JUMPDEST PUSH2 0x36C PUSH32 0x94DCED6AD533FFBC856C928C70828A94F8C2729BEC1FE74BE372AFFE17504411 PUSH1 0x0 SHL PUSH2 0x1952 JUMP JUMPDEST PUSH1 0x6 PUSH1 0x0 SWAP1 SLOAD SWAP1 PUSH2 0x100 EXP SWAP1 DIV PUSH1 0xFF AND PUSH2 0x3BB JUMPI PUSH1 0x40 MLOAD PUSH32 0x8C379A000000000000000000000000000000000000000000000000000000000 DUP2 MSTORE PUSH1 0x4 ADD PUSH2 0x3B2 SWAP1 PUSH2 0x1AB4 JUMP JUMPDEST PUSH1 0x40 MLOAD DUP1 SWAP2 SUB SWAP1 REVERT JUMPDEST PUSH2 0x3E7 PUSH32 0xC70912EF7B96EC7566D2A57F22FB8D0305EAAF4C68A6F352F2A1E2E35D5DA37D PUSH1 0x0 SHL PUSH2 0x1952 JUMP JUMPDEST PUSH2 0x413 PUSH32 0xE7328961840BC2DE641DBE5F14D06D06727F835DFF5AA2CA8FB9B64100D757A4 PUSH1 0x0 SHL PUSH2 0x1952 JUMP JUMPDEST PUSH2 0x43F PUSH32 0x7E9C95F618F32D037BF06FC4774CF8484793A605144F51AD238E30228DBF0701 PUSH1 0x0 SHL PUSH2 0x1952 JUMP JUMPDEST PUSH2 0x46B PUSH32 0x6DEF551250C192217518BEFC374DF7540C837403028D27FB8B19D20DC87CA593 PUSH1 0x0 SHL PUSH2 0x1952 JUMP JUMPDEST PUSH1 0x6 PUSH1 0x1 SWAP1 SLOAD SWAP1 PUSH2 0x100 EXP SWAP1 DIV PUSH20 0xFFFFFFFFFFFFFFFFFFFFFFFFFFFFFFFFFFFFFFFF AND PUSH20 0xFFFFFFFFFFFFFFFFFFFFFFFFFFFFFFFFFFFFFFFF AND CALLER PUSH20 0xFFFFFFFFFFFFFFFFFFFFFFFFFFFFFFFFFFFFFFFF AND SUB PUSH2 0x4FB JUMPI PUSH1 0x40 MLOAD PUSH32 0x8C379A000000000000000000000000000000000000000000000000000000000 DUP2 MSTORE PUSH1 0x4 ADD PUSH2 0x4F2 SWAP1 PUSH2 0x1B46 JUMP JUMPDEST PUSH1 0x40 MLOAD DUP1 SWAP2 SUB SWAP1 REVERT JUMPDEST PUSH2 0x527 PUSH32 0x879646B2F17153E90B7339CD500184B9B3F8308ED0394F4E8420C3A81D53F3F0 PUSH1 0x0 SHL PUSH2 0x1952 JUMP JUMPDEST PUSH2 0x553 PUSH32 0x5F70406991F01670C132E3CB26AA5EAD57D3A8B0C5A7A2C92B8A02D17EC2F579 PUSH1 0x0 SHL PUSH2 0x1952 JUMP JUMPDEST PUSH2 0x57F PUSH32 0x4DC10E5139E568EBCE837464AB975853E7E1F5395372D21E75D5CFA83CC9FD77 PUSH1 0x0 SHL PUSH2 0x1952 JUMP JUMPDEST PUSH1 0x0 PUSH1 0x8 PUSH1 0x0 CALLER PUSH20 0xFFFFFFFFFFFFFFFFFFFFFFFFFFFFFFFFFFFFFFFF AND PUSH20 0xFFFFFFFFFFFFFFFFFFFFFFFFFFFFFFFFFFFFFFFF AND DUP2 MSTORE PUSH1 0x20 ADD SWAP1 DUP2 MSTORE PUSH1 0x20 ADD PUSH1 0x0 KECCAK256 SLOAD SWAP1 POP PUSH2 0x5EF PUSH32 0x91A24D39C0EB4D0D233CDC0E81386E56BE74F0FD9B81C42DC9BC5A3C1F6CC69C PUSH1 0x0 SHL PUSH2 0x1952 JUMP JUMPDEST PUSH2 0x61B PUSH32 0xCB4F31CC334F3102E588F9CFBA05F4B230BF696DD2984264A73A83908283BF0D PUSH1 0x0 SHL PUSH2 0x1952 JUMP JUMPDEST PUSH2 0x647 PUSH32 0xC1599F1B62D2A8845413ACE77657C8E0DC4121B27578DFABD74C64F2C6463A64 PUSH1 0x0 SHL PUSH2 0x1952 JUMP JUMPDEST PUSH1 0x0 DUP2 GT PUSH2 0x68A JUMPI PUSH1 0x40 MLOAD PUSH32 0x8C379A000000000000000000000000000000000000000000000000000000000 DUP2 MSTORE PUSH1 0x4 ADD PUSH2 0x681 SWAP1 PUSH2 0x1BB2 JUMP JUMPDEST PUSH1 0x40 MLOAD DUP1 SWAP2 SUB SWAP1 REVERT JUMPDEST PUSH2 0x6B6 PUSH32 0x3F50EB9F4D76BAADDDC2253F3E10D935AC8C9A4AA7E6FE44ADAAD3C6889F0D48 PUSH1 0x0 SHL PUSH2 0x1952 JUMP JUMPDEST PUSH2 0x6E2 PUSH32 0x9FE02D3902F19FBE1CCAD3D9353FA47708139D323B45838C717E11AA8BF7011E PUSH1 0x0 SHL PUSH2 0x1952 JUMP JUMPDEST PUSH2 0x70E PUSH32 0x3BB367229D4D8172DB449B36FF3672188FE67AA95374B8A44120F7F8D3CC343D PUSH1 0x0 SHL PUSH2 0x1952 JUMP JUMPDEST PUSH1 0x0 PUSH1 0x8 PUSH1 0x0 CALLER PUSH20 0xFFFFFFFFFFFFFFFFFFFFFFFFFFFFFFFFFFFFFFFF AND PUSH20 0xFFFFFFFFFFFFFFFFFFFFFFFFFFFFFFFFFFFFFFFF AND DUP2 MSTORE PUSH1 0x20 ADD SWAP1 DUP2 MSTORE PUSH1 0x20 ADD PUSH1 0x0 KECCAK256 DUP2 SWAP1 SSTORE POP PUSH2 0x77F PUSH32 0xF42403656C209D8379A04355CD59F3823A0926E91F403F50A175E77530F8DC5D PUSH1 0x0 SHL PUSH2 0x1952 JUMP JUMPDEST PUSH2 0x7AB PUSH32 0x2D70E0F5FF57792296A890B8D972DB0E423728B91042B4B90C30C390141D5ADE PUSH1 0x0 SHL PUSH2 0x1952 JUMP JUMPDEST CALLER PUSH20 0xFFFFFFFFFFFFFFFFFFFFFFFFFFFFFFFFFFFFFFFF AND PUSH2 0x8FC DUP3 SWAP1 DUP2 ISZERO MUL SWAP1 PUSH1 0x40 MLOAD PUSH1 0x0 PUSH1 0x40 MLOAD DUP1 DUP4 SUB DUP2 DUP6 DUP9 DUP9 CALL SWAP4 POP POP POP POP ISZERO DUP1 ISZERO PUSH2 0x7F1 JUMPI RETURNDATASIZE PUSH1 0x0 DUP1 RETURNDATACOPY RETURNDATASIZE PUSH1 0x0 REVERT JUMPDEST POP PUSH2 0x81E PUSH32 0xA1E0D17456EE97640B919FEA7E95E672D16230FA2D586F915797D8DD9A07B8F8 PUSH1 0x0 SHL PUSH2 0x1952 JUMP JUMPDEST PUSH2 0x84A PUSH32 0x2A469A19FEA8B595C5C8ACD1E8A1D0008CFFC228DB2F74EE4FFCFD2ABF96E6C4 PUSH1 0x0 SHL PUSH2 0x1952 JUMP JUMPDEST PUSH32 0xF9922A0C01AB47885E389A38642AB35C02F97CC09D44C58DE533EC24CD178A33 CALLER DUP3 PUSH1 0x40 MLOAD PUSH2 0x87B SWAP3 SWAP2 SWAP1 PUSH2 0x1BD2 JUMP JUMPDEST PUSH1 0x40 MLOAD DUP1 SWAP2 SUB SWAP1 LOG1 POP JUMP JUMPDEST PUSH2 0x8B2 PUSH32 0xDEC264DAC6B1349D9B709B4F1D7ABFAA5B279780BF44172356AA417347F3FB52 PUSH1 0x0 SHL PUSH2 0x1952 JUMP JUMPDEST PUSH2 0x8DE PUSH32 0xEE825ACC8AD2153815CE641A8B85FC82F2CFBBF46B700F47701FBF039FECDC5A PUSH1 0x0 SHL PUSH2 0x1952 JUMP JUMPDEST PUSH2 0x90A PUSH32 0x59B0A80462A9B970D9F3B7A85BA0255714717A52CD2D24EC08AD6D5603CC8178 PUSH1 0x0 SHL PUSH2 0x1952 JUMP JUMPDEST PUSH2 0x936 PUSH32 0x2F2ADFFD430F38C8AB3FCC1780602F5A28F11860D682F258D032DFD5F0012EA6 PUSH1 0x0 SHL PUSH2 0x1952 JUMP JUMPDEST PUSH1 0x6 PUSH1 0x0 SWAP1 SLOAD SWAP1 PUSH2 0x100 EXP SWAP1 DIV PUSH1 0xFF AND ISZERO PUSH2 0x986 JUMPI PUSH1 0x40 MLOAD PUSH32 0x8C379A000000000000000000000000000000000000000000000000000000000 DUP2 MSTORE PUSH1 0x4 ADD PUSH2 0x97D SWAP1 PUSH2 0x1C47 JUMP JUMPDEST PUSH1 0x40 MLOAD DUP1 SWAP2 SUB SWAP1 REVERT JUMPDEST PUSH2 0x9B2 PUSH32 0xA2850811168B4581A7EE0EF92D8D6AF86FA9F41EA9BA98B546F5D73F07C0D29C PUSH1 0x0 SHL PUSH2 0x1952 JUMP JUMPDEST PUSH2 0x9DE PUSH32 0x8938A9A69B5EEBBED308768DCE92304B6C103C5EDBDC96DD9F63B61BF8429A6B PUSH1 0x0 SHL PUSH2 0x1952 JUMP JUMPDEST PUSH2 0xA0A PUSH32 0x77077AE9FCC77D5CC0E98B892772FC6DD9F3D9D52532D7D76633CDB8CFBC686E PUSH1 0x0 SHL PUSH2 0x1952 JUMP JUMPDEST PUSH2 0xA36 PUSH32 0xF664D1DED7B055AC657638809C4E4A0203BCF3A013868D383B9DCFEC3976135D PUSH1 0x0 SHL PUSH2 0x1952 JUMP JUMPDEST PUSH1 0x5 SLOAD TIMESTAMP LT PUSH2 0xA7A JUMPI PUSH1 0x40 MLOAD PUSH32 0x8C379A000000000000000000000000000000000000000000000000000000000 DUP2 MSTORE PUSH1 0x4 ADD PUSH2 0xA71 SWAP1 PUSH2 0x1CB3 JUMP JUMPDEST PUSH1 0x40 MLOAD DUP1 SWAP2 SUB SWAP1 REVERT JUMPDEST PUSH2 0xAA6 PUSH32 0xD56C48E86A89FE5EA8236D37A223F4372A43DB10204F178B483460DE57F80CAE PUSH1 0x0 SHL PUSH2 0x1952 JUMP JUMPDEST PUSH2 0xAD2 PUSH32 0x23A173D7B8292D9BC6DB6D73B38778D98536171D4ECE8D9A7198384CA63EC006 PUSH1 0x0 SHL PUSH2 0x1952 JUMP JUMPDEST PUSH2 0xAFE PUSH32 0xDFF035FE6659D2D124848A0157E8711ABBDE6687E6E38FEA46F4037E8205E758 PUSH1 0x0 SHL PUSH2 0x1952 JUMP JUMPDEST PUSH2 0xB2A PUSH32 0x58EBCDC435B27CA4F9FFDC59C507217997028EBE05AF207E2E18CA7A5DDB1EB PUSH1 0x0 SHL PUSH2 0x1952 JUMP JUMPDEST PUSH1 0x7 SLOAD CALLVALUE GT PUSH2 0xB6E JUMPI PUSH1 0x40 MLOAD PUSH32 0x8C379A000000000000000000000000000000000000000000000000000000000 DUP2 MSTORE PUSH1 0x4 ADD PUSH2 0xB65 SWAP1 PUSH2 0x1D1F JUMP JUMPDEST PUSH1 0x40 MLOAD DUP1 SWAP2 SUB SWAP1 REVERT JUMPDEST PUSH2 0xB9A PUSH32 0xFC8DC7A0CA820A33DFEE85959FD0E4D5D42468F36E199F25043519EBBF98FCF5 PUSH1 0x0 SHL PUSH2 0x1952 JUMP JUMPDEST PUSH2 0xBC6 PUSH32 0xD0F5B1CD7067CF2754524C0C95A16AC243536F8044F6CF9E9E867C80F79195A5 PUSH1 0x0 SHL PUSH2 0x1952 JUMP JUMPDEST PUSH2 0xBF2 PUSH32 0x3E6EFBFF11C2F52B543FA3B8466D788BA69F432406F8DA263549191AB555A9B5 PUSH1 0x0 SHL PUSH2 0x1952 JUMP JUMPDEST PUSH2 0xC1E PUSH32 0x70FF917FD8DBA1ED1181BB27E75DAB5FD0BB798B87A50FF8BC7DCD50963537F0 PUSH1 0x0 SHL PUSH2 0x1952 JUMP JUMPDEST PUSH1 0x1 SLOAD CALLVALUE LT ISZERO PUSH2 0xC63 JUMPI PUSH1 0x40 MLOAD PUSH32 0x8C379A000000000000000000000000000000000000000000000000000000000 DUP2 MSTORE PUSH1 0x4 ADD PUSH2 0xC5A SWAP1 PUSH2 0x1DB1 JUMP JUMPDEST PUSH1 0x40 MLOAD DUP1 SWAP2 SUB SWAP1 REVERT JUMPDEST PUSH2 0xC8F PUSH32 0x3FB4B663056678627BEECF0DC910EECB0F10EFC1FBD98A356EFB58007199BCB3 PUSH1 0x0 SHL PUSH2 0x1952 JUMP JUMPDEST PUSH2 0xCBB PUSH32 0xC03903A07FA2A2D49DD2991A6507444C07F288A1740F05BEF124DCDAAAB08163 PUSH1 0x0 SHL PUSH2 0x1952 JUMP JUMPDEST PUSH2 0xCE7 PUSH32 0x7FA1E72BC0AA7AA7045DC341587149F1EB015F3206568F113470820B99D05745 PUSH1 0x0 SHL PUSH2 0x1952 JUMP JUMPDEST PUSH1 0x0 PUSH20 0xFFFFFFFFFFFFFFFFFFFFFFFFFFFFFFFFFFFFFFFF AND PUSH1 0x6 PUSH1 0x1 SWAP1 SLOAD SWAP1 PUSH2 0x100 EXP SWAP1 DIV PUSH20 0xFFFFFFFFFFFFFFFFFFFFFFFFFFFFFFFFFFFFFFFF AND PUSH20 0xFFFFFFFFFFFFFFFFFFFFFFFFFFFFFFFFFFFFFFFF AND EQ PUSH2 0xE40 JUMPI PUSH2 0xD69 PUSH32 0xF3793D2228195C8D11710D77889F0A419F773678EC67261FD1C2F2A390CD79F PUSH1 0x0 SHL PUSH2 0x1952 JUMP JUMPDEST PUSH2 0xD95 PUSH32 0xBDC3C813B6AF29EB6086C3EAE9BB1975CB9C5A90E464B82761EEE55A322B88A4 PUSH1 0x0 SHL PUSH2 0x1952 JUMP JUMPDEST PUSH2 0xDC1 PUSH32 0xD97CC11EAB801EC1F40EFCB6CDBACD591F435EA4625304428EFDAB3B7E6E9C1A PUSH1 0x0 SHL PUSH2 0x1952 JUMP JUMPDEST PUSH1 0x7 SLOAD PUSH1 0x8 PUSH1 0x0 PUSH1 0x6 PUSH1 0x1 SWAP1 SLOAD SWAP1 PUSH2 0x100 EXP SWAP1 DIV PUSH20 0xFFFFFFFFFFFFFFFFFFFFFFFFFFFFFFFFFFFFFFFF AND PUSH20 0xFFFFFFFFFFFFFFFFFFFFFFFFFFFFFFFFFFFFFFFF AND PUSH20 0xFFFFFFFFFFFFFFFFFFFFFFFFFFFFFFFFFFFFFFFF AND DUP2 MSTORE PUSH1 0x20 ADD SWAP1 DUP2 MSTORE PUSH1 0x20 ADD PUSH1 0x0 KECCAK256 PUSH1 0x0 DUP3 DUP3 SLOAD PUSH2 0xE34 SWAP2 SWAP1 PUSH2 0x1E00 JUMP JUMPDEST SWAP3 POP POP DUP2 SWAP1 SSTORE POP PUSH2 0xE6D JUMP JUMPDEST PUSH2 0xE6C PUSH32 0x7D64DF3ED71A0484840EF159BF0A90358424EF2EA4D323B23270514E088CE7BA PUSH1 0x0 SHL PUSH2 0x1952 JUMP JUMPDEST JUMPDEST PUSH2 0xE99 PUSH32 0x2DCA49DAB9DE463E86286E66FC722D324C09CA3B781A2FF48943D937258BDF51 PUSH1 0x0 SHL PUSH2 0x1952 JUMP JUMPDEST PUSH2 0xEC5 PUSH32 0x2EC55DEC3AFE7C940FFE3F5F3DAFCEB7B0175870EACBB785C290544FD2257C8 PUSH1 0x0 SHL PUSH2 0x1952 JUMP JUMPDEST CALLER PUSH1 0x6 PUSH1 0x1 PUSH2 0x100 EXP DUP2 SLOAD DUP2 PUSH20 0xFFFFFFFFFFFFFFFFFFFFFFFFFFFFFFFFFFFFFFFF MUL NOT AND SWAP1 DUP4 PUSH20 0xFFFFFFFFFFFFFFFFFFFFFFFFFFFFFFFFFFFFFFFF AND MUL OR SWAP1 SSTORE POP PUSH2 0xF32 PUSH32 0xCC9B72FA058535914495B42DFC93B53A49F8C0857BB327B1006D414B53E375A1 PUSH1 0x0 SHL PUSH2 0x1952 JUMP JUMPDEST PUSH2 0xF5E PUSH32 0x218ADEBBAEBFE611E1480C8E1E4A8568A57A5A5FEF05305D81F5AC51F50B691C PUSH1 0x0 SHL PUSH2 0x1952 JUMP JUMPDEST CALLVALUE PUSH1 0x7 DUP2 SWAP1 SSTORE POP JUMP JUMPDEST PUSH1 0x4 SLOAD DUP2 JUMP JUMPDEST PUSH1 0x2 SLOAD DUP2 JUMP JUMPDEST PUSH1 0x5 SLOAD DUP2 JUMP JUMPDEST PUSH2 0xFA5 PUSH32 0x4B1DE654F6C4DB92A21687642191AAC4409E90CB19B996BE15CFA25A849819D PUSH1 0x0 SHL PUSH2 0x1952 JUMP JUMPDEST PUSH2 0xFD1 PUSH32 0xDB63E66A6724192672F543201716CA377CFFD2C4A8CA86CA0450BBED3D89ECA8 PUSH1 0x0 SHL PUSH2 0x1952 JUMP JUMPDEST PUSH2 0xFFD PUSH32 0x868DF93DDCE5CD7C2C2FE7D74E5B5CF629C69BE54F07C298E764EE338035CE0B PUSH1 0x0 SHL PUSH2 0x1952 JUMP JUMPDEST PUSH2 0x1029 PUSH32 0xE788645063CD9D6B2BF69838B6E0A17A52A652A8FA87A4D2153CD0133EB3A892 PUSH1 0x0 SHL PUSH2 0x1952 JUMP JUMPDEST PUSH1 0x6 PUSH1 0x0 SWAP1 SLOAD SWAP1 PUSH2 0x100 EXP SWAP1 DIV PUSH1 0xFF AND PUSH2 0x1078 JUMPI PUSH1 0x40 MLOAD PUSH32 0x8C379A000000000000000000000000000000000000000000000000000000000 DUP2 MSTORE PUSH1 0x4 ADD PUSH2 0x106F SWAP1 PUSH2 0x1AB4 JUMP JUMPDEST PUSH1 0x40 MLOAD DUP1 SWAP2 SUB SWAP1 REVERT JUMPDEST PUSH2 0x10A4 PUSH32 0x8D6BBCF03FD034EED6FBD38CA4B54D40641E0D526706B936AC3280EC5B1244AF PUSH1 0x0 SHL PUSH2 0x1952 JUMP JUMPDEST PUSH2 0x10D0 PUSH32 0x6EB32B03AAA5402C6DE52033823361295B2471B398BB243C56E1B65555D3014D PUSH1 0x0 SHL PUSH2 0x1952 JUMP JUMPDEST PUSH2 0x10FC PUSH32 0x3FA12BD871DD4FFE389E411EB4AC5A038166DEE82739A94E834CFA110BE103FD PUSH1 0x0 SHL PUSH2 0x1952 JUMP JUMPDEST PUSH2 0x1128 PUSH32 0xBE40B78A3E73BF5F79C43BEA467E9F81C0535F2F4A3973461DF7638CB4AA785B PUSH1 0x0 SHL PUSH2 0x1952 JUMP JUMPDEST PUSH1 0x6 PUSH1 0x1 SWAP1 SLOAD SWAP1 PUSH2 0x100 EXP SWAP1 DIV PUSH20 0xFFFFFFFFFFFFFFFFFFFFFFFFFFFFFFFFFFFFFFFF AND PUSH20 0xFFFFFFFFFFFFFFFFFFFFFFFFFFFFFFFFFFFFFFFF AND CALLER PUSH20 0xFFFFFFFFFFFFFFFFFFFFFFFFFFFFFFFFFFFFFFFF AND SUB PUSH2 0x11B8 JUMPI PUSH1 0x40 MLOAD PUSH32 0x8C379A000000000000000000000000000000000000000000000000000000000 DUP2 MSTORE PUSH1 0x4 ADD PUSH2 0x11AF SWAP1 PUSH2 0x1EA6 JUMP JUMPDEST PUSH1 0x40 MLOAD DUP1 SWAP2 SUB SWAP1 REVERT JUMPDEST PUSH2 0x11E4 PUSH32 0x16CD0104BFA6A10F8606AF25C922A3085DBBEBB783AD8E929ADAB2438DB5E063 PUSH1 0x0 SHL PUSH2 0x1952 JUMP JUMPDEST PUSH2 0x1210 PUSH32 0xCC68918BB70CFF75526E6F4E7E42F10D7CF84996F284CA8CAA6E138438C47286 PUSH1 0x0 SHL PUSH2 0x1952 JUMP JUMPDEST PUSH2 0x123C PUSH32 0x9ED01000DE1C287C6C9CBE5A6D575E60588C505FE0586F28BB01C28D36653209 PUSH1 0x0 SHL PUSH2 0x1952 JUMP JUMPDEST PUSH1 0x0 PUSH1 0x8 PUSH1 0x0 CALLER PUSH20 0xFFFFFFFFFFFFFFFFFFFFFFFFFFFFFFFFFFFFFFFF AND PUSH20 0xFFFFFFFFFFFFFFFFFFFFFFFFFFFFFFFFFFFFFFFF AND DUP2 MSTORE PUSH1 0x20 ADD SWAP1 DUP2 MSTORE PUSH1 0x20 ADD PUSH1 0x0 KECCAK256 SLOAD SWAP1 POP PUSH2 0x12AC PUSH32 0x5064F5B428B9F59A385F368CEE83B1BDFE60F348C9A61393637526C0727BB127 PUSH1 0x0 SHL PUSH2 0x1952 JUMP JUMPDEST PUSH2 0x12D8 PUSH32 0x9D2CC3951A8EE81D859D5243BE9619C86346A65A8D3B6361186EE6251DDC6D47 PUSH1 0x0 SHL PUSH2 0x1952 JUMP JUMPDEST PUSH2 0x1304 PUSH32 0xF50AF5FB1C3DC52E86D175D8C31C57F66943F9C7779B8B61A779EC7D432CFC0B PUSH1 0x0 SHL PUSH2 0x1952 JUMP JUMPDEST PUSH1 0x0 DUP2 GT PUSH2 0x1347 JUMPI PUSH1 0x40 MLOAD PUSH32 0x8C379A000000000000000000000000000000000000000000000000000000000 DUP2 MSTORE PUSH1 0x4 ADD PUSH2 0x133E SWAP1 PUSH2 0x1F12 JUMP JUMPDEST PUSH1 0x40 MLOAD DUP1 SWAP2 SUB SWAP1 REVERT JUMPDEST PUSH2 0x1373 PUSH32 0xBC63FE9F63340BE5D591BC561DAFDE9465CA4418799AE7C8B52A14D317588B1C PUSH1 0x0 SHL PUSH2 0x1952 JUMP JUMPDEST PUSH2 0x139F PUSH32 0x53F942053B416721A66272C1572587221507CEB9E6B86CA0CC6C4B1918E9C9F6 PUSH1 0x0 SHL PUSH2 0x1952 JUMP JUMPDEST PUSH2 0x13CB PUSH32 0x3E6CCFFEE274E9BFE5678D98699DCBFF05DFFD57062A5F47A1BE38001623A6FD PUSH1 0x0 SHL PUSH2 0x1952 JUMP JUMPDEST PUSH1 0x0 PUSH1 0x8 PUSH1 0x0 CALLER PUSH20 0xFFFFFFFFFFFFFFFFFFFFFFFFFFFFFFFFFFFFFFFF AND PUSH20 0xFFFFFFFFFFFFFFFFFFFFFFFFFFFFFFFFFFFFFFFF AND DUP2 MSTORE PUSH1 0x20 ADD SWAP1 DUP2 MSTORE PUSH1 0x20 ADD PUSH1 0x0 KECCAK256 DUP2 SWAP1 SSTORE POP PUSH2 0x143C PUSH32 0x954B0BC9A081BE2817F317735CAA34A58F00427FBDBF2CE870D7901D2D9C3690 PUSH1 0x0 SHL PUSH2 0x1952 JUMP JUMPDEST PUSH2 0x1468 PUSH32 0x3CFCD718B528E9F5BC1E5F38982E472DCCF685E80C371F0203345461441E8F48 PUSH1 0x0 SHL PUSH2 0x1952 JUMP JUMPDEST PUSH32 0xBB28353E4598C3B9199101A66E0989549B659A59A54D2C27FBB183F1932C8E6D CALLER DUP3 PUSH1 0x40 MLOAD PUSH2 0x1499 SWAP3 SWAP2 SWAP1 PUSH2 0x1BD2 JUMP JUMPDEST PUSH1 0x40 MLOAD DUP1 SWAP2 SUB SWAP1 LOG1 POP JUMP JUMPDEST PUSH1 0x6 PUSH1 0x0 SWAP1 SLOAD SWAP1 PUSH2 0x100 EXP SWAP1 DIV PUSH1 0xFF AND DUP2 JUMP JUMPDEST PUSH1 0x6 PUSH1 0x1 SWAP1 SLOAD SWAP1 PUSH2 0x100 EXP SWAP1 DIV PUSH20 0xFFFFFFFFFFFFFFFFFFFFFFFFFFFFFFFFFFFFFFFF AND DUP2 JUMP JUMPDEST PUSH1 0x3 SLOAD DUP2 JUMP JUMPDEST PUSH1 0x7 SLOAD DUP2 JUMP JUMPDEST PUSH1 0x1 SLOAD DUP2 JUMP JUMPDEST PUSH2 0x151B PUSH32 0x8C6F7DFEEE267032B1957E2D0C03D899934CCBFB46DD1C12E84754CF1FF0B5F6 PUSH1 0x0 SHL PUSH2 0x1952 JUMP JUMPDEST PUSH2 0x1547 PUSH32 0x19BD8F9E23E980B26A6D7E5665823B5F7489040468B68986912958787728EFD4 PUSH1 0x0 SHL PUSH2 0x1952 JUMP JUMPDEST PUSH2 0x1573 PUSH32 0x8A4DA8820A2BCCF08EB124FC396212F68A4809AEAA65D62D5B6DF05770D12967 PUSH1 0x0 SHL PUSH2 0x1952 JUMP JUMPDEST PUSH2 0x159F PUSH32 0xC39375CD9CF1EDF3D84E88EE51A58A9F720500CFEFBE097C9D6ED3098DE06C0C PUSH1 0x0 SHL PUSH2 0x1952 JUMP JUMPDEST PUSH1 0x6 PUSH1 0x0 SWAP1 SLOAD SWAP1 PUSH2 0x100 EXP SWAP1 DIV PUSH1 0xFF AND ISZERO PUSH2 0x15EF JUMPI PUSH1 0x40 MLOAD PUSH32 0x8C379A000000000000000000000000000000000000000000000000000000000 DUP2 MSTORE PUSH1 0x4 ADD PUSH2 0x15E6 SWAP1 PUSH2 0x1C47 JUMP JUMPDEST PUSH1 0x40 MLOAD DUP1 SWAP2 SUB SWAP1 REVERT JUMPDEST PUSH2 0x161B PUSH32 0x9C4EE24990ECA85F6F9D6926638E077B7CA76B577F7280416F5176F08260CA04 PUSH1 0x0 SHL PUSH2 0x1952 JUMP JUMPDEST PUSH2 0x1647 PUSH32 0x4FB26AFF184633AC002035D55D33367201ADF217506F8F9720F2AD109354D553 PUSH1 0x0 SHL PUSH2 0x1952 JUMP JUMPDEST PUSH2 0x1673 PUSH32 0x3702527419079F047BB8FA66949DF58EAB47EC1D810AB6000EF852DC489FDF08 PUSH1 0x0 SHL PUSH2 0x1952 JUMP JUMPDEST PUSH2 0x169F PUSH32 0x1E5C18DC8D91855F7B3F9F562E2AE720F1799E2C464ED986E512B07B348F7A61 PUSH1 0x0 SHL PUSH2 0x1952 JUMP JUMPDEST PUSH1 0x5 SLOAD TIMESTAMP LT ISZERO PUSH2 0x16E4 JUMPI PUSH1 0x40 MLOAD PUSH32 0x8C379A000000000000000000000000000000000000000000000000000000000 DUP2 MSTORE PUSH1 0x4 ADD PUSH2 0x16DB SWAP1 PUSH2 0x1F7E JUMP JUMPDEST PUSH1 0x40 MLOAD DUP1 SWAP2 SUB SWAP1 REVERT JUMPDEST PUSH2 0x1710 PUSH32 0x73B6D05A7F37D906FE063E3E30D3ACDCEFD37495C43D7D9BE449094A3F575C91 PUSH1 0x0 SHL PUSH2 0x1952 JUMP JUMPDEST PUSH2 0x173C PUSH32 0xE63B88181028C07066B322C5BD0588528E3E863F75979641F06CF50DBCB6050D PUSH1 0x0 SHL PUSH2 0x1952 JUMP JUMPDEST PUSH2 0x1768 PUSH32 0xAC48B160636F6F66F5D87F5F70F9BE13C56526D9492D8408A2F2F2F83119D8FF PUSH1 0x0 SHL PUSH2 0x1952 JUMP JUMPDEST PUSH1 0x1 PUSH1 0x6 PUSH1 0x0 PUSH2 0x100 EXP DUP2 SLOAD DUP2 PUSH1 0xFF MUL NOT AND SWAP1 DUP4 ISZERO ISZERO MUL OR SWAP1 SSTORE POP PUSH2 0x17AF PUSH32 0x3C8BFE07F8BC9246C63F7E77E0765C8866A522E1A9982AAC9424028936F8F84D PUSH1 0x0 SHL PUSH2 0x1952 JUMP JUMPDEST PUSH2 0x17DB PUSH32 0xDB9ED8EA40187B7C282EE2E2905DCE2B27DD430CB3A8294897D5BD13995C609F PUSH1 0x0 SHL PUSH2 0x1952 JUMP JUMPDEST PUSH1 0x0 PUSH20 0xFFFFFFFFFFFFFFFFFFFFFFFFFFFFFFFFFFFFFFFF AND PUSH1 0x6 PUSH1 0x1 SWAP1 SLOAD SWAP1 PUSH2 0x100 EXP SWAP1 DIV PUSH20 0xFFFFFFFFFFFFFFFFFFFFFFFFFFFFFFFFFFFFFFFF AND PUSH20 0xFFFFFFFFFFFFFFFFFFFFFFFFFFFFFFFFFFFFFFFF AND EQ PUSH2 0x1923 JUMPI PUSH2 0x185D PUSH32 0xA1E6C60BF7B41AED48770DCB42971A936765702BA9B24D9E670F32E8D545F9FD PUSH1 0x0 SHL PUSH2 0x1952 JUMP JUMPDEST PUSH2 0x1889 PUSH32 0xCFBB5268EF10672F0ACE135C4FE01D824E8462931841DE6AEB997E04D316D4E PUSH1 0x0 SHL PUSH2 0x1952 JUMP JUMPDEST PUSH2 0x18B5 PUSH32 0x3B399E067CC112A741A29B6FFC60E586056339977EF0B3625AEA19F7A21B478D PUSH1 0x0 SHL PUSH2 0x1952 JUMP JUMPDEST PUSH1 0x0 DUP1 SLOAD SWAP1 PUSH2 0x100 EXP SWAP1 DIV PUSH20 0xFFFFFFFFFFFFFFFFFFFFFFFFFFFFFFFFFFFFFFFF AND PUSH20 0xFFFFFFFFFFFFFFFFFFFFFFFFFFFFFFFFFFFFFFFF AND PUSH2 0x8FC PUSH1 0x7 SLOAD SWAP1 DUP2 ISZERO MUL SWAP1 PUSH1 0x40 MLOAD PUSH1 0x0 PUSH1 0x40 MLOAD DUP1 DUP4 SUB DUP2 DUP6 DUP9 DUP9 CALL SWAP4 POP POP POP POP ISZERO DUP1 ISZERO PUSH2 0x191D JUMPI RETURNDATASIZE PUSH1 0x0 DUP1 RETURNDATACOPY RETURNDATASIZE PUSH1 0x0 REVERT JUMPDEST POP PUSH2 0x1950 JUMP JUMPDEST PUSH2 0x194F PUSH32 0x5ED7BA778FB868BEF069BB9437F1925E5ABD15C6B10DFE97BA9F8105E5A0E6E PUSH1 0x0 SHL PUSH2 0x1952 JUMP JUMPDEST JUMPDEST JUMP JUMPDEST POP JUMP JUMPDEST PUSH1 0x0 PUSH20 0xFFFFFFFFFFFFFFFFFFFFFFFFFFFFFFFFFFFFFFFF DUP3 AND SWAP1 POP SWAP2 SWAP1 POP JUMP JUMPDEST PUSH1 0x0 PUSH2 0x1980 DUP3 PUSH2 0x1955 JUMP JUMPDEST SWAP1 POP SWAP2 SWAP1 POP JUMP JUMPDEST PUSH2 0x1990 DUP2 PUSH2 0x1975 JUMP JUMPDEST DUP3 MSTORE POP POP JUMP JUMPDEST PUSH1 0x0 PUSH1 0x20 DUP3 ADD SWAP1 POP PUSH2 0x19AB PUSH1 0x0 DUP4 ADD DUP5 PUSH2 0x1987 JUMP JUMPDEST SWAP3 SWAP2 POP POP JUMP JUMPDEST PUSH1 0x0 DUP2 SWAP1 POP SWAP2 SWAP1 POP JUMP JUMPDEST PUSH2 0x19C4 DUP2 PUSH2 0x19B1 JUMP JUMPDEST DUP3 MSTORE POP POP JUMP JUMPDEST PUSH1 0x0 PUSH1 0x20 DUP3 ADD SWAP1 POP PUSH2 0x19DF PUSH1 0x0 DUP4 ADD DUP5 PUSH2 0x19BB JUMP JUMPDEST SWAP3 SWAP2 POP POP JUMP JUMPDEST PUSH1 0x0 DUP2 ISZERO ISZERO SWAP1 POP SWAP2 SWAP1 POP JUMP JUMPDEST PUSH2 0x19FA DUP2 PUSH2 0x19E5 JUMP JUMPDEST DUP3 MSTORE POP POP JUMP JUMPDEST PUSH1 0x0 PUSH1 0x20 DUP3 ADD SWAP1 POP PUSH2 0x1A15 PUSH1 0x0 DUP4 ADD DUP5 PUSH2 0x19F1 JUMP JUMPDEST SWAP3 SWAP2 POP POP JUMP JUMPDEST PUSH1 0x0 PUSH2 0x1A26 DUP3 PUSH2 0x1955 JUMP JUMPDEST SWAP1 POP SWAP2 SWAP1 POP JUMP JUMPDEST PUSH2 0x1A36 DUP2 PUSH2 0x1A1B JUMP JUMPDEST DUP3 MSTORE POP POP JUMP JUMPDEST PUSH1 0x0 PUSH1 0x20 DUP3 ADD SWAP1 POP PUSH2 0x1A51 PUSH1 0x0 DUP4 ADD DUP5 PUSH2 0x1A2D JUMP JUMPDEST SWAP3 SWAP2 POP POP JUMP JUMPDEST PUSH1 0x0 DUP3 DUP3 MSTORE PUSH1 0x20 DUP3 ADD SWAP1 POP SWAP3 SWAP2 POP POP JUMP JUMPDEST PUSH32 0x41756374696F6E20686173206E6F7420656E6465642E00000000000000000000 PUSH1 0x0 DUP3 ADD MSTORE POP JUMP JUMPDEST PUSH1 0x0 PUSH2 0x1A9E PUSH1 0x16 DUP4 PUSH2 0x1A57 JUMP JUMPDEST SWAP2 POP PUSH2 0x1AA9 DUP3 PUSH2 0x1A68 JUMP JUMPDEST PUSH1 0x20 DUP3 ADD SWAP1 POP SWAP2 SWAP1 POP JUMP JUMPDEST PUSH1 0x0 PUSH1 0x20 DUP3 ADD SWAP1 POP DUP2 DUP2 SUB PUSH1 0x0 DUP4 ADD MSTORE PUSH2 0x1ACD DUP2 PUSH2 0x1A91 JUMP JUMPDEST SWAP1 POP SWAP2 SWAP1 POP JUMP JUMPDEST PUSH32 0x57696E6E696E67206269646465722063616E6E6F742077697468647261772072 PUSH1 0x0 DUP3 ADD MSTORE PUSH32 0x6566756E642E0000000000000000000000000000000000000000000000000000 PUSH1 0x20 DUP3 ADD MSTORE POP JUMP JUMPDEST PUSH1 0x0 PUSH2 0x1B30 PUSH1 0x26 DUP4 PUSH2 0x1A57 JUMP JUMPDEST SWAP2 POP PUSH2 0x1B3B DUP3 PUSH2 0x1AD4 JUMP JUMPDEST PUSH1 0x40 DUP3 ADD SWAP1 POP SWAP2 SWAP1 POP JUMP JUMPDEST PUSH1 0x0 PUSH1 0x20 DUP3 ADD SWAP1 POP DUP2 DUP2 SUB PUSH1 0x0 DUP4 ADD MSTORE PUSH2 0x1B5F DUP2 PUSH2 0x1B23 JUMP JUMPDEST SWAP1 POP SWAP2 SWAP1 POP JUMP JUMPDEST PUSH32 0x4E6F2066756E647320746F2077697468647261772E0000000000000000000000 PUSH1 0x0 DUP3 ADD MSTORE POP JUMP JUMPDEST PUSH1 0x0 PUSH2 0x1B9C PUSH1 0x15 DUP4 PUSH2 0x1A57 JUMP JUMPDEST SWAP2 POP PUSH2 0x1BA7 DUP3 PUSH2 0x1B66 JUMP JUMPDEST PUSH1 0x20 DUP3 ADD SWAP1 POP SWAP2 SWAP1 POP JUMP JUMPDEST PUSH1 0x0 PUSH1 0x20 DUP3 ADD SWAP1 POP DUP2 DUP2 SUB PUSH1 0x0 DUP4 ADD MSTORE PUSH2 0x1BCB DUP2 PUSH2 0x1B8F JUMP JUMPDEST SWAP1 POP SWAP2 SWAP1 POP JUMP JUMPDEST PUSH1 0x0 PUSH1 0x40 DUP3 ADD SWAP1 POP PUSH2 0x1BE7 PUSH1 0x0 DUP4 ADD DUP6 PUSH2 0x1A2D JUMP JUMPDEST PUSH2 0x1BF4 PUSH1 0x20 DUP4 ADD DUP5 PUSH2 0x19BB JUMP JUMPDEST SWAP4 SWAP3 POP POP POP JUMP JUMPDEST PUSH32 0x41756374696F6E2068617320616C726561647920656E6465642E000000000000 PUSH1 0x0 DUP3 ADD MSTORE POP JUMP JUMPDEST PUSH1 0x0 PUSH2 0x1C31 PUSH1 0x1A DUP4 PUSH2 0x1A57 JUMP JUMPDEST SWAP2 POP PUSH2 0x1C3C DUP3 PUSH2 0x1BFB JUMP JUMPDEST PUSH1 0x20 DUP3 ADD SWAP1 POP SWAP2 SWAP1 POP JUMP JUMPDEST PUSH1 0x0 PUSH1 0x20 DUP3 ADD SWAP1 POP DUP2 DUP2 SUB PUSH1 0x0 DUP4 ADD MSTORE PUSH2 0x1C60 DUP2 PUSH2 0x1C24 JUMP JUMPDEST SWAP1 POP SWAP2 SWAP1 POP JUMP JUMPDEST PUSH32 0x41756374696F6E206973206E6F206C6F6E676572206F70656E2E000000000000 PUSH1 0x0 DUP3 ADD MSTORE POP JUMP JUMPDEST PUSH1 0x0 PUSH2 0x1C9D PUSH1 0x1A DUP4 PUSH2 0x1A57 JUMP JUMPDEST SWAP2 POP PUSH2 0x1CA8 DUP3 PUSH2 0x1C67 JUMP JUMPDEST PUSH1 0x20 DUP3 ADD SWAP1 POP SWAP2 SWAP1 POP JUMP JUMPDEST PUSH1 0x0 PUSH1 0x20 DUP3 ADD SWAP1 POP DUP2 DUP2 SUB PUSH1 0x0 DUP4 ADD MSTORE PUSH2 0x1CCC DUP2 PUSH2 0x1C90 JUMP JUMPDEST SWAP1 POP SWAP2 SWAP1 POP JUMP JUMPDEST PUSH32 0x546865726520697320616C7265616479206120686967686572206269642E0000 PUSH1 0x0 DUP3 ADD MSTORE POP JUMP JUMPDEST PUSH1 0x0 PUSH2 0x1D09 PUSH1 0x1E DUP4 PUSH2 0x1A57 JUMP JUMPDEST SWAP2 POP PUSH2 0x1D14 DUP3 PUSH2 0x1CD3 JUMP JUMPDEST PUSH1 0x20 DUP3 ADD SWAP1 POP SWAP2 SWAP1 POP JUMP JUMPDEST PUSH1 0x0 PUSH1 0x20 DUP3 ADD SWAP1 POP DUP2 DUP2 SUB PUSH1 0x0 DUP4 ADD MSTORE PUSH2 0x1D38 DUP2 PUSH2 0x1CFC JUMP JUMPDEST SWAP1 POP SWAP2 SWAP1 POP JUMP JUMPDEST PUSH32 0x42696420616D6F756E742069732062656C6F7720746865207265736572766520 PUSH1 0x0 DUP3 ADD MSTORE PUSH32 0x70726963652E0000000000000000000000000000000000000000000000000000 PUSH1 0x20 DUP3 ADD MSTORE POP JUMP JUMPDEST PUSH1 0x0 PUSH2 0x1D9B PUSH1 0x26 DUP4 PUSH2 0x1A57 JUMP JUMPDEST SWAP2 POP PUSH2 0x1DA6 DUP3 PUSH2 0x1D3F JUMP JUMPDEST PUSH1 0x40 DUP3 ADD SWAP1 POP SWAP2 SWAP1 POP JUMP JUMPDEST PUSH1 0x0 PUSH1 0x20 DUP3 ADD SWAP1 POP DUP2 DUP2 SUB PUSH1 0x0 DUP4 ADD MSTORE PUSH2 0x1DCA DUP2 PUSH2 0x1D8E JUMP JUMPDEST SWAP1 POP SWAP2 SWAP1 POP JUMP JUMPDEST PUSH32 0x4E487B7100000000000000000000000000000000000000000000000000000000 PUSH1 0x0 MSTORE PUSH1 0x11 PUSH1 0x4 MSTORE PUSH1 0x24 PUSH1 0x0 REVERT JUMPDEST PUSH1 0x0 PUSH2 0x1E0B DUP3 PUSH2 0x19B1 JUMP JUMPDEST SWAP2 POP PUSH2 0x1E16 DUP4 PUSH2 0x19B1 JUMP JUMPDEST SWAP3 POP DUP3 DUP3 ADD SWAP1 POP DUP1 DUP3 GT ISZERO PUSH2 0x1E2E JUMPI PUSH2 0x1E2D PUSH2 0x1DD1 JUMP JUMPDEST JUMPDEST SWAP3 SWAP2 POP POP JUMP JUMPDEST PUSH32 0x596F752063616E6E6F7420726566756E64206173207468652077696E6E696E67 PUSH1 0x0 DUP3 ADD MSTORE PUSH32 0x206269646465722E000000000000000000000000000000000000000000000000 PUSH1 0x20 DUP3 ADD MSTORE POP JUMP JUMPDEST PUSH1 0x0 PUSH2 0x1E90 PUSH1 0x28 DUP4 PUSH2 0x1A57 JUMP JUMPDEST SWAP2 POP PUSH2 0x1E9B DUP3 PUSH2 0x1E34 JUMP JUMPDEST PUSH1 0x40 DUP3 ADD SWAP1 POP SWAP2 SWAP1 POP JUMP JUMPDEST PUSH1 0x0 PUSH1 0x20 DUP3 ADD SWAP1 POP DUP2 DUP2 SUB PUSH1 0x0 DUP4 ADD MSTORE PUSH2 0x1EBF DUP2 PUSH2 0x1E83 JUMP JUMPDEST SWAP1 POP SWAP2 SWAP1 POP JUMP JUMPDEST PUSH32 0x4E6F2066756E647320746F20726566756E642E00000000000000000000000000 PUSH1 0x0 DUP3 ADD MSTORE POP JUMP JUMPDEST PUSH1 0x0 PUSH2 0x1EFC PUSH1 0x13 DUP4 PUSH2 0x1A57 JUMP JUMPDEST SWAP2 POP PUSH2 0x1F07 DUP3 PUSH2 0x1EC6 JUMP JUMPDEST PUSH1 0x20 DUP3 ADD SWAP1 POP SWAP2 SWAP1 POP JUMP JUMPDEST PUSH1 0x0 PUSH1 0x20 DUP3 ADD SWAP1 POP DUP2 DUP2 SUB PUSH1 0x0 DUP4 ADD MSTORE PUSH2 0x1F2B DUP2 PUSH2 0x1EEF JUMP JUMPDEST SWAP1 POP SWAP2 SWAP1 POP JUMP JUMPDEST PUSH32 0x41756374696F6E206973207374696C6C206F70656E2E00000000000000000000 PUSH1 0x0 DUP3 ADD MSTORE POP JUMP JUMPDEST PUSH1 0x0 PUSH2 0x1F68 PUSH1 0x16 DUP4 PUSH2 0x1A57 JUMP JUMPDEST SWAP2 POP PUSH2 0x1F73 DUP3 PUSH2 0x1F32 JUMP JUMPDEST PUSH1 0x20 DUP3 ADD SWAP1 POP SWAP2 SWAP1 POP JUMP JUMPDEST PUSH1 0x0 PUSH1 0x20 DUP3 ADD SWAP1 POP DUP2 DUP2 SUB PUSH1 0x0 DUP4 ADD MSTORE PUSH2 0x1F97 DUP2 PUSH2 0x1F5B JUMP JUMPDEST SWAP1 POP SWAP2 SWAP1 POP JUMP INVALID LOG2 PUSH5 0x6970667358 0x22 SLT KECCAK256 0xE8 0xCD 0x2B PUSH21 0xAAF875E6388970EC85532B9F95F596697BC60A0EEF DUP6 0xE4 LOG1 0xE2 0xF6 SWAP7 SWAP10 PUSH5 0x736F6C6343 STOP ADDMOD SLT STOP CALLER "},"methodIdentifiers":{"auctionEndTime()":"4b449cba","auctionEnded()":"86433374","bid()":"1998aeef","endAuction()":"fe67a54b","highestBid()":"d57bde79","highestBidder()":"91f90157","initialPrice()":"1d0806ae","numBlocksAuctionOpen()":"3103ea62","offerPriceDecrement()":"d3642a88","refund()":"590e1ae3","reservePrice()":"db2e1eed","seller()":"08551a53","withdrawRefund()":"110f8874"}}}}}