{
  "_format": "hh-sol-artifact-1",
  "contractName": "NFTDutchAuction_ERC20Bids",
  "sourceName": "contracts/NFTDutchAuction_ERC20Bids.sol",
  "abi": [
    {
      "inputs": [
        {
          "internalType": "address",
          "name": "erc20TokenAddress",
          "type": "address"
        },
        {
          "internalType": "address",
          "name": "erc721TokenAddress",
          "type": "address"
        },
        {
          "internalType": "uint256",
          "name": "_nftTokenId",
          "type": "uint256"
        },
        {
          "internalType": "uint256",
          "name": "_reservePrice",
          "type": "uint256"
        },
        {
          "internalType": "uint256",
          "name": "_numBlocksAuctionOpen",
          "type": "uint256"
        },
        {
          "internalType": "uint256",
          "name": "_offerPriceDecrement",
          "type": "uint256"
        }
      ],
      "stateMutability": "nonpayable",
      "type": "constructor"
    },
    {
      "inputs": [],
      "name": "addressOfToken",
      "outputs": [
        {
          "internalType": "contract IMyToken",
          "name": "",
          "type": "address"
        }
      ],
      "stateMutability": "view",
      "type": "function"
    },
    {
      "inputs": [],
      "name": "auctionStatusOpen",
      "outputs": [
        {
          "internalType": "bool",
          "name": "",
          "type": "bool"
        }
      ],
      "stateMutability": "view",
      "type": "function"
    },
    {
      "inputs": [
        {
          "internalType": "uint256",
          "name": "amount",
          "type": "uint256"
        }
      ],
      "name": "bid",
      "outputs": [],
      "stateMutability": "nonpayable",
      "type": "function"
    },
    {
      "inputs": [],
      "name": "blockDifference",
      "outputs": [
        {
          "internalType": "uint256",
          "name": "",
          "type": "uint256"
        }
      ],
      "stateMutability": "view",
      "type": "function"
    },
    {
      "inputs": [],
      "name": "buyer",
      "outputs": [
        {
          "internalType": "address",
          "name": "",
          "type": "address"
        }
      ],
      "stateMutability": "view",
      "type": "function"
    },
    {
      "inputs": [],
      "name": "currentBlock",
      "outputs": [
        {
          "internalType": "uint256",
          "name": "",
          "type": "uint256"
        }
      ],
      "stateMutability": "view",
      "type": "function"
    },
    {
      "inputs": [],
      "name": "currentPrice",
      "outputs": [
        {
          "internalType": "uint256",
          "name": "",
          "type": "uint256"
        }
      ],
      "stateMutability": "view",
      "type": "function"
    },
    {
      "inputs": [],
      "name": "initialPrice",
      "outputs": [
        {
          "internalType": "uint256",
          "name": "",
          "type": "uint256"
        }
      ],
      "stateMutability": "view",
      "type": "function"
    },
    {
      "inputs": [],
      "name": "isAuctionOpen",
      "outputs": [
        {
          "internalType": "bool",
          "name": "",
          "type": "bool"
        }
      ],
      "stateMutability": "view",
      "type": "function"
    },
    {
      "inputs": [],
      "name": "nft_Address",
      "outputs": [
        {
          "internalType": "contract IMyNFT",
          "name": "",
          "type": "address"
        }
      ],
      "stateMutability": "view",
      "type": "function"
    },
    {
      "inputs": [],
      "name": "nft_Id",
      "outputs": [
        {
          "internalType": "uint256",
          "name": "",
          "type": "uint256"
        }
      ],
      "stateMutability": "view",
      "type": "function"
    },
    {
      "inputs": [],
      "name": "numBlocksAuctionOpen",
      "outputs": [
        {
          "internalType": "uint256",
          "name": "",
          "type": "uint256"
        }
      ],
      "stateMutability": "view",
      "type": "function"
    },
    {
      "inputs": [],
      "name": "offerPriceDecrement",
      "outputs": [
        {
          "internalType": "uint256",
          "name": "",
          "type": "uint256"
        }
      ],
      "stateMutability": "view",
      "type": "function"
    },
    {
      "inputs": [],
      "name": "reservePrice",
      "outputs": [
        {
          "internalType": "uint256",
          "name": "",
          "type": "uint256"
        }
      ],
      "stateMutability": "view",
      "type": "function"
    },
    {
      "inputs": [],
      "name": "sellerAccountAddress",
      "outputs": [
        {
          "internalType": "address",
          "name": "",
          "type": "address"
        }
      ],
      "stateMutability": "view",
      "type": "function"
    },
    {
      "inputs": [],
      "name": "startingBlock",
      "outputs": [
        {
          "internalType": "uint256",
          "name": "",
          "type": "uint256"
        }
      ],
      "stateMutability": "view",
      "type": "function"
    }
  ],
  "bytecode": "0x60806040523480156200001157600080fd5b506040516200186238038062001862833981810160405281019062000037919062000347565b6200005367341689d476e813f960c01b6200029f60201b60201c565b6200006f67d6ae7b4ec63fc2b460c01b6200029f60201b60201c565b83600081905550620000926794c71eedfefc6b5460c01b6200029f60201b60201c565b84600160006101000a81548173ffffffffffffffffffffffffffffffffffffffff021916908373ffffffffffffffffffffffffffffffffffffffff160217905550620000ef67bdbdb8a76dd1d68f60c01b6200029f60201b60201c565b85600260006101000a81548173ffffffffffffffffffffffffffffffffffffffff021916908373ffffffffffffffffffffffffffffffffffffffff1602179055506200014c67b996fcc84e8c873460c01b6200029f60201b60201c565b33600560006101000a81548173ffffffffffffffffffffffffffffffffffffffff021916908373ffffffffffffffffffffffffffffffffffffffff160217905550620001a967b2df9d994c74904660c01b6200029f60201b60201c565b43600881905550620001cc67146522dc1d5e50be60c01b6200029f60201b60201c565b6001600960146101000a81548160ff0219169083151502179055506200020367ff9d32ba173c6ed360c01b6200029f60201b60201c565b826003819055506200022667ee6aeb5bffd1dba560c01b6200029f60201b60201c565b8160048190555062000249672c70aa109eb984ce60c01b6200029f60201b60201c565b806006819055506200026c6747f276909997270960c01b6200029f60201b60201c565b6006546004546200027e919062000412565b6003546200028d91906200045d565b60078190555050505050505062000498565b50565b600080fd5b600073ffffffffffffffffffffffffffffffffffffffff82169050919050565b6000620002d482620002a7565b9050919050565b620002e681620002c7565b8114620002f257600080fd5b50565b6000815190506200030681620002db565b92915050565b6000819050919050565b62000321816200030c565b81146200032d57600080fd5b50565b600081519050620003418162000316565b92915050565b60008060008060008060c08789031215620003675762000366620002a2565b5b60006200037789828a01620002f5565b96505060206200038a89828a01620002f5565b95505060406200039d89828a0162000330565b9450506060620003b089828a0162000330565b9350506080620003c389828a0162000330565b92505060a0620003d689828a0162000330565b9150509295509295509295565b7f4e487b7100000000000000000000000000000000000000000000000000000000600052601160045260246000fd5b60006200041f826200030c565b91506200042c836200030c565b92508282026200043c816200030c565b91508282048414831517620004565762000455620003e3565b5b5092915050565b60006200046a826200030c565b915062000477836200030c565b9250828201905080821115620004925762000491620003e3565b5b92915050565b6113ba80620004a86000396000f3fe608060405234801561001057600080fd5b50600436106101005760003560e01c80637150d8ae11610097578063d91c98d311610066578063d91c98d31461026b578063db2e1eed14610289578063e12ed13c146102a7578063f5734ae2146102c557610100565b80637150d8ae146101f35780639d1b464a14610211578063cca414271461022f578063d3642a881461024d57610100565b8063323b935f116100d3578063323b935f1461017d578063454a2ab31461019b5780634a0f97e8146101b75780636ee6cb9f146101d557610100565b80630b48ab8f146101055780631d0806ae14610123578063233aec66146101415780633103ea621461015f575b600080fd5b61010d6102e3565b60405161011a9190610d9e565b60405180910390f35b61012b6102f6565b6040516101389190610dd2565b60405180910390f35b6101496102fc565b6040516101569190610dd2565b60405180910390f35b610167610354565b6040516101749190610dd2565b60405180910390f35b61018561035a565b6040516101929190610e2e565b60405180910390f35b6101b560048036038101906101b09190610e7a565b610380565b005b6101bf610922565b6040516101cc9190610f06565b60405180910390f35b6101dd610948565b6040516101ea9190610dd2565b60405180910390f35b6101fb61094e565b6040516102089190610e2e565b60405180910390f35b610219610974565b6040516102269190610dd2565b60405180910390f35b610237610a51565b6040516102449190610d9e565b60405180910390f35b610255610add565b6040516102629190610dd2565b60405180910390f35b610273610ae3565b6040516102809190610dd2565b60405180910390f35b610291610ae9565b60405161029e9190610dd2565b60405180910390f35b6102af610aef565b6040516102bc9190610dd2565b60405180910390f35b6102cd610b33565b6040516102da9190610f42565b60405180910390f35b600960149054906101000a900460ff1681565b60075481565b600061031267d97886502308238d60c01b610b59565b610326674a0f34a60d3d98ec60c01b610b59565b61033a67a47c099179a9506660c01b610b59565b600854610345610aef565b61034f9190610f8c565b905090565b60045481565b600560009054906101000a900473ffffffffffffffffffffffffffffffffffffffff1681565b6103946760c8025400ca699960c01b610b59565b6103a867991046e7de50019860c01b610b59565b6103bc676288d2a5ee151e5960c01b610b59565b6103d067a349994fe1c641d260c01b610b59565b6103d8610a51565b610417576040517f08c379a000000000000000000000000000000000000000000000000000000000815260040161040e9061101d565b60405180910390fd5b61042b678b9e0a3797e9aa3060c01b610b59565b61043f67d98cf2506c4fa0a260c01b610b59565b61045367ece5a9ef4d0f58c760c01b610b59565b610467675f71888cdeee64cf60c01b610b59565b600960009054906101000a900473ffffffffffffffffffffffffffffffffffffffff1673ffffffffffffffffffffffffffffffffffffffff163373ffffffffffffffffffffffffffffffffffffffff16036104f7576040517f08c379a00000000000000000000000000000000000000000000000000000000081526004016104ee90611089565b60405180910390fd5b61050b6736784dbb5e0080be60c01b610b59565b61051f677c29867ff1f8d9c560c01b610b59565b61053367a21882d56b3cd2a260c01b610b59565b610547672a3b7c0284821e1a60c01b610b59565b600073ffffffffffffffffffffffffffffffffffffffff16600960009054906101000a900473ffffffffffffffffffffffffffffffffffffffff1673ffffffffffffffffffffffffffffffffffffffff16146105d8576040517f08c379a00000000000000000000000000000000000000000000000000000000081526004016105cf906110f5565b60405180910390fd5b6105ec672cfa46ba5666534860c01b610b59565b61060067f1eb0bb01e48a37a60c01b610b59565b61061467c416a2992dc04b3560c01b610b59565b61062867107bae1994c8f25560c01b610b59565b600560009054906101000a900473ffffffffffffffffffffffffffffffffffffffff1673ffffffffffffffffffffffffffffffffffffffff163373ffffffffffffffffffffffffffffffffffffffff16036106b8576040517f08c379a00000000000000000000000000000000000000000000000000000000081526004016106af90611161565b60405180910390fd5b6106cc6743605e378e3ad92260c01b610b59565b6106e06750726d316e5d07ab60c01b610b59565b6106f467f4a33befe1bb5e8b60c01b610b59565b61070867c922fbec95a37cfe60c01b610b59565b610710610974565b811015610752576040517f08c379a0000000000000000000000000000000000000000000000000000000008152600401610749906111cd565b60405180910390fd5b6107666704290455d491b4bb60c01b610b59565b61077a672bc76227beb8fcb460c01b610b59565b61078e67b7601ed63523b86960c01b610b59565b6000600260009054906101000a900473ffffffffffffffffffffffffffffffffffffffff1673ffffffffffffffffffffffffffffffffffffffff166323b872dd33600560009054906101000a900473ffffffffffffffffffffffffffffffffffffffff166107fa610974565b6040518463ffffffff1660e01b8152600401610818939291906111ed565b6020604051808303816000875af1158015610837573d6000803e3d6000fd5b505050506040513d601f19601f8201168201806040525081019061085b9190611250565b9050610871672d7b7d2a98e4ff8960c01b610b59565b61088567fdee18296d3ceda460c01b610b59565b61089967daad1bf057fa0fa660c01b610b59565b806108d9576040517f08c379a00000000000000000000000000000000000000000000000000000000081526004016108d0906112c9565b60405180910390fd5b6108ed67b71d0726292b570f60c01b610b59565b610901672de2800bd36d1fd860c01b610b59565b61091567585780138bb383a360c01b610b59565b61091e33610b5c565b5050565b600260009054906101000a900473ffffffffffffffffffffffffffffffffffffffff1681565b60005481565b600960009054906101000a900473ffffffffffffffffffffffffffffffffffffffff1681565b600061098a670e67312e7aa6c9d960c01b610b59565b61099e67d1848292855d2d1160c01b610b59565b6109b26735c69df6af67e6ab60c01b610b59565b60006109bc6102fc565b90506109d267d738873f13716e7160c01b610b59565b6109e66787e02b813472534f60c01b610b59565b6004548110158015610a085750610a0767a6783f87aea081db60c01b610d71565b5b80610a235750610a22671df5a7017649b52d60c01b610d7c565b5b610a475760065481610a3591906112e9565b600754610a429190610f8c565b610a4b565b6003545b91505090565b6000610a6767fab707aa96241ef060c01b610b59565b610a7b67c1680f8f185bae3b60c01b610b59565b610a8f67e569102b036abfea60c01b610b59565b6000610a996102fc565b9050610aaf6780c42a4465a7df1a60c01b610b59565b610ac36776fb3e8f186865ba60c01b610b59565b6004548111158015610ad757506008544310155b91505090565b60065481565b60085481565b60035481565b6000610b0567eddbbd277f243fad60c01b610b59565b610b196702508dfab00891db60c01b610b59565b610b2d67fc827802e5f6cd5a60c01b610b59565b43905090565b600160009054906101000a900473ffffffffffffffffffffffffffffffffffffffff1681565b50565b610b7067597b9f05e2799afa60c01b610b59565b610b84674858a31f8d88b7ab60c01b610b59565b610b9867c167fbc4852e617960c01b610b59565b600160009054906101000a900473ffffffffffffffffffffffffffffffffffffffff1673ffffffffffffffffffffffffffffffffffffffff166323b872dd600560009054906101000a900473ffffffffffffffffffffffffffffffffffffffff16836000546040518463ffffffff1660e01b8152600401610c1b939291906111ed565b600060405180830381600087803b158015610c3557600080fd5b505af1158015610c49573d6000803e3d6000fd5b50505050610c61674f43dce61d5cbfc760c01b610b59565b600160009054906101000a900473ffffffffffffffffffffffffffffffffffffffff1673ffffffffffffffffffffffffffffffffffffffff16636352211e6000546040518263ffffffff1660e01b8152600401610cbe9190610dd2565b602060405180830381865afa158015610cdb573d6000803e3d6000fd5b505050506040513d601f19601f82011682018060405250810190610cff9190611357565b600960006101000a81548173ffffffffffffffffffffffffffffffffffffffff021916908373ffffffffffffffffffffffffffffffffffffffff160217905550610d53675f019d0f61739d2360c01b610b59565b6000600960146101000a81548160ff02191690831515021790555050565b600060019050919050565b6000919050565b60008115159050919050565b610d9881610d83565b82525050565b6000602082019050610db36000830184610d8f565b92915050565b6000819050919050565b610dcc81610db9565b82525050565b6000602082019050610de76000830184610dc3565b92915050565b600073ffffffffffffffffffffffffffffffffffffffff82169050919050565b6000610e1882610ded565b9050919050565b610e2881610e0d565b82525050565b6000602082019050610e436000830184610e1f565b92915050565b600080fd5b610e5781610db9565b8114610e6257600080fd5b50565b600081359050610e7481610e4e565b92915050565b600060208284031215610e9057610e8f610e49565b5b6000610e9e84828501610e65565b91505092915050565b6000819050919050565b6000610ecc610ec7610ec284610ded565b610ea7565b610ded565b9050919050565b6000610ede82610eb1565b9050919050565b6000610ef082610ed3565b9050919050565b610f0081610ee5565b82525050565b6000602082019050610f1b6000830184610ef7565b92915050565b6000610f2c82610ed3565b9050919050565b610f3c81610f21565b82525050565b6000602082019050610f576000830184610f33565b92915050565b7f4e487b7100000000000000000000000000000000000000000000000000000000600052601160045260246000fd5b6000610f9782610db9565b9150610fa283610db9565b9250828203905081811115610fba57610fb9610f5d565b5b92915050565b600082825260208201905092915050565b7f41756374696f6e20697320636c6f736564000000000000000000000000000000600082015250565b6000611007601183610fc0565b915061101282610fd1565b602082019050919050565b6000602082019050818103600083015261103681610ffa565b9050919050565b7f596f7520616c726561647920626f7567687420746869732070726f6475637400600082015250565b6000611073601f83610fc0565b915061107e8261103d565b602082019050919050565b600060208201905081810360008301526110a281611066565b9050919050565b7f50726f6475637420616c726561647920736f6c64000000000000000000000000600082015250565b60006110df601483610fc0565b91506110ea826110a9565b602082019050919050565b6000602082019050818103600083015261110e816110d2565b9050919050565b7f4f776e65722063616e2774204269640000000000000000000000000000000000600082015250565b600061114b600f83610fc0565b915061115682611115565b602082019050919050565b6000602082019050818103600083015261117a8161113e565b9050919050565b7f45544820697320696e73756666696369656e7400000000000000000000000000600082015250565b60006111b7601383610fc0565b91506111c282611181565b602082019050919050565b600060208201905081810360008301526111e6816111aa565b9050919050565b60006060820190506112026000830186610e1f565b61120f6020830185610e1f565b61121c6040830184610dc3565b949350505050565b61122d81610d83565b811461123857600080fd5b50565b60008151905061124a81611224565b92915050565b60006020828403121561126657611265610e49565b5b60006112748482850161123b565b91505092915050565b7f4661696c656420746f2073656e6420455243323020746f6b656e730000000000600082015250565b60006112b3601b83610fc0565b91506112be8261127d565b602082019050919050565b600060208201905081810360008301526112e2816112a6565b9050919050565b60006112f482610db9565b91506112ff83610db9565b925082820261130d81610db9565b9150828204841483151761132457611323610f5d565b5b5092915050565b61133481610e0d565b811461133f57600080fd5b50565b6000815190506113518161132b565b92915050565b60006020828403121561136d5761136c610e49565b5b600061137b84828501611342565b9150509291505056fea2646970667358221220092263ce58ab734a114cacc08f09f919298e7419d49760f69c209f1ba54fd31d64736f6c63430008110033",
  "linkReferences": {},
  "deployedLinkReferences": {}
}