{
  "_format": "hh-sol-artifact-1",
  "contractName": "NFTDutchAuction_ERC20BidsUpgradeable",
  "sourceName": "contracts/NFTDutchAuction_ERC20BidsUpgradeable.sol",
  "abi": [
    {
      "anonymous": false,
      "inputs": [
        {
          "indexed": false,
          "internalType": "address",
          "name": "previousAdmin",
          "type": "address"
        },
        {
          "indexed": false,
          "internalType": "address",
          "name": "newAdmin",
          "type": "address"
        }
      ],
      "name": "AdminChanged",
      "type": "event"
    },
    {
      "anonymous": false,
      "inputs": [
        {
          "indexed": true,
          "internalType": "address",
          "name": "beacon",
          "type": "address"
        }
      ],
      "name": "BeaconUpgraded",
      "type": "event"
    },
    {
      "anonymous": false,
      "inputs": [
        {
          "indexed": false,
          "internalType": "uint8",
          "name": "version",
          "type": "uint8"
        }
      ],
      "name": "Initialized",
      "type": "event"
    },
    {
      "anonymous": false,
      "inputs": [
        {
          "indexed": true,
          "internalType": "address",
          "name": "previousOwner",
          "type": "address"
        },
        {
          "indexed": true,
          "internalType": "address",
          "name": "newOwner",
          "type": "address"
        }
      ],
      "name": "OwnershipTransferred",
      "type": "event"
    },
    {
      "anonymous": false,
      "inputs": [
        {
          "indexed": true,
          "internalType": "address",
          "name": "implementation",
          "type": "address"
        }
      ],
      "name": "Upgraded",
      "type": "event"
    },
    {
      "inputs": [],
      "name": "auctionStatusOpen",
      "outputs": [
        {
          "internalType": "bool",
          "name": "",
          "type": "bool"
        }
      ],
      "stateMutability": "view",
      "type": "function"
    },
    {
      "inputs": [
        {
          "internalType": "uint256",
          "name": "amount",
          "type": "uint256"
        }
      ],
      "name": "bid",
      "outputs": [],
      "stateMutability": "nonpayable",
      "type": "function"
    },
    {
      "inputs": [],
      "name": "buyer",
      "outputs": [
        {
          "internalType": "address",
          "name": "",
          "type": "address"
        }
      ],
      "stateMutability": "view",
      "type": "function"
    },
    {
      "inputs": [],
      "name": "currentPrice",
      "outputs": [
        {
          "internalType": "uint256",
          "name": "",
          "type": "uint256"
        }
      ],
      "stateMutability": "view",
      "type": "function"
    },
    {
      "inputs": [
        {
          "internalType": "address",
          "name": "erc20TokenAddress",
          "type": "address"
        },
        {
          "internalType": "address",
          "name": "erc721TokenAddress",
          "type": "address"
        },
        {
          "internalType": "uint256",
          "name": "_nftTokenId",
          "type": "uint256"
        },
        {
          "internalType": "uint256",
          "name": "_reservePrice",
          "type": "uint256"
        },
        {
          "internalType": "uint256",
          "name": "_numBlocksAuctionOpen",
          "type": "uint256"
        },
        {
          "internalType": "uint256",
          "name": "_offerPriceDecrement",
          "type": "uint256"
        }
      ],
      "name": "initialize",
      "outputs": [],
      "stateMutability": "nonpayable",
      "type": "function"
    },
    {
      "inputs": [],
      "name": "owner",
      "outputs": [
        {
          "internalType": "address",
          "name": "",
          "type": "address"
        }
      ],
      "stateMutability": "view",
      "type": "function"
    },
    {
      "inputs": [],
      "name": "proxiableUUID",
      "outputs": [
        {
          "internalType": "bytes32",
          "name": "",
          "type": "bytes32"
        }
      ],
      "stateMutability": "view",
      "type": "function"
    },
    {
      "inputs": [],
      "name": "renounceOwnership",
      "outputs": [],
      "stateMutability": "nonpayable",
      "type": "function"
    },
    {
      "inputs": [],
      "name": "seller",
      "outputs": [
        {
          "internalType": "address",
          "name": "",
          "type": "address"
        }
      ],
      "stateMutability": "view",
      "type": "function"
    },
    {
      "inputs": [
        {
          "internalType": "address",
          "name": "newOwner",
          "type": "address"
        }
      ],
      "name": "transferOwnership",
      "outputs": [],
      "stateMutability": "nonpayable",
      "type": "function"
    },
    {
      "inputs": [
        {
          "internalType": "address",
          "name": "newImplementation",
          "type": "address"
        }
      ],
      "name": "upgradeTo",
      "outputs": [],
      "stateMutability": "nonpayable",
      "type": "function"
    },
    {
      "inputs": [
        {
          "internalType": "address",
          "name": "newImplementation",
          "type": "address"
        },
        {
          "internalType": "bytes",
          "name": "data",
          "type": "bytes"
        }
      ],
      "name": "upgradeToAndCall",
      "outputs": [],
      "stateMutability": "payable",
      "type": "function"
    }
  ],
  "bytecode": "0x60a06040523073ffffffffffffffffffffffffffffffffffffffff1660809073ffffffffffffffffffffffffffffffffffffffff1681525034801561004357600080fd5b5060805161263d61007b600039600081816102c00152818161034e015281816107ad0152818161083b01526108eb015261263d6000f3fe6080604052600436106100a75760003560e01c8063715018a611610064578063715018a61461019b5780637150d8ae146101b257806386489ba9146101dd5780638da5cb5b146102065780639d1b464a14610231578063f2fde38b1461025c576100a7565b806308551a53146100ac5780630b48ab8f146100d75780633659cfe614610102578063454a2ab31461012b5780634f1ef2861461015457806352d1902d14610170575b600080fd5b3480156100b857600080fd5b506100c1610285565b6040516100ce9190611666565b60405180910390f35b3480156100e357600080fd5b506100ec6102ab565b6040516100f9919061169c565b60405180910390f35b34801561010e57600080fd5b50610129600480360381019061012491906116f7565b6102be565b005b34801561013757600080fd5b50610152600480360381019061014d919061175a565b610446565b005b61016e600480360381019061016991906118cd565b6107ab565b005b34801561017c57600080fd5b506101856108e7565b6040516101929190611942565b60405180910390f35b3480156101a757600080fd5b506101b06109a0565b005b3480156101be57600080fd5b506101c76109b4565b6040516101d49190611666565b60405180910390f35b3480156101e957600080fd5b5061020460048036038101906101ff919061195d565b6109da565b005b34801561021257600080fd5b5061021b610d67565b6040516102289190611666565b60405180910390f35b34801561023d57600080fd5b50610246610d91565b60405161025391906119f9565b60405180910390f35b34801561026857600080fd5b50610283600480360381019061027e91906116f7565b610dba565b005b60d060009054906101000a900473ffffffffffffffffffffffffffffffffffffffff1681565b60d360009054906101000a900460ff1681565b7f000000000000000000000000000000000000000000000000000000000000000073ffffffffffffffffffffffffffffffffffffffff163073ffffffffffffffffffffffffffffffffffffffff160361034c576040517f08c379a000000000000000000000000000000000000000000000000000000000815260040161034390611a97565b60405180910390fd5b7f000000000000000000000000000000000000000000000000000000000000000073ffffffffffffffffffffffffffffffffffffffff1661038b610e3d565b73ffffffffffffffffffffffffffffffffffffffff16146103e1576040517f08c379a00000000000000000000000000000000000000000000000000000000081526004016103d890611b29565b60405180910390fd5b6103ea81610e94565b61044381600067ffffffffffffffff811115610409576104086117a2565b5b6040519080825280601f01601f19166020018201604052801561043b5781602001600182028036833780820191505090505b506000610e9f565b50565b61044e61100d565b61048d576040517f08c379a000000000000000000000000000000000000000000000000000000000815260040161048490611b95565b60405180910390fd5b60cf60009054906101000a900473ffffffffffffffffffffffffffffffffffffffff1673ffffffffffffffffffffffffffffffffffffffff163373ffffffffffffffffffffffffffffffffffffffff160361051d576040517f08c379a000000000000000000000000000000000000000000000000000000000815260040161051490611c01565b60405180910390fd5b600073ffffffffffffffffffffffffffffffffffffffff1660cf60009054906101000a900473ffffffffffffffffffffffffffffffffffffffff1673ffffffffffffffffffffffffffffffffffffffff16146105ae576040517f08c379a00000000000000000000000000000000000000000000000000000000081526004016105a590611c6d565b60405180910390fd5b60d060009054906101000a900473ffffffffffffffffffffffffffffffffffffffff1673ffffffffffffffffffffffffffffffffffffffff163373ffffffffffffffffffffffffffffffffffffffff160361063e576040517f08c379a000000000000000000000000000000000000000000000000000000000815260040161063590611cd9565b60405180910390fd5b610646610d91565b811015610688576040517f08c379a000000000000000000000000000000000000000000000000000000000815260040161067f90611d45565b60405180910390fd5b600060cb60009054906101000a900473ffffffffffffffffffffffffffffffffffffffff1673ffffffffffffffffffffffffffffffffffffffff166323b872dd3360d060009054906101000a900473ffffffffffffffffffffffffffffffffffffffff166106f4610d91565b6040518463ffffffff1660e01b815260040161071293929190611d65565b6020604051808303816000875af1158015610731573d6000803e3d6000fd5b505050506040513d601f19601f820116820180604052508101906107559190611dc8565b9050600115158115151461079e576040517f08c379a000000000000000000000000000000000000000000000000000000000815260040161079590611e41565b60405180910390fd5b6107a733611021565b5050565b7f000000000000000000000000000000000000000000000000000000000000000073ffffffffffffffffffffffffffffffffffffffff163073ffffffffffffffffffffffffffffffffffffffff1603610839576040517f08c379a000000000000000000000000000000000000000000000000000000000815260040161083090611a97565b60405180910390fd5b7f000000000000000000000000000000000000000000000000000000000000000073ffffffffffffffffffffffffffffffffffffffff16610878610e3d565b73ffffffffffffffffffffffffffffffffffffffff16146108ce576040517f08c379a00000000000000000000000000000000000000000000000000000000081526004016108c590611b29565b60405180910390fd5b6108d782610e94565b6108e382826001610e9f565b5050565b60007f000000000000000000000000000000000000000000000000000000000000000073ffffffffffffffffffffffffffffffffffffffff163073ffffffffffffffffffffffffffffffffffffffff1614610977576040517f08c379a000000000000000000000000000000000000000000000000000000000815260040161096e90611ed3565b60405180910390fd5b7f360894a13ba1a3210667c828492db98dca3e2076cc3735a920a3ca505d382bbc60001b905090565b6109a86111d2565b6109b26000611250565b565b60cf60009054906101000a900473ffffffffffffffffffffffffffffffffffffffff1681565b60008060019054906101000a900460ff16159050808015610a0b5750600160008054906101000a900460ff1660ff16105b80610a385750610a1a30611316565b158015610a375750600160008054906101000a900460ff1660ff16145b5b610a77576040517f08c379a0000000000000000000000000000000000000000000000000000000008152600401610a6e90611f65565b60405180910390fd5b60016000806101000a81548160ff021916908360ff1602179055508015610ab4576001600060016101000a81548160ff0219169083151502179055505b3360d060006101000a81548173ffffffffffffffffffffffffffffffffffffffff021916908373ffffffffffffffffffffffffffffffffffffffff1602179055504360d181905550600160d360006101000a81548160ff0219169083151502179055508460c9819055508560ca60006101000a81548173ffffffffffffffffffffffffffffffffffffffff021916908373ffffffffffffffffffffffffffffffffffffffff1602179055508660cb60006101000a81548173ffffffffffffffffffffffffffffffffffffffff021916908373ffffffffffffffffffffffffffffffffffffffff16021790555060d060009054906101000a900473ffffffffffffffffffffffffffffffffffffffff1673ffffffffffffffffffffffffffffffffffffffff1660ca60009054906101000a900473ffffffffffffffffffffffffffffffffffffffff1673ffffffffffffffffffffffffffffffffffffffff16636352211e60c9546040518263ffffffff1660e01b8152600401610c3691906119f9565b602060405180830381865afa158015610c53573d6000803e3d6000fd5b505050506040513d601f19601f82011682018060405250810190610c779190611f9a565b73ffffffffffffffffffffffffffffffffffffffff1614610ccd576040517f08c379a0000000000000000000000000000000000000000000000000000000008152600401610cc490612013565b60405180910390fd5b8360cc819055508260cd819055508160ce8190555060ce5460cd54610cf29190612062565b60cc54610cff91906120a4565b60d2819055508015610d5e5760008060016101000a81548160ff0219169083151502179055507f7f26b83ff96e1f2b6a682f133852f6798a09c465da95921460cefb38474024986001604051610d55919061212a565b60405180910390a15b50505050505050565b6000609760009054906101000a900473ffffffffffffffffffffffffffffffffffffffff16905090565b600060ce54610d9e611339565b610da89190612062565b60d254610db59190612145565b905090565b610dc26111d2565b600073ffffffffffffffffffffffffffffffffffffffff168173ffffffffffffffffffffffffffffffffffffffff1603610e31576040517f08c379a0000000000000000000000000000000000000000000000000000000008152600401610e28906121eb565b60405180910390fd5b610e3a81611250565b50565b6000610e6b7f360894a13ba1a3210667c828492db98dca3e2076cc3735a920a3ca505d382bbc60001b611355565b60000160009054906101000a900473ffffffffffffffffffffffffffffffffffffffff16905090565b610e9c6111d2565b50565b610ecb7f4910fdfa16fed3260ed0e7147f7cc6da11a60208b5b9406d12a635614ffd914360001b61135f565b60000160009054906101000a900460ff1615610eef57610eea83611369565b611008565b8273ffffffffffffffffffffffffffffffffffffffff166352d1902d6040518163ffffffff1660e01b8152600401602060405180830381865afa925050508015610f5757506040513d601f19601f82011682018060405250810190610f549190612237565b60015b610f96576040517f08c379a0000000000000000000000000000000000000000000000000000000008152600401610f8d906122d6565b60405180910390fd5b7f360894a13ba1a3210667c828492db98dca3e2076cc3735a920a3ca505d382bbc60001b8114610ffb576040517f08c379a0000000000000000000000000000000000000000000000000000000008152600401610ff290612368565b60405180910390fd5b50611007838383611422565b5b505050565b600060cd5461101a611339565b1115905090565b60ca60009054906101000a900473ffffffffffffffffffffffffffffffffffffffff1673ffffffffffffffffffffffffffffffffffffffff166323b872dd60d060009054906101000a900473ffffffffffffffffffffffffffffffffffffffff168360c9546040518463ffffffff1660e01b81526004016110a493929190611d65565b600060405180830381600087803b1580156110be57600080fd5b505af11580156110d2573d6000803e3d6000fd5b5050505060ca60009054906101000a900473ffffffffffffffffffffffffffffffffffffffff1673ffffffffffffffffffffffffffffffffffffffff16636352211e60c9546040518263ffffffff1660e01b815260040161113391906119f9565b602060405180830381865afa158015611150573d6000803e3d6000fd5b505050506040513d601f19601f820116820180604052508101906111749190611f9a565b60cf60006101000a81548173ffffffffffffffffffffffffffffffffffffffff021916908373ffffffffffffffffffffffffffffffffffffffff160217905550600060d360006101000a81548160ff02191690831515021790555050565b6111da61144e565b73ffffffffffffffffffffffffffffffffffffffff166111f8610d67565b73ffffffffffffffffffffffffffffffffffffffff161461124e576040517f08c379a0000000000000000000000000000000000000000000000000000000008152600401611245906123d4565b60405180910390fd5b565b6000609760009054906101000a900473ffffffffffffffffffffffffffffffffffffffff16905081609760006101000a81548173ffffffffffffffffffffffffffffffffffffffff021916908373ffffffffffffffffffffffffffffffffffffffff1602179055508173ffffffffffffffffffffffffffffffffffffffff168173ffffffffffffffffffffffffffffffffffffffff167f8be0079c531659141344cd1fd0a4f28419497f9722a3daafe3b4186f6b6457e060405160405180910390a35050565b6000808273ffffffffffffffffffffffffffffffffffffffff163b119050919050565b600060d154611346611456565b6113509190612145565b905090565b6000819050919050565b6000819050919050565b61137281611316565b6113b1576040517f08c379a00000000000000000000000000000000000000000000000000000000081526004016113a890612466565b60405180910390fd5b806113de7f360894a13ba1a3210667c828492db98dca3e2076cc3735a920a3ca505d382bbc60001b611355565b60000160006101000a81548173ffffffffffffffffffffffffffffffffffffffff021916908373ffffffffffffffffffffffffffffffffffffffff16021790555050565b61142b8361145e565b6000825111806114385750805b156114495761144783836114ad565b505b505050565b600033905090565b600043905090565b61146781611369565b8073ffffffffffffffffffffffffffffffffffffffff167fbc7cd75a20ee27fd9adebab32041f755214dbc6bffa90cc0225b39da2e5c2d3b60405160405180910390a250565b60606114d283836040518060600160405280602781526020016125e1602791396114da565b905092915050565b60606000808573ffffffffffffffffffffffffffffffffffffffff168560405161150491906124f7565b600060405180830381855af49150503d806000811461153f576040519150601f19603f3d011682016040523d82523d6000602084013e611544565b606091505b509150915061155586838387611560565b925050509392505050565b606083156115c25760008351036115ba5761157a85611316565b6115b9576040517f08c379a00000000000000000000000000000000000000000000000000000000081526004016115b09061255a565b60405180910390fd5b5b8290506115cd565b6115cc83836115d5565b5b949350505050565b6000825111156115e85781518083602001fd5b806040517f08c379a000000000000000000000000000000000000000000000000000000000815260040161161c91906125be565b60405180910390fd5b600073ffffffffffffffffffffffffffffffffffffffff82169050919050565b600061165082611625565b9050919050565b61166081611645565b82525050565b600060208201905061167b6000830184611657565b92915050565b60008115159050919050565b61169681611681565b82525050565b60006020820190506116b1600083018461168d565b92915050565b6000604051905090565b600080fd5b600080fd5b6116d481611645565b81146116df57600080fd5b50565b6000813590506116f1816116cb565b92915050565b60006020828403121561170d5761170c6116c1565b5b600061171b848285016116e2565b91505092915050565b6000819050919050565b61173781611724565b811461174257600080fd5b50565b6000813590506117548161172e565b92915050565b6000602082840312156117705761176f6116c1565b5b600061177e84828501611745565b91505092915050565b600080fd5b600080fd5b6000601f19601f8301169050919050565b7f4e487b7100000000000000000000000000000000000000000000000000000000600052604160045260246000fd5b6117da82611791565b810181811067ffffffffffffffff821117156117f9576117f86117a2565b5b80604052505050565b600061180c6116b7565b905061181882826117d1565b919050565b600067ffffffffffffffff821115611838576118376117a2565b5b61184182611791565b9050602081019050919050565b82818337600083830152505050565b600061187061186b8461181d565b611802565b90508281526020810184848401111561188c5761188b61178c565b5b61189784828561184e565b509392505050565b600082601f8301126118b4576118b3611787565b5b81356118c484826020860161185d565b91505092915050565b600080604083850312156118e4576118e36116c1565b5b60006118f2858286016116e2565b925050602083013567ffffffffffffffff811115611913576119126116c6565b5b61191f8582860161189f565b9150509250929050565b6000819050919050565b61193c81611929565b82525050565b60006020820190506119576000830184611933565b92915050565b60008060008060008060c0878903121561197a576119796116c1565b5b600061198889828a016116e2565b965050602061199989828a016116e2565b95505060406119aa89828a01611745565b94505060606119bb89828a01611745565b93505060806119cc89828a01611745565b92505060a06119dd89828a01611745565b9150509295509295509295565b6119f381611724565b82525050565b6000602082019050611a0e60008301846119ea565b92915050565b600082825260208201905092915050565b7f46756e6374696f6e206d7573742062652063616c6c6564207468726f7567682060008201527f64656c656761746563616c6c0000000000000000000000000000000000000000602082015250565b6000611a81602c83611a14565b9150611a8c82611a25565b604082019050919050565b60006020820190508181036000830152611ab081611a74565b9050919050565b7f46756e6374696f6e206d7573742062652063616c6c6564207468726f7567682060008201527f6163746976652070726f78790000000000000000000000000000000000000000602082015250565b6000611b13602c83611a14565b9150611b1e82611ab7565b604082019050919050565b60006020820190508181036000830152611b4281611b06565b9050919050565b7f41756374696f6e20697320636c6f736564000000000000000000000000000000600082015250565b6000611b7f601183611a14565b9150611b8a82611b49565b602082019050919050565b60006020820190508181036000830152611bae81611b72565b9050919050565b7f596f7520616c726561647920626f7567687420746869732070726f6475637400600082015250565b6000611beb601f83611a14565b9150611bf682611bb5565b602082019050919050565b60006020820190508181036000830152611c1a81611bde565b9050919050565b7f50726f6475637420616c726561647920736f6c64000000000000000000000000600082015250565b6000611c57601483611a14565b9150611c6282611c21565b602082019050919050565b60006020820190508181036000830152611c8681611c4a565b9050919050565b7f4f776e65722063616e2774204269640000000000000000000000000000000000600082015250565b6000611cc3600f83611a14565b9150611cce82611c8d565b602082019050919050565b60006020820190508181036000830152611cf281611cb6565b9050919050565b7f57454920697320696e73756666696369656e7400000000000000000000000000600082015250565b6000611d2f601383611a14565b9150611d3a82611cf9565b602082019050919050565b60006020820190508181036000830152611d5e81611d22565b9050919050565b6000606082019050611d7a6000830186611657565b611d876020830185611657565b611d9460408301846119ea565b949350505050565b611da581611681565b8114611db057600080fd5b50565b600081519050611dc281611d9c565b92915050565b600060208284031215611dde57611ddd6116c1565b5b6000611dec84828501611db3565b91505092915050565b7f6661696c656420746f2073656e64000000000000000000000000000000000000600082015250565b6000611e2b600e83611a14565b9150611e3682611df5565b602082019050919050565b60006020820190508181036000830152611e5a81611e1e565b9050919050565b7f555550535570677261646561626c653a206d757374206e6f742062652063616c60008201527f6c6564207468726f7567682064656c656761746563616c6c0000000000000000602082015250565b6000611ebd603883611a14565b9150611ec882611e61565b604082019050919050565b60006020820190508181036000830152611eec81611eb0565b9050919050565b7f496e697469616c697a61626c653a20636f6e747261637420697320616c72656160008201527f647920696e697469616c697a6564000000000000000000000000000000000000602082015250565b6000611f4f602e83611a14565b9150611f5a82611ef3565b604082019050919050565b60006020820190508181036000830152611f7e81611f42565b9050919050565b600081519050611f94816116cb565b92915050565b600060208284031215611fb057611faf6116c1565b5b6000611fbe84828501611f85565b91505092915050565b7f596f7520646f6e2774206f776e2074686973204e465420746f2073656c6c0000600082015250565b6000611ffd601e83611a14565b915061200882611fc7565b602082019050919050565b6000602082019050818103600083015261202c81611ff0565b9050919050565b7f4e487b7100000000000000000000000000000000000000000000000000000000600052601160045260246000fd5b600061206d82611724565b915061207883611724565b925082820261208681611724565b9150828204841483151761209d5761209c612033565b5b5092915050565b60006120af82611724565b91506120ba83611724565b92508282019050808211156120d2576120d1612033565b5b92915050565b6000819050919050565b600060ff82169050919050565b6000819050919050565b600061211461210f61210a846120d8565b6120ef565b6120e2565b9050919050565b612124816120f9565b82525050565b600060208201905061213f600083018461211b565b92915050565b600061215082611724565b915061215b83611724565b925082820390508181111561217357612172612033565b5b92915050565b7f4f776e61626c653a206e6577206f776e657220697320746865207a65726f206160008201527f6464726573730000000000000000000000000000000000000000000000000000602082015250565b60006121d5602683611a14565b91506121e082612179565b604082019050919050565b60006020820190508181036000830152612204816121c8565b9050919050565b61221481611929565b811461221f57600080fd5b50565b6000815190506122318161220b565b92915050565b60006020828403121561224d5761224c6116c1565b5b600061225b84828501612222565b91505092915050565b7f45524331393637557067726164653a206e657720696d706c656d656e7461746960008201527f6f6e206973206e6f742055555053000000000000000000000000000000000000602082015250565b60006122c0602e83611a14565b91506122cb82612264565b604082019050919050565b600060208201905081810360008301526122ef816122b3565b9050919050565b7f45524331393637557067726164653a20756e737570706f727465642070726f7860008201527f6961626c65555549440000000000000000000000000000000000000000000000602082015250565b6000612352602983611a14565b915061235d826122f6565b604082019050919050565b6000602082019050818103600083015261238181612345565b9050919050565b7f4f776e61626c653a2063616c6c6572206973206e6f7420746865206f776e6572600082015250565b60006123be602083611a14565b91506123c982612388565b602082019050919050565b600060208201905081810360008301526123ed816123b1565b9050919050565b7f455243313936373a206e657720696d706c656d656e746174696f6e206973206e60008201527f6f74206120636f6e747261637400000000000000000000000000000000000000602082015250565b6000612450602d83611a14565b915061245b826123f4565b604082019050919050565b6000602082019050818103600083015261247f81612443565b9050919050565b600081519050919050565b600081905092915050565b60005b838110156124ba57808201518184015260208101905061249f565b60008484015250505050565b60006124d182612486565b6124db8185612491565b93506124eb81856020860161249c565b80840191505092915050565b600061250382846124c6565b915081905092915050565b7f416464726573733a2063616c6c20746f206e6f6e2d636f6e7472616374000000600082015250565b6000612544601d83611a14565b915061254f8261250e565b602082019050919050565b6000602082019050818103600083015261257381612537565b9050919050565b600081519050919050565b60006125908261257a565b61259a8185611a14565b93506125aa81856020860161249c565b6125b381611791565b840191505092915050565b600060208201905081810360008301526125d88184612585565b90509291505056fe416464726573733a206c6f772d6c6576656c2064656c65676174652063616c6c206661696c6564a2646970667358221220e35dda601da0893799cdcd145f4e9ee608664f0467431fac53f4a40d311640a564736f6c63430008110033",
  "linkReferences": {},
  "deployedLinkReferences": {}
}