{"contracts/NFTDutchAuction_ERC20Bids.sol":{"NFTDutchAuction_ERC20Bids":{"abi":[{"inputs":[{"internalType":"address","name":"erc20TokenAddress","type":"address"},{"internalType":"address","name":"erc721TokenAddress","type":"address"},{"internalType":"uint256","name":"_nftTokenId","type":"uint256"},{"internalType":"uint256","name":"_reservePrice","type":"uint256"},{"internalType":"uint256","name":"_numBlocksAuctionOpen","type":"uint256"},{"internalType":"uint256","name":"_offerPriceDecrement","type":"uint256"}],"stateMutability":"nonpayable","type":"constructor"},{"inputs":[],"name":"addressOfToken","outputs":[{"internalType":"contract IMyToken","name":"","type":"address"}],"stateMutability":"view","type":"function"},{"inputs":[],"name":"auctionStatusOpen","outputs":[{"internalType":"bool","name":"","type":"bool"}],"stateMutability":"view","type":"function"},{"inputs":[{"internalType":"uint256","name":"amount","type":"uint256"}],"name":"bid","outputs":[],"stateMutability":"nonpayable","type":"function"},{"inputs":[],"name":"blockDifference","outputs":[{"internalType":"uint256","name":"","type":"uint256"}],"stateMutability":"view","type":"function"},{"inputs":[],"name":"buyer","outputs":[{"internalType":"address","name":"","type":"address"}],"stateMutability":"view","type":"function"},{"inputs":[],"name":"currentBlock","outputs":[{"internalType":"uint256","name":"","type":"uint256"}],"stateMutability":"view","type":"function"},{"inputs":[],"name":"currentPrice","outputs":[{"internalType":"uint256","name":"","type":"uint256"}],"stateMutability":"view","type":"function"},{"inputs":[],"name":"initialPrice","outputs":[{"internalType":"uint256","name":"","type":"uint256"}],"stateMutability":"view","type":"function"},{"inputs":[],"name":"isAuctionOpen","outputs":[{"internalType":"bool","name":"","type":"bool"}],"stateMutability":"view","type":"function"},{"inputs":[],"name":"nft_Address","outputs":[{"internalType":"contract IMyNFT","name":"","type":"address"}],"stateMutability":"view","type":"function"},{"inputs":[],"name":"nft_Id","outputs":[{"internalType":"uint256","name":"","type":"uint256"}],"stateMutability":"view","type":"function"},{"inputs":[],"name":"numBlocksAuctionOpen","outputs":[{"internalType":"uint256","name":"","type":"uint256"}],"stateMutability":"view","type":"function"},{"inputs":[],"name":"offerPriceDecrement","outputs":[{"internalType":"uint256","name":"","type":"uint256"}],"stateMutability":"view","type":"function"},{"inputs":[],"name":"reservePrice","outputs":[{"internalType":"uint256","name":"","type":"uint256"}],"stateMutability":"view","type":"function"},{"inputs":[],"name":"sellerAccountAddress","outputs":[{"internalType":"address","name":"","type":"address"}],"stateMutability":"view","type":"function"},{"inputs":[],"name":"startingBlock","outputs":[{"internalType":"uint256","name":"","type":"uint256"}],"stateMutability":"view","type":"function"}],"evm":{"bytecode":{"linkReferences":{},"object":"60806040523480156200001157600080fd5b506040516200186238038062001862833981810160405281019062000037919062000347565b6200005367341689d476e813f960c01b6200029f60201b60201c565b6200006f67d6ae7b4ec63fc2b460c01b6200029f60201b60201c565b83600081905550620000926794c71eedfefc6b5460c01b6200029f60201b60201c565b84600160006101000a81548173ffffffffffffffffffffffffffffffffffffffff021916908373ffffffffffffffffffffffffffffffffffffffff160217905550620000ef67bdbdb8a76dd1d68f60c01b6200029f60201b60201c565b85600260006101000a81548173ffffffffffffffffffffffffffffffffffffffff021916908373ffffffffffffffffffffffffffffffffffffffff1602179055506200014c67b996fcc84e8c873460c01b6200029f60201b60201c565b33600560006101000a81548173ffffffffffffffffffffffffffffffffffffffff021916908373ffffffffffffffffffffffffffffffffffffffff160217905550620001a967b2df9d994c74904660c01b6200029f60201b60201c565b43600881905550620001cc67146522dc1d5e50be60c01b6200029f60201b60201c565b6001600960146101000a81548160ff0219169083151502179055506200020367ff9d32ba173c6ed360c01b6200029f60201b60201c565b826003819055506200022667ee6aeb5bffd1dba560c01b6200029f60201b60201c565b8160048190555062000249672c70aa109eb984ce60c01b6200029f60201b60201c565b806006819055506200026c6747f276909997270960c01b6200029f60201b60201c565b6006546004546200027e919062000412565b6003546200028d91906200045d565b60078190555050505050505062000498565b50565b600080fd5b600073ffffffffffffffffffffffffffffffffffffffff82169050919050565b6000620002d482620002a7565b9050919050565b620002e681620002c7565b8114620002f257600080fd5b50565b6000815190506200030681620002db565b92915050565b6000819050919050565b62000321816200030c565b81146200032d57600080fd5b50565b600081519050620003418162000316565b92915050565b60008060008060008060c08789031215620003675762000366620002a2565b5b60006200037789828a01620002f5565b96505060206200038a89828a01620002f5565b95505060406200039d89828a0162000330565b9450506060620003b089828a0162000330565b9350506080620003c389828a0162000330565b92505060a0620003d689828a0162000330565b9150509295509295509295565b7f4e487b7100000000000000000000000000000000000000000000000000000000600052601160045260246000fd5b60006200041f826200030c565b91506200042c836200030c565b92508282026200043c816200030c565b91508282048414831517620004565762000455620003e3565b5b5092915050565b60006200046a826200030c565b915062000477836200030c565b9250828201905080821115620004925762000491620003e3565b5b92915050565b6113ba80620004a86000396000f3fe608060405234801561001057600080fd5b50600436106101005760003560e01c80637150d8ae11610097578063d91c98d311610066578063d91c98d31461026b578063db2e1eed14610289578063e12ed13c146102a7578063f5734ae2146102c557610100565b80637150d8ae146101f35780639d1b464a14610211578063cca414271461022f578063d3642a881461024d57610100565b8063323b935f116100d3578063323b935f1461017d578063454a2ab31461019b5780634a0f97e8146101b75780636ee6cb9f146101d557610100565b80630b48ab8f146101055780631d0806ae14610123578063233aec66146101415780633103ea621461015f575b600080fd5b61010d6102e3565b60405161011a9190610d9e565b60405180910390f35b61012b6102f6565b6040516101389190610dd2565b60405180910390f35b6101496102fc565b6040516101569190610dd2565b60405180910390f35b610167610354565b6040516101749190610dd2565b60405180910390f35b61018561035a565b6040516101929190610e2e565b60405180910390f35b6101b560048036038101906101b09190610e7a565b610380565b005b6101bf610922565b6040516101cc9190610f06565b60405180910390f35b6101dd610948565b6040516101ea9190610dd2565b60405180910390f35b6101fb61094e565b6040516102089190610e2e565b60405180910390f35b610219610974565b6040516102269190610dd2565b60405180910390f35b610237610a51565b6040516102449190610d9e565b60405180910390f35b610255610add565b6040516102629190610dd2565b60405180910390f35b610273610ae3565b6040516102809190610dd2565b60405180910390f35b610291610ae9565b60405161029e9190610dd2565b60405180910390f35b6102af610aef565b6040516102bc9190610dd2565b60405180910390f35b6102cd610b33565b6040516102da9190610f42565b60405180910390f35b600960149054906101000a900460ff1681565b60075481565b600061031267d97886502308238d60c01b610b59565b610326674a0f34a60d3d98ec60c01b610b59565b61033a67a47c099179a9506660c01b610b59565b600854610345610aef565b61034f9190610f8c565b905090565b60045481565b600560009054906101000a900473ffffffffffffffffffffffffffffffffffffffff1681565b6103946760c8025400ca699960c01b610b59565b6103a867991046e7de50019860c01b610b59565b6103bc676288d2a5ee151e5960c01b610b59565b6103d067a349994fe1c641d260c01b610b59565b6103d8610a51565b610417576040517f08c379a000000000000000000000000000000000000000000000000000000000815260040161040e9061101d565b60405180910390fd5b61042b678b9e0a3797e9aa3060c01b610b59565b61043f67d98cf2506c4fa0a260c01b610b59565b61045367ece5a9ef4d0f58c760c01b610b59565b610467675f71888cdeee64cf60c01b610b59565b600960009054906101000a900473ffffffffffffffffffffffffffffffffffffffff1673ffffffffffffffffffffffffffffffffffffffff163373ffffffffffffffffffffffffffffffffffffffff16036104f7576040517f08c379a00000000000000000000000000000000000000000000000000000000081526004016104ee90611089565b60405180910390fd5b61050b6736784dbb5e0080be60c01b610b59565b61051f677c29867ff1f8d9c560c01b610b59565b61053367a21882d56b3cd2a260c01b610b59565b610547672a3b7c0284821e1a60c01b610b59565b600073ffffffffffffffffffffffffffffffffffffffff16600960009054906101000a900473ffffffffffffffffffffffffffffffffffffffff1673ffffffffffffffffffffffffffffffffffffffff16146105d8576040517f08c379a00000000000000000000000000000000000000000000000000000000081526004016105cf906110f5565b60405180910390fd5b6105ec672cfa46ba5666534860c01b610b59565b61060067f1eb0bb01e48a37a60c01b610b59565b61061467c416a2992dc04b3560c01b610b59565b61062867107bae1994c8f25560c01b610b59565b600560009054906101000a900473ffffffffffffffffffffffffffffffffffffffff1673ffffffffffffffffffffffffffffffffffffffff163373ffffffffffffffffffffffffffffffffffffffff16036106b8576040517f08c379a00000000000000000000000000000000000000000000000000000000081526004016106af90611161565b60405180910390fd5b6106cc6743605e378e3ad92260c01b610b59565b6106e06750726d316e5d07ab60c01b610b59565b6106f467f4a33befe1bb5e8b60c01b610b59565b61070867c922fbec95a37cfe60c01b610b59565b610710610974565b811015610752576040517f08c379a0000000000000000000000000000000000000000000000000000000008152600401610749906111cd565b60405180910390fd5b6107666704290455d491b4bb60c01b610b59565b61077a672bc76227beb8fcb460c01b610b59565b61078e67b7601ed63523b86960c01b610b59565b6000600260009054906101000a900473ffffffffffffffffffffffffffffffffffffffff1673ffffffffffffffffffffffffffffffffffffffff166323b872dd33600560009054906101000a900473ffffffffffffffffffffffffffffffffffffffff166107fa610974565b6040518463ffffffff1660e01b8152600401610818939291906111ed565b6020604051808303816000875af1158015610837573d6000803e3d6000fd5b505050506040513d601f19601f8201168201806040525081019061085b9190611250565b9050610871672d7b7d2a98e4ff8960c01b610b59565b61088567fdee18296d3ceda460c01b610b59565b61089967daad1bf057fa0fa660c01b610b59565b806108d9576040517f08c379a00000000000000000000000000000000000000000000000000000000081526004016108d0906112c9565b60405180910390fd5b6108ed67b71d0726292b570f60c01b610b59565b610901672de2800bd36d1fd860c01b610b59565b61091567585780138bb383a360c01b610b59565b61091e33610b5c565b5050565b600260009054906101000a900473ffffffffffffffffffffffffffffffffffffffff1681565b60005481565b600960009054906101000a900473ffffffffffffffffffffffffffffffffffffffff1681565b600061098a670e67312e7aa6c9d960c01b610b59565b61099e67d1848292855d2d1160c01b610b59565b6109b26735c69df6af67e6ab60c01b610b59565b60006109bc6102fc565b90506109d267d738873f13716e7160c01b610b59565b6109e66787e02b813472534f60c01b610b59565b6004548110158015610a085750610a0767a6783f87aea081db60c01b610d71565b5b80610a235750610a22671df5a7017649b52d60c01b610d7c565b5b610a475760065481610a3591906112e9565b600754610a429190610f8c565b610a4b565b6003545b91505090565b6000610a6767fab707aa96241ef060c01b610b59565b610a7b67c1680f8f185bae3b60c01b610b59565b610a8f67e569102b036abfea60c01b610b59565b6000610a996102fc565b9050610aaf6780c42a4465a7df1a60c01b610b59565b610ac36776fb3e8f186865ba60c01b610b59565b6004548111158015610ad757506008544310155b91505090565b60065481565b60085481565b60035481565b6000610b0567eddbbd277f243fad60c01b610b59565b610b196702508dfab00891db60c01b610b59565b610b2d67fc827802e5f6cd5a60c01b610b59565b43905090565b600160009054906101000a900473ffffffffffffffffffffffffffffffffffffffff1681565b50565b610b7067597b9f05e2799afa60c01b610b59565b610b84674858a31f8d88b7ab60c01b610b59565b610b9867c167fbc4852e617960c01b610b59565b600160009054906101000a900473ffffffffffffffffffffffffffffffffffffffff1673ffffffffffffffffffffffffffffffffffffffff166323b872dd600560009054906101000a900473ffffffffffffffffffffffffffffffffffffffff16836000546040518463ffffffff1660e01b8152600401610c1b939291906111ed565b600060405180830381600087803b158015610c3557600080fd5b505af1158015610c49573d6000803e3d6000fd5b50505050610c61674f43dce61d5cbfc760c01b610b59565b600160009054906101000a900473ffffffffffffffffffffffffffffffffffffffff1673ffffffffffffffffffffffffffffffffffffffff16636352211e6000546040518263ffffffff1660e01b8152600401610cbe9190610dd2565b602060405180830381865afa158015610cdb573d6000803e3d6000fd5b505050506040513d601f19601f82011682018060405250810190610cff9190611357565b600960006101000a81548173ffffffffffffffffffffffffffffffffffffffff021916908373ffffffffffffffffffffffffffffffffffffffff160217905550610d53675f019d0f61739d2360c01b610b59565b6000600960146101000a81548160ff02191690831515021790555050565b600060019050919050565b6000919050565b60008115159050919050565b610d9881610d83565b82525050565b6000602082019050610db36000830184610d8f565b92915050565b6000819050919050565b610dcc81610db9565b82525050565b6000602082019050610de76000830184610dc3565b92915050565b600073ffffffffffffffffffffffffffffffffffffffff82169050919050565b6000610e1882610ded565b9050919050565b610e2881610e0d565b82525050565b6000602082019050610e436000830184610e1f565b92915050565b600080fd5b610e5781610db9565b8114610e6257600080fd5b50565b600081359050610e7481610e4e565b92915050565b600060208284031215610e9057610e8f610e49565b5b6000610e9e84828501610e65565b91505092915050565b6000819050919050565b6000610ecc610ec7610ec284610ded565b610ea7565b610ded565b9050919050565b6000610ede82610eb1565b9050919050565b6000610ef082610ed3565b9050919050565b610f0081610ee5565b82525050565b6000602082019050610f1b6000830184610ef7565b92915050565b6000610f2c82610ed3565b9050919050565b610f3c81610f21565b82525050565b6000602082019050610f576000830184610f33565b92915050565b7f4e487b7100000000000000000000000000000000000000000000000000000000600052601160045260246000fd5b6000610f9782610db9565b9150610fa283610db9565b9250828203905081811115610fba57610fb9610f5d565b5b92915050565b600082825260208201905092915050565b7f41756374696f6e20697320636c6f736564000000000000000000000000000000600082015250565b6000611007601183610fc0565b915061101282610fd1565b602082019050919050565b6000602082019050818103600083015261103681610ffa565b9050919050565b7f596f7520616c726561647920626f7567687420746869732070726f6475637400600082015250565b6000611073601f83610fc0565b915061107e8261103d565b602082019050919050565b600060208201905081810360008301526110a281611066565b9050919050565b7f50726f6475637420616c726561647920736f6c64000000000000000000000000600082015250565b60006110df601483610fc0565b91506110ea826110a9565b602082019050919050565b6000602082019050818103600083015261110e816110d2565b9050919050565b7f4f776e65722063616e2774204269640000000000000000000000000000000000600082015250565b600061114b600f83610fc0565b915061115682611115565b602082019050919050565b6000602082019050818103600083015261117a8161113e565b9050919050565b7f45544820697320696e73756666696369656e7400000000000000000000000000600082015250565b60006111b7601383610fc0565b91506111c282611181565b602082019050919050565b600060208201905081810360008301526111e6816111aa565b9050919050565b60006060820190506112026000830186610e1f565b61120f6020830185610e1f565b61121c6040830184610dc3565b949350505050565b61122d81610d83565b811461123857600080fd5b50565b60008151905061124a81611224565b92915050565b60006020828403121561126657611265610e49565b5b60006112748482850161123b565b91505092915050565b7f4661696c656420746f2073656e6420455243323020746f6b656e730000000000600082015250565b60006112b3601b83610fc0565b91506112be8261127d565b602082019050919050565b600060208201905081810360008301526112e2816112a6565b9050919050565b60006112f482610db9565b91506112ff83610db9565b925082820261130d81610db9565b9150828204841483151761132457611323610f5d565b5b5092915050565b61133481610e0d565b811461133f57600080fd5b50565b6000815190506113518161132b565b92915050565b60006020828403121561136d5761136c610e49565b5b600061137b84828501611342565b9150509291505056fea2646970667358221220092263ce58ab734a114cacc08f09f919298e7419d49760f69c209f1ba54fd31d64736f6c63430008110033","opcodes":"PUSH1 0x80 PUSH1 0x40 MSTORE CALLVALUE DUP1 ISZERO PUSH3 0x11 JUMPI PUSH1 0x0 DUP1 REVERT JUMPDEST POP PUSH1 0x40 MLOAD PUSH3 0x1862 CODESIZE SUB DUP1 PUSH3 0x1862 DUP4 CODECOPY DUP2 DUP2 ADD PUSH1 0x40 MSTORE DUP2 ADD SWAP1 PUSH3 0x37 SWAP2 SWAP1 PUSH3 0x347 JUMP JUMPDEST PUSH3 0x53 PUSH8 0x341689D476E813F9 PUSH1 0xC0 SHL PUSH3 0x29F PUSH1 0x20 SHL PUSH1 0x20 SHR JUMP JUMPDEST PUSH3 0x6F PUSH8 0xD6AE7B4EC63FC2B4 PUSH1 0xC0 SHL PUSH3 0x29F PUSH1 0x20 SHL PUSH1 0x20 SHR JUMP JUMPDEST DUP4 PUSH1 0x0 DUP2 SWAP1 SSTORE POP PUSH3 0x92 PUSH8 0x94C71EEDFEFC6B54 PUSH1 0xC0 SHL PUSH3 0x29F PUSH1 0x20 SHL PUSH1 0x20 SHR JUMP JUMPDEST DUP5 PUSH1 0x1 PUSH1 0x0 PUSH2 0x100 EXP DUP2 SLOAD DUP2 PUSH20 0xFFFFFFFFFFFFFFFFFFFFFFFFFFFFFFFFFFFFFFFF MUL NOT AND SWAP1 DUP4 PUSH20 0xFFFFFFFFFFFFFFFFFFFFFFFFFFFFFFFFFFFFFFFF AND MUL OR SWAP1 SSTORE POP PUSH3 0xEF PUSH8 0xBDBDB8A76DD1D68F PUSH1 0xC0 SHL PUSH3 0x29F PUSH1 0x20 SHL PUSH1 0x20 SHR JUMP JUMPDEST DUP6 PUSH1 0x2 PUSH1 0x0 PUSH2 0x100 EXP DUP2 SLOAD DUP2 PUSH20 0xFFFFFFFFFFFFFFFFFFFFFFFFFFFFFFFFFFFFFFFF MUL NOT AND SWAP1 DUP4 PUSH20 0xFFFFFFFFFFFFFFFFFFFFFFFFFFFFFFFFFFFFFFFF AND MUL OR SWAP1 SSTORE POP PUSH3 0x14C PUSH8 0xB996FCC84E8C8734 PUSH1 0xC0 SHL PUSH3 0x29F PUSH1 0x20 SHL PUSH1 0x20 SHR JUMP JUMPDEST CALLER PUSH1 0x5 PUSH1 0x0 PUSH2 0x100 EXP DUP2 SLOAD DUP2 PUSH20 0xFFFFFFFFFFFFFFFFFFFFFFFFFFFFFFFFFFFFFFFF MUL NOT AND SWAP1 DUP4 PUSH20 0xFFFFFFFFFFFFFFFFFFFFFFFFFFFFFFFFFFFFFFFF AND MUL OR SWAP1 SSTORE POP PUSH3 0x1A9 PUSH8 0xB2DF9D994C749046 PUSH1 0xC0 SHL PUSH3 0x29F PUSH1 0x20 SHL PUSH1 0x20 SHR JUMP JUMPDEST NUMBER PUSH1 0x8 DUP2 SWAP1 SSTORE POP PUSH3 0x1CC PUSH8 0x146522DC1D5E50BE PUSH1 0xC0 SHL PUSH3 0x29F PUSH1 0x20 SHL PUSH1 0x20 SHR JUMP JUMPDEST PUSH1 0x1 PUSH1 0x9 PUSH1 0x14 PUSH2 0x100 EXP DUP2 SLOAD DUP2 PUSH1 0xFF MUL NOT AND SWAP1 DUP4 ISZERO ISZERO MUL OR SWAP1 SSTORE POP PUSH3 0x203 PUSH8 0xFF9D32BA173C6ED3 PUSH1 0xC0 SHL PUSH3 0x29F PUSH1 0x20 SHL PUSH1 0x20 SHR JUMP JUMPDEST DUP3 PUSH1 0x3 DUP2 SWAP1 SSTORE POP PUSH3 0x226 PUSH8 0xEE6AEB5BFFD1DBA5 PUSH1 0xC0 SHL PUSH3 0x29F PUSH1 0x20 SHL PUSH1 0x20 SHR JUMP JUMPDEST DUP2 PUSH1 0x4 DUP2 SWAP1 SSTORE POP PUSH3 0x249 PUSH8 0x2C70AA109EB984CE PUSH1 0xC0 SHL PUSH3 0x29F PUSH1 0x20 SHL PUSH1 0x20 SHR JUMP JUMPDEST DUP1 PUSH1 0x6 DUP2 SWAP1 SSTORE POP PUSH3 0x26C PUSH8 0x47F2769099972709 PUSH1 0xC0 SHL PUSH3 0x29F PUSH1 0x20 SHL PUSH1 0x20 SHR JUMP JUMPDEST PUSH1 0x6 SLOAD PUSH1 0x4 SLOAD PUSH3 0x27E SWAP2 SWAP1 PUSH3 0x412 JUMP JUMPDEST PUSH1 0x3 SLOAD PUSH3 0x28D SWAP2 SWAP1 PUSH3 0x45D JUMP JUMPDEST PUSH1 0x7 DUP2 SWAP1 SSTORE POP POP POP POP POP POP POP PUSH3 0x498 JUMP JUMPDEST POP JUMP JUMPDEST PUSH1 0x0 DUP1 REVERT JUMPDEST PUSH1 0x0 PUSH20 0xFFFFFFFFFFFFFFFFFFFFFFFFFFFFFFFFFFFFFFFF DUP3 AND SWAP1 POP SWAP2 SWAP1 POP JUMP JUMPDEST PUSH1 0x0 PUSH3 0x2D4 DUP3 PUSH3 0x2A7 JUMP JUMPDEST SWAP1 POP SWAP2 SWAP1 POP JUMP JUMPDEST PUSH3 0x2E6 DUP2 PUSH3 0x2C7 JUMP JUMPDEST DUP2 EQ PUSH3 0x2F2 JUMPI PUSH1 0x0 DUP1 REVERT JUMPDEST POP JUMP JUMPDEST PUSH1 0x0 DUP2 MLOAD SWAP1 POP PUSH3 0x306 DUP2 PUSH3 0x2DB JUMP JUMPDEST SWAP3 SWAP2 POP POP JUMP JUMPDEST PUSH1 0x0 DUP2 SWAP1 POP SWAP2 SWAP1 POP JUMP JUMPDEST PUSH3 0x321 DUP2 PUSH3 0x30C JUMP JUMPDEST DUP2 EQ PUSH3 0x32D JUMPI PUSH1 0x0 DUP1 REVERT JUMPDEST POP JUMP JUMPDEST PUSH1 0x0 DUP2 MLOAD SWAP1 POP PUSH3 0x341 DUP2 PUSH3 0x316 JUMP JUMPDEST SWAP3 SWAP2 POP POP JUMP JUMPDEST PUSH1 0x0 DUP1 PUSH1 0x0 DUP1 PUSH1 0x0 DUP1 PUSH1 0xC0 DUP8 DUP10 SUB SLT ISZERO PUSH3 0x367 JUMPI PUSH3 0x366 PUSH3 0x2A2 JUMP JUMPDEST JUMPDEST PUSH1 0x0 PUSH3 0x377 DUP10 DUP3 DUP11 ADD PUSH3 0x2F5 JUMP JUMPDEST SWAP7 POP POP PUSH1 0x20 PUSH3 0x38A DUP10 DUP3 DUP11 ADD PUSH3 0x2F5 JUMP JUMPDEST SWAP6 POP POP PUSH1 0x40 PUSH3 0x39D DUP10 DUP3 DUP11 ADD PUSH3 0x330 JUMP JUMPDEST SWAP5 POP POP PUSH1 0x60 PUSH3 0x3B0 DUP10 DUP3 DUP11 ADD PUSH3 0x330 JUMP JUMPDEST SWAP4 POP POP PUSH1 0x80 PUSH3 0x3C3 DUP10 DUP3 DUP11 ADD PUSH3 0x330 JUMP JUMPDEST SWAP3 POP POP PUSH1 0xA0 PUSH3 0x3D6 DUP10 DUP3 DUP11 ADD PUSH3 0x330 JUMP JUMPDEST SWAP2 POP POP SWAP3 SWAP6 POP SWAP3 SWAP6 POP SWAP3 SWAP6 JUMP JUMPDEST PUSH32 0x4E487B7100000000000000000000000000000000000000000000000000000000 PUSH1 0x0 MSTORE PUSH1 0x11 PUSH1 0x4 MSTORE PUSH1 0x24 PUSH1 0x0 REVERT JUMPDEST PUSH1 0x0 PUSH3 0x41F DUP3 PUSH3 0x30C JUMP JUMPDEST SWAP2 POP PUSH3 0x42C DUP4 PUSH3 0x30C JUMP JUMPDEST SWAP3 POP DUP3 DUP3 MUL PUSH3 0x43C DUP2 PUSH3 0x30C JUMP JUMPDEST SWAP2 POP DUP3 DUP3 DIV DUP5 EQ DUP4 ISZERO OR PUSH3 0x456 JUMPI PUSH3 0x455 PUSH3 0x3E3 JUMP JUMPDEST JUMPDEST POP SWAP3 SWAP2 POP POP JUMP JUMPDEST PUSH1 0x0 PUSH3 0x46A DUP3 PUSH3 0x30C JUMP JUMPDEST SWAP2 POP PUSH3 0x477 DUP4 PUSH3 0x30C JUMP JUMPDEST SWAP3 POP DUP3 DUP3 ADD SWAP1 POP DUP1 DUP3 GT ISZERO PUSH3 0x492 JUMPI PUSH3 0x491 PUSH3 0x3E3 JUMP JUMPDEST JUMPDEST SWAP3 SWAP2 POP POP JUMP JUMPDEST PUSH2 0x13BA DUP1 PUSH3 0x4A8 PUSH1 0x0 CODECOPY PUSH1 0x0 RETURN INVALID PUSH1 0x80 PUSH1 0x40 MSTORE CALLVALUE DUP1 ISZERO PUSH2 0x10 JUMPI PUSH1 0x0 DUP1 REVERT JUMPDEST POP PUSH1 0x4 CALLDATASIZE LT PUSH2 0x100 JUMPI PUSH1 0x0 CALLDATALOAD PUSH1 0xE0 SHR DUP1 PUSH4 0x7150D8AE GT PUSH2 0x97 JUMPI DUP1 PUSH4 0xD91C98D3 GT PUSH2 0x66 JUMPI DUP1 PUSH4 0xD91C98D3 EQ PUSH2 0x26B JUMPI DUP1 PUSH4 0xDB2E1EED EQ PUSH2 0x289 JUMPI DUP1 PUSH4 0xE12ED13C EQ PUSH2 0x2A7 JUMPI DUP1 PUSH4 0xF5734AE2 EQ PUSH2 0x2C5 JUMPI PUSH2 0x100 JUMP JUMPDEST DUP1 PUSH4 0x7150D8AE EQ PUSH2 0x1F3 JUMPI DUP1 PUSH4 0x9D1B464A EQ PUSH2 0x211 JUMPI DUP1 PUSH4 0xCCA41427 EQ PUSH2 0x22F JUMPI DUP1 PUSH4 0xD3642A88 EQ PUSH2 0x24D JUMPI PUSH2 0x100 JUMP JUMPDEST DUP1 PUSH4 0x323B935F GT PUSH2 0xD3 JUMPI DUP1 PUSH4 0x323B935F EQ PUSH2 0x17D JUMPI DUP1 PUSH4 0x454A2AB3 EQ PUSH2 0x19B JUMPI DUP1 PUSH4 0x4A0F97E8 EQ PUSH2 0x1B7 JUMPI DUP1 PUSH4 0x6EE6CB9F EQ PUSH2 0x1D5 JUMPI PUSH2 0x100 JUMP JUMPDEST DUP1 PUSH4 0xB48AB8F EQ PUSH2 0x105 JUMPI DUP1 PUSH4 0x1D0806AE EQ PUSH2 0x123 JUMPI DUP1 PUSH4 0x233AEC66 EQ PUSH2 0x141 JUMPI DUP1 PUSH4 0x3103EA62 EQ PUSH2 0x15F JUMPI JUMPDEST PUSH1 0x0 DUP1 REVERT JUMPDEST PUSH2 0x10D PUSH2 0x2E3 JUMP JUMPDEST PUSH1 0x40 MLOAD PUSH2 0x11A SWAP2 SWAP1 PUSH2 0xD9E JUMP JUMPDEST PUSH1 0x40 MLOAD DUP1 SWAP2 SUB SWAP1 RETURN JUMPDEST PUSH2 0x12B PUSH2 0x2F6 JUMP JUMPDEST PUSH1 0x40 MLOAD PUSH2 0x138 SWAP2 SWAP1 PUSH2 0xDD2 JUMP JUMPDEST PUSH1 0x40 MLOAD DUP1 SWAP2 SUB SWAP1 RETURN JUMPDEST PUSH2 0x149 PUSH2 0x2FC JUMP JUMPDEST PUSH1 0x40 MLOAD PUSH2 0x156 SWAP2 SWAP1 PUSH2 0xDD2 JUMP JUMPDEST PUSH1 0x40 MLOAD DUP1 SWAP2 SUB SWAP1 RETURN JUMPDEST PUSH2 0x167 PUSH2 0x354 JUMP JUMPDEST PUSH1 0x40 MLOAD PUSH2 0x174 SWAP2 SWAP1 PUSH2 0xDD2 JUMP JUMPDEST PUSH1 0x40 MLOAD DUP1 SWAP2 SUB SWAP1 RETURN JUMPDEST PUSH2 0x185 PUSH2 0x35A JUMP JUMPDEST PUSH1 0x40 MLOAD PUSH2 0x192 SWAP2 SWAP1 PUSH2 0xE2E JUMP JUMPDEST PUSH1 0x40 MLOAD DUP1 SWAP2 SUB SWAP1 RETURN JUMPDEST PUSH2 0x1B5 PUSH1 0x4 DUP1 CALLDATASIZE SUB DUP2 ADD SWAP1 PUSH2 0x1B0 SWAP2 SWAP1 PUSH2 0xE7A JUMP JUMPDEST PUSH2 0x380 JUMP JUMPDEST STOP JUMPDEST PUSH2 0x1BF PUSH2 0x922 JUMP JUMPDEST PUSH1 0x40 MLOAD PUSH2 0x1CC SWAP2 SWAP1 PUSH2 0xF06 JUMP JUMPDEST PUSH1 0x40 MLOAD DUP1 SWAP2 SUB SWAP1 RETURN JUMPDEST PUSH2 0x1DD PUSH2 0x948 JUMP JUMPDEST PUSH1 0x40 MLOAD PUSH2 0x1EA SWAP2 SWAP1 PUSH2 0xDD2 JUMP JUMPDEST PUSH1 0x40 MLOAD DUP1 SWAP2 SUB SWAP1 RETURN JUMPDEST PUSH2 0x1FB PUSH2 0x94E JUMP JUMPDEST PUSH1 0x40 MLOAD PUSH2 0x208 SWAP2 SWAP1 PUSH2 0xE2E JUMP JUMPDEST PUSH1 0x40 MLOAD DUP1 SWAP2 SUB SWAP1 RETURN JUMPDEST PUSH2 0x219 PUSH2 0x974 JUMP JUMPDEST PUSH1 0x40 MLOAD PUSH2 0x226 SWAP2 SWAP1 PUSH2 0xDD2 JUMP JUMPDEST PUSH1 0x40 MLOAD DUP1 SWAP2 SUB SWAP1 RETURN JUMPDEST PUSH2 0x237 PUSH2 0xA51 JUMP JUMPDEST PUSH1 0x40 MLOAD PUSH2 0x244 SWAP2 SWAP1 PUSH2 0xD9E JUMP JUMPDEST PUSH1 0x40 MLOAD DUP1 SWAP2 SUB SWAP1 RETURN JUMPDEST PUSH2 0x255 PUSH2 0xADD JUMP JUMPDEST PUSH1 0x40 MLOAD PUSH2 0x262 SWAP2 SWAP1 PUSH2 0xDD2 JUMP JUMPDEST PUSH1 0x40 MLOAD DUP1 SWAP2 SUB SWAP1 RETURN JUMPDEST PUSH2 0x273 PUSH2 0xAE3 JUMP JUMPDEST PUSH1 0x40 MLOAD PUSH2 0x280 SWAP2 SWAP1 PUSH2 0xDD2 JUMP JUMPDEST PUSH1 0x40 MLOAD DUP1 SWAP2 SUB SWAP1 RETURN JUMPDEST PUSH2 0x291 PUSH2 0xAE9 JUMP JUMPDEST PUSH1 0x40 MLOAD PUSH2 0x29E SWAP2 SWAP1 PUSH2 0xDD2 JUMP JUMPDEST PUSH1 0x40 MLOAD DUP1 SWAP2 SUB SWAP1 RETURN JUMPDEST PUSH2 0x2AF PUSH2 0xAEF JUMP JUMPDEST PUSH1 0x40 MLOAD PUSH2 0x2BC SWAP2 SWAP1 PUSH2 0xDD2 JUMP JUMPDEST PUSH1 0x40 MLOAD DUP1 SWAP2 SUB SWAP1 RETURN JUMPDEST PUSH2 0x2CD PUSH2 0xB33 JUMP JUMPDEST PUSH1 0x40 MLOAD PUSH2 0x2DA SWAP2 SWAP1 PUSH2 0xF42 JUMP JUMPDEST PUSH1 0x40 MLOAD DUP1 SWAP2 SUB SWAP1 RETURN JUMPDEST PUSH1 0x9 PUSH1 0x14 SWAP1 SLOAD SWAP1 PUSH2 0x100 EXP SWAP1 DIV PUSH1 0xFF AND DUP2 JUMP JUMPDEST PUSH1 0x7 SLOAD DUP2 JUMP JUMPDEST PUSH1 0x0 PUSH2 0x312 PUSH8 0xD97886502308238D PUSH1 0xC0 SHL PUSH2 0xB59 JUMP JUMPDEST PUSH2 0x326 PUSH8 0x4A0F34A60D3D98EC PUSH1 0xC0 SHL PUSH2 0xB59 JUMP JUMPDEST PUSH2 0x33A PUSH8 0xA47C099179A95066 PUSH1 0xC0 SHL PUSH2 0xB59 JUMP JUMPDEST PUSH1 0x8 SLOAD PUSH2 0x345 PUSH2 0xAEF JUMP JUMPDEST PUSH2 0x34F SWAP2 SWAP1 PUSH2 0xF8C JUMP JUMPDEST SWAP1 POP SWAP1 JUMP JUMPDEST PUSH1 0x4 SLOAD DUP2 JUMP JUMPDEST PUSH1 0x5 PUSH1 0x0 SWAP1 SLOAD SWAP1 PUSH2 0x100 EXP SWAP1 DIV PUSH20 0xFFFFFFFFFFFFFFFFFFFFFFFFFFFFFFFFFFFFFFFF AND DUP2 JUMP JUMPDEST PUSH2 0x394 PUSH8 0x60C8025400CA6999 PUSH1 0xC0 SHL PUSH2 0xB59 JUMP JUMPDEST PUSH2 0x3A8 PUSH8 0x991046E7DE500198 PUSH1 0xC0 SHL PUSH2 0xB59 JUMP JUMPDEST PUSH2 0x3BC PUSH8 0x6288D2A5EE151E59 PUSH1 0xC0 SHL PUSH2 0xB59 JUMP JUMPDEST PUSH2 0x3D0 PUSH8 0xA349994FE1C641D2 PUSH1 0xC0 SHL PUSH2 0xB59 JUMP JUMPDEST PUSH2 0x3D8 PUSH2 0xA51 JUMP JUMPDEST PUSH2 0x417 JUMPI PUSH1 0x40 MLOAD PUSH32 0x8C379A000000000000000000000000000000000000000000000000000000000 DUP2 MSTORE PUSH1 0x4 ADD PUSH2 0x40E SWAP1 PUSH2 0x101D JUMP JUMPDEST PUSH1 0x40 MLOAD DUP1 SWAP2 SUB SWAP1 REVERT JUMPDEST PUSH2 0x42B PUSH8 0x8B9E0A3797E9AA30 PUSH1 0xC0 SHL PUSH2 0xB59 JUMP JUMPDEST PUSH2 0x43F PUSH8 0xD98CF2506C4FA0A2 PUSH1 0xC0 SHL PUSH2 0xB59 JUMP JUMPDEST PUSH2 0x453 PUSH8 0xECE5A9EF4D0F58C7 PUSH1 0xC0 SHL PUSH2 0xB59 JUMP JUMPDEST PUSH2 0x467 PUSH8 0x5F71888CDEEE64CF PUSH1 0xC0 SHL PUSH2 0xB59 JUMP JUMPDEST PUSH1 0x9 PUSH1 0x0 SWAP1 SLOAD SWAP1 PUSH2 0x100 EXP SWAP1 DIV PUSH20 0xFFFFFFFFFFFFFFFFFFFFFFFFFFFFFFFFFFFFFFFF AND PUSH20 0xFFFFFFFFFFFFFFFFFFFFFFFFFFFFFFFFFFFFFFFF AND CALLER PUSH20 0xFFFFFFFFFFFFFFFFFFFFFFFFFFFFFFFFFFFFFFFF AND SUB PUSH2 0x4F7 JUMPI PUSH1 0x40 MLOAD PUSH32 0x8C379A000000000000000000000000000000000000000000000000000000000 DUP2 MSTORE PUSH1 0x4 ADD PUSH2 0x4EE SWAP1 PUSH2 0x1089 JUMP JUMPDEST PUSH1 0x40 MLOAD DUP1 SWAP2 SUB SWAP1 REVERT JUMPDEST PUSH2 0x50B PUSH8 0x36784DBB5E0080BE PUSH1 0xC0 SHL PUSH2 0xB59 JUMP JUMPDEST PUSH2 0x51F PUSH8 0x7C29867FF1F8D9C5 PUSH1 0xC0 SHL PUSH2 0xB59 JUMP JUMPDEST PUSH2 0x533 PUSH8 0xA21882D56B3CD2A2 PUSH1 0xC0 SHL PUSH2 0xB59 JUMP JUMPDEST PUSH2 0x547 PUSH8 0x2A3B7C0284821E1A PUSH1 0xC0 SHL PUSH2 0xB59 JUMP JUMPDEST PUSH1 0x0 PUSH20 0xFFFFFFFFFFFFFFFFFFFFFFFFFFFFFFFFFFFFFFFF AND PUSH1 0x9 PUSH1 0x0 SWAP1 SLOAD SWAP1 PUSH2 0x100 EXP SWAP1 DIV PUSH20 0xFFFFFFFFFFFFFFFFFFFFFFFFFFFFFFFFFFFFFFFF AND PUSH20 0xFFFFFFFFFFFFFFFFFFFFFFFFFFFFFFFFFFFFFFFF AND EQ PUSH2 0x5D8 JUMPI PUSH1 0x40 MLOAD PUSH32 0x8C379A000000000000000000000000000000000000000000000000000000000 DUP2 MSTORE PUSH1 0x4 ADD PUSH2 0x5CF SWAP1 PUSH2 0x10F5 JUMP JUMPDEST PUSH1 0x40 MLOAD DUP1 SWAP2 SUB SWAP1 REVERT JUMPDEST PUSH2 0x5EC PUSH8 0x2CFA46BA56665348 PUSH1 0xC0 SHL PUSH2 0xB59 JUMP JUMPDEST PUSH2 0x600 PUSH8 0xF1EB0BB01E48A37A PUSH1 0xC0 SHL PUSH2 0xB59 JUMP JUMPDEST PUSH2 0x614 PUSH8 0xC416A2992DC04B35 PUSH1 0xC0 SHL PUSH2 0xB59 JUMP JUMPDEST PUSH2 0x628 PUSH8 0x107BAE1994C8F255 PUSH1 0xC0 SHL PUSH2 0xB59 JUMP JUMPDEST PUSH1 0x5 PUSH1 0x0 SWAP1 SLOAD SWAP1 PUSH2 0x100 EXP SWAP1 DIV PUSH20 0xFFFFFFFFFFFFFFFFFFFFFFFFFFFFFFFFFFFFFFFF AND PUSH20 0xFFFFFFFFFFFFFFFFFFFFFFFFFFFFFFFFFFFFFFFF AND CALLER PUSH20 0xFFFFFFFFFFFFFFFFFFFFFFFFFFFFFFFFFFFFFFFF AND SUB PUSH2 0x6B8 JUMPI PUSH1 0x40 MLOAD PUSH32 0x8C379A000000000000000000000000000000000000000000000000000000000 DUP2 MSTORE PUSH1 0x4 ADD PUSH2 0x6AF SWAP1 PUSH2 0x1161 JUMP JUMPDEST PUSH1 0x40 MLOAD DUP1 SWAP2 SUB SWAP1 REVERT JUMPDEST PUSH2 0x6CC PUSH8 0x43605E378E3AD922 PUSH1 0xC0 SHL PUSH2 0xB59 JUMP JUMPDEST PUSH2 0x6E0 PUSH8 0x50726D316E5D07AB PUSH1 0xC0 SHL PUSH2 0xB59 JUMP JUMPDEST PUSH2 0x6F4 PUSH8 0xF4A33BEFE1BB5E8B PUSH1 0xC0 SHL PUSH2 0xB59 JUMP JUMPDEST PUSH2 0x708 PUSH8 0xC922FBEC95A37CFE PUSH1 0xC0 SHL PUSH2 0xB59 JUMP JUMPDEST PUSH2 0x710 PUSH2 0x974 JUMP JUMPDEST DUP2 LT ISZERO PUSH2 0x752 JUMPI PUSH1 0x40 MLOAD PUSH32 0x8C379A000000000000000000000000000000000000000000000000000000000 DUP2 MSTORE PUSH1 0x4 ADD PUSH2 0x749 SWAP1 PUSH2 0x11CD JUMP JUMPDEST PUSH1 0x40 MLOAD DUP1 SWAP2 SUB SWAP1 REVERT JUMPDEST PUSH2 0x766 PUSH8 0x4290455D491B4BB PUSH1 0xC0 SHL PUSH2 0xB59 JUMP JUMPDEST PUSH2 0x77A PUSH8 0x2BC76227BEB8FCB4 PUSH1 0xC0 SHL PUSH2 0xB59 JUMP JUMPDEST PUSH2 0x78E PUSH8 0xB7601ED63523B869 PUSH1 0xC0 SHL PUSH2 0xB59 JUMP JUMPDEST PUSH1 0x0 PUSH1 0x2 PUSH1 0x0 SWAP1 SLOAD SWAP1 PUSH2 0x100 EXP SWAP1 DIV PUSH20 0xFFFFFFFFFFFFFFFFFFFFFFFFFFFFFFFFFFFFFFFF AND PUSH20 0xFFFFFFFFFFFFFFFFFFFFFFFFFFFFFFFFFFFFFFFF AND PUSH4 0x23B872DD CALLER PUSH1 0x5 PUSH1 0x0 SWAP1 SLOAD SWAP1 PUSH2 0x100 EXP SWAP1 DIV PUSH20 0xFFFFFFFFFFFFFFFFFFFFFFFFFFFFFFFFFFFFFFFF AND PUSH2 0x7FA PUSH2 0x974 JUMP JUMPDEST PUSH1 0x40 MLOAD DUP5 PUSH4 0xFFFFFFFF AND PUSH1 0xE0 SHL DUP2 MSTORE PUSH1 0x4 ADD PUSH2 0x818 SWAP4 SWAP3 SWAP2 SWAP1 PUSH2 0x11ED JUMP JUMPDEST PUSH1 0x20 PUSH1 0x40 MLOAD DUP1 DUP4 SUB DUP2 PUSH1 0x0 DUP8 GAS CALL ISZERO DUP1 ISZERO PUSH2 0x837 JUMPI RETURNDATASIZE PUSH1 0x0 DUP1 RETURNDATACOPY RETURNDATASIZE PUSH1 0x0 REVERT JUMPDEST POP POP POP POP PUSH1 0x40 MLOAD RETURNDATASIZE PUSH1 0x1F NOT PUSH1 0x1F DUP3 ADD AND DUP3 ADD DUP1 PUSH1 0x40 MSTORE POP DUP2 ADD SWAP1 PUSH2 0x85B SWAP2 SWAP1 PUSH2 0x1250 JUMP JUMPDEST SWAP1 POP PUSH2 0x871 PUSH8 0x2D7B7D2A98E4FF89 PUSH1 0xC0 SHL PUSH2 0xB59 JUMP JUMPDEST PUSH2 0x885 PUSH8 0xFDEE18296D3CEDA4 PUSH1 0xC0 SHL PUSH2 0xB59 JUMP JUMPDEST PUSH2 0x899 PUSH8 0xDAAD1BF057FA0FA6 PUSH1 0xC0 SHL PUSH2 0xB59 JUMP JUMPDEST DUP1 PUSH2 0x8D9 JUMPI PUSH1 0x40 MLOAD PUSH32 0x8C379A000000000000000000000000000000000000000000000000000000000 DUP2 MSTORE PUSH1 0x4 ADD PUSH2 0x8D0 SWAP1 PUSH2 0x12C9 JUMP JUMPDEST PUSH1 0x40 MLOAD DUP1 SWAP2 SUB SWAP1 REVERT JUMPDEST PUSH2 0x8ED PUSH8 0xB71D0726292B570F PUSH1 0xC0 SHL PUSH2 0xB59 JUMP JUMPDEST PUSH2 0x901 PUSH8 0x2DE2800BD36D1FD8 PUSH1 0xC0 SHL PUSH2 0xB59 JUMP JUMPDEST PUSH2 0x915 PUSH8 0x585780138BB383A3 PUSH1 0xC0 SHL PUSH2 0xB59 JUMP JUMPDEST PUSH2 0x91E CALLER PUSH2 0xB5C JUMP JUMPDEST POP POP JUMP JUMPDEST PUSH1 0x2 PUSH1 0x0 SWAP1 SLOAD SWAP1 PUSH2 0x100 EXP SWAP1 DIV PUSH20 0xFFFFFFFFFFFFFFFFFFFFFFFFFFFFFFFFFFFFFFFF AND DUP2 JUMP JUMPDEST PUSH1 0x0 SLOAD DUP2 JUMP JUMPDEST PUSH1 0x9 PUSH1 0x0 SWAP1 SLOAD SWAP1 PUSH2 0x100 EXP SWAP1 DIV PUSH20 0xFFFFFFFFFFFFFFFFFFFFFFFFFFFFFFFFFFFFFFFF AND DUP2 JUMP JUMPDEST PUSH1 0x0 PUSH2 0x98A PUSH8 0xE67312E7AA6C9D9 PUSH1 0xC0 SHL PUSH2 0xB59 JUMP JUMPDEST PUSH2 0x99E PUSH8 0xD1848292855D2D11 PUSH1 0xC0 SHL PUSH2 0xB59 JUMP JUMPDEST PUSH2 0x9B2 PUSH8 0x35C69DF6AF67E6AB PUSH1 0xC0 SHL PUSH2 0xB59 JUMP JUMPDEST PUSH1 0x0 PUSH2 0x9BC PUSH2 0x2FC JUMP JUMPDEST SWAP1 POP PUSH2 0x9D2 PUSH8 0xD738873F13716E71 PUSH1 0xC0 SHL PUSH2 0xB59 JUMP JUMPDEST PUSH2 0x9E6 PUSH8 0x87E02B813472534F PUSH1 0xC0 SHL PUSH2 0xB59 JUMP JUMPDEST PUSH1 0x4 SLOAD DUP2 LT ISZERO DUP1 ISZERO PUSH2 0xA08 JUMPI POP PUSH2 0xA07 PUSH8 0xA6783F87AEA081DB PUSH1 0xC0 SHL PUSH2 0xD71 JUMP JUMPDEST JUMPDEST DUP1 PUSH2 0xA23 JUMPI POP PUSH2 0xA22 PUSH8 0x1DF5A7017649B52D PUSH1 0xC0 SHL PUSH2 0xD7C JUMP JUMPDEST JUMPDEST PUSH2 0xA47 JUMPI PUSH1 0x6 SLOAD DUP2 PUSH2 0xA35 SWAP2 SWAP1 PUSH2 0x12E9 JUMP JUMPDEST PUSH1 0x7 SLOAD PUSH2 0xA42 SWAP2 SWAP1 PUSH2 0xF8C JUMP JUMPDEST PUSH2 0xA4B JUMP JUMPDEST PUSH1 0x3 SLOAD JUMPDEST SWAP2 POP POP SWAP1 JUMP JUMPDEST PUSH1 0x0 PUSH2 0xA67 PUSH8 0xFAB707AA96241EF0 PUSH1 0xC0 SHL PUSH2 0xB59 JUMP JUMPDEST PUSH2 0xA7B PUSH8 0xC1680F8F185BAE3B PUSH1 0xC0 SHL PUSH2 0xB59 JUMP JUMPDEST PUSH2 0xA8F PUSH8 0xE569102B036ABFEA PUSH1 0xC0 SHL PUSH2 0xB59 JUMP JUMPDEST PUSH1 0x0 PUSH2 0xA99 PUSH2 0x2FC JUMP JUMPDEST SWAP1 POP PUSH2 0xAAF PUSH8 0x80C42A4465A7DF1A PUSH1 0xC0 SHL PUSH2 0xB59 JUMP JUMPDEST PUSH2 0xAC3 PUSH8 0x76FB3E8F186865BA PUSH1 0xC0 SHL PUSH2 0xB59 JUMP JUMPDEST PUSH1 0x4 SLOAD DUP2 GT ISZERO DUP1 ISZERO PUSH2 0xAD7 JUMPI POP PUSH1 0x8 SLOAD NUMBER LT ISZERO JUMPDEST SWAP2 POP POP SWAP1 JUMP JUMPDEST PUSH1 0x6 SLOAD DUP2 JUMP JUMPDEST PUSH1 0x8 SLOAD DUP2 JUMP JUMPDEST PUSH1 0x3 SLOAD DUP2 JUMP JUMPDEST PUSH1 0x0 PUSH2 0xB05 PUSH8 0xEDDBBD277F243FAD PUSH1 0xC0 SHL PUSH2 0xB59 JUMP JUMPDEST PUSH2 0xB19 PUSH8 0x2508DFAB00891DB PUSH1 0xC0 SHL PUSH2 0xB59 JUMP JUMPDEST PUSH2 0xB2D PUSH8 0xFC827802E5F6CD5A PUSH1 0xC0 SHL PUSH2 0xB59 JUMP JUMPDEST NUMBER SWAP1 POP SWAP1 JUMP JUMPDEST PUSH1 0x1 PUSH1 0x0 SWAP1 SLOAD SWAP1 PUSH2 0x100 EXP SWAP1 DIV PUSH20 0xFFFFFFFFFFFFFFFFFFFFFFFFFFFFFFFFFFFFFFFF AND DUP2 JUMP JUMPDEST POP JUMP JUMPDEST PUSH2 0xB70 PUSH8 0x597B9F05E2799AFA PUSH1 0xC0 SHL PUSH2 0xB59 JUMP JUMPDEST PUSH2 0xB84 PUSH8 0x4858A31F8D88B7AB PUSH1 0xC0 SHL PUSH2 0xB59 JUMP JUMPDEST PUSH2 0xB98 PUSH8 0xC167FBC4852E6179 PUSH1 0xC0 SHL PUSH2 0xB59 JUMP JUMPDEST PUSH1 0x1 PUSH1 0x0 SWAP1 SLOAD SWAP1 PUSH2 0x100 EXP SWAP1 DIV PUSH20 0xFFFFFFFFFFFFFFFFFFFFFFFFFFFFFFFFFFFFFFFF AND PUSH20 0xFFFFFFFFFFFFFFFFFFFFFFFFFFFFFFFFFFFFFFFF AND PUSH4 0x23B872DD PUSH1 0x5 PUSH1 0x0 SWAP1 SLOAD SWAP1 PUSH2 0x100 EXP SWAP1 DIV PUSH20 0xFFFFFFFFFFFFFFFFFFFFFFFFFFFFFFFFFFFFFFFF AND DUP4 PUSH1 0x0 SLOAD PUSH1 0x40 MLOAD DUP5 PUSH4 0xFFFFFFFF AND PUSH1 0xE0 SHL DUP2 MSTORE PUSH1 0x4 ADD PUSH2 0xC1B SWAP4 SWAP3 SWAP2 SWAP1 PUSH2 0x11ED JUMP JUMPDEST PUSH1 0x0 PUSH1 0x40 MLOAD DUP1 DUP4 SUB DUP2 PUSH1 0x0 DUP8 DUP1 EXTCODESIZE ISZERO DUP1 ISZERO PUSH2 0xC35 JUMPI PUSH1 0x0 DUP1 REVERT JUMPDEST POP GAS CALL ISZERO DUP1 ISZERO PUSH2 0xC49 JUMPI RETURNDATASIZE PUSH1 0x0 DUP1 RETURNDATACOPY RETURNDATASIZE PUSH1 0x0 REVERT JUMPDEST POP POP POP POP PUSH2 0xC61 PUSH8 0x4F43DCE61D5CBFC7 PUSH1 0xC0 SHL PUSH2 0xB59 JUMP JUMPDEST PUSH1 0x1 PUSH1 0x0 SWAP1 SLOAD SWAP1 PUSH2 0x100 EXP SWAP1 DIV PUSH20 0xFFFFFFFFFFFFFFFFFFFFFFFFFFFFFFFFFFFFFFFF AND PUSH20 0xFFFFFFFFFFFFFFFFFFFFFFFFFFFFFFFFFFFFFFFF AND PUSH4 0x6352211E PUSH1 0x0 SLOAD PUSH1 0x40 MLOAD DUP3 PUSH4 0xFFFFFFFF AND PUSH1 0xE0 SHL DUP2 MSTORE PUSH1 0x4 ADD PUSH2 0xCBE SWAP2 SWAP1 PUSH2 0xDD2 JUMP JUMPDEST PUSH1 0x20 PUSH1 0x40 MLOAD DUP1 DUP4 SUB DUP2 DUP7 GAS STATICCALL ISZERO DUP1 ISZERO PUSH2 0xCDB JUMPI RETURNDATASIZE PUSH1 0x0 DUP1 RETURNDATACOPY RETURNDATASIZE PUSH1 0x0 REVERT JUMPDEST POP POP POP POP PUSH1 0x40 MLOAD RETURNDATASIZE PUSH1 0x1F NOT PUSH1 0x1F DUP3 ADD AND DUP3 ADD DUP1 PUSH1 0x40 MSTORE POP DUP2 ADD SWAP1 PUSH2 0xCFF SWAP2 SWAP1 PUSH2 0x1357 JUMP JUMPDEST PUSH1 0x9 PUSH1 0x0 PUSH2 0x100 EXP DUP2 SLOAD DUP2 PUSH20 0xFFFFFFFFFFFFFFFFFFFFFFFFFFFFFFFFFFFFFFFF MUL NOT AND SWAP1 DUP4 PUSH20 0xFFFFFFFFFFFFFFFFFFFFFFFFFFFFFFFFFFFFFFFF AND MUL OR SWAP1 SSTORE POP PUSH2 0xD53 PUSH8 0x5F019D0F61739D23 PUSH1 0xC0 SHL PUSH2 0xB59 JUMP JUMPDEST PUSH1 0x0 PUSH1 0x9 PUSH1 0x14 PUSH2 0x100 EXP DUP2 SLOAD DUP2 PUSH1 0xFF MUL NOT AND SWAP1 DUP4 ISZERO ISZERO MUL OR SWAP1 SSTORE POP POP JUMP JUMPDEST PUSH1 0x0 PUSH1 0x1 SWAP1 POP SWAP2 SWAP1 POP JUMP JUMPDEST PUSH1 0x0 SWAP2 SWAP1 POP JUMP JUMPDEST PUSH1 0x0 DUP2 ISZERO ISZERO SWAP1 POP SWAP2 SWAP1 POP JUMP JUMPDEST PUSH2 0xD98 DUP2 PUSH2 0xD83 JUMP JUMPDEST DUP3 MSTORE POP POP JUMP JUMPDEST PUSH1 0x0 PUSH1 0x20 DUP3 ADD SWAP1 POP PUSH2 0xDB3 PUSH1 0x0 DUP4 ADD DUP5 PUSH2 0xD8F JUMP JUMPDEST SWAP3 SWAP2 POP POP JUMP JUMPDEST PUSH1 0x0 DUP2 SWAP1 POP SWAP2 SWAP1 POP JUMP JUMPDEST PUSH2 0xDCC DUP2 PUSH2 0xDB9 JUMP JUMPDEST DUP3 MSTORE POP POP JUMP JUMPDEST PUSH1 0x0 PUSH1 0x20 DUP3 ADD SWAP1 POP PUSH2 0xDE7 PUSH1 0x0 DUP4 ADD DUP5 PUSH2 0xDC3 JUMP JUMPDEST SWAP3 SWAP2 POP POP JUMP JUMPDEST PUSH1 0x0 PUSH20 0xFFFFFFFFFFFFFFFFFFFFFFFFFFFFFFFFFFFFFFFF DUP3 AND SWAP1 POP SWAP2 SWAP1 POP JUMP JUMPDEST PUSH1 0x0 PUSH2 0xE18 DUP3 PUSH2 0xDED JUMP JUMPDEST SWAP1 POP SWAP2 SWAP1 POP JUMP JUMPDEST PUSH2 0xE28 DUP2 PUSH2 0xE0D JUMP JUMPDEST DUP3 MSTORE POP POP JUMP JUMPDEST PUSH1 0x0 PUSH1 0x20 DUP3 ADD SWAP1 POP PUSH2 0xE43 PUSH1 0x0 DUP4 ADD DUP5 PUSH2 0xE1F JUMP JUMPDEST SWAP3 SWAP2 POP POP JUMP JUMPDEST PUSH1 0x0 DUP1 REVERT JUMPDEST PUSH2 0xE57 DUP2 PUSH2 0xDB9 JUMP JUMPDEST DUP2 EQ PUSH2 0xE62 JUMPI PUSH1 0x0 DUP1 REVERT JUMPDEST POP JUMP JUMPDEST PUSH1 0x0 DUP2 CALLDATALOAD SWAP1 POP PUSH2 0xE74 DUP2 PUSH2 0xE4E JUMP JUMPDEST SWAP3 SWAP2 POP POP JUMP JUMPDEST PUSH1 0x0 PUSH1 0x20 DUP3 DUP5 SUB SLT ISZERO PUSH2 0xE90 JUMPI PUSH2 0xE8F PUSH2 0xE49 JUMP JUMPDEST JUMPDEST PUSH1 0x0 PUSH2 0xE9E DUP5 DUP3 DUP6 ADD PUSH2 0xE65 JUMP JUMPDEST SWAP2 POP POP SWAP3 SWAP2 POP POP JUMP JUMPDEST PUSH1 0x0 DUP2 SWAP1 POP SWAP2 SWAP1 POP JUMP JUMPDEST PUSH1 0x0 PUSH2 0xECC PUSH2 0xEC7 PUSH2 0xEC2 DUP5 PUSH2 0xDED JUMP JUMPDEST PUSH2 0xEA7 JUMP JUMPDEST PUSH2 0xDED JUMP JUMPDEST SWAP1 POP SWAP2 SWAP1 POP JUMP JUMPDEST PUSH1 0x0 PUSH2 0xEDE DUP3 PUSH2 0xEB1 JUMP JUMPDEST SWAP1 POP SWAP2 SWAP1 POP JUMP JUMPDEST PUSH1 0x0 PUSH2 0xEF0 DUP3 PUSH2 0xED3 JUMP JUMPDEST SWAP1 POP SWAP2 SWAP1 POP JUMP JUMPDEST PUSH2 0xF00 DUP2 PUSH2 0xEE5 JUMP JUMPDEST DUP3 MSTORE POP POP JUMP JUMPDEST PUSH1 0x0 PUSH1 0x20 DUP3 ADD SWAP1 POP PUSH2 0xF1B PUSH1 0x0 DUP4 ADD DUP5 PUSH2 0xEF7 JUMP JUMPDEST SWAP3 SWAP2 POP POP JUMP JUMPDEST PUSH1 0x0 PUSH2 0xF2C DUP3 PUSH2 0xED3 JUMP JUMPDEST SWAP1 POP SWAP2 SWAP1 POP JUMP JUMPDEST PUSH2 0xF3C DUP2 PUSH2 0xF21 JUMP JUMPDEST DUP3 MSTORE POP POP JUMP JUMPDEST PUSH1 0x0 PUSH1 0x20 DUP3 ADD SWAP1 POP PUSH2 0xF57 PUSH1 0x0 DUP4 ADD DUP5 PUSH2 0xF33 JUMP JUMPDEST SWAP3 SWAP2 POP POP JUMP JUMPDEST PUSH32 0x4E487B7100000000000000000000000000000000000000000000000000000000 PUSH1 0x0 MSTORE PUSH1 0x11 PUSH1 0x4 MSTORE PUSH1 0x24 PUSH1 0x0 REVERT JUMPDEST PUSH1 0x0 PUSH2 0xF97 DUP3 PUSH2 0xDB9 JUMP JUMPDEST SWAP2 POP PUSH2 0xFA2 DUP4 PUSH2 0xDB9 JUMP JUMPDEST SWAP3 POP DUP3 DUP3 SUB SWAP1 POP DUP2 DUP2 GT ISZERO PUSH2 0xFBA JUMPI PUSH2 0xFB9 PUSH2 0xF5D JUMP JUMPDEST JUMPDEST SWAP3 SWAP2 POP POP JUMP JUMPDEST PUSH1 0x0 DUP3 DUP3 MSTORE PUSH1 0x20 DUP3 ADD SWAP1 POP SWAP3 SWAP2 POP POP JUMP JUMPDEST PUSH32 0x41756374696F6E20697320636C6F736564000000000000000000000000000000 PUSH1 0x0 DUP3 ADD MSTORE POP JUMP JUMPDEST PUSH1 0x0 PUSH2 0x1007 PUSH1 0x11 DUP4 PUSH2 0xFC0 JUMP JUMPDEST SWAP2 POP PUSH2 0x1012 DUP3 PUSH2 0xFD1 JUMP JUMPDEST PUSH1 0x20 DUP3 ADD SWAP1 POP SWAP2 SWAP1 POP JUMP JUMPDEST PUSH1 0x0 PUSH1 0x20 DUP3 ADD SWAP1 POP DUP2 DUP2 SUB PUSH1 0x0 DUP4 ADD MSTORE PUSH2 0x1036 DUP2 PUSH2 0xFFA JUMP JUMPDEST SWAP1 POP SWAP2 SWAP1 POP JUMP JUMPDEST PUSH32 0x596F7520616C726561647920626F7567687420746869732070726F6475637400 PUSH1 0x0 DUP3 ADD MSTORE POP JUMP JUMPDEST PUSH1 0x0 PUSH2 0x1073 PUSH1 0x1F DUP4 PUSH2 0xFC0 JUMP JUMPDEST SWAP2 POP PUSH2 0x107E DUP3 PUSH2 0x103D JUMP JUMPDEST PUSH1 0x20 DUP3 ADD SWAP1 POP SWAP2 SWAP1 POP JUMP JUMPDEST PUSH1 0x0 PUSH1 0x20 DUP3 ADD SWAP1 POP DUP2 DUP2 SUB PUSH1 0x0 DUP4 ADD MSTORE PUSH2 0x10A2 DUP2 PUSH2 0x1066 JUMP JUMPDEST SWAP1 POP SWAP2 SWAP1 POP JUMP JUMPDEST PUSH32 0x50726F6475637420616C726561647920736F6C64000000000000000000000000 PUSH1 0x0 DUP3 ADD MSTORE POP JUMP JUMPDEST PUSH1 0x0 PUSH2 0x10DF PUSH1 0x14 DUP4 PUSH2 0xFC0 JUMP JUMPDEST SWAP2 POP PUSH2 0x10EA DUP3 PUSH2 0x10A9 JUMP JUMPDEST PUSH1 0x20 DUP3 ADD SWAP1 POP SWAP2 SWAP1 POP JUMP JUMPDEST PUSH1 0x0 PUSH1 0x20 DUP3 ADD SWAP1 POP DUP2 DUP2 SUB PUSH1 0x0 DUP4 ADD MSTORE PUSH2 0x110E DUP2 PUSH2 0x10D2 JUMP JUMPDEST SWAP1 POP SWAP2 SWAP1 POP JUMP JUMPDEST PUSH32 0x4F776E65722063616E2774204269640000000000000000000000000000000000 PUSH1 0x0 DUP3 ADD MSTORE POP JUMP JUMPDEST PUSH1 0x0 PUSH2 0x114B PUSH1 0xF DUP4 PUSH2 0xFC0 JUMP JUMPDEST SWAP2 POP PUSH2 0x1156 DUP3 PUSH2 0x1115 JUMP JUMPDEST PUSH1 0x20 DUP3 ADD SWAP1 POP SWAP2 SWAP1 POP JUMP JUMPDEST PUSH1 0x0 PUSH1 0x20 DUP3 ADD SWAP1 POP DUP2 DUP2 SUB PUSH1 0x0 DUP4 ADD MSTORE PUSH2 0x117A DUP2 PUSH2 0x113E JUMP JUMPDEST SWAP1 POP SWAP2 SWAP1 POP JUMP JUMPDEST PUSH32 0x45544820697320696E73756666696369656E7400000000000000000000000000 PUSH1 0x0 DUP3 ADD MSTORE POP JUMP JUMPDEST PUSH1 0x0 PUSH2 0x11B7 PUSH1 0x13 DUP4 PUSH2 0xFC0 JUMP JUMPDEST SWAP2 POP PUSH2 0x11C2 DUP3 PUSH2 0x1181 JUMP JUMPDEST PUSH1 0x20 DUP3 ADD SWAP1 POP SWAP2 SWAP1 POP JUMP JUMPDEST PUSH1 0x0 PUSH1 0x20 DUP3 ADD SWAP1 POP DUP2 DUP2 SUB PUSH1 0x0 DUP4 ADD MSTORE PUSH2 0x11E6 DUP2 PUSH2 0x11AA JUMP JUMPDEST SWAP1 POP SWAP2 SWAP1 POP JUMP JUMPDEST PUSH1 0x0 PUSH1 0x60 DUP3 ADD SWAP1 POP PUSH2 0x1202 PUSH1 0x0 DUP4 ADD DUP7 PUSH2 0xE1F JUMP JUMPDEST PUSH2 0x120F PUSH1 0x20 DUP4 ADD DUP6 PUSH2 0xE1F JUMP JUMPDEST PUSH2 0x121C PUSH1 0x40 DUP4 ADD DUP5 PUSH2 0xDC3 JUMP JUMPDEST SWAP5 SWAP4 POP POP POP POP JUMP JUMPDEST PUSH2 0x122D DUP2 PUSH2 0xD83 JUMP JUMPDEST DUP2 EQ PUSH2 0x1238 JUMPI PUSH1 0x0 DUP1 REVERT JUMPDEST POP JUMP JUMPDEST PUSH1 0x0 DUP2 MLOAD SWAP1 POP PUSH2 0x124A DUP2 PUSH2 0x1224 JUMP JUMPDEST SWAP3 SWAP2 POP POP JUMP JUMPDEST PUSH1 0x0 PUSH1 0x20 DUP3 DUP5 SUB SLT ISZERO PUSH2 0x1266 JUMPI PUSH2 0x1265 PUSH2 0xE49 JUMP JUMPDEST JUMPDEST PUSH1 0x0 PUSH2 0x1274 DUP5 DUP3 DUP6 ADD PUSH2 0x123B JUMP JUMPDEST SWAP2 POP POP SWAP3 SWAP2 POP POP JUMP JUMPDEST PUSH32 0x4661696C656420746F2073656E6420455243323020746F6B656E730000000000 PUSH1 0x0 DUP3 ADD MSTORE POP JUMP JUMPDEST PUSH1 0x0 PUSH2 0x12B3 PUSH1 0x1B DUP4 PUSH2 0xFC0 JUMP JUMPDEST SWAP2 POP PUSH2 0x12BE DUP3 PUSH2 0x127D JUMP JUMPDEST PUSH1 0x20 DUP3 ADD SWAP1 POP SWAP2 SWAP1 POP JUMP JUMPDEST PUSH1 0x0 PUSH1 0x20 DUP3 ADD SWAP1 POP DUP2 DUP2 SUB PUSH1 0x0 DUP4 ADD MSTORE PUSH2 0x12E2 DUP2 PUSH2 0x12A6 JUMP JUMPDEST SWAP1 POP SWAP2 SWAP1 POP JUMP JUMPDEST PUSH1 0x0 PUSH2 0x12F4 DUP3 PUSH2 0xDB9 JUMP JUMPDEST SWAP2 POP PUSH2 0x12FF DUP4 PUSH2 0xDB9 JUMP JUMPDEST SWAP3 POP DUP3 DUP3 MUL PUSH2 0x130D DUP2 PUSH2 0xDB9 JUMP JUMPDEST SWAP2 POP DUP3 DUP3 DIV DUP5 EQ DUP4 ISZERO OR PUSH2 0x1324 JUMPI PUSH2 0x1323 PUSH2 0xF5D JUMP JUMPDEST JUMPDEST POP SWAP3 SWAP2 POP POP JUMP JUMPDEST PUSH2 0x1334 DUP2 PUSH2 0xE0D JUMP JUMPDEST DUP2 EQ PUSH2 0x133F JUMPI PUSH1 0x0 DUP1 REVERT JUMPDEST POP JUMP JUMPDEST PUSH1 0x0 DUP2 MLOAD SWAP1 POP PUSH2 0x1351 DUP2 PUSH2 0x132B JUMP JUMPDEST SWAP3 SWAP2 POP POP JUMP JUMPDEST PUSH1 0x0 PUSH1 0x20 DUP3 DUP5 SUB SLT ISZERO PUSH2 0x136D JUMPI PUSH2 0x136C PUSH2 0xE49 JUMP JUMPDEST JUMPDEST PUSH1 0x0 PUSH2 0x137B DUP5 DUP3 DUP6 ADD PUSH2 0x1342 JUMP JUMPDEST SWAP2 POP POP SWAP3 SWAP2 POP POP JUMP INVALID LOG2 PUSH5 0x6970667358 0x22 SLT KECCAK256 MULMOD 0x22 PUSH4 0xCE58AB73 0x4A GT 0x4C 0xAC 0xC0 DUP16 MULMOD 0xF9 NOT 0x29 DUP15 PUSH21 0x19D49760F69C209F1BA54FD31D64736F6C63430008 GT STOP CALLER "},"methodIdentifiers":{"addressOfToken()":"4a0f97e8","auctionStatusOpen()":"0b48ab8f","bid(uint256)":"454a2ab3","blockDifference()":"233aec66","buyer()":"7150d8ae","currentBlock()":"e12ed13c","currentPrice()":"9d1b464a","initialPrice()":"1d0806ae","isAuctionOpen()":"cca41427","nft_Address()":"f5734ae2","nft_Id()":"6ee6cb9f","numBlocksAuctionOpen()":"3103ea62","offerPriceDecrement()":"d3642a88","reservePrice()":"db2e1eed","sellerAccountAddress()":"323b935f","startingBlock()":"d91c98d3"}}}}}