{"contracts/NFTDutchAuction.sol":{"NFTDutchAuction":{"abi":[{"inputs":[{"internalType":"address","name":"_nftAddress","type":"address"},{"internalType":"uint256","name":"_nftId","type":"uint256"},{"internalType":"uint256","name":"_reservePrice","type":"uint256"},{"internalType":"uint256","name":"_numBlocksAuctionOpen","type":"uint256"},{"internalType":"uint256","name":"_offerPriceDecrement","type":"uint256"}],"stateMutability":"nonpayable","type":"constructor"},{"inputs":[],"name":"auctionStatusOpen","outputs":[{"internalType":"bool","name":"","type":"bool"}],"stateMutability":"view","type":"function"},{"inputs":[],"name":"buyer","outputs":[{"internalType":"address","name":"","type":"address"}],"stateMutability":"view","type":"function"},{"inputs":[],"name":"getBlockDiff","outputs":[{"internalType":"uint256","name":"","type":"uint256"}],"stateMutability":"view","type":"function"},{"inputs":[],"name":"getCurrBlock","outputs":[{"internalType":"uint256","name":"","type":"uint256"}],"stateMutability":"view","type":"function"},{"inputs":[],"name":"getCurrentPrice","outputs":[{"internalType":"uint256","name":"","type":"uint256"}],"stateMutability":"view","type":"function"},{"inputs":[],"name":"initialPrice","outputs":[{"internalType":"uint256","name":"","type":"uint256"}],"stateMutability":"view","type":"function"},{"inputs":[],"name":"isAuctionClosed","outputs":[{"internalType":"bool","name":"","type":"bool"}],"stateMutability":"view","type":"function"},{"inputs":[],"name":"nft_Address","outputs":[{"internalType":"contract IMyNFT","name":"","type":"address"}],"stateMutability":"view","type":"function"},{"inputs":[],"name":"nft_Id","outputs":[{"internalType":"uint256","name":"","type":"uint256"}],"stateMutability":"view","type":"function"},{"inputs":[],"name":"numBlocksAuctionOpen","outputs":[{"internalType":"uint256","name":"","type":"uint256"}],"stateMutability":"view","type":"function"},{"inputs":[],"name":"offerPriceDecrement","outputs":[{"internalType":"uint256","name":"","type":"uint256"}],"stateMutability":"view","type":"function"},{"inputs":[],"name":"placeBid","outputs":[],"stateMutability":"payable","type":"function"},{"inputs":[],"name":"reservePrice","outputs":[{"internalType":"uint256","name":"","type":"uint256"}],"stateMutability":"view","type":"function"},{"inputs":[],"name":"seller","outputs":[{"internalType":"address","name":"","type":"address"}],"stateMutability":"view","type":"function"},{"inputs":[],"name":"startingBlock","outputs":[{"internalType":"uint256","name":"","type":"uint256"}],"stateMutability":"view","type":"function"}],"evm":{"bytecode":{"linkReferences":{},"object":"60806040523480156200001157600080fd5b5060405162001ce238038062001ce28339818101604052810190620000379190620004aa565b620000536756bd224aa6e3fa7c60c01b6200040260201b60201c565b6200006f672177000b63d2bb9c60c01b6200040260201b60201c565b33600660006101000a81548173ffffffffffffffffffffffffffffffffffffffff021916908373ffffffffffffffffffffffffffffffffffffffff160217905550620000cc67704c0c3fb13b491860c01b6200040260201b60201c565b43600781905550620000ef67e26a4402fc28668b60c01b6200040260201b60201c565b6001600960006101000a81548160ff02191690831515021790555062000126672685276cb3635ff960c01b6200040260201b60201c565b83600081905550620001496751199b2c84072f0f60c01b6200040260201b60201c565b84600160006101000a81548173ffffffffffffffffffffffffffffffffffffffff021916908373ffffffffffffffffffffffffffffffffffffffff160217905550620001a6670d18556a2c655a3360c01b6200040260201b60201c565b620001c267b4f3c2d97c9b201560c01b6200040260201b60201c565b620001de6714a631aa04f9019760c01b6200040260201b60201c565b3373ffffffffffffffffffffffffffffffffffffffff16600160009054906101000a900473ffffffffffffffffffffffffffffffffffffffff1673ffffffffffffffffffffffffffffffffffffffff16636352211e6000546040518263ffffffff1660e01b815260040162000254919062000543565b602060405180830381865afa15801562000272573d6000803e3d6000fd5b505050506040513d601f19601f8201168201806040525081019062000298919062000560565b73ffffffffffffffffffffffffffffffffffffffff1614620002f1576040517f08c379a0000000000000000000000000000000000000000000000000000000008152600401620002e890620005f3565b60405180910390fd5b6200030d67634e163b72689fc460c01b6200040260201b60201c565b62000329671f803f267d9bba7560c01b6200040260201b60201c565b826002819055506200034c67f9d71e98fe6b69da60c01b6200040260201b60201c565b816003819055506200036f67189ba2cf6ba1107460c01b6200040260201b60201c565b8060048190555062000392670e90aab93dad246f60c01b6200040260201b60201c565b620003ae678d86a6c0877fed0060c01b6200040260201b60201c565b6000600454600354620003c2919062000644565b9050620003e067a670d85ba9da57b660c01b6200040260201b60201c565b60025481620003f091906200068f565b600881905550505050505050620006ca565b50565b600080fd5b600073ffffffffffffffffffffffffffffffffffffffff82169050919050565b600062000437826200040a565b9050919050565b62000449816200042a565b81146200045557600080fd5b50565b60008151905062000469816200043e565b92915050565b6000819050919050565b62000484816200046f565b81146200049057600080fd5b50565b600081519050620004a48162000479565b92915050565b600080600080600060a08688031215620004c957620004c862000405565b5b6000620004d98882890162000458565b9550506020620004ec8882890162000493565b9450506040620004ff8882890162000493565b9350506060620005128882890162000493565b9250506080620005258882890162000493565b9150509295509295909350565b6200053d816200046f565b82525050565b60006020820190506200055a600083018462000532565b92915050565b60006020828403121562000579576200057862000405565b5b6000620005898482850162000458565b91505092915050565b600082825260208201905092915050565b7f596f7520646f6e2774206f776e2074686973204e465420746f2073656c6c0000600082015250565b6000620005db601e8362000592565b9150620005e882620005a3565b602082019050919050565b600060208201905081810360008301526200060e81620005cc565b9050919050565b7f4e487b7100000000000000000000000000000000000000000000000000000000600052601160045260246000fd5b600062000651826200046f565b91506200065e836200046f565b92508282026200066e816200046f565b9150828204841483151762000688576200068762000615565b5b5092915050565b60006200069c826200046f565b9150620006a9836200046f565b9250828201905080821115620006c457620006c362000615565b5b92915050565b61160880620006da6000396000f3fe6080604052600436106100e85760003560e01c80637150d8ae1161008a578063db2e1eed11610059578063db2e1eed146102c6578063eb91d37e146102f1578063ecfc7ecc1461031c578063f5734ae214610326576100e8565b80637150d8ae1461021a578063d3642a8814610245578063d4a92e3114610270578063d91c98d31461029b576100e8565b806329c2decd116100c657806329c2decd1461016e5780633103ea62146101995780636190afae146101c45780636ee6cb9f146101ef576100e8565b806308551a53146100ed5780630b48ab8f146101185780631d0806ae14610143575b600080fd5b3480156100f957600080fd5b50610102610351565b60405161010f91906110ba565b60405180910390f35b34801561012457600080fd5b5061012d610377565b60405161013a91906110f0565b60405180910390f35b34801561014f57600080fd5b5061015861038a565b6040516101659190611124565b60405180910390f35b34801561017a57600080fd5b50610183610390565b6040516101909190611124565b60405180910390f35b3480156101a557600080fd5b506101ae6103d4565b6040516101bb9190611124565b60405180910390f35b3480156101d057600080fd5b506101d96103da565b6040516101e691906110f0565b60405180910390f35b3480156101fb57600080fd5b506102046104b3565b6040516102119190611124565b60405180910390f35b34801561022657600080fd5b5061022f6104b9565b60405161023c91906110ba565b60405180910390f35b34801561025157600080fd5b5061025a6104df565b6040516102679190611124565b60405180910390f35b34801561027c57600080fd5b506102856104e5565b6040516102929190611124565b60405180910390f35b3480156102a757600080fd5b506102b061060d565b6040516102bd9190611124565b60405180910390f35b3480156102d257600080fd5b506102db610613565b6040516102e89190611124565b60405180910390f35b3480156102fd57600080fd5b50610306610619565b6040516103139190611124565b60405180910390f35b610324610766565b005b34801561033257600080fd5b5061033b610da4565b604051610348919061119e565b60405180910390f35b600660009054906101000a900473ffffffffffffffffffffffffffffffffffffffff1681565b600960009054906101000a900460ff1681565b60085481565b60006103a667c55d7e55a9f87a8060c01b610dca565b6103ba6739ead36c0d107f9160c01b610dca565b6103ce674825370b71d5264060c01b610dca565b43905090565b60035481565b60006103f067f2617ef151b3426c60c01b610dca565b6104046793630550569107cc60c01b610dca565b6104186786400411a2e6bf2860c01b610dca565b60006104226104e5565b905061043867aaeffa92f093e92960c01b610dca565b61044c67c35f1cd7b5f4e15b60c01b610dca565b600060035490506104676768500d4775cc88cc60c01b610dca565b61047b67c3d5a4d051193b5860c01b610dca565b6000818311905061049667f921925dcc1b591d60c01b610dca565b6104aa6786623d4815c995ac60c01b610dca565b80935050505090565b60005481565b600560009054906101000a900473ffffffffffffffffffffffffffffffffffffffff1681565b60045481565b60006104fb67c31a92ca372fd5e160c01b610dca565b61050f67c51983b5978b2bbe60c01b610dca565b61052367306490b6a71a9e4460c01b610dca565b600061052d610390565b90506105436705fae2853fe610cf60c01b610dca565b6105576770f1f8290330995b60c01b610dca565b60006007549050610572675786c40347b33b7b60c01b610dca565b61058667a968b5e95ea5d3e760c01b610dca565b600081831180156105a757506105a667859d268086a3c2ed60c01b610dcd565b5b806105c257506105c16760089a4ee88febc760c01b610dd8565b5b6105cd5760006105da565b81836105d991906111e8565b5b90506105f067367773a63b5970a160c01b610dca565b61060467d1e4221a06caf22e60c01b610dca565b80935050505090565b60075481565b60025481565b600061062f6718c8a724326d619060c01b610dca565b61064367679dabbd7374c27660c01b610dca565b61065767df28679aad33058d60c01b610dca565b60006106616104e5565b90506106776729a06cfcfac183ad60c01b610dca565b61068b67ce5e68999bce0c5760c01b610dca565b60006106a167bd367331d1ed7bd560c01b610dca565b6106b567ce6a8eceeec9dae660c01b610dca565b60035482106106f0576106d2672e43ad00fca4dc4a60c01b610dca565b6106e6679788fd3fac8d443860c01b610dca565b6002549050610736565b61070467bd8fbf7e196c7aca60c01b610dca565b610718674ca128507f9a17a560c01b610dca565b60045482610726919061121c565b60085461073391906111e8565b90505b61074a67c13836fe0dd6160660c01b610dca565b61075e678f1d9de5b42a5eae60c01b610dca565b809250505090565b61077a6710bef37d26724a7960c01b610dca565b61078e67a5c600981a1bdf4b60c01b610dca565b6107a267ce4eea46d885f3bf60c01b610dca565b6107b667f47577f6d783475160c01b610dca565b6107be6103da565b156107fe576040517f08c379a00000000000000000000000000000000000000000000000000000000081526004016107f5906112bb565b60405180910390fd5b610812679dcba24b221db0e260c01b610dca565b61082667570b96c2babc5a7e60c01b610dca565b61083a67f316aef3d316e1a460c01b610dca565b61084e6784b4243f8bcb225760c01b610dca565b600560009054906101000a900473ffffffffffffffffffffffffffffffffffffffff1673ffffffffffffffffffffffffffffffffffffffff163373ffffffffffffffffffffffffffffffffffffffff16036108de576040517f08c379a00000000000000000000000000000000000000000000000000000000081526004016108d590611327565b60405180910390fd5b6108f267b0f2d9a3b034ae4660c01b610dca565b6109066747e638cfdba3c1d560c01b610dca565b61091a67a76d549ca053807760c01b610dca565b61092e6733fd6158290a9eee60c01b610dca565b600073ffffffffffffffffffffffffffffffffffffffff16600560009054906101000a900473ffffffffffffffffffffffffffffffffffffffff1673ffffffffffffffffffffffffffffffffffffffff16146109bf576040517f08c379a00000000000000000000000000000000000000000000000000000000081526004016109b690611393565b60405180910390fd5b6109d3677e779ca07b4d0b4460c01b610dca565b6109e767690ccd9d9c83087460c01b610dca565b6109fb6715dd6dc0fe26afde60c01b610dca565b610a0f6758c9413be0615bd860c01b610dca565b600660009054906101000a900473ffffffffffffffffffffffffffffffffffffffff1673ffffffffffffffffffffffffffffffffffffffff163373ffffffffffffffffffffffffffffffffffffffff1603610a9f576040517f08c379a0000000000000000000000000000000000000000000000000000000008152600401610a96906113ff565b60405180910390fd5b610ab367cf2ca93cd83de56760c01b610dca565b610ac767d0eef24d1f90442360c01b610dca565b610adb67e5a78e5c021fcd7a60c01b610dca565b610aef67018d264f25b0ab0960c01b610dca565b610af7610619565b341015610b39576040517f08c379a0000000000000000000000000000000000000000000000000000000008152600401610b309061146b565b60405180910390fd5b610b4d67221368ef4d23216360c01b610dca565b610b61676aefd0689d7aa62260c01b610dca565b610b756788d9dd1ed3e8035c60c01b610dca565b6000600660009054906101000a900473ffffffffffffffffffffffffffffffffffffffff1673ffffffffffffffffffffffffffffffffffffffff16610bb8610619565b604051610bc4906114bc565b60006040518083038185875af1925050503d8060008114610c01576040519150601f19603f3d011682016040523d82523d6000602084013e610c06565b606091505b50509050610c1e671499f25b1c200c6860c01b610dca565b610c3267683127ee7b44b09460c01b610dca565b610c4667d8472dce034bf18260c01b610dca565b6001151581151514610c8d576040517f08c379a0000000000000000000000000000000000000000000000000000000008152600401610c849061151d565b60405180910390fd5b610ca1671e0cd972f3dfd97060c01b610dca565b610cb567bb2409a9a5286ddc60c01b610dca565b610cc967c6720db62e59775660c01b610dca565b6000610cd3610619565b34610cde91906111e8565b9050610cf467d931e1dfc06c883c60c01b610dca565b610d08678fc57ae7d9b024ee60c01b610dca565b6000811115610d5b57610d256712c700869b953f6760c01b610dca565b610d396793aa3774233c690660c01b610dca565b610d4d67d709ffcc6d4f51bc60c01b610dca565b610d5681610ddf565b610d70565b610d6f678a3bb229913a2bcc60c01b610dca565b5b610d84671a0c575cea3a0b9c60c01b610dca565b610d9867a99d90f94d1f6d5060c01b610dca565b610da0610e65565b5050565b600160009054906101000a900473ffffffffffffffffffffffffffffffffffffffff1681565b50565b600060019050919050565b6000919050565b610df3678a7aaa5fd832484860c01b610dca565b610e07674a0f841316b4962f60c01b610dca565b610e1b67a8088adc34016e0160c01b610dca565b3373ffffffffffffffffffffffffffffffffffffffff166108fc829081150290604051600060405180830381858888f19350505050158015610e61573d6000803e3d6000fd5b5050565b610e79672b8abf9a3ce47ebd60c01b610dca565b610e8d67f9a57bbbb266f2d260c01b610dca565b610ea167059c129bb66d06a460c01b610dca565b600160009054906101000a900473ffffffffffffffffffffffffffffffffffffffff1673ffffffffffffffffffffffffffffffffffffffff166323b872dd600660009054906101000a900473ffffffffffffffffffffffffffffffffffffffff16336000546040518463ffffffff1660e01b8152600401610f249392919061153d565b600060405180830381600087803b158015610f3e57600080fd5b505af1158015610f52573d6000803e3d6000fd5b50505050610f6a6779da808040f3099f60c01b610dca565b600160009054906101000a900473ffffffffffffffffffffffffffffffffffffffff1673ffffffffffffffffffffffffffffffffffffffff16636352211e6000546040518263ffffffff1660e01b8152600401610fc79190611124565b602060405180830381865afa158015610fe4573d6000803e3d6000fd5b505050506040513d601f19601f8201168201806040525081019061100891906115a5565b600560006101000a81548173ffffffffffffffffffffffffffffffffffffffff021916908373ffffffffffffffffffffffffffffffffffffffff16021790555061105c679ac4ad802098d0ba60c01b610dca565b6000600960006101000a81548160ff021916908315150217905550565b600073ffffffffffffffffffffffffffffffffffffffff82169050919050565b60006110a482611079565b9050919050565b6110b481611099565b82525050565b60006020820190506110cf60008301846110ab565b92915050565b60008115159050919050565b6110ea816110d5565b82525050565b600060208201905061110560008301846110e1565b92915050565b6000819050919050565b61111e8161110b565b82525050565b60006020820190506111396000830184611115565b92915050565b6000819050919050565b600061116461115f61115a84611079565b61113f565b611079565b9050919050565b600061117682611149565b9050919050565b60006111888261116b565b9050919050565b6111988161117d565b82525050565b60006020820190506111b3600083018461118f565b92915050565b7f4e487b7100000000000000000000000000000000000000000000000000000000600052601160045260246000fd5b60006111f38261110b565b91506111fe8361110b565b9250828203905081811115611216576112156111b9565b5b92915050565b60006112278261110b565b91506112328361110b565b92508282026112408161110b565b91508282048414831517611257576112566111b9565b5b5092915050565b600082825260208201905092915050565b7f41756374696f6e20697320636c6f736564000000000000000000000000000000600082015250565b60006112a560118361125e565b91506112b08261126f565b602082019050919050565b600060208201905081810360008301526112d481611298565b9050919050565b7f50726f6475637420616c72656164792070757263686173656400000000000000600082015250565b600061131160198361125e565b915061131c826112db565b602082019050919050565b6000602082019050818103600083015261134081611304565b9050919050565b7f50726f6475637420616c726561647920736f6c64000000000000000000000000600082015250565b600061137d60148361125e565b915061138882611347565b602082019050919050565b600060208201905081810360008301526113ac81611370565b9050919050565b7f4f776e65722063616e2774206269640000000000000000000000000000000000600082015250565b60006113e9600f8361125e565b91506113f4826113b3565b602082019050919050565b60006020820190508181036000830152611418816113dc565b9050919050565b7f574549206973206e6f742073756666696369656e740000000000000000000000600082015250565b600061145560158361125e565b91506114608261141f565b602082019050919050565b6000602082019050818103600083015261148481611448565b9050919050565b600081905092915050565b50565b60006114a660008361148b565b91506114b182611496565b600082019050919050565b60006114c782611499565b9150819050919050565b7f4661696c656420746f2073656e64000000000000000000000000000000000000600082015250565b6000611507600e8361125e565b9150611512826114d1565b602082019050919050565b60006020820190508181036000830152611536816114fa565b9050919050565b600060608201905061155260008301866110ab565b61155f60208301856110ab565b61156c6040830184611115565b949350505050565b600080fd5b61158281611099565b811461158d57600080fd5b50565b60008151905061159f81611579565b92915050565b6000602082840312156115bb576115ba611574565b5b60006115c984828501611590565b9150509291505056fea2646970667358221220fcdad8487f2661216338512bcb2e3b460f0bf25aee40457ac6ca56467926a13f64736f6c63430008110033","opcodes":"PUSH1 0x80 PUSH1 0x40 MSTORE CALLVALUE DUP1 ISZERO PUSH3 0x11 JUMPI PUSH1 0x0 DUP1 REVERT JUMPDEST POP PUSH1 0x40 MLOAD PUSH3 0x1CE2 CODESIZE SUB DUP1 PUSH3 0x1CE2 DUP4 CODECOPY DUP2 DUP2 ADD PUSH1 0x40 MSTORE DUP2 ADD SWAP1 PUSH3 0x37 SWAP2 SWAP1 PUSH3 0x4AA JUMP JUMPDEST PUSH3 0x53 PUSH8 0x56BD224AA6E3FA7C PUSH1 0xC0 SHL PUSH3 0x402 PUSH1 0x20 SHL PUSH1 0x20 SHR JUMP JUMPDEST PUSH3 0x6F PUSH8 0x2177000B63D2BB9C PUSH1 0xC0 SHL PUSH3 0x402 PUSH1 0x20 SHL PUSH1 0x20 SHR JUMP JUMPDEST CALLER PUSH1 0x6 PUSH1 0x0 PUSH2 0x100 EXP DUP2 SLOAD DUP2 PUSH20 0xFFFFFFFFFFFFFFFFFFFFFFFFFFFFFFFFFFFFFFFF MUL NOT AND SWAP1 DUP4 PUSH20 0xFFFFFFFFFFFFFFFFFFFFFFFFFFFFFFFFFFFFFFFF AND MUL OR SWAP1 SSTORE POP PUSH3 0xCC PUSH8 0x704C0C3FB13B4918 PUSH1 0xC0 SHL PUSH3 0x402 PUSH1 0x20 SHL PUSH1 0x20 SHR JUMP JUMPDEST NUMBER PUSH1 0x7 DUP2 SWAP1 SSTORE POP PUSH3 0xEF PUSH8 0xE26A4402FC28668B PUSH1 0xC0 SHL PUSH3 0x402 PUSH1 0x20 SHL PUSH1 0x20 SHR JUMP JUMPDEST PUSH1 0x1 PUSH1 0x9 PUSH1 0x0 PUSH2 0x100 EXP DUP2 SLOAD DUP2 PUSH1 0xFF MUL NOT AND SWAP1 DUP4 ISZERO ISZERO MUL OR SWAP1 SSTORE POP PUSH3 0x126 PUSH8 0x2685276CB3635FF9 PUSH1 0xC0 SHL PUSH3 0x402 PUSH1 0x20 SHL PUSH1 0x20 SHR JUMP JUMPDEST DUP4 PUSH1 0x0 DUP2 SWAP1 SSTORE POP PUSH3 0x149 PUSH8 0x51199B2C84072F0F PUSH1 0xC0 SHL PUSH3 0x402 PUSH1 0x20 SHL PUSH1 0x20 SHR JUMP JUMPDEST DUP5 PUSH1 0x1 PUSH1 0x0 PUSH2 0x100 EXP DUP2 SLOAD DUP2 PUSH20 0xFFFFFFFFFFFFFFFFFFFFFFFFFFFFFFFFFFFFFFFF MUL NOT AND SWAP1 DUP4 PUSH20 0xFFFFFFFFFFFFFFFFFFFFFFFFFFFFFFFFFFFFFFFF AND MUL OR SWAP1 SSTORE POP PUSH3 0x1A6 PUSH8 0xD18556A2C655A33 PUSH1 0xC0 SHL PUSH3 0x402 PUSH1 0x20 SHL PUSH1 0x20 SHR JUMP JUMPDEST PUSH3 0x1C2 PUSH8 0xB4F3C2D97C9B2015 PUSH1 0xC0 SHL PUSH3 0x402 PUSH1 0x20 SHL PUSH1 0x20 SHR JUMP JUMPDEST PUSH3 0x1DE PUSH8 0x14A631AA04F90197 PUSH1 0xC0 SHL PUSH3 0x402 PUSH1 0x20 SHL PUSH1 0x20 SHR JUMP JUMPDEST CALLER PUSH20 0xFFFFFFFFFFFFFFFFFFFFFFFFFFFFFFFFFFFFFFFF AND PUSH1 0x1 PUSH1 0x0 SWAP1 SLOAD SWAP1 PUSH2 0x100 EXP SWAP1 DIV PUSH20 0xFFFFFFFFFFFFFFFFFFFFFFFFFFFFFFFFFFFFFFFF AND PUSH20 0xFFFFFFFFFFFFFFFFFFFFFFFFFFFFFFFFFFFFFFFF AND PUSH4 0x6352211E PUSH1 0x0 SLOAD PUSH1 0x40 MLOAD DUP3 PUSH4 0xFFFFFFFF AND PUSH1 0xE0 SHL DUP2 MSTORE PUSH1 0x4 ADD PUSH3 0x254 SWAP2 SWAP1 PUSH3 0x543 JUMP JUMPDEST PUSH1 0x20 PUSH1 0x40 MLOAD DUP1 DUP4 SUB DUP2 DUP7 GAS STATICCALL ISZERO DUP1 ISZERO PUSH3 0x272 JUMPI RETURNDATASIZE PUSH1 0x0 DUP1 RETURNDATACOPY RETURNDATASIZE PUSH1 0x0 REVERT JUMPDEST POP POP POP POP PUSH1 0x40 MLOAD RETURNDATASIZE PUSH1 0x1F NOT PUSH1 0x1F DUP3 ADD AND DUP3 ADD DUP1 PUSH1 0x40 MSTORE POP DUP2 ADD SWAP1 PUSH3 0x298 SWAP2 SWAP1 PUSH3 0x560 JUMP JUMPDEST PUSH20 0xFFFFFFFFFFFFFFFFFFFFFFFFFFFFFFFFFFFFFFFF AND EQ PUSH3 0x2F1 JUMPI PUSH1 0x40 MLOAD PUSH32 0x8C379A000000000000000000000000000000000000000000000000000000000 DUP2 MSTORE PUSH1 0x4 ADD PUSH3 0x2E8 SWAP1 PUSH3 0x5F3 JUMP JUMPDEST PUSH1 0x40 MLOAD DUP1 SWAP2 SUB SWAP1 REVERT JUMPDEST PUSH3 0x30D PUSH8 0x634E163B72689FC4 PUSH1 0xC0 SHL PUSH3 0x402 PUSH1 0x20 SHL PUSH1 0x20 SHR JUMP JUMPDEST PUSH3 0x329 PUSH8 0x1F803F267D9BBA75 PUSH1 0xC0 SHL PUSH3 0x402 PUSH1 0x20 SHL PUSH1 0x20 SHR JUMP JUMPDEST DUP3 PUSH1 0x2 DUP2 SWAP1 SSTORE POP PUSH3 0x34C PUSH8 0xF9D71E98FE6B69DA PUSH1 0xC0 SHL PUSH3 0x402 PUSH1 0x20 SHL PUSH1 0x20 SHR JUMP JUMPDEST DUP2 PUSH1 0x3 DUP2 SWAP1 SSTORE POP PUSH3 0x36F PUSH8 0x189BA2CF6BA11074 PUSH1 0xC0 SHL PUSH3 0x402 PUSH1 0x20 SHL PUSH1 0x20 SHR JUMP JUMPDEST DUP1 PUSH1 0x4 DUP2 SWAP1 SSTORE POP PUSH3 0x392 PUSH8 0xE90AAB93DAD246F PUSH1 0xC0 SHL PUSH3 0x402 PUSH1 0x20 SHL PUSH1 0x20 SHR JUMP JUMPDEST PUSH3 0x3AE PUSH8 0x8D86A6C0877FED00 PUSH1 0xC0 SHL PUSH3 0x402 PUSH1 0x20 SHL PUSH1 0x20 SHR JUMP JUMPDEST PUSH1 0x0 PUSH1 0x4 SLOAD PUSH1 0x3 SLOAD PUSH3 0x3C2 SWAP2 SWAP1 PUSH3 0x644 JUMP JUMPDEST SWAP1 POP PUSH3 0x3E0 PUSH8 0xA670D85BA9DA57B6 PUSH1 0xC0 SHL PUSH3 0x402 PUSH1 0x20 SHL PUSH1 0x20 SHR JUMP JUMPDEST PUSH1 0x2 SLOAD DUP2 PUSH3 0x3F0 SWAP2 SWAP1 PUSH3 0x68F JUMP JUMPDEST PUSH1 0x8 DUP2 SWAP1 SSTORE POP POP POP POP POP POP POP PUSH3 0x6CA JUMP JUMPDEST POP JUMP JUMPDEST PUSH1 0x0 DUP1 REVERT JUMPDEST PUSH1 0x0 PUSH20 0xFFFFFFFFFFFFFFFFFFFFFFFFFFFFFFFFFFFFFFFF DUP3 AND SWAP1 POP SWAP2 SWAP1 POP JUMP JUMPDEST PUSH1 0x0 PUSH3 0x437 DUP3 PUSH3 0x40A JUMP JUMPDEST SWAP1 POP SWAP2 SWAP1 POP JUMP JUMPDEST PUSH3 0x449 DUP2 PUSH3 0x42A JUMP JUMPDEST DUP2 EQ PUSH3 0x455 JUMPI PUSH1 0x0 DUP1 REVERT JUMPDEST POP JUMP JUMPDEST PUSH1 0x0 DUP2 MLOAD SWAP1 POP PUSH3 0x469 DUP2 PUSH3 0x43E JUMP JUMPDEST SWAP3 SWAP2 POP POP JUMP JUMPDEST PUSH1 0x0 DUP2 SWAP1 POP SWAP2 SWAP1 POP JUMP JUMPDEST PUSH3 0x484 DUP2 PUSH3 0x46F JUMP JUMPDEST DUP2 EQ PUSH3 0x490 JUMPI PUSH1 0x0 DUP1 REVERT JUMPDEST POP JUMP JUMPDEST PUSH1 0x0 DUP2 MLOAD SWAP1 POP PUSH3 0x4A4 DUP2 PUSH3 0x479 JUMP JUMPDEST SWAP3 SWAP2 POP POP JUMP JUMPDEST PUSH1 0x0 DUP1 PUSH1 0x0 DUP1 PUSH1 0x0 PUSH1 0xA0 DUP7 DUP9 SUB SLT ISZERO PUSH3 0x4C9 JUMPI PUSH3 0x4C8 PUSH3 0x405 JUMP JUMPDEST JUMPDEST PUSH1 0x0 PUSH3 0x4D9 DUP9 DUP3 DUP10 ADD PUSH3 0x458 JUMP JUMPDEST SWAP6 POP POP PUSH1 0x20 PUSH3 0x4EC DUP9 DUP3 DUP10 ADD PUSH3 0x493 JUMP JUMPDEST SWAP5 POP POP PUSH1 0x40 PUSH3 0x4FF DUP9 DUP3 DUP10 ADD PUSH3 0x493 JUMP JUMPDEST SWAP4 POP POP PUSH1 0x60 PUSH3 0x512 DUP9 DUP3 DUP10 ADD PUSH3 0x493 JUMP JUMPDEST SWAP3 POP POP PUSH1 0x80 PUSH3 0x525 DUP9 DUP3 DUP10 ADD PUSH3 0x493 JUMP JUMPDEST SWAP2 POP POP SWAP3 SWAP6 POP SWAP3 SWAP6 SWAP1 SWAP4 POP JUMP JUMPDEST PUSH3 0x53D DUP2 PUSH3 0x46F JUMP JUMPDEST DUP3 MSTORE POP POP JUMP JUMPDEST PUSH1 0x0 PUSH1 0x20 DUP3 ADD SWAP1 POP PUSH3 0x55A PUSH1 0x0 DUP4 ADD DUP5 PUSH3 0x532 JUMP JUMPDEST SWAP3 SWAP2 POP POP JUMP JUMPDEST PUSH1 0x0 PUSH1 0x20 DUP3 DUP5 SUB SLT ISZERO PUSH3 0x579 JUMPI PUSH3 0x578 PUSH3 0x405 JUMP JUMPDEST JUMPDEST PUSH1 0x0 PUSH3 0x589 DUP5 DUP3 DUP6 ADD PUSH3 0x458 JUMP JUMPDEST SWAP2 POP POP SWAP3 SWAP2 POP POP JUMP JUMPDEST PUSH1 0x0 DUP3 DUP3 MSTORE PUSH1 0x20 DUP3 ADD SWAP1 POP SWAP3 SWAP2 POP POP JUMP JUMPDEST PUSH32 0x596F7520646F6E2774206F776E2074686973204E465420746F2073656C6C0000 PUSH1 0x0 DUP3 ADD MSTORE POP JUMP JUMPDEST PUSH1 0x0 PUSH3 0x5DB PUSH1 0x1E DUP4 PUSH3 0x592 JUMP JUMPDEST SWAP2 POP PUSH3 0x5E8 DUP3 PUSH3 0x5A3 JUMP JUMPDEST PUSH1 0x20 DUP3 ADD SWAP1 POP SWAP2 SWAP1 POP JUMP JUMPDEST PUSH1 0x0 PUSH1 0x20 DUP3 ADD SWAP1 POP DUP2 DUP2 SUB PUSH1 0x0 DUP4 ADD MSTORE PUSH3 0x60E DUP2 PUSH3 0x5CC JUMP JUMPDEST SWAP1 POP SWAP2 SWAP1 POP JUMP JUMPDEST PUSH32 0x4E487B7100000000000000000000000000000000000000000000000000000000 PUSH1 0x0 MSTORE PUSH1 0x11 PUSH1 0x4 MSTORE PUSH1 0x24 PUSH1 0x0 REVERT JUMPDEST PUSH1 0x0 PUSH3 0x651 DUP3 PUSH3 0x46F JUMP JUMPDEST SWAP2 POP PUSH3 0x65E DUP4 PUSH3 0x46F JUMP JUMPDEST SWAP3 POP DUP3 DUP3 MUL PUSH3 0x66E DUP2 PUSH3 0x46F JUMP JUMPDEST SWAP2 POP DUP3 DUP3 DIV DUP5 EQ DUP4 ISZERO OR PUSH3 0x688 JUMPI PUSH3 0x687 PUSH3 0x615 JUMP JUMPDEST JUMPDEST POP SWAP3 SWAP2 POP POP JUMP JUMPDEST PUSH1 0x0 PUSH3 0x69C DUP3 PUSH3 0x46F JUMP JUMPDEST SWAP2 POP PUSH3 0x6A9 DUP4 PUSH3 0x46F JUMP JUMPDEST SWAP3 POP DUP3 DUP3 ADD SWAP1 POP DUP1 DUP3 GT ISZERO PUSH3 0x6C4 JUMPI PUSH3 0x6C3 PUSH3 0x615 JUMP JUMPDEST JUMPDEST SWAP3 SWAP2 POP POP JUMP JUMPDEST PUSH2 0x1608 DUP1 PUSH3 0x6DA PUSH1 0x0 CODECOPY PUSH1 0x0 RETURN INVALID PUSH1 0x80 PUSH1 0x40 MSTORE PUSH1 0x4 CALLDATASIZE LT PUSH2 0xE8 JUMPI PUSH1 0x0 CALLDATALOAD PUSH1 0xE0 SHR DUP1 PUSH4 0x7150D8AE GT PUSH2 0x8A JUMPI DUP1 PUSH4 0xDB2E1EED GT PUSH2 0x59 JUMPI DUP1 PUSH4 0xDB2E1EED EQ PUSH2 0x2C6 JUMPI DUP1 PUSH4 0xEB91D37E EQ PUSH2 0x2F1 JUMPI DUP1 PUSH4 0xECFC7ECC EQ PUSH2 0x31C JUMPI DUP1 PUSH4 0xF5734AE2 EQ PUSH2 0x326 JUMPI PUSH2 0xE8 JUMP JUMPDEST DUP1 PUSH4 0x7150D8AE EQ PUSH2 0x21A JUMPI DUP1 PUSH4 0xD3642A88 EQ PUSH2 0x245 JUMPI DUP1 PUSH4 0xD4A92E31 EQ PUSH2 0x270 JUMPI DUP1 PUSH4 0xD91C98D3 EQ PUSH2 0x29B JUMPI PUSH2 0xE8 JUMP JUMPDEST DUP1 PUSH4 0x29C2DECD GT PUSH2 0xC6 JUMPI DUP1 PUSH4 0x29C2DECD EQ PUSH2 0x16E JUMPI DUP1 PUSH4 0x3103EA62 EQ PUSH2 0x199 JUMPI DUP1 PUSH4 0x6190AFAE EQ PUSH2 0x1C4 JUMPI DUP1 PUSH4 0x6EE6CB9F EQ PUSH2 0x1EF JUMPI PUSH2 0xE8 JUMP JUMPDEST DUP1 PUSH4 0x8551A53 EQ PUSH2 0xED JUMPI DUP1 PUSH4 0xB48AB8F EQ PUSH2 0x118 JUMPI DUP1 PUSH4 0x1D0806AE EQ PUSH2 0x143 JUMPI JUMPDEST PUSH1 0x0 DUP1 REVERT JUMPDEST CALLVALUE DUP1 ISZERO PUSH2 0xF9 JUMPI PUSH1 0x0 DUP1 REVERT JUMPDEST POP PUSH2 0x102 PUSH2 0x351 JUMP JUMPDEST PUSH1 0x40 MLOAD PUSH2 0x10F SWAP2 SWAP1 PUSH2 0x10BA JUMP JUMPDEST PUSH1 0x40 MLOAD DUP1 SWAP2 SUB SWAP1 RETURN JUMPDEST CALLVALUE DUP1 ISZERO PUSH2 0x124 JUMPI PUSH1 0x0 DUP1 REVERT JUMPDEST POP PUSH2 0x12D PUSH2 0x377 JUMP JUMPDEST PUSH1 0x40 MLOAD PUSH2 0x13A SWAP2 SWAP1 PUSH2 0x10F0 JUMP JUMPDEST PUSH1 0x40 MLOAD DUP1 SWAP2 SUB SWAP1 RETURN JUMPDEST CALLVALUE DUP1 ISZERO PUSH2 0x14F JUMPI PUSH1 0x0 DUP1 REVERT JUMPDEST POP PUSH2 0x158 PUSH2 0x38A JUMP JUMPDEST PUSH1 0x40 MLOAD PUSH2 0x165 SWAP2 SWAP1 PUSH2 0x1124 JUMP JUMPDEST PUSH1 0x40 MLOAD DUP1 SWAP2 SUB SWAP1 RETURN JUMPDEST CALLVALUE DUP1 ISZERO PUSH2 0x17A JUMPI PUSH1 0x0 DUP1 REVERT JUMPDEST POP PUSH2 0x183 PUSH2 0x390 JUMP JUMPDEST PUSH1 0x40 MLOAD PUSH2 0x190 SWAP2 SWAP1 PUSH2 0x1124 JUMP JUMPDEST PUSH1 0x40 MLOAD DUP1 SWAP2 SUB SWAP1 RETURN JUMPDEST CALLVALUE DUP1 ISZERO PUSH2 0x1A5 JUMPI PUSH1 0x0 DUP1 REVERT JUMPDEST POP PUSH2 0x1AE PUSH2 0x3D4 JUMP JUMPDEST PUSH1 0x40 MLOAD PUSH2 0x1BB SWAP2 SWAP1 PUSH2 0x1124 JUMP JUMPDEST PUSH1 0x40 MLOAD DUP1 SWAP2 SUB SWAP1 RETURN JUMPDEST CALLVALUE DUP1 ISZERO PUSH2 0x1D0 JUMPI PUSH1 0x0 DUP1 REVERT JUMPDEST POP PUSH2 0x1D9 PUSH2 0x3DA JUMP JUMPDEST PUSH1 0x40 MLOAD PUSH2 0x1E6 SWAP2 SWAP1 PUSH2 0x10F0 JUMP JUMPDEST PUSH1 0x40 MLOAD DUP1 SWAP2 SUB SWAP1 RETURN JUMPDEST CALLVALUE DUP1 ISZERO PUSH2 0x1FB JUMPI PUSH1 0x0 DUP1 REVERT JUMPDEST POP PUSH2 0x204 PUSH2 0x4B3 JUMP JUMPDEST PUSH1 0x40 MLOAD PUSH2 0x211 SWAP2 SWAP1 PUSH2 0x1124 JUMP JUMPDEST PUSH1 0x40 MLOAD DUP1 SWAP2 SUB SWAP1 RETURN JUMPDEST CALLVALUE DUP1 ISZERO PUSH2 0x226 JUMPI PUSH1 0x0 DUP1 REVERT JUMPDEST POP PUSH2 0x22F PUSH2 0x4B9 JUMP JUMPDEST PUSH1 0x40 MLOAD PUSH2 0x23C SWAP2 SWAP1 PUSH2 0x10BA JUMP JUMPDEST PUSH1 0x40 MLOAD DUP1 SWAP2 SUB SWAP1 RETURN JUMPDEST CALLVALUE DUP1 ISZERO PUSH2 0x251 JUMPI PUSH1 0x0 DUP1 REVERT JUMPDEST POP PUSH2 0x25A PUSH2 0x4DF JUMP JUMPDEST PUSH1 0x40 MLOAD PUSH2 0x267 SWAP2 SWAP1 PUSH2 0x1124 JUMP JUMPDEST PUSH1 0x40 MLOAD DUP1 SWAP2 SUB SWAP1 RETURN JUMPDEST CALLVALUE DUP1 ISZERO PUSH2 0x27C JUMPI PUSH1 0x0 DUP1 REVERT JUMPDEST POP PUSH2 0x285 PUSH2 0x4E5 JUMP JUMPDEST PUSH1 0x40 MLOAD PUSH2 0x292 SWAP2 SWAP1 PUSH2 0x1124 JUMP JUMPDEST PUSH1 0x40 MLOAD DUP1 SWAP2 SUB SWAP1 RETURN JUMPDEST CALLVALUE DUP1 ISZERO PUSH2 0x2A7 JUMPI PUSH1 0x0 DUP1 REVERT JUMPDEST POP PUSH2 0x2B0 PUSH2 0x60D JUMP JUMPDEST PUSH1 0x40 MLOAD PUSH2 0x2BD SWAP2 SWAP1 PUSH2 0x1124 JUMP JUMPDEST PUSH1 0x40 MLOAD DUP1 SWAP2 SUB SWAP1 RETURN JUMPDEST CALLVALUE DUP1 ISZERO PUSH2 0x2D2 JUMPI PUSH1 0x0 DUP1 REVERT JUMPDEST POP PUSH2 0x2DB PUSH2 0x613 JUMP JUMPDEST PUSH1 0x40 MLOAD PUSH2 0x2E8 SWAP2 SWAP1 PUSH2 0x1124 JUMP JUMPDEST PUSH1 0x40 MLOAD DUP1 SWAP2 SUB SWAP1 RETURN JUMPDEST CALLVALUE DUP1 ISZERO PUSH2 0x2FD JUMPI PUSH1 0x0 DUP1 REVERT JUMPDEST POP PUSH2 0x306 PUSH2 0x619 JUMP JUMPDEST PUSH1 0x40 MLOAD PUSH2 0x313 SWAP2 SWAP1 PUSH2 0x1124 JUMP JUMPDEST PUSH1 0x40 MLOAD DUP1 SWAP2 SUB SWAP1 RETURN JUMPDEST PUSH2 0x324 PUSH2 0x766 JUMP JUMPDEST STOP JUMPDEST CALLVALUE DUP1 ISZERO PUSH2 0x332 JUMPI PUSH1 0x0 DUP1 REVERT JUMPDEST POP PUSH2 0x33B PUSH2 0xDA4 JUMP JUMPDEST PUSH1 0x40 MLOAD PUSH2 0x348 SWAP2 SWAP1 PUSH2 0x119E JUMP JUMPDEST PUSH1 0x40 MLOAD DUP1 SWAP2 SUB SWAP1 RETURN JUMPDEST PUSH1 0x6 PUSH1 0x0 SWAP1 SLOAD SWAP1 PUSH2 0x100 EXP SWAP1 DIV PUSH20 0xFFFFFFFFFFFFFFFFFFFFFFFFFFFFFFFFFFFFFFFF AND DUP2 JUMP JUMPDEST PUSH1 0x9 PUSH1 0x0 SWAP1 SLOAD SWAP1 PUSH2 0x100 EXP SWAP1 DIV PUSH1 0xFF AND DUP2 JUMP JUMPDEST PUSH1 0x8 SLOAD DUP2 JUMP JUMPDEST PUSH1 0x0 PUSH2 0x3A6 PUSH8 0xC55D7E55A9F87A80 PUSH1 0xC0 SHL PUSH2 0xDCA JUMP JUMPDEST PUSH2 0x3BA PUSH8 0x39EAD36C0D107F91 PUSH1 0xC0 SHL PUSH2 0xDCA JUMP JUMPDEST PUSH2 0x3CE PUSH8 0x4825370B71D52640 PUSH1 0xC0 SHL PUSH2 0xDCA JUMP JUMPDEST NUMBER SWAP1 POP SWAP1 JUMP JUMPDEST PUSH1 0x3 SLOAD DUP2 JUMP JUMPDEST PUSH1 0x0 PUSH2 0x3F0 PUSH8 0xF2617EF151B3426C PUSH1 0xC0 SHL PUSH2 0xDCA JUMP JUMPDEST PUSH2 0x404 PUSH8 0x93630550569107CC PUSH1 0xC0 SHL PUSH2 0xDCA JUMP JUMPDEST PUSH2 0x418 PUSH8 0x86400411A2E6BF28 PUSH1 0xC0 SHL PUSH2 0xDCA JUMP JUMPDEST PUSH1 0x0 PUSH2 0x422 PUSH2 0x4E5 JUMP JUMPDEST SWAP1 POP PUSH2 0x438 PUSH8 0xAAEFFA92F093E929 PUSH1 0xC0 SHL PUSH2 0xDCA JUMP JUMPDEST PUSH2 0x44C PUSH8 0xC35F1CD7B5F4E15B PUSH1 0xC0 SHL PUSH2 0xDCA JUMP JUMPDEST PUSH1 0x0 PUSH1 0x3 SLOAD SWAP1 POP PUSH2 0x467 PUSH8 0x68500D4775CC88CC PUSH1 0xC0 SHL PUSH2 0xDCA JUMP JUMPDEST PUSH2 0x47B PUSH8 0xC3D5A4D051193B58 PUSH1 0xC0 SHL PUSH2 0xDCA JUMP JUMPDEST PUSH1 0x0 DUP2 DUP4 GT SWAP1 POP PUSH2 0x496 PUSH8 0xF921925DCC1B591D PUSH1 0xC0 SHL PUSH2 0xDCA JUMP JUMPDEST PUSH2 0x4AA PUSH8 0x86623D4815C995AC PUSH1 0xC0 SHL PUSH2 0xDCA JUMP JUMPDEST DUP1 SWAP4 POP POP POP POP SWAP1 JUMP JUMPDEST PUSH1 0x0 SLOAD DUP2 JUMP JUMPDEST PUSH1 0x5 PUSH1 0x0 SWAP1 SLOAD SWAP1 PUSH2 0x100 EXP SWAP1 DIV PUSH20 0xFFFFFFFFFFFFFFFFFFFFFFFFFFFFFFFFFFFFFFFF AND DUP2 JUMP JUMPDEST PUSH1 0x4 SLOAD DUP2 JUMP JUMPDEST PUSH1 0x0 PUSH2 0x4FB PUSH8 0xC31A92CA372FD5E1 PUSH1 0xC0 SHL PUSH2 0xDCA JUMP JUMPDEST PUSH2 0x50F PUSH8 0xC51983B5978B2BBE PUSH1 0xC0 SHL PUSH2 0xDCA JUMP JUMPDEST PUSH2 0x523 PUSH8 0x306490B6A71A9E44 PUSH1 0xC0 SHL PUSH2 0xDCA JUMP JUMPDEST PUSH1 0x0 PUSH2 0x52D PUSH2 0x390 JUMP JUMPDEST SWAP1 POP PUSH2 0x543 PUSH8 0x5FAE2853FE610CF PUSH1 0xC0 SHL PUSH2 0xDCA JUMP JUMPDEST PUSH2 0x557 PUSH8 0x70F1F8290330995B PUSH1 0xC0 SHL PUSH2 0xDCA JUMP JUMPDEST PUSH1 0x0 PUSH1 0x7 SLOAD SWAP1 POP PUSH2 0x572 PUSH8 0x5786C40347B33B7B PUSH1 0xC0 SHL PUSH2 0xDCA JUMP JUMPDEST PUSH2 0x586 PUSH8 0xA968B5E95EA5D3E7 PUSH1 0xC0 SHL PUSH2 0xDCA JUMP JUMPDEST PUSH1 0x0 DUP2 DUP4 GT DUP1 ISZERO PUSH2 0x5A7 JUMPI POP PUSH2 0x5A6 PUSH8 0x859D268086A3C2ED PUSH1 0xC0 SHL PUSH2 0xDCD JUMP JUMPDEST JUMPDEST DUP1 PUSH2 0x5C2 JUMPI POP PUSH2 0x5C1 PUSH8 0x60089A4EE88FEBC7 PUSH1 0xC0 SHL PUSH2 0xDD8 JUMP JUMPDEST JUMPDEST PUSH2 0x5CD JUMPI PUSH1 0x0 PUSH2 0x5DA JUMP JUMPDEST DUP2 DUP4 PUSH2 0x5D9 SWAP2 SWAP1 PUSH2 0x11E8 JUMP JUMPDEST JUMPDEST SWAP1 POP PUSH2 0x5F0 PUSH8 0x367773A63B5970A1 PUSH1 0xC0 SHL PUSH2 0xDCA JUMP JUMPDEST PUSH2 0x604 PUSH8 0xD1E4221A06CAF22E PUSH1 0xC0 SHL PUSH2 0xDCA JUMP JUMPDEST DUP1 SWAP4 POP POP POP POP SWAP1 JUMP JUMPDEST PUSH1 0x7 SLOAD DUP2 JUMP JUMPDEST PUSH1 0x2 SLOAD DUP2 JUMP JUMPDEST PUSH1 0x0 PUSH2 0x62F PUSH8 0x18C8A724326D6190 PUSH1 0xC0 SHL PUSH2 0xDCA JUMP JUMPDEST PUSH2 0x643 PUSH8 0x679DABBD7374C276 PUSH1 0xC0 SHL PUSH2 0xDCA JUMP JUMPDEST PUSH2 0x657 PUSH8 0xDF28679AAD33058D PUSH1 0xC0 SHL PUSH2 0xDCA JUMP JUMPDEST PUSH1 0x0 PUSH2 0x661 PUSH2 0x4E5 JUMP JUMPDEST SWAP1 POP PUSH2 0x677 PUSH8 0x29A06CFCFAC183AD PUSH1 0xC0 SHL PUSH2 0xDCA JUMP JUMPDEST PUSH2 0x68B PUSH8 0xCE5E68999BCE0C57 PUSH1 0xC0 SHL PUSH2 0xDCA JUMP JUMPDEST PUSH1 0x0 PUSH2 0x6A1 PUSH8 0xBD367331D1ED7BD5 PUSH1 0xC0 SHL PUSH2 0xDCA JUMP JUMPDEST PUSH2 0x6B5 PUSH8 0xCE6A8ECEEEC9DAE6 PUSH1 0xC0 SHL PUSH2 0xDCA JUMP JUMPDEST PUSH1 0x3 SLOAD DUP3 LT PUSH2 0x6F0 JUMPI PUSH2 0x6D2 PUSH8 0x2E43AD00FCA4DC4A PUSH1 0xC0 SHL PUSH2 0xDCA JUMP JUMPDEST PUSH2 0x6E6 PUSH8 0x9788FD3FAC8D4438 PUSH1 0xC0 SHL PUSH2 0xDCA JUMP JUMPDEST PUSH1 0x2 SLOAD SWAP1 POP PUSH2 0x736 JUMP JUMPDEST PUSH2 0x704 PUSH8 0xBD8FBF7E196C7ACA PUSH1 0xC0 SHL PUSH2 0xDCA JUMP JUMPDEST PUSH2 0x718 PUSH8 0x4CA128507F9A17A5 PUSH1 0xC0 SHL PUSH2 0xDCA JUMP JUMPDEST PUSH1 0x4 SLOAD DUP3 PUSH2 0x726 SWAP2 SWAP1 PUSH2 0x121C JUMP JUMPDEST PUSH1 0x8 SLOAD PUSH2 0x733 SWAP2 SWAP1 PUSH2 0x11E8 JUMP JUMPDEST SWAP1 POP JUMPDEST PUSH2 0x74A PUSH8 0xC13836FE0DD61606 PUSH1 0xC0 SHL PUSH2 0xDCA JUMP JUMPDEST PUSH2 0x75E PUSH8 0x8F1D9DE5B42A5EAE PUSH1 0xC0 SHL PUSH2 0xDCA JUMP JUMPDEST DUP1 SWAP3 POP POP POP SWAP1 JUMP JUMPDEST PUSH2 0x77A PUSH8 0x10BEF37D26724A79 PUSH1 0xC0 SHL PUSH2 0xDCA JUMP JUMPDEST PUSH2 0x78E PUSH8 0xA5C600981A1BDF4B PUSH1 0xC0 SHL PUSH2 0xDCA JUMP JUMPDEST PUSH2 0x7A2 PUSH8 0xCE4EEA46D885F3BF PUSH1 0xC0 SHL PUSH2 0xDCA JUMP JUMPDEST PUSH2 0x7B6 PUSH8 0xF47577F6D7834751 PUSH1 0xC0 SHL PUSH2 0xDCA JUMP JUMPDEST PUSH2 0x7BE PUSH2 0x3DA JUMP JUMPDEST ISZERO PUSH2 0x7FE JUMPI PUSH1 0x40 MLOAD PUSH32 0x8C379A000000000000000000000000000000000000000000000000000000000 DUP2 MSTORE PUSH1 0x4 ADD PUSH2 0x7F5 SWAP1 PUSH2 0x12BB JUMP JUMPDEST PUSH1 0x40 MLOAD DUP1 SWAP2 SUB SWAP1 REVERT JUMPDEST PUSH2 0x812 PUSH8 0x9DCBA24B221DB0E2 PUSH1 0xC0 SHL PUSH2 0xDCA JUMP JUMPDEST PUSH2 0x826 PUSH8 0x570B96C2BABC5A7E PUSH1 0xC0 SHL PUSH2 0xDCA JUMP JUMPDEST PUSH2 0x83A PUSH8 0xF316AEF3D316E1A4 PUSH1 0xC0 SHL PUSH2 0xDCA JUMP JUMPDEST PUSH2 0x84E PUSH8 0x84B4243F8BCB2257 PUSH1 0xC0 SHL PUSH2 0xDCA JUMP JUMPDEST PUSH1 0x5 PUSH1 0x0 SWAP1 SLOAD SWAP1 PUSH2 0x100 EXP SWAP1 DIV PUSH20 0xFFFFFFFFFFFFFFFFFFFFFFFFFFFFFFFFFFFFFFFF AND PUSH20 0xFFFFFFFFFFFFFFFFFFFFFFFFFFFFFFFFFFFFFFFF AND CALLER PUSH20 0xFFFFFFFFFFFFFFFFFFFFFFFFFFFFFFFFFFFFFFFF AND SUB PUSH2 0x8DE JUMPI PUSH1 0x40 MLOAD PUSH32 0x8C379A000000000000000000000000000000000000000000000000000000000 DUP2 MSTORE PUSH1 0x4 ADD PUSH2 0x8D5 SWAP1 PUSH2 0x1327 JUMP JUMPDEST PUSH1 0x40 MLOAD DUP1 SWAP2 SUB SWAP1 REVERT JUMPDEST PUSH2 0x8F2 PUSH8 0xB0F2D9A3B034AE46 PUSH1 0xC0 SHL PUSH2 0xDCA JUMP JUMPDEST PUSH2 0x906 PUSH8 0x47E638CFDBA3C1D5 PUSH1 0xC0 SHL PUSH2 0xDCA JUMP JUMPDEST PUSH2 0x91A PUSH8 0xA76D549CA0538077 PUSH1 0xC0 SHL PUSH2 0xDCA JUMP JUMPDEST PUSH2 0x92E PUSH8 0x33FD6158290A9EEE PUSH1 0xC0 SHL PUSH2 0xDCA JUMP JUMPDEST PUSH1 0x0 PUSH20 0xFFFFFFFFFFFFFFFFFFFFFFFFFFFFFFFFFFFFFFFF AND PUSH1 0x5 PUSH1 0x0 SWAP1 SLOAD SWAP1 PUSH2 0x100 EXP SWAP1 DIV PUSH20 0xFFFFFFFFFFFFFFFFFFFFFFFFFFFFFFFFFFFFFFFF AND PUSH20 0xFFFFFFFFFFFFFFFFFFFFFFFFFFFFFFFFFFFFFFFF AND EQ PUSH2 0x9BF JUMPI PUSH1 0x40 MLOAD PUSH32 0x8C379A000000000000000000000000000000000000000000000000000000000 DUP2 MSTORE PUSH1 0x4 ADD PUSH2 0x9B6 SWAP1 PUSH2 0x1393 JUMP JUMPDEST PUSH1 0x40 MLOAD DUP1 SWAP2 SUB SWAP1 REVERT JUMPDEST PUSH2 0x9D3 PUSH8 0x7E779CA07B4D0B44 PUSH1 0xC0 SHL PUSH2 0xDCA JUMP JUMPDEST PUSH2 0x9E7 PUSH8 0x690CCD9D9C830874 PUSH1 0xC0 SHL PUSH2 0xDCA JUMP JUMPDEST PUSH2 0x9FB PUSH8 0x15DD6DC0FE26AFDE PUSH1 0xC0 SHL PUSH2 0xDCA JUMP JUMPDEST PUSH2 0xA0F PUSH8 0x58C9413BE0615BD8 PUSH1 0xC0 SHL PUSH2 0xDCA JUMP JUMPDEST PUSH1 0x6 PUSH1 0x0 SWAP1 SLOAD SWAP1 PUSH2 0x100 EXP SWAP1 DIV PUSH20 0xFFFFFFFFFFFFFFFFFFFFFFFFFFFFFFFFFFFFFFFF AND PUSH20 0xFFFFFFFFFFFFFFFFFFFFFFFFFFFFFFFFFFFFFFFF AND CALLER PUSH20 0xFFFFFFFFFFFFFFFFFFFFFFFFFFFFFFFFFFFFFFFF AND SUB PUSH2 0xA9F JUMPI PUSH1 0x40 MLOAD PUSH32 0x8C379A000000000000000000000000000000000000000000000000000000000 DUP2 MSTORE PUSH1 0x4 ADD PUSH2 0xA96 SWAP1 PUSH2 0x13FF JUMP JUMPDEST PUSH1 0x40 MLOAD DUP1 SWAP2 SUB SWAP1 REVERT JUMPDEST PUSH2 0xAB3 PUSH8 0xCF2CA93CD83DE567 PUSH1 0xC0 SHL PUSH2 0xDCA JUMP JUMPDEST PUSH2 0xAC7 PUSH8 0xD0EEF24D1F904423 PUSH1 0xC0 SHL PUSH2 0xDCA JUMP JUMPDEST PUSH2 0xADB PUSH8 0xE5A78E5C021FCD7A PUSH1 0xC0 SHL PUSH2 0xDCA JUMP JUMPDEST PUSH2 0xAEF PUSH8 0x18D264F25B0AB09 PUSH1 0xC0 SHL PUSH2 0xDCA JUMP JUMPDEST PUSH2 0xAF7 PUSH2 0x619 JUMP JUMPDEST CALLVALUE LT ISZERO PUSH2 0xB39 JUMPI PUSH1 0x40 MLOAD PUSH32 0x8C379A000000000000000000000000000000000000000000000000000000000 DUP2 MSTORE PUSH1 0x4 ADD PUSH2 0xB30 SWAP1 PUSH2 0x146B JUMP JUMPDEST PUSH1 0x40 MLOAD DUP1 SWAP2 SUB SWAP1 REVERT JUMPDEST PUSH2 0xB4D PUSH8 0x221368EF4D232163 PUSH1 0xC0 SHL PUSH2 0xDCA JUMP JUMPDEST PUSH2 0xB61 PUSH8 0x6AEFD0689D7AA622 PUSH1 0xC0 SHL PUSH2 0xDCA JUMP JUMPDEST PUSH2 0xB75 PUSH8 0x88D9DD1ED3E8035C PUSH1 0xC0 SHL PUSH2 0xDCA JUMP JUMPDEST PUSH1 0x0 PUSH1 0x6 PUSH1 0x0 SWAP1 SLOAD SWAP1 PUSH2 0x100 EXP SWAP1 DIV PUSH20 0xFFFFFFFFFFFFFFFFFFFFFFFFFFFFFFFFFFFFFFFF AND PUSH20 0xFFFFFFFFFFFFFFFFFFFFFFFFFFFFFFFFFFFFFFFF AND PUSH2 0xBB8 PUSH2 0x619 JUMP JUMPDEST PUSH1 0x40 MLOAD PUSH2 0xBC4 SWAP1 PUSH2 0x14BC JUMP JUMPDEST PUSH1 0x0 PUSH1 0x40 MLOAD DUP1 DUP4 SUB DUP2 DUP6 DUP8 GAS CALL SWAP3 POP POP POP RETURNDATASIZE DUP1 PUSH1 0x0 DUP2 EQ PUSH2 0xC01 JUMPI PUSH1 0x40 MLOAD SWAP2 POP PUSH1 0x1F NOT PUSH1 0x3F RETURNDATASIZE ADD AND DUP3 ADD PUSH1 0x40 MSTORE RETURNDATASIZE DUP3 MSTORE RETURNDATASIZE PUSH1 0x0 PUSH1 0x20 DUP5 ADD RETURNDATACOPY PUSH2 0xC06 JUMP JUMPDEST PUSH1 0x60 SWAP2 POP JUMPDEST POP POP SWAP1 POP PUSH2 0xC1E PUSH8 0x1499F25B1C200C68 PUSH1 0xC0 SHL PUSH2 0xDCA JUMP JUMPDEST PUSH2 0xC32 PUSH8 0x683127EE7B44B094 PUSH1 0xC0 SHL PUSH2 0xDCA JUMP JUMPDEST PUSH2 0xC46 PUSH8 0xD8472DCE034BF182 PUSH1 0xC0 SHL PUSH2 0xDCA JUMP JUMPDEST PUSH1 0x1 ISZERO ISZERO DUP2 ISZERO ISZERO EQ PUSH2 0xC8D JUMPI PUSH1 0x40 MLOAD PUSH32 0x8C379A000000000000000000000000000000000000000000000000000000000 DUP2 MSTORE PUSH1 0x4 ADD PUSH2 0xC84 SWAP1 PUSH2 0x151D JUMP JUMPDEST PUSH1 0x40 MLOAD DUP1 SWAP2 SUB SWAP1 REVERT JUMPDEST PUSH2 0xCA1 PUSH8 0x1E0CD972F3DFD970 PUSH1 0xC0 SHL PUSH2 0xDCA JUMP JUMPDEST PUSH2 0xCB5 PUSH8 0xBB2409A9A5286DDC PUSH1 0xC0 SHL PUSH2 0xDCA JUMP JUMPDEST PUSH2 0xCC9 PUSH8 0xC6720DB62E597756 PUSH1 0xC0 SHL PUSH2 0xDCA JUMP JUMPDEST PUSH1 0x0 PUSH2 0xCD3 PUSH2 0x619 JUMP JUMPDEST CALLVALUE PUSH2 0xCDE SWAP2 SWAP1 PUSH2 0x11E8 JUMP JUMPDEST SWAP1 POP PUSH2 0xCF4 PUSH8 0xD931E1DFC06C883C PUSH1 0xC0 SHL PUSH2 0xDCA JUMP JUMPDEST PUSH2 0xD08 PUSH8 0x8FC57AE7D9B024EE PUSH1 0xC0 SHL PUSH2 0xDCA JUMP JUMPDEST PUSH1 0x0 DUP2 GT ISZERO PUSH2 0xD5B JUMPI PUSH2 0xD25 PUSH8 0x12C700869B953F67 PUSH1 0xC0 SHL PUSH2 0xDCA JUMP JUMPDEST PUSH2 0xD39 PUSH8 0x93AA3774233C6906 PUSH1 0xC0 SHL PUSH2 0xDCA JUMP JUMPDEST PUSH2 0xD4D PUSH8 0xD709FFCC6D4F51BC PUSH1 0xC0 SHL PUSH2 0xDCA JUMP JUMPDEST PUSH2 0xD56 DUP2 PUSH2 0xDDF JUMP JUMPDEST PUSH2 0xD70 JUMP JUMPDEST PUSH2 0xD6F PUSH8 0x8A3BB229913A2BCC PUSH1 0xC0 SHL PUSH2 0xDCA JUMP JUMPDEST JUMPDEST PUSH2 0xD84 PUSH8 0x1A0C575CEA3A0B9C PUSH1 0xC0 SHL PUSH2 0xDCA JUMP JUMPDEST PUSH2 0xD98 PUSH8 0xA99D90F94D1F6D50 PUSH1 0xC0 SHL PUSH2 0xDCA JUMP JUMPDEST PUSH2 0xDA0 PUSH2 0xE65 JUMP JUMPDEST POP POP JUMP JUMPDEST PUSH1 0x1 PUSH1 0x0 SWAP1 SLOAD SWAP1 PUSH2 0x100 EXP SWAP1 DIV PUSH20 0xFFFFFFFFFFFFFFFFFFFFFFFFFFFFFFFFFFFFFFFF AND DUP2 JUMP JUMPDEST POP JUMP JUMPDEST PUSH1 0x0 PUSH1 0x1 SWAP1 POP SWAP2 SWAP1 POP JUMP JUMPDEST PUSH1 0x0 SWAP2 SWAP1 POP JUMP JUMPDEST PUSH2 0xDF3 PUSH8 0x8A7AAA5FD8324848 PUSH1 0xC0 SHL PUSH2 0xDCA JUMP JUMPDEST PUSH2 0xE07 PUSH8 0x4A0F841316B4962F PUSH1 0xC0 SHL PUSH2 0xDCA JUMP JUMPDEST PUSH2 0xE1B PUSH8 0xA8088ADC34016E01 PUSH1 0xC0 SHL PUSH2 0xDCA JUMP JUMPDEST CALLER PUSH20 0xFFFFFFFFFFFFFFFFFFFFFFFFFFFFFFFFFFFFFFFF AND PUSH2 0x8FC DUP3 SWAP1 DUP2 ISZERO MUL SWAP1 PUSH1 0x40 MLOAD PUSH1 0x0 PUSH1 0x40 MLOAD DUP1 DUP4 SUB DUP2 DUP6 DUP9 DUP9 CALL SWAP4 POP POP POP POP ISZERO DUP1 ISZERO PUSH2 0xE61 JUMPI RETURNDATASIZE PUSH1 0x0 DUP1 RETURNDATACOPY RETURNDATASIZE PUSH1 0x0 REVERT JUMPDEST POP POP JUMP JUMPDEST PUSH2 0xE79 PUSH8 0x2B8ABF9A3CE47EBD PUSH1 0xC0 SHL PUSH2 0xDCA JUMP JUMPDEST PUSH2 0xE8D PUSH8 0xF9A57BBBB266F2D2 PUSH1 0xC0 SHL PUSH2 0xDCA JUMP JUMPDEST PUSH2 0xEA1 PUSH8 0x59C129BB66D06A4 PUSH1 0xC0 SHL PUSH2 0xDCA JUMP JUMPDEST PUSH1 0x1 PUSH1 0x0 SWAP1 SLOAD SWAP1 PUSH2 0x100 EXP SWAP1 DIV PUSH20 0xFFFFFFFFFFFFFFFFFFFFFFFFFFFFFFFFFFFFFFFF AND PUSH20 0xFFFFFFFFFFFFFFFFFFFFFFFFFFFFFFFFFFFFFFFF AND PUSH4 0x23B872DD PUSH1 0x6 PUSH1 0x0 SWAP1 SLOAD SWAP1 PUSH2 0x100 EXP SWAP1 DIV PUSH20 0xFFFFFFFFFFFFFFFFFFFFFFFFFFFFFFFFFFFFFFFF AND CALLER PUSH1 0x0 SLOAD PUSH1 0x40 MLOAD DUP5 PUSH4 0xFFFFFFFF AND PUSH1 0xE0 SHL DUP2 MSTORE PUSH1 0x4 ADD PUSH2 0xF24 SWAP4 SWAP3 SWAP2 SWAP1 PUSH2 0x153D JUMP JUMPDEST PUSH1 0x0 PUSH1 0x40 MLOAD DUP1 DUP4 SUB DUP2 PUSH1 0x0 DUP8 DUP1 EXTCODESIZE ISZERO DUP1 ISZERO PUSH2 0xF3E JUMPI PUSH1 0x0 DUP1 REVERT JUMPDEST POP GAS CALL ISZERO DUP1 ISZERO PUSH2 0xF52 JUMPI RETURNDATASIZE PUSH1 0x0 DUP1 RETURNDATACOPY RETURNDATASIZE PUSH1 0x0 REVERT JUMPDEST POP POP POP POP PUSH2 0xF6A PUSH8 0x79DA808040F3099F PUSH1 0xC0 SHL PUSH2 0xDCA JUMP JUMPDEST PUSH1 0x1 PUSH1 0x0 SWAP1 SLOAD SWAP1 PUSH2 0x100 EXP SWAP1 DIV PUSH20 0xFFFFFFFFFFFFFFFFFFFFFFFFFFFFFFFFFFFFFFFF AND PUSH20 0xFFFFFFFFFFFFFFFFFFFFFFFFFFFFFFFFFFFFFFFF AND PUSH4 0x6352211E PUSH1 0x0 SLOAD PUSH1 0x40 MLOAD DUP3 PUSH4 0xFFFFFFFF AND PUSH1 0xE0 SHL DUP2 MSTORE PUSH1 0x4 ADD PUSH2 0xFC7 SWAP2 SWAP1 PUSH2 0x1124 JUMP JUMPDEST PUSH1 0x20 PUSH1 0x40 MLOAD DUP1 DUP4 SUB DUP2 DUP7 GAS STATICCALL ISZERO DUP1 ISZERO PUSH2 0xFE4 JUMPI RETURNDATASIZE PUSH1 0x0 DUP1 RETURNDATACOPY RETURNDATASIZE PUSH1 0x0 REVERT JUMPDEST POP POP POP POP PUSH1 0x40 MLOAD RETURNDATASIZE PUSH1 0x1F NOT PUSH1 0x1F DUP3 ADD AND DUP3 ADD DUP1 PUSH1 0x40 MSTORE POP DUP2 ADD SWAP1 PUSH2 0x1008 SWAP2 SWAP1 PUSH2 0x15A5 JUMP JUMPDEST PUSH1 0x5 PUSH1 0x0 PUSH2 0x100 EXP DUP2 SLOAD DUP2 PUSH20 0xFFFFFFFFFFFFFFFFFFFFFFFFFFFFFFFFFFFFFFFF MUL NOT AND SWAP1 DUP4 PUSH20 0xFFFFFFFFFFFFFFFFFFFFFFFFFFFFFFFFFFFFFFFF AND MUL OR SWAP1 SSTORE POP PUSH2 0x105C PUSH8 0x9AC4AD802098D0BA PUSH1 0xC0 SHL PUSH2 0xDCA JUMP JUMPDEST PUSH1 0x0 PUSH1 0x9 PUSH1 0x0 PUSH2 0x100 EXP DUP2 SLOAD DUP2 PUSH1 0xFF MUL NOT AND SWAP1 DUP4 ISZERO ISZERO MUL OR SWAP1 SSTORE POP JUMP JUMPDEST PUSH1 0x0 PUSH20 0xFFFFFFFFFFFFFFFFFFFFFFFFFFFFFFFFFFFFFFFF DUP3 AND SWAP1 POP SWAP2 SWAP1 POP JUMP JUMPDEST PUSH1 0x0 PUSH2 0x10A4 DUP3 PUSH2 0x1079 JUMP JUMPDEST SWAP1 POP SWAP2 SWAP1 POP JUMP JUMPDEST PUSH2 0x10B4 DUP2 PUSH2 0x1099 JUMP JUMPDEST DUP3 MSTORE POP POP JUMP JUMPDEST PUSH1 0x0 PUSH1 0x20 DUP3 ADD SWAP1 POP PUSH2 0x10CF PUSH1 0x0 DUP4 ADD DUP5 PUSH2 0x10AB JUMP JUMPDEST SWAP3 SWAP2 POP POP JUMP JUMPDEST PUSH1 0x0 DUP2 ISZERO ISZERO SWAP1 POP SWAP2 SWAP1 POP JUMP JUMPDEST PUSH2 0x10EA DUP2 PUSH2 0x10D5 JUMP JUMPDEST DUP3 MSTORE POP POP JUMP JUMPDEST PUSH1 0x0 PUSH1 0x20 DUP3 ADD SWAP1 POP PUSH2 0x1105 PUSH1 0x0 DUP4 ADD DUP5 PUSH2 0x10E1 JUMP JUMPDEST SWAP3 SWAP2 POP POP JUMP JUMPDEST PUSH1 0x0 DUP2 SWAP1 POP SWAP2 SWAP1 POP JUMP JUMPDEST PUSH2 0x111E DUP2 PUSH2 0x110B JUMP JUMPDEST DUP3 MSTORE POP POP JUMP JUMPDEST PUSH1 0x0 PUSH1 0x20 DUP3 ADD SWAP1 POP PUSH2 0x1139 PUSH1 0x0 DUP4 ADD DUP5 PUSH2 0x1115 JUMP JUMPDEST SWAP3 SWAP2 POP POP JUMP JUMPDEST PUSH1 0x0 DUP2 SWAP1 POP SWAP2 SWAP1 POP JUMP JUMPDEST PUSH1 0x0 PUSH2 0x1164 PUSH2 0x115F PUSH2 0x115A DUP5 PUSH2 0x1079 JUMP JUMPDEST PUSH2 0x113F JUMP JUMPDEST PUSH2 0x1079 JUMP JUMPDEST SWAP1 POP SWAP2 SWAP1 POP JUMP JUMPDEST PUSH1 0x0 PUSH2 0x1176 DUP3 PUSH2 0x1149 JUMP JUMPDEST SWAP1 POP SWAP2 SWAP1 POP JUMP JUMPDEST PUSH1 0x0 PUSH2 0x1188 DUP3 PUSH2 0x116B JUMP JUMPDEST SWAP1 POP SWAP2 SWAP1 POP JUMP JUMPDEST PUSH2 0x1198 DUP2 PUSH2 0x117D JUMP JUMPDEST DUP3 MSTORE POP POP JUMP JUMPDEST PUSH1 0x0 PUSH1 0x20 DUP3 ADD SWAP1 POP PUSH2 0x11B3 PUSH1 0x0 DUP4 ADD DUP5 PUSH2 0x118F JUMP JUMPDEST SWAP3 SWAP2 POP POP JUMP JUMPDEST PUSH32 0x4E487B7100000000000000000000000000000000000000000000000000000000 PUSH1 0x0 MSTORE PUSH1 0x11 PUSH1 0x4 MSTORE PUSH1 0x24 PUSH1 0x0 REVERT JUMPDEST PUSH1 0x0 PUSH2 0x11F3 DUP3 PUSH2 0x110B JUMP JUMPDEST SWAP2 POP PUSH2 0x11FE DUP4 PUSH2 0x110B JUMP JUMPDEST SWAP3 POP DUP3 DUP3 SUB SWAP1 POP DUP2 DUP2 GT ISZERO PUSH2 0x1216 JUMPI PUSH2 0x1215 PUSH2 0x11B9 JUMP JUMPDEST JUMPDEST SWAP3 SWAP2 POP POP JUMP JUMPDEST PUSH1 0x0 PUSH2 0x1227 DUP3 PUSH2 0x110B JUMP JUMPDEST SWAP2 POP PUSH2 0x1232 DUP4 PUSH2 0x110B JUMP JUMPDEST SWAP3 POP DUP3 DUP3 MUL PUSH2 0x1240 DUP2 PUSH2 0x110B JUMP JUMPDEST SWAP2 POP DUP3 DUP3 DIV DUP5 EQ DUP4 ISZERO OR PUSH2 0x1257 JUMPI PUSH2 0x1256 PUSH2 0x11B9 JUMP JUMPDEST JUMPDEST POP SWAP3 SWAP2 POP POP JUMP JUMPDEST PUSH1 0x0 DUP3 DUP3 MSTORE PUSH1 0x20 DUP3 ADD SWAP1 POP SWAP3 SWAP2 POP POP JUMP JUMPDEST PUSH32 0x41756374696F6E20697320636C6F736564000000000000000000000000000000 PUSH1 0x0 DUP3 ADD MSTORE POP JUMP JUMPDEST PUSH1 0x0 PUSH2 0x12A5 PUSH1 0x11 DUP4 PUSH2 0x125E JUMP JUMPDEST SWAP2 POP PUSH2 0x12B0 DUP3 PUSH2 0x126F JUMP JUMPDEST PUSH1 0x20 DUP3 ADD SWAP1 POP SWAP2 SWAP1 POP JUMP JUMPDEST PUSH1 0x0 PUSH1 0x20 DUP3 ADD SWAP1 POP DUP2 DUP2 SUB PUSH1 0x0 DUP4 ADD MSTORE PUSH2 0x12D4 DUP2 PUSH2 0x1298 JUMP JUMPDEST SWAP1 POP SWAP2 SWAP1 POP JUMP JUMPDEST PUSH32 0x50726F6475637420616C72656164792070757263686173656400000000000000 PUSH1 0x0 DUP3 ADD MSTORE POP JUMP JUMPDEST PUSH1 0x0 PUSH2 0x1311 PUSH1 0x19 DUP4 PUSH2 0x125E JUMP JUMPDEST SWAP2 POP PUSH2 0x131C DUP3 PUSH2 0x12DB JUMP JUMPDEST PUSH1 0x20 DUP3 ADD SWAP1 POP SWAP2 SWAP1 POP JUMP JUMPDEST PUSH1 0x0 PUSH1 0x20 DUP3 ADD SWAP1 POP DUP2 DUP2 SUB PUSH1 0x0 DUP4 ADD MSTORE PUSH2 0x1340 DUP2 PUSH2 0x1304 JUMP JUMPDEST SWAP1 POP SWAP2 SWAP1 POP JUMP JUMPDEST PUSH32 0x50726F6475637420616C726561647920736F6C64000000000000000000000000 PUSH1 0x0 DUP3 ADD MSTORE POP JUMP JUMPDEST PUSH1 0x0 PUSH2 0x137D PUSH1 0x14 DUP4 PUSH2 0x125E JUMP JUMPDEST SWAP2 POP PUSH2 0x1388 DUP3 PUSH2 0x1347 JUMP JUMPDEST PUSH1 0x20 DUP3 ADD SWAP1 POP SWAP2 SWAP1 POP JUMP JUMPDEST PUSH1 0x0 PUSH1 0x20 DUP3 ADD SWAP1 POP DUP2 DUP2 SUB PUSH1 0x0 DUP4 ADD MSTORE PUSH2 0x13AC DUP2 PUSH2 0x1370 JUMP JUMPDEST SWAP1 POP SWAP2 SWAP1 POP JUMP JUMPDEST PUSH32 0x4F776E65722063616E2774206269640000000000000000000000000000000000 PUSH1 0x0 DUP3 ADD MSTORE POP JUMP JUMPDEST PUSH1 0x0 PUSH2 0x13E9 PUSH1 0xF DUP4 PUSH2 0x125E JUMP JUMPDEST SWAP2 POP PUSH2 0x13F4 DUP3 PUSH2 0x13B3 JUMP JUMPDEST PUSH1 0x20 DUP3 ADD SWAP1 POP SWAP2 SWAP1 POP JUMP JUMPDEST PUSH1 0x0 PUSH1 0x20 DUP3 ADD SWAP1 POP DUP2 DUP2 SUB PUSH1 0x0 DUP4 ADD MSTORE PUSH2 0x1418 DUP2 PUSH2 0x13DC JUMP JUMPDEST SWAP1 POP SWAP2 SWAP1 POP JUMP JUMPDEST PUSH32 0x574549206973206E6F742073756666696369656E740000000000000000000000 PUSH1 0x0 DUP3 ADD MSTORE POP JUMP JUMPDEST PUSH1 0x0 PUSH2 0x1455 PUSH1 0x15 DUP4 PUSH2 0x125E JUMP JUMPDEST SWAP2 POP PUSH2 0x1460 DUP3 PUSH2 0x141F JUMP JUMPDEST PUSH1 0x20 DUP3 ADD SWAP1 POP SWAP2 SWAP1 POP JUMP JUMPDEST PUSH1 0x0 PUSH1 0x20 DUP3 ADD SWAP1 POP DUP2 DUP2 SUB PUSH1 0x0 DUP4 ADD MSTORE PUSH2 0x1484 DUP2 PUSH2 0x1448 JUMP JUMPDEST SWAP1 POP SWAP2 SWAP1 POP JUMP JUMPDEST PUSH1 0x0 DUP2 SWAP1 POP SWAP3 SWAP2 POP POP JUMP JUMPDEST POP JUMP JUMPDEST PUSH1 0x0 PUSH2 0x14A6 PUSH1 0x0 DUP4 PUSH2 0x148B JUMP JUMPDEST SWAP2 POP PUSH2 0x14B1 DUP3 PUSH2 0x1496 JUMP JUMPDEST PUSH1 0x0 DUP3 ADD SWAP1 POP SWAP2 SWAP1 POP JUMP JUMPDEST PUSH1 0x0 PUSH2 0x14C7 DUP3 PUSH2 0x1499 JUMP JUMPDEST SWAP2 POP DUP2 SWAP1 POP SWAP2 SWAP1 POP JUMP JUMPDEST PUSH32 0x4661696C656420746F2073656E64000000000000000000000000000000000000 PUSH1 0x0 DUP3 ADD MSTORE POP JUMP JUMPDEST PUSH1 0x0 PUSH2 0x1507 PUSH1 0xE DUP4 PUSH2 0x125E JUMP JUMPDEST SWAP2 POP PUSH2 0x1512 DUP3 PUSH2 0x14D1 JUMP JUMPDEST PUSH1 0x20 DUP3 ADD SWAP1 POP SWAP2 SWAP1 POP JUMP JUMPDEST PUSH1 0x0 PUSH1 0x20 DUP3 ADD SWAP1 POP DUP2 DUP2 SUB PUSH1 0x0 DUP4 ADD MSTORE PUSH2 0x1536 DUP2 PUSH2 0x14FA JUMP JUMPDEST SWAP1 POP SWAP2 SWAP1 POP JUMP JUMPDEST PUSH1 0x0 PUSH1 0x60 DUP3 ADD SWAP1 POP PUSH2 0x1552 PUSH1 0x0 DUP4 ADD DUP7 PUSH2 0x10AB JUMP JUMPDEST PUSH2 0x155F PUSH1 0x20 DUP4 ADD DUP6 PUSH2 0x10AB JUMP JUMPDEST PUSH2 0x156C PUSH1 0x40 DUP4 ADD DUP5 PUSH2 0x1115 JUMP JUMPDEST SWAP5 SWAP4 POP POP POP POP JUMP JUMPDEST PUSH1 0x0 DUP1 REVERT JUMPDEST PUSH2 0x1582 DUP2 PUSH2 0x1099 JUMP JUMPDEST DUP2 EQ PUSH2 0x158D JUMPI PUSH1 0x0 DUP1 REVERT JUMPDEST POP JUMP JUMPDEST PUSH1 0x0 DUP2 MLOAD SWAP1 POP PUSH2 0x159F DUP2 PUSH2 0x1579 JUMP JUMPDEST SWAP3 SWAP2 POP POP JUMP JUMPDEST PUSH1 0x0 PUSH1 0x20 DUP3 DUP5 SUB SLT ISZERO PUSH2 0x15BB JUMPI PUSH2 0x15BA PUSH2 0x1574 JUMP JUMPDEST JUMPDEST PUSH1 0x0 PUSH2 0x15C9 DUP5 DUP3 DUP6 ADD PUSH2 0x1590 JUMP JUMPDEST SWAP2 POP POP SWAP3 SWAP2 POP POP JUMP INVALID LOG2 PUSH5 0x6970667358 0x22 SLT KECCAK256 0xFC 0xDA 0xD8 BASEFEE PUSH32 0x2661216338512BCB2E3B460F0BF25AEE40457AC6CA56467926A13F64736F6C63 NUMBER STOP ADDMOD GT STOP CALLER "},"methodIdentifiers":{"auctionStatusOpen()":"0b48ab8f","buyer()":"7150d8ae","getBlockDiff()":"d4a92e31","getCurrBlock()":"29c2decd","getCurrentPrice()":"eb91d37e","initialPrice()":"1d0806ae","isAuctionClosed()":"6190afae","nft_Address()":"f5734ae2","nft_Id()":"6ee6cb9f","numBlocksAuctionOpen()":"3103ea62","offerPriceDecrement()":"d3642a88","placeBid()":"ecfc7ecc","reservePrice()":"db2e1eed","seller()":"08551a53","startingBlock()":"d91c98d3"}}}}}