{
  "_format": "hh-sol-artifact-1",
  "contractName": "MyToken",
  "sourceName": "contracts/MyToken.sol",
  "abi": [
    {
      "inputs": [
        {
          "internalType": "uint256",
          "name": "max",
          "type": "uint256"
        }
      ],
      "stateMutability": "nonpayable",
      "type": "constructor"
    },
    {
      "anonymous": false,
      "inputs": [
        {
          "indexed": true,
          "internalType": "address",
          "name": "owner",
          "type": "address"
        },
        {
          "indexed": true,
          "internalType": "address",
          "name": "spender",
          "type": "address"
        },
        {
          "indexed": false,
          "internalType": "uint256",
          "name": "value",
          "type": "uint256"
        }
      ],
      "name": "Approval",
      "type": "event"
    },
    {
      "anonymous": false,
      "inputs": [
        {
          "indexed": true,
          "internalType": "address",
          "name": "previousOwner",
          "type": "address"
        },
        {
          "indexed": true,
          "internalType": "address",
          "name": "newOwner",
          "type": "address"
        }
      ],
      "name": "OwnershipTransferred",
      "type": "event"
    },
    {
      "anonymous": false,
      "inputs": [
        {
          "indexed": true,
          "internalType": "address",
          "name": "from",
          "type": "address"
        },
        {
          "indexed": true,
          "internalType": "address",
          "name": "to",
          "type": "address"
        },
        {
          "indexed": false,
          "internalType": "uint256",
          "name": "value",
          "type": "uint256"
        }
      ],
      "name": "Transfer",
      "type": "event"
    },
    {
      "inputs": [
        {
          "internalType": "address",
          "name": "owner",
          "type": "address"
        },
        {
          "internalType": "address",
          "name": "spender",
          "type": "address"
        }
      ],
      "name": "allowance",
      "outputs": [
        {
          "internalType": "uint256",
          "name": "",
          "type": "uint256"
        }
      ],
      "stateMutability": "view",
      "type": "function"
    },
    {
      "inputs": [
        {
          "internalType": "address",
          "name": "spender",
          "type": "address"
        },
        {
          "internalType": "uint256",
          "name": "amount",
          "type": "uint256"
        }
      ],
      "name": "approve",
      "outputs": [
        {
          "internalType": "bool",
          "name": "",
          "type": "bool"
        }
      ],
      "stateMutability": "nonpayable",
      "type": "function"
    },
    {
      "inputs": [
        {
          "internalType": "address",
          "name": "account",
          "type": "address"
        }
      ],
      "name": "balanceOf",
      "outputs": [
        {
          "internalType": "uint256",
          "name": "",
          "type": "uint256"
        }
      ],
      "stateMutability": "view",
      "type": "function"
    },
    {
      "inputs": [
        {
          "internalType": "uint256",
          "name": "amountOfTokens",
          "type": "uint256"
        }
      ],
      "name": "buy",
      "outputs": [],
      "stateMutability": "payable",
      "type": "function"
    },
    {
      "inputs": [],
      "name": "currentPrice",
      "outputs": [
        {
          "internalType": "uint256",
          "name": "",
          "type": "uint256"
        }
      ],
      "stateMutability": "pure",
      "type": "function"
    },
    {
      "inputs": [],
      "name": "decimals",
      "outputs": [
        {
          "internalType": "uint8",
          "name": "",
          "type": "uint8"
        }
      ],
      "stateMutability": "view",
      "type": "function"
    },
    {
      "inputs": [
        {
          "internalType": "address",
          "name": "spender",
          "type": "address"
        },
        {
          "internalType": "uint256",
          "name": "subtractedValue",
          "type": "uint256"
        }
      ],
      "name": "decreaseAllowance",
      "outputs": [
        {
          "internalType": "bool",
          "name": "",
          "type": "bool"
        }
      ],
      "stateMutability": "nonpayable",
      "type": "function"
    },
    {
      "inputs": [
        {
          "internalType": "address",
          "name": "spender",
          "type": "address"
        },
        {
          "internalType": "uint256",
          "name": "addedValue",
          "type": "uint256"
        }
      ],
      "name": "increaseAllowance",
      "outputs": [
        {
          "internalType": "bool",
          "name": "",
          "type": "bool"
        }
      ],
      "stateMutability": "nonpayable",
      "type": "function"
    },
    {
      "inputs": [],
      "name": "maxSupply",
      "outputs": [
        {
          "internalType": "uint256",
          "name": "",
          "type": "uint256"
        }
      ],
      "stateMutability": "view",
      "type": "function"
    },
    {
      "inputs": [],
      "name": "name",
      "outputs": [
        {
          "internalType": "string",
          "name": "",
          "type": "string"
        }
      ],
      "stateMutability": "view",
      "type": "function"
    },
    {
      "inputs": [],
      "name": "owner",
      "outputs": [
        {
          "internalType": "address",
          "name": "",
          "type": "address"
        }
      ],
      "stateMutability": "view",
      "type": "function"
    },
    {
      "inputs": [],
      "name": "renounceOwnership",
      "outputs": [],
      "stateMutability": "nonpayable",
      "type": "function"
    },
    {
      "inputs": [],
      "name": "symbol",
      "outputs": [
        {
          "internalType": "string",
          "name": "",
          "type": "string"
        }
      ],
      "stateMutability": "view",
      "type": "function"
    },
    {
      "inputs": [],
      "name": "totalSupply",
      "outputs": [
        {
          "internalType": "uint256",
          "name": "",
          "type": "uint256"
        }
      ],
      "stateMutability": "view",
      "type": "function"
    },
    {
      "inputs": [
        {
          "internalType": "address",
          "name": "to",
          "type": "address"
        },
        {
          "internalType": "uint256",
          "name": "amount",
          "type": "uint256"
        }
      ],
      "name": "transfer",
      "outputs": [
        {
          "internalType": "bool",
          "name": "",
          "type": "bool"
        }
      ],
      "stateMutability": "nonpayable",
      "type": "function"
    },
    {
      "inputs": [
        {
          "internalType": "address",
          "name": "from",
          "type": "address"
        },
        {
          "internalType": "address",
          "name": "to",
          "type": "address"
        },
        {
          "internalType": "uint256",
          "name": "amount",
          "type": "uint256"
        }
      ],
      "name": "transferFrom",
      "outputs": [
        {
          "internalType": "bool",
          "name": "",
          "type": "bool"
        }
      ],
      "stateMutability": "nonpayable",
      "type": "function"
    },
    {
      "inputs": [
        {
          "internalType": "address",
          "name": "newOwner",
          "type": "address"
        }
      ],
      "name": "transferOwnership",
      "outputs": [],
      "stateMutability": "nonpayable",
      "type": "function"
    }
  ],
  "bytecode": "0x60806040523480156200001157600080fd5b506040516200232838038062002328833981810160405281019062000037919062000240565b6040518060400160405280600881526020017f4d7920546f6b656e0000000000000000000000000000000000000000000000008152506040518060400160405280600381526020017f4d595400000000000000000000000000000000000000000000000000000000008152508160039081620000b49190620004e2565b508060049081620000c69190620004e2565b505050620000e9620000dd6200012f60201b60201c565b6200013760201b60201c565b620001056742096d1f2a0c916760c01b620001fd60201b60201c565b6200012167739b22cceb2908e160c01b620001fd60201b60201c565b8060068190555050620005c9565b600033905090565b6000600560009054906101000a900473ffffffffffffffffffffffffffffffffffffffff16905081600560006101000a81548173ffffffffffffffffffffffffffffffffffffffff021916908373ffffffffffffffffffffffffffffffffffffffff1602179055508173ffffffffffffffffffffffffffffffffffffffff168173ffffffffffffffffffffffffffffffffffffffff167f8be0079c531659141344cd1fd0a4f28419497f9722a3daafe3b4186f6b6457e060405160405180910390a35050565b50565b600080fd5b6000819050919050565b6200021a8162000205565b81146200022657600080fd5b50565b6000815190506200023a816200020f565b92915050565b60006020828403121562000259576200025862000200565b5b6000620002698482850162000229565b91505092915050565b600081519050919050565b7f4e487b7100000000000000000000000000000000000000000000000000000000600052604160045260246000fd5b7f4e487b7100000000000000000000000000000000000000000000000000000000600052602260045260246000fd5b60006002820490506001821680620002f457607f821691505b6020821081036200030a5762000309620002ac565b5b50919050565b60008190508160005260206000209050919050565b60006020601f8301049050919050565b600082821b905092915050565b600060088302620003747fffffffffffffffffffffffffffffffffffffffffffffffffffffffffffffffff8262000335565b62000380868362000335565b95508019841693508086168417925050509392505050565b6000819050919050565b6000620003c3620003bd620003b78462000205565b62000398565b62000205565b9050919050565b6000819050919050565b620003df83620003a2565b620003f7620003ee82620003ca565b84845462000342565b825550505050565b600090565b6200040e620003ff565b6200041b818484620003d4565b505050565b5b8181101562000443576200043760008262000404565b60018101905062000421565b5050565b601f82111562000492576200045c8162000310565b620004678462000325565b8101602085101562000477578190505b6200048f620004868562000325565b83018262000420565b50505b505050565b600082821c905092915050565b6000620004b76000198460080262000497565b1980831691505092915050565b6000620004d28383620004a4565b9150826002028217905092915050565b620004ed8262000272565b67ffffffffffffffff8111156200050957620005086200027d565b5b620005158254620002db565b6200052282828562000447565b600060209050601f8311600181146200055a576000841562000545578287015190505b620005518582620004c4565b865550620005c1565b601f1984166200056a8662000310565b60005b8281101562000594578489015182556001820191506020850194506020810190506200056d565b86831015620005b45784890151620005b0601f891682620004a4565b8355505b6001600288020188555050505b505050505050565b611d4f80620005d96000396000f3fe6080604052600436106100fe5760003560e01c80638da5cb5b11610095578063a9059cbb11610064578063a9059cbb1461034d578063d5abeb011461038a578063d96a094a146103b5578063dd62ed3e146103d1578063f2fde38b1461040e576100fe565b80638da5cb5b1461028f57806395d89b41146102ba5780639d1b464a146102e5578063a457c2d714610310576100fe565b8063313ce567116100d1578063313ce567146101d357806339509351146101fe57806370a082311461023b578063715018a614610278576100fe565b806306fdde0314610103578063095ea7b31461012e57806318160ddd1461016b57806323b872dd14610196575b600080fd5b34801561010f57600080fd5b50610118610437565b6040516101259190611389565b60405180910390f35b34801561013a57600080fd5b5061015560048036038101906101509190611444565b6104c9565b604051610162919061149f565b60405180910390f35b34801561017757600080fd5b506101806104ec565b60405161018d91906114c9565b60405180910390f35b3480156101a257600080fd5b506101bd60048036038101906101b891906114e4565b6104f6565b6040516101ca919061149f565b60405180910390f35b3480156101df57600080fd5b506101e8610525565b6040516101f59190611553565b60405180910390f35b34801561020a57600080fd5b5061022560048036038101906102209190611444565b61052e565b604051610232919061149f565b60405180910390f35b34801561024757600080fd5b50610262600480360381019061025d919061156e565b610565565b60405161026f91906114c9565b60405180910390f35b34801561028457600080fd5b5061028d6105ad565b005b34801561029b57600080fd5b506102a46105c1565b6040516102b191906115aa565b60405180910390f35b3480156102c657600080fd5b506102cf6105eb565b6040516102dc9190611389565b60405180910390f35b3480156102f157600080fd5b506102fa61067d565b60405161030791906114c9565b60405180910390f35b34801561031c57600080fd5b5061033760048036038101906103329190611444565b6106c2565b604051610344919061149f565b60405180910390f35b34801561035957600080fd5b50610374600480360381019061036f9190611444565b610739565b604051610381919061149f565b60405180910390f35b34801561039657600080fd5b5061039f61075c565b6040516103ac91906114c9565b60405180910390f35b6103cf60048036038101906103ca91906115c5565b610762565b005b3480156103dd57600080fd5b506103f860048036038101906103f391906115f2565b6108a8565b60405161040591906114c9565b60405180910390f35b34801561041a57600080fd5b506104356004803603810190610430919061156e565b61092f565b005b60606003805461044690611661565b80601f016020809104026020016040519081016040528092919081815260200182805461047290611661565b80156104bf5780601f10610494576101008083540402835291602001916104bf565b820191906000526020600020905b8154815290600101906020018083116104a257829003601f168201915b5050505050905090565b6000806104d46109b2565b90506104e18185856109ba565b600191505092915050565b6000600254905090565b6000806105016109b2565b905061050e858285610b83565b610519858585610c0f565b60019150509392505050565b60006012905090565b6000806105396109b2565b905061055a81858561054b85896108a8565b61055591906116c1565b6109ba565b600191505092915050565b60008060008373ffffffffffffffffffffffffffffffffffffffff1673ffffffffffffffffffffffffffffffffffffffff168152602001908152602001600020549050919050565b6105b5610e85565b6105bf6000610f03565b565b6000600560009054906101000a900473ffffffffffffffffffffffffffffffffffffffff16905090565b6060600480546105fa90611661565b80601f016020809104026020016040519081016040528092919081815260200182805461062690611661565b80156106735780601f1061064857610100808354040283529160200191610673565b820191906000526020600020905b81548152906001019060200180831161065657829003601f168201915b5050505050905090565b60006106936797c66d353288424f60c01b610fc9565b6106a7670b7e9c8921f37b1360c01b610fc9565b6106bb67da6dc627f6a66aeb60c01b610fc9565b6064905090565b6000806106cd6109b2565b905060006106db82866108a8565b905083811015610720576040517f08c379a000000000000000000000000000000000000000000000000000000000815260040161071790611767565b60405180910390fd5b61072d82868684036109ba565b60019250505092915050565b6000806107446109b2565b9050610751818585610c0f565b600191505092915050565b60065481565b61077667a2611892544040b860c01b610fc9565b61078a678837f8f682f7ba0360c01b610fc9565b61079e67a3f3605d538904a760c01b610fc9565b60006107a982610fcc565b90506107bf67c162e9f52399dfbc60c01b610fc9565b6107d3672b981c4020f3db9960c01b610fc9565b8034111561085e576107ef67f19a931a8f01e90360c01b610fc9565b6108036754074d886aa27cb160c01b610fc9565b61081767f997ad133185a15060c01b610fc9565b600081346108259190611787565b905061083b6758eb517ac169380660c01b610fc9565b61084f67c07d6db68e57ae0360c01b610fc9565b61085881611024565b50610873565b61087267f861bfc14a5c11f260c01b610fc9565b5b61088767b138c4b41b0df47e60c01b610fc9565b61089b67b2132049e2990a6d60c01b610fc9565b6108a4826110aa565b5050565b6000600160008473ffffffffffffffffffffffffffffffffffffffff1673ffffffffffffffffffffffffffffffffffffffff16815260200190815260200160002060008373ffffffffffffffffffffffffffffffffffffffff1673ffffffffffffffffffffffffffffffffffffffff16815260200190815260200160002054905092915050565b610937610e85565b600073ffffffffffffffffffffffffffffffffffffffff168173ffffffffffffffffffffffffffffffffffffffff16036109a6576040517f08c379a000000000000000000000000000000000000000000000000000000000815260040161099d9061182d565b60405180910390fd5b6109af81610f03565b50565b600033905090565b600073ffffffffffffffffffffffffffffffffffffffff168373ffffffffffffffffffffffffffffffffffffffff1603610a29576040517f08c379a0000000000000000000000000000000000000000000000000000000008152600401610a20906118bf565b60405180910390fd5b600073ffffffffffffffffffffffffffffffffffffffff168273ffffffffffffffffffffffffffffffffffffffff1603610a98576040517f08c379a0000000000000000000000000000000000000000000000000000000008152600401610a8f90611951565b60405180910390fd5b80600160008573ffffffffffffffffffffffffffffffffffffffff1673ffffffffffffffffffffffffffffffffffffffff16815260200190815260200160002060008473ffffffffffffffffffffffffffffffffffffffff1673ffffffffffffffffffffffffffffffffffffffff168152602001908152602001600020819055508173ffffffffffffffffffffffffffffffffffffffff168373ffffffffffffffffffffffffffffffffffffffff167f8c5be1e5ebec7d5bd14f71427d1e84f3dd0314c0f7b2291e5b200ac8c7c3b92583604051610b7691906114c9565b60405180910390a3505050565b6000610b8f84846108a8565b90507fffffffffffffffffffffffffffffffffffffffffffffffffffffffffffffffff8114610c095781811015610bfb576040517f08c379a0000000000000000000000000000000000000000000000000000000008152600401610bf2906119bd565b60405180910390fd5b610c0884848484036109ba565b5b50505050565b600073ffffffffffffffffffffffffffffffffffffffff168373ffffffffffffffffffffffffffffffffffffffff1603610c7e576040517f08c379a0000000000000000000000000000000000000000000000000000000008152600401610c7590611a4f565b60405180910390fd5b600073ffffffffffffffffffffffffffffffffffffffff168273ffffffffffffffffffffffffffffffffffffffff1603610ced576040517f08c379a0000000000000000000000000000000000000000000000000000000008152600401610ce490611ae1565b60405180910390fd5b610cf8838383611199565b60008060008573ffffffffffffffffffffffffffffffffffffffff1673ffffffffffffffffffffffffffffffffffffffff16815260200190815260200160002054905081811015610d7e576040517f08c379a0000000000000000000000000000000000000000000000000000000008152600401610d7590611b73565b60405180910390fd5b8181036000808673ffffffffffffffffffffffffffffffffffffffff1673ffffffffffffffffffffffffffffffffffffffff16815260200190815260200160002081905550816000808573ffffffffffffffffffffffffffffffffffffffff1673ffffffffffffffffffffffffffffffffffffffff168152602001908152602001600020600082825401925050819055508273ffffffffffffffffffffffffffffffffffffffff168473ffffffffffffffffffffffffffffffffffffffff167fddf252ad1be2c89b69c2b068fc378daa952ba7f163c4a11628f55a4df523b3ef84604051610e6c91906114c9565b60405180910390a3610e7f84848461119e565b50505050565b610e8d6109b2565b73ffffffffffffffffffffffffffffffffffffffff16610eab6105c1565b73ffffffffffffffffffffffffffffffffffffffff1614610f01576040517f08c379a0000000000000000000000000000000000000000000000000000000008152600401610ef890611bdf565b60405180910390fd5b565b6000600560009054906101000a900473ffffffffffffffffffffffffffffffffffffffff16905081600560006101000a81548173ffffffffffffffffffffffffffffffffffffffff021916908373ffffffffffffffffffffffffffffffffffffffff1602179055508173ffffffffffffffffffffffffffffffffffffffff168173ffffffffffffffffffffffffffffffffffffffff167f8be0079c531659141344cd1fd0a4f28419497f9722a3daafe3b4186f6b6457e060405160405180910390a35050565b50565b6000610fe2672904d72d7f1f003860c01b610fc9565b610ff667d40867dee126de9660c01b610fc9565b61100a672a7c61712790ce8d60c01b610fc9565b8161101361067d565b61101d9190611bff565b9050919050565b61103867b1794647938f499160c01b610fc9565b61104c6797ccd06b148818a760c01b610fc9565b61106067031a9f6f41ffb5eb60c01b610fc9565b3373ffffffffffffffffffffffffffffffffffffffff166108fc829081150290604051600060405180830381858888f193505050501580156110a6573d6000803e3d6000fd5b5050565b6110be67fee5787587ed795d60c01b610fc9565b6110d267121ce8dbbe30be7960c01b610fc9565b6110e667966803e32a33798e60c01b610fc9565b6110fa6799038da78f187b4960c01b610fc9565b6111026104ec565b60065461110f9190611787565b8110611150576040517f08c379a000000000000000000000000000000000000000000000000000000000815260040161114790611c8d565b60405180910390fd5b6111646726ab8023773a002260c01b610fc9565b61117867249e67062c20f25e60c01b610fc9565b61118c675926eb05851643c060c01b610fc9565b61119633826111a3565b50565b505050565b505050565b600073ffffffffffffffffffffffffffffffffffffffff168273ffffffffffffffffffffffffffffffffffffffff1603611212576040517f08c379a000000000000000000000000000000000000000000000000000000000815260040161120990611cf9565b60405180910390fd5b61121e60008383611199565b806002600082825461123091906116c1565b92505081905550806000808473ffffffffffffffffffffffffffffffffffffffff1673ffffffffffffffffffffffffffffffffffffffff168152602001908152602001600020600082825401925050819055508173ffffffffffffffffffffffffffffffffffffffff16600073ffffffffffffffffffffffffffffffffffffffff167fddf252ad1be2c89b69c2b068fc378daa952ba7f163c4a11628f55a4df523b3ef836040516112e191906114c9565b60405180910390a36112f56000838361119e565b5050565b600081519050919050565b600082825260208201905092915050565b60005b83811015611333578082015181840152602081019050611318565b60008484015250505050565b6000601f19601f8301169050919050565b600061135b826112f9565b6113658185611304565b9350611375818560208601611315565b61137e8161133f565b840191505092915050565b600060208201905081810360008301526113a38184611350565b905092915050565b600080fd5b600073ffffffffffffffffffffffffffffffffffffffff82169050919050565b60006113db826113b0565b9050919050565b6113eb816113d0565b81146113f657600080fd5b50565b600081359050611408816113e2565b92915050565b6000819050919050565b6114218161140e565b811461142c57600080fd5b50565b60008135905061143e81611418565b92915050565b6000806040838503121561145b5761145a6113ab565b5b6000611469858286016113f9565b925050602061147a8582860161142f565b9150509250929050565b60008115159050919050565b61149981611484565b82525050565b60006020820190506114b46000830184611490565b92915050565b6114c38161140e565b82525050565b60006020820190506114de60008301846114ba565b92915050565b6000806000606084860312156114fd576114fc6113ab565b5b600061150b868287016113f9565b935050602061151c868287016113f9565b925050604061152d8682870161142f565b9150509250925092565b600060ff82169050919050565b61154d81611537565b82525050565b60006020820190506115686000830184611544565b92915050565b600060208284031215611584576115836113ab565b5b6000611592848285016113f9565b91505092915050565b6115a4816113d0565b82525050565b60006020820190506115bf600083018461159b565b92915050565b6000602082840312156115db576115da6113ab565b5b60006115e98482850161142f565b91505092915050565b60008060408385031215611609576116086113ab565b5b6000611617858286016113f9565b9250506020611628858286016113f9565b9150509250929050565b7f4e487b7100000000000000000000000000000000000000000000000000000000600052602260045260246000fd5b6000600282049050600182168061167957607f821691505b60208210810361168c5761168b611632565b5b50919050565b7f4e487b7100000000000000000000000000000000000000000000000000000000600052601160045260246000fd5b60006116cc8261140e565b91506116d78361140e565b92508282019050808211156116ef576116ee611692565b5b92915050565b7f45524332303a2064656372656173656420616c6c6f77616e63652062656c6f7760008201527f207a65726f000000000000000000000000000000000000000000000000000000602082015250565b6000611751602583611304565b915061175c826116f5565b604082019050919050565b6000602082019050818103600083015261178081611744565b9050919050565b60006117928261140e565b915061179d8361140e565b92508282039050818111156117b5576117b4611692565b5b92915050565b7f4f776e61626c653a206e6577206f776e657220697320746865207a65726f206160008201527f6464726573730000000000000000000000000000000000000000000000000000602082015250565b6000611817602683611304565b9150611822826117bb565b604082019050919050565b600060208201905081810360008301526118468161180a565b9050919050565b7f45524332303a20617070726f76652066726f6d20746865207a65726f2061646460008201527f7265737300000000000000000000000000000000000000000000000000000000602082015250565b60006118a9602483611304565b91506118b48261184d565b604082019050919050565b600060208201905081810360008301526118d88161189c565b9050919050565b7f45524332303a20617070726f766520746f20746865207a65726f20616464726560008201527f7373000000000000000000000000000000000000000000000000000000000000602082015250565b600061193b602283611304565b9150611946826118df565b604082019050919050565b6000602082019050818103600083015261196a8161192e565b9050919050565b7f45524332303a20696e73756666696369656e7420616c6c6f77616e6365000000600082015250565b60006119a7601d83611304565b91506119b282611971565b602082019050919050565b600060208201905081810360008301526119d68161199a565b9050919050565b7f45524332303a207472616e736665722066726f6d20746865207a65726f20616460008201527f6472657373000000000000000000000000000000000000000000000000000000602082015250565b6000611a39602583611304565b9150611a44826119dd565b604082019050919050565b60006020820190508181036000830152611a6881611a2c565b9050919050565b7f45524332303a207472616e7366657220746f20746865207a65726f206164647260008201527f6573730000000000000000000000000000000000000000000000000000000000602082015250565b6000611acb602383611304565b9150611ad682611a6f565b604082019050919050565b60006020820190508181036000830152611afa81611abe565b9050919050565b7f45524332303a207472616e7366657220616d6f756e742065786365656473206260008201527f616c616e63650000000000000000000000000000000000000000000000000000602082015250565b6000611b5d602683611304565b9150611b6882611b01565b604082019050919050565b60006020820190508181036000830152611b8c81611b50565b9050919050565b7f4f776e61626c653a2063616c6c6572206973206e6f7420746865206f776e6572600082015250565b6000611bc9602083611304565b9150611bd482611b93565b602082019050919050565b60006020820190508181036000830152611bf881611bbc565b9050919050565b6000611c0a8261140e565b9150611c158361140e565b9250828202611c238161140e565b91508282048414831517611c3a57611c39611692565b5b5092915050565b7f4c696d6974206578636565646564000000000000000000000000000000000000600082015250565b6000611c77600e83611304565b9150611c8282611c41565b602082019050919050565b60006020820190508181036000830152611ca681611c6a565b9050919050565b7f45524332303a206d696e7420746f20746865207a65726f206164647265737300600082015250565b6000611ce3601f83611304565b9150611cee82611cad565b602082019050919050565b60006020820190508181036000830152611d1281611cd6565b905091905056fea264697066735822122066a95bc23571b922ff4659e3c158abeef2ebfca4b2a584a1f5a269a3cabe081d64736f6c63430008110033",
  "linkReferences": {},
  "deployedLinkReferences": {}
}