{
  "_format": "hh-sol-artifact-1",
  "contractName": "NFTDutchAuction",
  "sourceName": "contracts/NFTDutchAuction.sol",
  "abi": [
    {
      "inputs": [
        {
          "internalType": "address",
          "name": "_nftAddress",
          "type": "address"
        },
        {
          "internalType": "uint256",
          "name": "_nftId",
          "type": "uint256"
        },
        {
          "internalType": "uint256",
          "name": "_reservePrice",
          "type": "uint256"
        },
        {
          "internalType": "uint256",
          "name": "_numBlocksAuctionOpen",
          "type": "uint256"
        },
        {
          "internalType": "uint256",
          "name": "_offerPriceDecrement",
          "type": "uint256"
        }
      ],
      "stateMutability": "nonpayable",
      "type": "constructor"
    },
    {
      "inputs": [],
      "name": "auctionStatusOpen",
      "outputs": [
        {
          "internalType": "bool",
          "name": "",
          "type": "bool"
        }
      ],
      "stateMutability": "view",
      "type": "function"
    },
    {
      "inputs": [],
      "name": "buyer",
      "outputs": [
        {
          "internalType": "address",
          "name": "",
          "type": "address"
        }
      ],
      "stateMutability": "view",
      "type": "function"
    },
    {
      "inputs": [],
      "name": "getBlockDiff",
      "outputs": [
        {
          "internalType": "uint256",
          "name": "",
          "type": "uint256"
        }
      ],
      "stateMutability": "view",
      "type": "function"
    },
    {
      "inputs": [],
      "name": "getCurrBlock",
      "outputs": [
        {
          "internalType": "uint256",
          "name": "",
          "type": "uint256"
        }
      ],
      "stateMutability": "view",
      "type": "function"
    },
    {
      "inputs": [],
      "name": "getCurrentPrice",
      "outputs": [
        {
          "internalType": "uint256",
          "name": "",
          "type": "uint256"
        }
      ],
      "stateMutability": "view",
      "type": "function"
    },
    {
      "inputs": [],
      "name": "initialPrice",
      "outputs": [
        {
          "internalType": "uint256",
          "name": "",
          "type": "uint256"
        }
      ],
      "stateMutability": "view",
      "type": "function"
    },
    {
      "inputs": [],
      "name": "isAuctionClosed",
      "outputs": [
        {
          "internalType": "bool",
          "name": "",
          "type": "bool"
        }
      ],
      "stateMutability": "view",
      "type": "function"
    },
    {
      "inputs": [],
      "name": "nft_Address",
      "outputs": [
        {
          "internalType": "contract IMyNFT",
          "name": "",
          "type": "address"
        }
      ],
      "stateMutability": "view",
      "type": "function"
    },
    {
      "inputs": [],
      "name": "nft_Id",
      "outputs": [
        {
          "internalType": "uint256",
          "name": "",
          "type": "uint256"
        }
      ],
      "stateMutability": "view",
      "type": "function"
    },
    {
      "inputs": [],
      "name": "numBlocksAuctionOpen",
      "outputs": [
        {
          "internalType": "uint256",
          "name": "",
          "type": "uint256"
        }
      ],
      "stateMutability": "view",
      "type": "function"
    },
    {
      "inputs": [],
      "name": "offerPriceDecrement",
      "outputs": [
        {
          "internalType": "uint256",
          "name": "",
          "type": "uint256"
        }
      ],
      "stateMutability": "view",
      "type": "function"
    },
    {
      "inputs": [],
      "name": "placeBid",
      "outputs": [],
      "stateMutability": "payable",
      "type": "function"
    },
    {
      "inputs": [],
      "name": "reservePrice",
      "outputs": [
        {
          "internalType": "uint256",
          "name": "",
          "type": "uint256"
        }
      ],
      "stateMutability": "view",
      "type": "function"
    },
    {
      "inputs": [],
      "name": "seller",
      "outputs": [
        {
          "internalType": "address",
          "name": "",
          "type": "address"
        }
      ],
      "stateMutability": "view",
      "type": "function"
    },
    {
      "inputs": [],
      "name": "startingBlock",
      "outputs": [
        {
          "internalType": "uint256",
          "name": "",
          "type": "uint256"
        }
      ],
      "stateMutability": "view",
      "type": "function"
    }
  ],
  "bytecode": "0x60806040523480156200001157600080fd5b5060405162001ce238038062001ce28339818101604052810190620000379190620004aa565b620000536756bd224aa6e3fa7c60c01b6200040260201b60201c565b6200006f672177000b63d2bb9c60c01b6200040260201b60201c565b33600660006101000a81548173ffffffffffffffffffffffffffffffffffffffff021916908373ffffffffffffffffffffffffffffffffffffffff160217905550620000cc67704c0c3fb13b491860c01b6200040260201b60201c565b43600781905550620000ef67e26a4402fc28668b60c01b6200040260201b60201c565b6001600960006101000a81548160ff02191690831515021790555062000126672685276cb3635ff960c01b6200040260201b60201c565b83600081905550620001496751199b2c84072f0f60c01b6200040260201b60201c565b84600160006101000a81548173ffffffffffffffffffffffffffffffffffffffff021916908373ffffffffffffffffffffffffffffffffffffffff160217905550620001a6670d18556a2c655a3360c01b6200040260201b60201c565b620001c267b4f3c2d97c9b201560c01b6200040260201b60201c565b620001de6714a631aa04f9019760c01b6200040260201b60201c565b3373ffffffffffffffffffffffffffffffffffffffff16600160009054906101000a900473ffffffffffffffffffffffffffffffffffffffff1673ffffffffffffffffffffffffffffffffffffffff16636352211e6000546040518263ffffffff1660e01b815260040162000254919062000543565b602060405180830381865afa15801562000272573d6000803e3d6000fd5b505050506040513d601f19601f8201168201806040525081019062000298919062000560565b73ffffffffffffffffffffffffffffffffffffffff1614620002f1576040517f08c379a0000000000000000000000000000000000000000000000000000000008152600401620002e890620005f3565b60405180910390fd5b6200030d67634e163b72689fc460c01b6200040260201b60201c565b62000329671f803f267d9bba7560c01b6200040260201b60201c565b826002819055506200034c67f9d71e98fe6b69da60c01b6200040260201b60201c565b816003819055506200036f67189ba2cf6ba1107460c01b6200040260201b60201c565b8060048190555062000392670e90aab93dad246f60c01b6200040260201b60201c565b620003ae678d86a6c0877fed0060c01b6200040260201b60201c565b6000600454600354620003c2919062000644565b9050620003e067a670d85ba9da57b660c01b6200040260201b60201c565b60025481620003f091906200068f565b600881905550505050505050620006ca565b50565b600080fd5b600073ffffffffffffffffffffffffffffffffffffffff82169050919050565b600062000437826200040a565b9050919050565b62000449816200042a565b81146200045557600080fd5b50565b60008151905062000469816200043e565b92915050565b6000819050919050565b62000484816200046f565b81146200049057600080fd5b50565b600081519050620004a48162000479565b92915050565b600080600080600060a08688031215620004c957620004c862000405565b5b6000620004d98882890162000458565b9550506020620004ec8882890162000493565b9450506040620004ff8882890162000493565b9350506060620005128882890162000493565b9250506080620005258882890162000493565b9150509295509295909350565b6200053d816200046f565b82525050565b60006020820190506200055a600083018462000532565b92915050565b60006020828403121562000579576200057862000405565b5b6000620005898482850162000458565b91505092915050565b600082825260208201905092915050565b7f596f7520646f6e2774206f776e2074686973204e465420746f2073656c6c0000600082015250565b6000620005db601e8362000592565b9150620005e882620005a3565b602082019050919050565b600060208201905081810360008301526200060e81620005cc565b9050919050565b7f4e487b7100000000000000000000000000000000000000000000000000000000600052601160045260246000fd5b600062000651826200046f565b91506200065e836200046f565b92508282026200066e816200046f565b9150828204841483151762000688576200068762000615565b5b5092915050565b60006200069c826200046f565b9150620006a9836200046f565b9250828201905080821115620006c457620006c362000615565b5b92915050565b61160880620006da6000396000f3fe6080604052600436106100e85760003560e01c80637150d8ae1161008a578063db2e1eed11610059578063db2e1eed146102c6578063eb91d37e146102f1578063ecfc7ecc1461031c578063f5734ae214610326576100e8565b80637150d8ae1461021a578063d3642a8814610245578063d4a92e3114610270578063d91c98d31461029b576100e8565b806329c2decd116100c657806329c2decd1461016e5780633103ea62146101995780636190afae146101c45780636ee6cb9f146101ef576100e8565b806308551a53146100ed5780630b48ab8f146101185780631d0806ae14610143575b600080fd5b3480156100f957600080fd5b50610102610351565b60405161010f91906110ba565b60405180910390f35b34801561012457600080fd5b5061012d610377565b60405161013a91906110f0565b60405180910390f35b34801561014f57600080fd5b5061015861038a565b6040516101659190611124565b60405180910390f35b34801561017a57600080fd5b50610183610390565b6040516101909190611124565b60405180910390f35b3480156101a557600080fd5b506101ae6103d4565b6040516101bb9190611124565b60405180910390f35b3480156101d057600080fd5b506101d96103da565b6040516101e691906110f0565b60405180910390f35b3480156101fb57600080fd5b506102046104b3565b6040516102119190611124565b60405180910390f35b34801561022657600080fd5b5061022f6104b9565b60405161023c91906110ba565b60405180910390f35b34801561025157600080fd5b5061025a6104df565b6040516102679190611124565b60405180910390f35b34801561027c57600080fd5b506102856104e5565b6040516102929190611124565b60405180910390f35b3480156102a757600080fd5b506102b061060d565b6040516102bd9190611124565b60405180910390f35b3480156102d257600080fd5b506102db610613565b6040516102e89190611124565b60405180910390f35b3480156102fd57600080fd5b50610306610619565b6040516103139190611124565b60405180910390f35b610324610766565b005b34801561033257600080fd5b5061033b610da4565b604051610348919061119e565b60405180910390f35b600660009054906101000a900473ffffffffffffffffffffffffffffffffffffffff1681565b600960009054906101000a900460ff1681565b60085481565b60006103a667c55d7e55a9f87a8060c01b610dca565b6103ba6739ead36c0d107f9160c01b610dca565b6103ce674825370b71d5264060c01b610dca565b43905090565b60035481565b60006103f067f2617ef151b3426c60c01b610dca565b6104046793630550569107cc60c01b610dca565b6104186786400411a2e6bf2860c01b610dca565b60006104226104e5565b905061043867aaeffa92f093e92960c01b610dca565b61044c67c35f1cd7b5f4e15b60c01b610dca565b600060035490506104676768500d4775cc88cc60c01b610dca565b61047b67c3d5a4d051193b5860c01b610dca565b6000818311905061049667f921925dcc1b591d60c01b610dca565b6104aa6786623d4815c995ac60c01b610dca565b80935050505090565b60005481565b600560009054906101000a900473ffffffffffffffffffffffffffffffffffffffff1681565b60045481565b60006104fb67c31a92ca372fd5e160c01b610dca565b61050f67c51983b5978b2bbe60c01b610dca565b61052367306490b6a71a9e4460c01b610dca565b600061052d610390565b90506105436705fae2853fe610cf60c01b610dca565b6105576770f1f8290330995b60c01b610dca565b60006007549050610572675786c40347b33b7b60c01b610dca565b61058667a968b5e95ea5d3e760c01b610dca565b600081831180156105a757506105a667859d268086a3c2ed60c01b610dcd565b5b806105c257506105c16760089a4ee88febc760c01b610dd8565b5b6105cd5760006105da565b81836105d991906111e8565b5b90506105f067367773a63b5970a160c01b610dca565b61060467d1e4221a06caf22e60c01b610dca565b80935050505090565b60075481565b60025481565b600061062f6718c8a724326d619060c01b610dca565b61064367679dabbd7374c27660c01b610dca565b61065767df28679aad33058d60c01b610dca565b60006106616104e5565b90506106776729a06cfcfac183ad60c01b610dca565b61068b67ce5e68999bce0c5760c01b610dca565b60006106a167bd367331d1ed7bd560c01b610dca565b6106b567ce6a8eceeec9dae660c01b610dca565b60035482106106f0576106d2672e43ad00fca4dc4a60c01b610dca565b6106e6679788fd3fac8d443860c01b610dca565b6002549050610736565b61070467bd8fbf7e196c7aca60c01b610dca565b610718674ca128507f9a17a560c01b610dca565b60045482610726919061121c565b60085461073391906111e8565b90505b61074a67c13836fe0dd6160660c01b610dca565b61075e678f1d9de5b42a5eae60c01b610dca565b809250505090565b61077a6710bef37d26724a7960c01b610dca565b61078e67a5c600981a1bdf4b60c01b610dca565b6107a267ce4eea46d885f3bf60c01b610dca565b6107b667f47577f6d783475160c01b610dca565b6107be6103da565b156107fe576040517f08c379a00000000000000000000000000000000000000000000000000000000081526004016107f5906112bb565b60405180910390fd5b610812679dcba24b221db0e260c01b610dca565b61082667570b96c2babc5a7e60c01b610dca565b61083a67f316aef3d316e1a460c01b610dca565b61084e6784b4243f8bcb225760c01b610dca565b600560009054906101000a900473ffffffffffffffffffffffffffffffffffffffff1673ffffffffffffffffffffffffffffffffffffffff163373ffffffffffffffffffffffffffffffffffffffff16036108de576040517f08c379a00000000000000000000000000000000000000000000000000000000081526004016108d590611327565b60405180910390fd5b6108f267b0f2d9a3b034ae4660c01b610dca565b6109066747e638cfdba3c1d560c01b610dca565b61091a67a76d549ca053807760c01b610dca565b61092e6733fd6158290a9eee60c01b610dca565b600073ffffffffffffffffffffffffffffffffffffffff16600560009054906101000a900473ffffffffffffffffffffffffffffffffffffffff1673ffffffffffffffffffffffffffffffffffffffff16146109bf576040517f08c379a00000000000000000000000000000000000000000000000000000000081526004016109b690611393565b60405180910390fd5b6109d3677e779ca07b4d0b4460c01b610dca565b6109e767690ccd9d9c83087460c01b610dca565b6109fb6715dd6dc0fe26afde60c01b610dca565b610a0f6758c9413be0615bd860c01b610dca565b600660009054906101000a900473ffffffffffffffffffffffffffffffffffffffff1673ffffffffffffffffffffffffffffffffffffffff163373ffffffffffffffffffffffffffffffffffffffff1603610a9f576040517f08c379a0000000000000000000000000000000000000000000000000000000008152600401610a96906113ff565b60405180910390fd5b610ab367cf2ca93cd83de56760c01b610dca565b610ac767d0eef24d1f90442360c01b610dca565b610adb67e5a78e5c021fcd7a60c01b610dca565b610aef67018d264f25b0ab0960c01b610dca565b610af7610619565b341015610b39576040517f08c379a0000000000000000000000000000000000000000000000000000000008152600401610b309061146b565b60405180910390fd5b610b4d67221368ef4d23216360c01b610dca565b610b61676aefd0689d7aa62260c01b610dca565b610b756788d9dd1ed3e8035c60c01b610dca565b6000600660009054906101000a900473ffffffffffffffffffffffffffffffffffffffff1673ffffffffffffffffffffffffffffffffffffffff16610bb8610619565b604051610bc4906114bc565b60006040518083038185875af1925050503d8060008114610c01576040519150601f19603f3d011682016040523d82523d6000602084013e610c06565b606091505b50509050610c1e671499f25b1c200c6860c01b610dca565b610c3267683127ee7b44b09460c01b610dca565b610c4667d8472dce034bf18260c01b610dca565b6001151581151514610c8d576040517f08c379a0000000000000000000000000000000000000000000000000000000008152600401610c849061151d565b60405180910390fd5b610ca1671e0cd972f3dfd97060c01b610dca565b610cb567bb2409a9a5286ddc60c01b610dca565b610cc967c6720db62e59775660c01b610dca565b6000610cd3610619565b34610cde91906111e8565b9050610cf467d931e1dfc06c883c60c01b610dca565b610d08678fc57ae7d9b024ee60c01b610dca565b6000811115610d5b57610d256712c700869b953f6760c01b610dca565b610d396793aa3774233c690660c01b610dca565b610d4d67d709ffcc6d4f51bc60c01b610dca565b610d5681610ddf565b610d70565b610d6f678a3bb229913a2bcc60c01b610dca565b5b610d84671a0c575cea3a0b9c60c01b610dca565b610d9867a99d90f94d1f6d5060c01b610dca565b610da0610e65565b5050565b600160009054906101000a900473ffffffffffffffffffffffffffffffffffffffff1681565b50565b600060019050919050565b6000919050565b610df3678a7aaa5fd832484860c01b610dca565b610e07674a0f841316b4962f60c01b610dca565b610e1b67a8088adc34016e0160c01b610dca565b3373ffffffffffffffffffffffffffffffffffffffff166108fc829081150290604051600060405180830381858888f19350505050158015610e61573d6000803e3d6000fd5b5050565b610e79672b8abf9a3ce47ebd60c01b610dca565b610e8d67f9a57bbbb266f2d260c01b610dca565b610ea167059c129bb66d06a460c01b610dca565b600160009054906101000a900473ffffffffffffffffffffffffffffffffffffffff1673ffffffffffffffffffffffffffffffffffffffff166323b872dd600660009054906101000a900473ffffffffffffffffffffffffffffffffffffffff16336000546040518463ffffffff1660e01b8152600401610f249392919061153d565b600060405180830381600087803b158015610f3e57600080fd5b505af1158015610f52573d6000803e3d6000fd5b50505050610f6a6779da808040f3099f60c01b610dca565b600160009054906101000a900473ffffffffffffffffffffffffffffffffffffffff1673ffffffffffffffffffffffffffffffffffffffff16636352211e6000546040518263ffffffff1660e01b8152600401610fc79190611124565b602060405180830381865afa158015610fe4573d6000803e3d6000fd5b505050506040513d601f19601f8201168201806040525081019061100891906115a5565b600560006101000a81548173ffffffffffffffffffffffffffffffffffffffff021916908373ffffffffffffffffffffffffffffffffffffffff16021790555061105c679ac4ad802098d0ba60c01b610dca565b6000600960006101000a81548160ff021916908315150217905550565b600073ffffffffffffffffffffffffffffffffffffffff82169050919050565b60006110a482611079565b9050919050565b6110b481611099565b82525050565b60006020820190506110cf60008301846110ab565b92915050565b60008115159050919050565b6110ea816110d5565b82525050565b600060208201905061110560008301846110e1565b92915050565b6000819050919050565b61111e8161110b565b82525050565b60006020820190506111396000830184611115565b92915050565b6000819050919050565b600061116461115f61115a84611079565b61113f565b611079565b9050919050565b600061117682611149565b9050919050565b60006111888261116b565b9050919050565b6111988161117d565b82525050565b60006020820190506111b3600083018461118f565b92915050565b7f4e487b7100000000000000000000000000000000000000000000000000000000600052601160045260246000fd5b60006111f38261110b565b91506111fe8361110b565b9250828203905081811115611216576112156111b9565b5b92915050565b60006112278261110b565b91506112328361110b565b92508282026112408161110b565b91508282048414831517611257576112566111b9565b5b5092915050565b600082825260208201905092915050565b7f41756374696f6e20697320636c6f736564000000000000000000000000000000600082015250565b60006112a560118361125e565b91506112b08261126f565b602082019050919050565b600060208201905081810360008301526112d481611298565b9050919050565b7f50726f6475637420616c72656164792070757263686173656400000000000000600082015250565b600061131160198361125e565b915061131c826112db565b602082019050919050565b6000602082019050818103600083015261134081611304565b9050919050565b7f50726f6475637420616c726561647920736f6c64000000000000000000000000600082015250565b600061137d60148361125e565b915061138882611347565b602082019050919050565b600060208201905081810360008301526113ac81611370565b9050919050565b7f4f776e65722063616e2774206269640000000000000000000000000000000000600082015250565b60006113e9600f8361125e565b91506113f4826113b3565b602082019050919050565b60006020820190508181036000830152611418816113dc565b9050919050565b7f574549206973206e6f742073756666696369656e740000000000000000000000600082015250565b600061145560158361125e565b91506114608261141f565b602082019050919050565b6000602082019050818103600083015261148481611448565b9050919050565b600081905092915050565b50565b60006114a660008361148b565b91506114b182611496565b600082019050919050565b60006114c782611499565b9150819050919050565b7f4661696c656420746f2073656e64000000000000000000000000000000000000600082015250565b6000611507600e8361125e565b9150611512826114d1565b602082019050919050565b60006020820190508181036000830152611536816114fa565b9050919050565b600060608201905061155260008301866110ab565b61155f60208301856110ab565b61156c6040830184611115565b949350505050565b600080fd5b61158281611099565b811461158d57600080fd5b50565b60008151905061159f81611579565b92915050565b6000602082840312156115bb576115ba611574565b5b60006115c984828501611590565b9150509291505056fea2646970667358221220fcdad8487f2661216338512bcb2e3b460f0bf25aee40457ac6ca56467926a13f64736f6c63430008110033",
  "linkReferences": {},
  "deployedLinkReferences": {}
}