{"contracts/MyToken.sol":{"UniqToken":{"abi":[{"inputs":[{"internalType":"uint256","name":"max","type":"uint256"}],"stateMutability":"nonpayable","type":"constructor"},{"inputs":[],"name":"InvalidShortString","type":"error"},{"inputs":[{"internalType":"string","name":"str","type":"string"}],"name":"StringTooLong","type":"error"},{"anonymous":false,"inputs":[{"indexed":true,"internalType":"address","name":"owner","type":"address"},{"indexed":true,"internalType":"address","name":"spender","type":"address"},{"indexed":false,"internalType":"uint256","name":"value","type":"uint256"}],"name":"Approval","type":"event"},{"anonymous":false,"inputs":[],"name":"EIP712DomainChanged","type":"event"},{"anonymous":false,"inputs":[{"indexed":true,"internalType":"address","name":"from","type":"address"},{"indexed":true,"internalType":"address","name":"to","type":"address"},{"indexed":false,"internalType":"uint256","name":"value","type":"uint256"}],"name":"Transfer","type":"event"},{"inputs":[],"name":"DOMAIN_SEPARATOR","outputs":[{"internalType":"bytes32","name":"","type":"bytes32"}],"stateMutability":"view","type":"function"},{"inputs":[{"internalType":"address","name":"owner","type":"address"},{"internalType":"address","name":"spender","type":"address"}],"name":"allowance","outputs":[{"internalType":"uint256","name":"","type":"uint256"}],"stateMutability":"view","type":"function"},{"inputs":[{"internalType":"address","name":"spender","type":"address"},{"internalType":"uint256","name":"amount","type":"uint256"}],"name":"approve","outputs":[{"internalType":"bool","name":"","type":"bool"}],"stateMutability":"nonpayable","type":"function"},{"inputs":[{"internalType":"address","name":"account","type":"address"}],"name":"balanceOf","outputs":[{"internalType":"uint256","name":"","type":"uint256"}],"stateMutability":"view","type":"function"},{"inputs":[{"internalType":"uint256","name":"amountOfTokens","type":"uint256"}],"name":"buy","outputs":[],"stateMutability":"payable","type":"function"},{"inputs":[],"name":"currentPrice","outputs":[{"internalType":"uint256","name":"","type":"uint256"}],"stateMutability":"pure","type":"function"},{"inputs":[],"name":"decimals","outputs":[{"internalType":"uint8","name":"","type":"uint8"}],"stateMutability":"view","type":"function"},{"inputs":[{"internalType":"address","name":"spender","type":"address"},{"internalType":"uint256","name":"subtractedValue","type":"uint256"}],"name":"decreaseAllowance","outputs":[{"internalType":"bool","name":"","type":"bool"}],"stateMutability":"nonpayable","type":"function"},{"inputs":[],"name":"eip712Domain","outputs":[{"internalType":"bytes1","name":"fields","type":"bytes1"},{"internalType":"string","name":"name","type":"string"},{"internalType":"string","name":"version","type":"string"},{"internalType":"uint256","name":"chainId","type":"uint256"},{"internalType":"address","name":"verifyingContract","type":"address"},{"internalType":"bytes32","name":"salt","type":"bytes32"},{"internalType":"uint256[]","name":"extensions","type":"uint256[]"}],"stateMutability":"view","type":"function"},{"inputs":[{"internalType":"address","name":"spender","type":"address"},{"internalType":"uint256","name":"addedValue","type":"uint256"}],"name":"increaseAllowance","outputs":[{"internalType":"bool","name":"","type":"bool"}],"stateMutability":"nonpayable","type":"function"},{"inputs":[],"name":"maxSupply","outputs":[{"internalType":"uint256","name":"","type":"uint256"}],"stateMutability":"view","type":"function"},{"inputs":[],"name":"name","outputs":[{"internalType":"string","name":"","type":"string"}],"stateMutability":"view","type":"function"},{"inputs":[{"internalType":"address","name":"owner","type":"address"}],"name":"nonces","outputs":[{"internalType":"uint256","name":"","type":"uint256"}],"stateMutability":"view","type":"function"},{"inputs":[{"internalType":"address","name":"owner","type":"address"},{"internalType":"address","name":"spender","type":"address"},{"internalType":"uint256","name":"value","type":"uint256"},{"internalType":"uint256","name":"deadline","type":"uint256"},{"internalType":"uint8","name":"v","type":"uint8"},{"internalType":"bytes32","name":"r","type":"bytes32"},{"internalType":"bytes32","name":"s","type":"bytes32"}],"name":"permit","outputs":[],"stateMutability":"nonpayable","type":"function"},{"inputs":[],"name":"symbol","outputs":[{"internalType":"string","name":"","type":"string"}],"stateMutability":"view","type":"function"},{"inputs":[],"name":"totalSupply","outputs":[{"internalType":"uint256","name":"","type":"uint256"}],"stateMutability":"view","type":"function"},{"inputs":[{"internalType":"address","name":"to","type":"address"},{"internalType":"uint256","name":"amount","type":"uint256"}],"name":"transfer","outputs":[{"internalType":"bool","name":"","type":"bool"}],"stateMutability":"nonpayable","type":"function"},{"inputs":[{"internalType":"address","name":"from","type":"address"},{"internalType":"address","name":"to","type":"address"},{"internalType":"uint256","name":"amount","type":"uint256"}],"name":"transferFrom","outputs":[{"internalType":"bool","name":"","type":"bool"}],"stateMutability":"nonpayable","type":"function"}],"evm":{"bytecode":{"linkReferences":{},"object":"6101606040523480156200001257600080fd5b50604051620037da380380620037da8339818101604052810190620000389190620003ac565b6040518060400160405280600981526020017f554e495120436f696e0000000000000000000000000000000000000000000000815250806040518060400160405280600181526020017f31000000000000000000000000000000000000000000000000000000000000008152506040518060400160405280600981526020017f554e495120436f696e00000000000000000000000000000000000000000000008152506040518060400160405280600381526020017f554e43000000000000000000000000000000000000000000000000000000000081525081600390816200012291906200064e565b5080600490816200013491906200064e565b505050620001526005836200023860201b62000c5b1790919060201c565b6101208181525050620001756006826200023860201b62000c5b1790919060201c565b6101408181525050818051906020012060e08181525050808051906020012061010081815250504660a08181525050620001b46200029560201b60201c565b608081815250503073ffffffffffffffffffffffffffffffffffffffff1660c08173ffffffffffffffffffffffffffffffffffffffff16815250505050506200020e67179e8f5c9564001960c01b620002f260201b60201c565b6200022a67e76407c7615a026660c01b620002f260201b60201c565b806009819055505062000958565b60006020835110156200025e576200025683620002f560201b60201c565b90506200028f565b8262000275836200036260201b62000c9f1760201c565b60000190816200028691906200064e565b5060ff60001b90505b92915050565b60007f8b73c3c69bb8fe3d512ecc4cf759cc79239f7b179b0ffacaa9a75d522b39400f60e051610100514630604051602001620002d7959493929190620007a6565b60405160208183030381529060405280519060200120905090565b50565b600080829050601f815111156200034557826040517f305a27a90000000000000000000000000000000000000000000000000000000081526004016200033c919062000892565b60405180910390fd5b8051816200035390620008e8565b60001c1760001b915050919050565b6000819050919050565b600080fd5b6000819050919050565b620003868162000371565b81146200039257600080fd5b50565b600081519050620003a6816200037b565b92915050565b600060208284031215620003c557620003c46200036c565b5b6000620003d58482850162000395565b91505092915050565b600081519050919050565b7f4e487b7100000000000000000000000000000000000000000000000000000000600052604160045260246000fd5b7f4e487b7100000000000000000000000000000000000000000000000000000000600052602260045260246000fd5b600060028204905060018216806200046057607f821691505b60208210810362000476576200047562000418565b5b50919050565b60008190508160005260206000209050919050565b60006020601f8301049050919050565b600082821b905092915050565b600060088302620004e07fffffffffffffffffffffffffffffffffffffffffffffffffffffffffffffffff82620004a1565b620004ec8683620004a1565b95508019841693508086168417925050509392505050565b6000819050919050565b60006200052f62000529620005238462000371565b62000504565b62000371565b9050919050565b6000819050919050565b6200054b836200050e565b620005636200055a8262000536565b848454620004ae565b825550505050565b600090565b6200057a6200056b565b6200058781848462000540565b505050565b5b81811015620005af57620005a360008262000570565b6001810190506200058d565b5050565b601f821115620005fe57620005c8816200047c565b620005d38462000491565b81016020851015620005e3578190505b620005fb620005f28562000491565b8301826200058c565b50505b505050565b600082821c905092915050565b6000620006236000198460080262000603565b1980831691505092915050565b60006200063e838362000610565b9150826002028217905092915050565b6200065982620003de565b67ffffffffffffffff811115620006755762000674620003e9565b5b62000681825462000447565b6200068e828285620005b3565b600060209050601f831160018114620006c65760008415620006b1578287015190505b620006bd858262000630565b8655506200072d565b601f198416620006d6866200047c565b60005b828110156200070057848901518255600182019150602085019450602081019050620006d9565b868310156200072057848901516200071c601f89168262000610565b8355505b6001600288020188555050505b505050505050565b6000819050919050565b6200074a8162000735565b82525050565b6200075b8162000371565b82525050565b600073ffffffffffffffffffffffffffffffffffffffff82169050919050565b60006200078e8262000761565b9050919050565b620007a08162000781565b82525050565b600060a082019050620007bd60008301886200073f565b620007cc60208301876200073f565b620007db60408301866200073f565b620007ea606083018562000750565b620007f9608083018462000795565b9695505050505050565b600082825260208201905092915050565b60005b838110156200083457808201518184015260208101905062000817565b60008484015250505050565b6000601f19601f8301169050919050565b60006200085e82620003de565b6200086a818562000803565b93506200087c81856020860162000814565b620008878162000840565b840191505092915050565b60006020820190508181036000830152620008ae818462000851565b905092915050565b600081519050919050565b6000819050602082019050919050565b6000620008df825162000735565b80915050919050565b6000620008f582620008b6565b826200090184620008c1565b90506200090e81620008d1565b9250602082101562000951576200094c7fffffffffffffffffffffffffffffffffffffffffffffffffffffffffffffffff83602003600802620004a1565b831692505b5050919050565b60805160a05160c05160e051610100516101205161014051612e27620009b360003960006106b5015260006106810152600061161c015260006115fb01526000611180015260006111d6015260006111ff0152612e276000f3fe6080604052600436106101095760003560e01c806384b0196e11610095578063a9059cbb11610064578063a9059cbb146103af578063d505accf146103ec578063d5abeb0114610415578063d96a094a14610440578063dd62ed3e1461045c57610109565b806384b0196e146102eb57806395d89b411461031c5780639d1b464a14610347578063a457c2d71461037257610109565b8063313ce567116100dc578063313ce567146101de5780633644e51514610209578063395093511461023457806370a08231146102715780637ecebe00146102ae57610109565b806306fdde031461010e578063095ea7b31461013957806318160ddd1461017657806323b872dd146101a1575b600080fd5b34801561011a57600080fd5b50610123610499565b6040516101309190611bb5565b60405180910390f35b34801561014557600080fd5b50610160600480360381019061015b9190611c70565b61052b565b60405161016d9190611ccb565b60405180910390f35b34801561018257600080fd5b5061018b61054e565b6040516101989190611cf5565b60405180910390f35b3480156101ad57600080fd5b506101c860048036038101906101c39190611d10565b610558565b6040516101d59190611ccb565b60405180910390f35b3480156101ea57600080fd5b506101f3610587565b6040516102009190611d7f565b60405180910390f35b34801561021557600080fd5b5061021e610590565b60405161022b9190611db3565b60405180910390f35b34801561024057600080fd5b5061025b60048036038101906102569190611c70565b61059f565b6040516102689190611ccb565b60405180910390f35b34801561027d57600080fd5b5061029860048036038101906102939190611dce565b6105d6565b6040516102a59190611cf5565b60405180910390f35b3480156102ba57600080fd5b506102d560048036038101906102d09190611dce565b61061e565b6040516102e29190611cf5565b60405180910390f35b3480156102f757600080fd5b5061030061066e565b6040516103139796959493929190611f03565b60405180910390f35b34801561032857600080fd5b50610331610770565b60405161033e9190611bb5565b60405180910390f35b34801561035357600080fd5b5061035c610802565b6040516103699190611cf5565b60405180910390f35b34801561037e57600080fd5b5061039960048036038101906103949190611c70565b610847565b6040516103a69190611ccb565b60405180910390f35b3480156103bb57600080fd5b506103d660048036038101906103d19190611c70565b6108be565b6040516103e39190611ccb565b60405180910390f35b3480156103f857600080fd5b50610413600480360381019061040e9190611fdf565b6108e1565b005b34801561042157600080fd5b5061042a610a23565b6040516104379190611cf5565b60405180910390f35b61045a60048036038101906104559190612081565b610a29565b005b34801561046857600080fd5b50610483600480360381019061047e91906120ae565b610bd4565b6040516104909190611cf5565b60405180910390f35b6060600380546104a89061211d565b80601f01602080910402602001604051908101604052809291908181526020018280546104d49061211d565b80156105215780601f106104f657610100808354040283529160200191610521565b820191906000526020600020905b81548152906001019060200180831161050457829003601f168201915b5050505050905090565b600080610536610ca9565b9050610543818585610cb1565b600191505092915050565b6000600254905090565b600080610563610ca9565b9050610570858285610e7a565b61057b858585610f06565b60019150509392505050565b60006012905090565b600061059a61117c565b905090565b6000806105aa610ca9565b90506105cb8185856105bc8589610bd4565b6105c6919061217d565b610cb1565b600191505092915050565b60008060008373ffffffffffffffffffffffffffffffffffffffff1673ffffffffffffffffffffffffffffffffffffffff168152602001908152602001600020549050919050565b6000610667600760008473ffffffffffffffffffffffffffffffffffffffff1673ffffffffffffffffffffffffffffffffffffffff168152602001908152602001600020611233565b9050919050565b6000606080600080600060606106ae60057f000000000000000000000000000000000000000000000000000000000000000061124190919063ffffffff16565b6106e260067f000000000000000000000000000000000000000000000000000000000000000061124190919063ffffffff16565b46306000801b600067ffffffffffffffff811115610703576107026121b1565b5b6040519080825280602002602001820160405280156107315781602001602082028036833780820191505090505b507f0f00000000000000000000000000000000000000000000000000000000000000959493929190965096509650965096509650965090919293949596565b60606004805461077f9061211d565b80601f01602080910402602001604051908101604052809291908181526020018280546107ab9061211d565b80156107f85780601f106107cd576101008083540402835291602001916107f8565b820191906000526020600020905b8154815290600101906020018083116107db57829003601f168201915b5050505050905090565b60006108186775d1b0822a569f9c60c01b6112f1565b61082c672966db270f93ef3c60c01b6112f1565b6108406796a1d935bf6a7e8660c01b6112f1565b6064905090565b600080610852610ca9565b905060006108608286610bd4565b9050838110156108a5576040517f08c379a000000000000000000000000000000000000000000000000000000000815260040161089c90612252565b60405180910390fd5b6108b28286868403610cb1565b60019250505092915050565b6000806108c9610ca9565b90506108d6818585610f06565b600191505092915050565b83421115610924576040517f08c379a000000000000000000000000000000000000000000000000000000000815260040161091b906122be565b60405180910390fd5b60007f6e71edae12b1b97f4d1f60370fef10105fa2faae0126114a169c64845d6126c98888886109538c6112f4565b89604051602001610969969594939291906122de565b604051602081830303815290604052805190602001209050600061098c82611352565b9050600061099c8287878761136c565b90508973ffffffffffffffffffffffffffffffffffffffff168173ffffffffffffffffffffffffffffffffffffffff1614610a0c576040517f08c379a0000000000000000000000000000000000000000000000000000000008152600401610a039061238b565b60405180910390fd5b610a178a8a8a610cb1565b50505050505050505050565b60095481565b610a3d673976dc4cdf7c1d7260c01b6112f1565b610a51671115690806ff277560c01b6112f1565b610a6567a7bfe76bba90ba3560c01b6112f1565b6000610a7082611397565b9050610a8667fd12633c94cbe6f260c01b6112f1565b610a9a679765bd6f4b537e4e60c01b6112f1565b610aae67be188e823419265a60c01b6112f1565b80341015610af1576040517f08c379a0000000000000000000000000000000000000000000000000000000008152600401610ae8906123f7565b60405180910390fd5b610b05677884d75965415b7c60c01b6112f1565b610b1967d5febe92af2c7eb660c01b6112f1565b610b2d67482192430a09093960c01b6112f1565b80341115610b8a57610b4967b0665f67cfa3c0d260c01b6112f1565b610b5d67febeedc0dd3b9a8560c01b6112f1565b610b7167c8ec4032cefd719c60c01b6112f1565b610b858134610b809190612417565b6113ef565b610b9f565b610b9e6794751d39646082b860c01b6112f1565b5b610bb3672dbfac2572dce53160c01b6112f1565b610bc76723323a3a8496d92660c01b6112f1565b610bd082611475565b5050565b6000600160008473ffffffffffffffffffffffffffffffffffffffff1673ffffffffffffffffffffffffffffffffffffffff16815260200190815260200160002060008373ffffffffffffffffffffffffffffffffffffffff1673ffffffffffffffffffffffffffffffffffffffff16815260200190815260200160002054905092915050565b6000602083511015610c7757610c7083611564565b9050610c99565b82610c8183610c9f565b6000019081610c9091906125f7565b5060ff60001b90505b92915050565b6000819050919050565b600033905090565b600073ffffffffffffffffffffffffffffffffffffffff168373ffffffffffffffffffffffffffffffffffffffff1603610d20576040517f08c379a0000000000000000000000000000000000000000000000000000000008152600401610d179061273b565b60405180910390fd5b600073ffffffffffffffffffffffffffffffffffffffff168273ffffffffffffffffffffffffffffffffffffffff1603610d8f576040517f08c379a0000000000000000000000000000000000000000000000000000000008152600401610d86906127cd565b60405180910390fd5b80600160008573ffffffffffffffffffffffffffffffffffffffff1673ffffffffffffffffffffffffffffffffffffffff16815260200190815260200160002060008473ffffffffffffffffffffffffffffffffffffffff1673ffffffffffffffffffffffffffffffffffffffff168152602001908152602001600020819055508173ffffffffffffffffffffffffffffffffffffffff168373ffffffffffffffffffffffffffffffffffffffff167f8c5be1e5ebec7d5bd14f71427d1e84f3dd0314c0f7b2291e5b200ac8c7c3b92583604051610e6d9190611cf5565b60405180910390a3505050565b6000610e868484610bd4565b90507fffffffffffffffffffffffffffffffffffffffffffffffffffffffffffffffff8114610f005781811015610ef2576040517f08c379a0000000000000000000000000000000000000000000000000000000008152600401610ee990612839565b60405180910390fd5b610eff8484848403610cb1565b5b50505050565b600073ffffffffffffffffffffffffffffffffffffffff168373ffffffffffffffffffffffffffffffffffffffff1603610f75576040517f08c379a0000000000000000000000000000000000000000000000000000000008152600401610f6c906128cb565b60405180910390fd5b600073ffffffffffffffffffffffffffffffffffffffff168273ffffffffffffffffffffffffffffffffffffffff1603610fe4576040517f08c379a0000000000000000000000000000000000000000000000000000000008152600401610fdb9061295d565b60405180910390fd5b610fef8383836115cc565b60008060008573ffffffffffffffffffffffffffffffffffffffff1673ffffffffffffffffffffffffffffffffffffffff16815260200190815260200160002054905081811015611075576040517f08c379a000000000000000000000000000000000000000000000000000000000815260040161106c906129ef565b60405180910390fd5b8181036000808673ffffffffffffffffffffffffffffffffffffffff1673ffffffffffffffffffffffffffffffffffffffff16815260200190815260200160002081905550816000808573ffffffffffffffffffffffffffffffffffffffff1673ffffffffffffffffffffffffffffffffffffffff168152602001908152602001600020600082825401925050819055508273ffffffffffffffffffffffffffffffffffffffff168473ffffffffffffffffffffffffffffffffffffffff167fddf252ad1be2c89b69c2b068fc378daa952ba7f163c4a11628f55a4df523b3ef846040516111639190611cf5565b60405180910390a36111768484846115d1565b50505050565b60007f000000000000000000000000000000000000000000000000000000000000000073ffffffffffffffffffffffffffffffffffffffff163073ffffffffffffffffffffffffffffffffffffffff161480156111f857507f000000000000000000000000000000000000000000000000000000000000000046145b15611225577f00000000000000000000000000000000000000000000000000000000000000009050611230565b61122d6115d6565b90505b90565b600081600001549050919050565b606060ff60001b831461125e576112578361166c565b90506112eb565b81805461126a9061211d565b80601f01602080910402602001604051908101604052809291908181526020018280546112969061211d565b80156112e35780601f106112b8576101008083540402835291602001916112e3565b820191906000526020600020905b8154815290600101906020018083116112c657829003601f168201915b505050505090505b92915050565b50565b600080600760008473ffffffffffffffffffffffffffffffffffffffff1673ffffffffffffffffffffffffffffffffffffffff168152602001908152602001600020905061134181611233565b915061134c816116e0565b50919050565b600061136561135f61117c565b836116f6565b9050919050565b600080600061137d87878787611737565b9150915061138a81611819565b8192505050949350505050565b60006113ad67c84eff79a108c8be60c01b6112f1565b6113c167662358958075b97560c01b6112f1565b6113d5678def036ce06136e760c01b6112f1565b816113de610802565b6113e89190612a0f565b9050919050565b61140367d9c909c8ceeba26160c01b6112f1565b611417678ca8e41db1cc33b860c01b6112f1565b61142b67b7e0c4606001bcd460c01b6112f1565b3373ffffffffffffffffffffffffffffffffffffffff166108fc829081150290604051600060405180830381858888f19350505050158015611471573d6000803e3d6000fd5b5050565b61148967c03ce0e6bb955a3960c01b6112f1565b61149d67b7c12ed61109b61460c01b6112f1565b6114b1676f07a34087a2921560c01b6112f1565b6114c5675654cfd3018ea79a60c01b6112f1565b6114cd61054e565b6009546114da9190612417565b811061151b576040517f08c379a000000000000000000000000000000000000000000000000000000000815260040161151290612a9d565b60405180910390fd5b61152f67ad71268d2ec1a2e760c01b6112f1565b611543678b4bc6a66a6127af60c01b6112f1565b61155767b6111d2e6842dda360c01b6112f1565b611561338261197f565b50565b600080829050601f815111156115b157826040517f305a27a90000000000000000000000000000000000000000000000000000000081526004016115a89190611bb5565b60405180910390fd5b8051816115bd90612aed565b60001c1760001b915050919050565b505050565b505050565b60007f8b73c3c69bb8fe3d512ecc4cf759cc79239f7b179b0ffacaa9a75d522b39400f7f00000000000000000000000000000000000000000000000000000000000000007f00000000000000000000000000000000000000000000000000000000000000004630604051602001611651959493929190612b54565b60405160208183030381529060405280519060200120905090565b6060600061167983611ad5565b90506000602067ffffffffffffffff811115611698576116976121b1565b5b6040519080825280601f01601f1916602001820160405280156116ca5781602001600182028036833780820191505090505b5090508181528360208201528092505050919050565b6001816000016000828254019250508190555050565b60006040517f190100000000000000000000000000000000000000000000000000000000000081528360028201528260228201526042812091505092915050565b6000807f7fffffffffffffffffffffffffffffff5d576e7357a4501ddfe92f46681b20a08360001c1115611772576000600391509150611810565b6000600187878787604051600081526020016040526040516117979493929190612ba7565b6020604051602081039080840390855afa1580156117b9573d6000803e3d6000fd5b505050602060405103519050600073ffffffffffffffffffffffffffffffffffffffff168173ffffffffffffffffffffffffffffffffffffffff160361180757600060019250925050611810565b80600092509250505b94509492505050565b6000600481111561182d5761182c612bec565b5b8160048111156118405761183f612bec565b5b031561197c576001600481111561185a57611859612bec565b5b81600481111561186d5761186c612bec565b5b036118ad576040517f08c379a00000000000000000000000000000000000000000000000000000000081526004016118a490612c67565b60405180910390fd5b600260048111156118c1576118c0612bec565b5b8160048111156118d4576118d3612bec565b5b03611914576040517f08c379a000000000000000000000000000000000000000000000000000000000815260040161190b90612cd3565b60405180910390fd5b6003600481111561192857611927612bec565b5b81600481111561193b5761193a612bec565b5b0361197b576040517f08c379a000000000000000000000000000000000000000000000000000000000815260040161197290612d65565b60405180910390fd5b5b50565b600073ffffffffffffffffffffffffffffffffffffffff168273ffffffffffffffffffffffffffffffffffffffff16036119ee576040517f08c379a00000000000000000000000000000000000000000000000000000000081526004016119e590612dd1565b60405180910390fd5b6119fa600083836115cc565b8060026000828254611a0c919061217d565b92505081905550806000808473ffffffffffffffffffffffffffffffffffffffff1673ffffffffffffffffffffffffffffffffffffffff168152602001908152602001600020600082825401925050819055508173ffffffffffffffffffffffffffffffffffffffff16600073ffffffffffffffffffffffffffffffffffffffff167fddf252ad1be2c89b69c2b068fc378daa952ba7f163c4a11628f55a4df523b3ef83604051611abd9190611cf5565b60405180910390a3611ad1600083836115d1565b5050565b60008060ff8360001c169050601f811115611b1c576040517fb3512b0c00000000000000000000000000000000000000000000000000000000815260040160405180910390fd5b80915050919050565b600081519050919050565b600082825260208201905092915050565b60005b83811015611b5f578082015181840152602081019050611b44565b60008484015250505050565b6000601f19601f8301169050919050565b6000611b8782611b25565b611b918185611b30565b9350611ba1818560208601611b41565b611baa81611b6b565b840191505092915050565b60006020820190508181036000830152611bcf8184611b7c565b905092915050565b600080fd5b600073ffffffffffffffffffffffffffffffffffffffff82169050919050565b6000611c0782611bdc565b9050919050565b611c1781611bfc565b8114611c2257600080fd5b50565b600081359050611c3481611c0e565b92915050565b6000819050919050565b611c4d81611c3a565b8114611c5857600080fd5b50565b600081359050611c6a81611c44565b92915050565b60008060408385031215611c8757611c86611bd7565b5b6000611c9585828601611c25565b9250506020611ca685828601611c5b565b9150509250929050565b60008115159050919050565b611cc581611cb0565b82525050565b6000602082019050611ce06000830184611cbc565b92915050565b611cef81611c3a565b82525050565b6000602082019050611d0a6000830184611ce6565b92915050565b600080600060608486031215611d2957611d28611bd7565b5b6000611d3786828701611c25565b9350506020611d4886828701611c25565b9250506040611d5986828701611c5b565b9150509250925092565b600060ff82169050919050565b611d7981611d63565b82525050565b6000602082019050611d946000830184611d70565b92915050565b6000819050919050565b611dad81611d9a565b82525050565b6000602082019050611dc86000830184611da4565b92915050565b600060208284031215611de457611de3611bd7565b5b6000611df284828501611c25565b91505092915050565b60007fff0000000000000000000000000000000000000000000000000000000000000082169050919050565b611e3081611dfb565b82525050565b611e3f81611bfc565b82525050565b600081519050919050565b600082825260208201905092915050565b6000819050602082019050919050565b611e7a81611c3a565b82525050565b6000611e8c8383611e71565b60208301905092915050565b6000602082019050919050565b6000611eb082611e45565b611eba8185611e50565b9350611ec583611e61565b8060005b83811015611ef6578151611edd8882611e80565b9750611ee883611e98565b925050600181019050611ec9565b5085935050505092915050565b600060e082019050611f18600083018a611e27565b8181036020830152611f2a8189611b7c565b90508181036040830152611f3e8188611b7c565b9050611f4d6060830187611ce6565b611f5a6080830186611e36565b611f6760a0830185611da4565b81810360c0830152611f798184611ea5565b905098975050505050505050565b611f9081611d63565b8114611f9b57600080fd5b50565b600081359050611fad81611f87565b92915050565b611fbc81611d9a565b8114611fc757600080fd5b50565b600081359050611fd981611fb3565b92915050565b600080600080600080600060e0888a031215611ffe57611ffd611bd7565b5b600061200c8a828b01611c25565b975050602061201d8a828b01611c25565b965050604061202e8a828b01611c5b565b955050606061203f8a828b01611c5b565b94505060806120508a828b01611f9e565b93505060a06120618a828b01611fca565b92505060c06120728a828b01611fca565b91505092959891949750929550565b60006020828403121561209757612096611bd7565b5b60006120a584828501611c5b565b91505092915050565b600080604083850312156120c5576120c4611bd7565b5b60006120d385828601611c25565b92505060206120e485828601611c25565b9150509250929050565b7f4e487b7100000000000000000000000000000000000000000000000000000000600052602260045260246000fd5b6000600282049050600182168061213557607f821691505b602082108103612148576121476120ee565b5b50919050565b7f4e487b7100000000000000000000000000000000000000000000000000000000600052601160045260246000fd5b600061218882611c3a565b915061219383611c3a565b92508282019050808211156121ab576121aa61214e565b5b92915050565b7f4e487b7100000000000000000000000000000000000000000000000000000000600052604160045260246000fd5b7f45524332303a2064656372656173656420616c6c6f77616e63652062656c6f7760008201527f207a65726f000000000000000000000000000000000000000000000000000000602082015250565b600061223c602583611b30565b9150612247826121e0565b604082019050919050565b6000602082019050818103600083015261226b8161222f565b9050919050565b7f45524332305065726d69743a206578706972656420646561646c696e65000000600082015250565b60006122a8601d83611b30565b91506122b382612272565b602082019050919050565b600060208201905081810360008301526122d78161229b565b9050919050565b600060c0820190506122f36000830189611da4565b6123006020830188611e36565b61230d6040830187611e36565b61231a6060830186611ce6565b6123276080830185611ce6565b61233460a0830184611ce6565b979650505050505050565b7f45524332305065726d69743a20696e76616c6964207369676e61747572650000600082015250565b6000612375601e83611b30565b91506123808261233f565b602082019050919050565b600060208201905081810360008301526123a481612368565b9050919050565b7f496e73756666696369656e7420616d6f756e7400000000000000000000000000600082015250565b60006123e1601383611b30565b91506123ec826123ab565b602082019050919050565b60006020820190508181036000830152612410816123d4565b9050919050565b600061242282611c3a565b915061242d83611c3a565b92508282039050818111156124455761244461214e565b5b92915050565b60008190508160005260206000209050919050565b60006020601f8301049050919050565b600082821b905092915050565b6000600883026124ad7fffffffffffffffffffffffffffffffffffffffffffffffffffffffffffffffff82612470565b6124b78683612470565b95508019841693508086168417925050509392505050565b6000819050919050565b60006124f46124ef6124ea84611c3a565b6124cf565b611c3a565b9050919050565b6000819050919050565b61250e836124d9565b61252261251a826124fb565b84845461247d565b825550505050565b600090565b61253761252a565b612542818484612505565b505050565b5b818110156125665761255b60008261252f565b600181019050612548565b5050565b601f8211156125ab5761257c8161244b565b61258584612460565b81016020851015612594578190505b6125a86125a085612460565b830182612547565b50505b505050565b600082821c905092915050565b60006125ce600019846008026125b0565b1980831691505092915050565b60006125e783836125bd565b9150826002028217905092915050565b61260082611b25565b67ffffffffffffffff811115612619576126186121b1565b5b612623825461211d565b61262e82828561256a565b600060209050601f831160018114612661576000841561264f578287015190505b61265985826125db565b8655506126c1565b601f19841661266f8661244b565b60005b8281101561269757848901518255600182019150602085019450602081019050612672565b868310156126b457848901516126b0601f8916826125bd565b8355505b6001600288020188555050505b505050505050565b7f45524332303a20617070726f76652066726f6d20746865207a65726f2061646460008201527f7265737300000000000000000000000000000000000000000000000000000000602082015250565b6000612725602483611b30565b9150612730826126c9565b604082019050919050565b6000602082019050818103600083015261275481612718565b9050919050565b7f45524332303a20617070726f766520746f20746865207a65726f20616464726560008201527f7373000000000000000000000000000000000000000000000000000000000000602082015250565b60006127b7602283611b30565b91506127c28261275b565b604082019050919050565b600060208201905081810360008301526127e6816127aa565b9050919050565b7f45524332303a20696e73756666696369656e7420616c6c6f77616e6365000000600082015250565b6000612823601d83611b30565b915061282e826127ed565b602082019050919050565b6000602082019050818103600083015261285281612816565b9050919050565b7f45524332303a207472616e736665722066726f6d20746865207a65726f20616460008201527f6472657373000000000000000000000000000000000000000000000000000000602082015250565b60006128b5602583611b30565b91506128c082612859565b604082019050919050565b600060208201905081810360008301526128e4816128a8565b9050919050565b7f45524332303a207472616e7366657220746f20746865207a65726f206164647260008201527f6573730000000000000000000000000000000000000000000000000000000000602082015250565b6000612947602383611b30565b9150612952826128eb565b604082019050919050565b600060208201905081810360008301526129768161293a565b9050919050565b7f45524332303a207472616e7366657220616d6f756e742065786365656473206260008201527f616c616e63650000000000000000000000000000000000000000000000000000602082015250565b60006129d9602683611b30565b91506129e48261297d565b604082019050919050565b60006020820190508181036000830152612a08816129cc565b9050919050565b6000612a1a82611c3a565b9150612a2583611c3a565b9250828202612a3381611c3a565b91508282048414831517612a4a57612a4961214e565b5b5092915050565b7f4c696d6974206578636565646564000000000000000000000000000000000000600082015250565b6000612a87600e83611b30565b9150612a9282612a51565b602082019050919050565b60006020820190508181036000830152612ab681612a7a565b9050919050565b600081519050919050565b6000819050602082019050919050565b6000612ae48251611d9a565b80915050919050565b6000612af882612abd565b82612b0284612ac8565b9050612b0d81612ad8565b92506020821015612b4d57612b487fffffffffffffffffffffffffffffffffffffffffffffffffffffffffffffffff83602003600802612470565b831692505b5050919050565b600060a082019050612b696000830188611da4565b612b766020830187611da4565b612b836040830186611da4565b612b906060830185611ce6565b612b9d6080830184611e36565b9695505050505050565b6000608082019050612bbc6000830187611da4565b612bc96020830186611d70565b612bd66040830185611da4565b612be36060830184611da4565b95945050505050565b7f4e487b7100000000000000000000000000000000000000000000000000000000600052602160045260246000fd5b7f45434453413a20696e76616c6964207369676e61747572650000000000000000600082015250565b6000612c51601883611b30565b9150612c5c82612c1b565b602082019050919050565b60006020820190508181036000830152612c8081612c44565b9050919050565b7f45434453413a20696e76616c6964207369676e6174757265206c656e67746800600082015250565b6000612cbd601f83611b30565b9150612cc882612c87565b602082019050919050565b60006020820190508181036000830152612cec81612cb0565b9050919050565b7f45434453413a20696e76616c6964207369676e6174757265202773272076616c60008201527f7565000000000000000000000000000000000000000000000000000000000000602082015250565b6000612d4f602283611b30565b9150612d5a82612cf3565b604082019050919050565b60006020820190508181036000830152612d7e81612d42565b9050919050565b7f45524332303a206d696e7420746f20746865207a65726f206164647265737300600082015250565b6000612dbb601f83611b30565b9150612dc682612d85565b602082019050919050565b60006020820190508181036000830152612dea81612dae565b905091905056fea26469706673582212209a625206f18c51a44f07abbf96456e138c3a3a4fc98ac7f0bb5ea8242623c6b964736f6c63430008110033","opcodes":"PUSH2 0x160 PUSH1 0x40 MSTORE CALLVALUE DUP1 ISZERO PUSH3 0x12 JUMPI PUSH1 0x0 DUP1 REVERT JUMPDEST POP PUSH1 0x40 MLOAD PUSH3 0x37DA CODESIZE SUB DUP1 PUSH3 0x37DA DUP4 CODECOPY DUP2 DUP2 ADD PUSH1 0x40 MSTORE DUP2 ADD SWAP1 PUSH3 0x38 SWAP2 SWAP1 PUSH3 0x3AC JUMP JUMPDEST PUSH1 0x40 MLOAD DUP1 PUSH1 0x40 ADD PUSH1 0x40 MSTORE DUP1 PUSH1 0x9 DUP2 MSTORE PUSH1 0x20 ADD PUSH32 0x554E495120436F696E0000000000000000000000000000000000000000000000 DUP2 MSTORE POP DUP1 PUSH1 0x40 MLOAD DUP1 PUSH1 0x40 ADD PUSH1 0x40 MSTORE DUP1 PUSH1 0x1 DUP2 MSTORE PUSH1 0x20 ADD PUSH32 0x3100000000000000000000000000000000000000000000000000000000000000 DUP2 MSTORE POP PUSH1 0x40 MLOAD DUP1 PUSH1 0x40 ADD PUSH1 0x40 MSTORE DUP1 PUSH1 0x9 DUP2 MSTORE PUSH1 0x20 ADD PUSH32 0x554E495120436F696E0000000000000000000000000000000000000000000000 DUP2 MSTORE POP PUSH1 0x40 MLOAD DUP1 PUSH1 0x40 ADD PUSH1 0x40 MSTORE DUP1 PUSH1 0x3 DUP2 MSTORE PUSH1 0x20 ADD PUSH32 0x554E430000000000000000000000000000000000000000000000000000000000 DUP2 MSTORE POP DUP2 PUSH1 0x3 SWAP1 DUP2 PUSH3 0x122 SWAP2 SWAP1 PUSH3 0x64E JUMP JUMPDEST POP DUP1 PUSH1 0x4 SWAP1 DUP2 PUSH3 0x134 SWAP2 SWAP1 PUSH3 0x64E JUMP JUMPDEST POP POP POP PUSH3 0x152 PUSH1 0x5 DUP4 PUSH3 0x238 PUSH1 0x20 SHL PUSH3 0xC5B OR SWAP1 SWAP2 SWAP1 PUSH1 0x20 SHR JUMP JUMPDEST PUSH2 0x120 DUP2 DUP2 MSTORE POP POP PUSH3 0x175 PUSH1 0x6 DUP3 PUSH3 0x238 PUSH1 0x20 SHL PUSH3 0xC5B OR SWAP1 SWAP2 SWAP1 PUSH1 0x20 SHR JUMP JUMPDEST PUSH2 0x140 DUP2 DUP2 MSTORE POP POP DUP2 DUP1 MLOAD SWAP1 PUSH1 0x20 ADD KECCAK256 PUSH1 0xE0 DUP2 DUP2 MSTORE POP POP DUP1 DUP1 MLOAD SWAP1 PUSH1 0x20 ADD KECCAK256 PUSH2 0x100 DUP2 DUP2 MSTORE POP POP CHAINID PUSH1 0xA0 DUP2 DUP2 MSTORE POP POP PUSH3 0x1B4 PUSH3 0x295 PUSH1 0x20 SHL PUSH1 0x20 SHR JUMP JUMPDEST PUSH1 0x80 DUP2 DUP2 MSTORE POP POP ADDRESS PUSH20 0xFFFFFFFFFFFFFFFFFFFFFFFFFFFFFFFFFFFFFFFF AND PUSH1 0xC0 DUP2 PUSH20 0xFFFFFFFFFFFFFFFFFFFFFFFFFFFFFFFFFFFFFFFF AND DUP2 MSTORE POP POP POP POP POP PUSH3 0x20E PUSH8 0x179E8F5C95640019 PUSH1 0xC0 SHL PUSH3 0x2F2 PUSH1 0x20 SHL PUSH1 0x20 SHR JUMP JUMPDEST PUSH3 0x22A PUSH8 0xE76407C7615A0266 PUSH1 0xC0 SHL PUSH3 0x2F2 PUSH1 0x20 SHL PUSH1 0x20 SHR JUMP JUMPDEST DUP1 PUSH1 0x9 DUP2 SWAP1 SSTORE POP POP PUSH3 0x958 JUMP JUMPDEST PUSH1 0x0 PUSH1 0x20 DUP4 MLOAD LT ISZERO PUSH3 0x25E JUMPI PUSH3 0x256 DUP4 PUSH3 0x2F5 PUSH1 0x20 SHL PUSH1 0x20 SHR JUMP JUMPDEST SWAP1 POP PUSH3 0x28F JUMP JUMPDEST DUP3 PUSH3 0x275 DUP4 PUSH3 0x362 PUSH1 0x20 SHL PUSH3 0xC9F OR PUSH1 0x20 SHR JUMP JUMPDEST PUSH1 0x0 ADD SWAP1 DUP2 PUSH3 0x286 SWAP2 SWAP1 PUSH3 0x64E JUMP JUMPDEST POP PUSH1 0xFF PUSH1 0x0 SHL SWAP1 POP JUMPDEST SWAP3 SWAP2 POP POP JUMP JUMPDEST PUSH1 0x0 PUSH32 0x8B73C3C69BB8FE3D512ECC4CF759CC79239F7B179B0FFACAA9A75D522B39400F PUSH1 0xE0 MLOAD PUSH2 0x100 MLOAD CHAINID ADDRESS PUSH1 0x40 MLOAD PUSH1 0x20 ADD PUSH3 0x2D7 SWAP6 SWAP5 SWAP4 SWAP3 SWAP2 SWAP1 PUSH3 0x7A6 JUMP JUMPDEST PUSH1 0x40 MLOAD PUSH1 0x20 DUP2 DUP4 SUB SUB DUP2 MSTORE SWAP1 PUSH1 0x40 MSTORE DUP1 MLOAD SWAP1 PUSH1 0x20 ADD KECCAK256 SWAP1 POP SWAP1 JUMP JUMPDEST POP JUMP JUMPDEST PUSH1 0x0 DUP1 DUP3 SWAP1 POP PUSH1 0x1F DUP2 MLOAD GT ISZERO PUSH3 0x345 JUMPI DUP3 PUSH1 0x40 MLOAD PUSH32 0x305A27A900000000000000000000000000000000000000000000000000000000 DUP2 MSTORE PUSH1 0x4 ADD PUSH3 0x33C SWAP2 SWAP1 PUSH3 0x892 JUMP JUMPDEST PUSH1 0x40 MLOAD DUP1 SWAP2 SUB SWAP1 REVERT JUMPDEST DUP1 MLOAD DUP2 PUSH3 0x353 SWAP1 PUSH3 0x8E8 JUMP JUMPDEST PUSH1 0x0 SHR OR PUSH1 0x0 SHL SWAP2 POP POP SWAP2 SWAP1 POP JUMP JUMPDEST PUSH1 0x0 DUP2 SWAP1 POP SWAP2 SWAP1 POP JUMP JUMPDEST PUSH1 0x0 DUP1 REVERT JUMPDEST PUSH1 0x0 DUP2 SWAP1 POP SWAP2 SWAP1 POP JUMP JUMPDEST PUSH3 0x386 DUP2 PUSH3 0x371 JUMP JUMPDEST DUP2 EQ PUSH3 0x392 JUMPI PUSH1 0x0 DUP1 REVERT JUMPDEST POP JUMP JUMPDEST PUSH1 0x0 DUP2 MLOAD SWAP1 POP PUSH3 0x3A6 DUP2 PUSH3 0x37B JUMP JUMPDEST SWAP3 SWAP2 POP POP JUMP JUMPDEST PUSH1 0x0 PUSH1 0x20 DUP3 DUP5 SUB SLT ISZERO PUSH3 0x3C5 JUMPI PUSH3 0x3C4 PUSH3 0x36C JUMP JUMPDEST JUMPDEST PUSH1 0x0 PUSH3 0x3D5 DUP5 DUP3 DUP6 ADD PUSH3 0x395 JUMP JUMPDEST SWAP2 POP POP SWAP3 SWAP2 POP POP JUMP JUMPDEST PUSH1 0x0 DUP2 MLOAD SWAP1 POP SWAP2 SWAP1 POP JUMP JUMPDEST PUSH32 0x4E487B7100000000000000000000000000000000000000000000000000000000 PUSH1 0x0 MSTORE PUSH1 0x41 PUSH1 0x4 MSTORE PUSH1 0x24 PUSH1 0x0 REVERT JUMPDEST PUSH32 0x4E487B7100000000000000000000000000000000000000000000000000000000 PUSH1 0x0 MSTORE PUSH1 0x22 PUSH1 0x4 MSTORE PUSH1 0x24 PUSH1 0x0 REVERT JUMPDEST PUSH1 0x0 PUSH1 0x2 DUP3 DIV SWAP1 POP PUSH1 0x1 DUP3 AND DUP1 PUSH3 0x460 JUMPI PUSH1 0x7F DUP3 AND SWAP2 POP JUMPDEST PUSH1 0x20 DUP3 LT DUP2 SUB PUSH3 0x476 JUMPI PUSH3 0x475 PUSH3 0x418 JUMP JUMPDEST JUMPDEST POP SWAP2 SWAP1 POP JUMP JUMPDEST PUSH1 0x0 DUP2 SWAP1 POP DUP2 PUSH1 0x0 MSTORE PUSH1 0x20 PUSH1 0x0 KECCAK256 SWAP1 POP SWAP2 SWAP1 POP JUMP JUMPDEST PUSH1 0x0 PUSH1 0x20 PUSH1 0x1F DUP4 ADD DIV SWAP1 POP SWAP2 SWAP1 POP JUMP JUMPDEST PUSH1 0x0 DUP3 DUP3 SHL SWAP1 POP SWAP3 SWAP2 POP POP JUMP JUMPDEST PUSH1 0x0 PUSH1 0x8 DUP4 MUL PUSH3 0x4E0 PUSH32 0xFFFFFFFFFFFFFFFFFFFFFFFFFFFFFFFFFFFFFFFFFFFFFFFFFFFFFFFFFFFFFFFF DUP3 PUSH3 0x4A1 JUMP JUMPDEST PUSH3 0x4EC DUP7 DUP4 PUSH3 0x4A1 JUMP JUMPDEST SWAP6 POP DUP1 NOT DUP5 AND SWAP4 POP DUP1 DUP7 AND DUP5 OR SWAP3 POP POP POP SWAP4 SWAP3 POP POP POP JUMP JUMPDEST PUSH1 0x0 DUP2 SWAP1 POP SWAP2 SWAP1 POP JUMP JUMPDEST PUSH1 0x0 PUSH3 0x52F PUSH3 0x529 PUSH3 0x523 DUP5 PUSH3 0x371 JUMP JUMPDEST PUSH3 0x504 JUMP JUMPDEST PUSH3 0x371 JUMP JUMPDEST SWAP1 POP SWAP2 SWAP1 POP JUMP JUMPDEST PUSH1 0x0 DUP2 SWAP1 POP SWAP2 SWAP1 POP JUMP JUMPDEST PUSH3 0x54B DUP4 PUSH3 0x50E JUMP JUMPDEST PUSH3 0x563 PUSH3 0x55A DUP3 PUSH3 0x536 JUMP JUMPDEST DUP5 DUP5 SLOAD PUSH3 0x4AE JUMP JUMPDEST DUP3 SSTORE POP POP POP POP JUMP JUMPDEST PUSH1 0x0 SWAP1 JUMP JUMPDEST PUSH3 0x57A PUSH3 0x56B JUMP JUMPDEST PUSH3 0x587 DUP2 DUP5 DUP5 PUSH3 0x540 JUMP JUMPDEST POP POP POP JUMP JUMPDEST JUMPDEST DUP2 DUP2 LT ISZERO PUSH3 0x5AF JUMPI PUSH3 0x5A3 PUSH1 0x0 DUP3 PUSH3 0x570 JUMP JUMPDEST PUSH1 0x1 DUP2 ADD SWAP1 POP PUSH3 0x58D JUMP JUMPDEST POP POP JUMP JUMPDEST PUSH1 0x1F DUP3 GT ISZERO PUSH3 0x5FE JUMPI PUSH3 0x5C8 DUP2 PUSH3 0x47C JUMP JUMPDEST PUSH3 0x5D3 DUP5 PUSH3 0x491 JUMP JUMPDEST DUP2 ADD PUSH1 0x20 DUP6 LT ISZERO PUSH3 0x5E3 JUMPI DUP2 SWAP1 POP JUMPDEST PUSH3 0x5FB PUSH3 0x5F2 DUP6 PUSH3 0x491 JUMP JUMPDEST DUP4 ADD DUP3 PUSH3 0x58C JUMP JUMPDEST POP POP JUMPDEST POP POP POP JUMP JUMPDEST PUSH1 0x0 DUP3 DUP3 SHR SWAP1 POP SWAP3 SWAP2 POP POP JUMP JUMPDEST PUSH1 0x0 PUSH3 0x623 PUSH1 0x0 NOT DUP5 PUSH1 0x8 MUL PUSH3 0x603 JUMP JUMPDEST NOT DUP1 DUP4 AND SWAP2 POP POP SWAP3 SWAP2 POP POP JUMP JUMPDEST PUSH1 0x0 PUSH3 0x63E DUP4 DUP4 PUSH3 0x610 JUMP JUMPDEST SWAP2 POP DUP3 PUSH1 0x2 MUL DUP3 OR SWAP1 POP SWAP3 SWAP2 POP POP JUMP JUMPDEST PUSH3 0x659 DUP3 PUSH3 0x3DE JUMP JUMPDEST PUSH8 0xFFFFFFFFFFFFFFFF DUP2 GT ISZERO PUSH3 0x675 JUMPI PUSH3 0x674 PUSH3 0x3E9 JUMP JUMPDEST JUMPDEST PUSH3 0x681 DUP3 SLOAD PUSH3 0x447 JUMP JUMPDEST PUSH3 0x68E DUP3 DUP3 DUP6 PUSH3 0x5B3 JUMP JUMPDEST PUSH1 0x0 PUSH1 0x20 SWAP1 POP PUSH1 0x1F DUP4 GT PUSH1 0x1 DUP2 EQ PUSH3 0x6C6 JUMPI PUSH1 0x0 DUP5 ISZERO PUSH3 0x6B1 JUMPI DUP3 DUP8 ADD MLOAD SWAP1 POP JUMPDEST PUSH3 0x6BD DUP6 DUP3 PUSH3 0x630 JUMP JUMPDEST DUP7 SSTORE POP PUSH3 0x72D JUMP JUMPDEST PUSH1 0x1F NOT DUP5 AND PUSH3 0x6D6 DUP7 PUSH3 0x47C JUMP JUMPDEST PUSH1 0x0 JUMPDEST DUP3 DUP2 LT ISZERO PUSH3 0x700 JUMPI DUP5 DUP10 ADD MLOAD DUP3 SSTORE PUSH1 0x1 DUP3 ADD SWAP2 POP PUSH1 0x20 DUP6 ADD SWAP5 POP PUSH1 0x20 DUP2 ADD SWAP1 POP PUSH3 0x6D9 JUMP JUMPDEST DUP7 DUP4 LT ISZERO PUSH3 0x720 JUMPI DUP5 DUP10 ADD MLOAD PUSH3 0x71C PUSH1 0x1F DUP10 AND DUP3 PUSH3 0x610 JUMP JUMPDEST DUP4 SSTORE POP JUMPDEST PUSH1 0x1 PUSH1 0x2 DUP9 MUL ADD DUP9 SSTORE POP POP POP JUMPDEST POP POP POP POP POP POP JUMP JUMPDEST PUSH1 0x0 DUP2 SWAP1 POP SWAP2 SWAP1 POP JUMP JUMPDEST PUSH3 0x74A DUP2 PUSH3 0x735 JUMP JUMPDEST DUP3 MSTORE POP POP JUMP JUMPDEST PUSH3 0x75B DUP2 PUSH3 0x371 JUMP JUMPDEST DUP3 MSTORE POP POP JUMP JUMPDEST PUSH1 0x0 PUSH20 0xFFFFFFFFFFFFFFFFFFFFFFFFFFFFFFFFFFFFFFFF DUP3 AND SWAP1 POP SWAP2 SWAP1 POP JUMP JUMPDEST PUSH1 0x0 PUSH3 0x78E DUP3 PUSH3 0x761 JUMP JUMPDEST SWAP1 POP SWAP2 SWAP1 POP JUMP JUMPDEST PUSH3 0x7A0 DUP2 PUSH3 0x781 JUMP JUMPDEST DUP3 MSTORE POP POP JUMP JUMPDEST PUSH1 0x0 PUSH1 0xA0 DUP3 ADD SWAP1 POP PUSH3 0x7BD PUSH1 0x0 DUP4 ADD DUP9 PUSH3 0x73F JUMP JUMPDEST PUSH3 0x7CC PUSH1 0x20 DUP4 ADD DUP8 PUSH3 0x73F JUMP JUMPDEST PUSH3 0x7DB PUSH1 0x40 DUP4 ADD DUP7 PUSH3 0x73F JUMP JUMPDEST PUSH3 0x7EA PUSH1 0x60 DUP4 ADD DUP6 PUSH3 0x750 JUMP JUMPDEST PUSH3 0x7F9 PUSH1 0x80 DUP4 ADD DUP5 PUSH3 0x795 JUMP JUMPDEST SWAP7 SWAP6 POP POP POP POP POP POP JUMP JUMPDEST PUSH1 0x0 DUP3 DUP3 MSTORE PUSH1 0x20 DUP3 ADD SWAP1 POP SWAP3 SWAP2 POP POP JUMP JUMPDEST PUSH1 0x0 JUMPDEST DUP4 DUP2 LT ISZERO PUSH3 0x834 JUMPI DUP1 DUP3 ADD MLOAD DUP2 DUP5 ADD MSTORE PUSH1 0x20 DUP2 ADD SWAP1 POP PUSH3 0x817 JUMP JUMPDEST PUSH1 0x0 DUP5 DUP5 ADD MSTORE POP POP POP POP JUMP JUMPDEST PUSH1 0x0 PUSH1 0x1F NOT PUSH1 0x1F DUP4 ADD AND SWAP1 POP SWAP2 SWAP1 POP JUMP JUMPDEST PUSH1 0x0 PUSH3 0x85E DUP3 PUSH3 0x3DE JUMP JUMPDEST PUSH3 0x86A DUP2 DUP6 PUSH3 0x803 JUMP JUMPDEST SWAP4 POP PUSH3 0x87C DUP2 DUP6 PUSH1 0x20 DUP7 ADD PUSH3 0x814 JUMP JUMPDEST PUSH3 0x887 DUP2 PUSH3 0x840 JUMP JUMPDEST DUP5 ADD SWAP2 POP POP SWAP3 SWAP2 POP POP JUMP JUMPDEST PUSH1 0x0 PUSH1 0x20 DUP3 ADD SWAP1 POP DUP2 DUP2 SUB PUSH1 0x0 DUP4 ADD MSTORE PUSH3 0x8AE DUP2 DUP5 PUSH3 0x851 JUMP JUMPDEST SWAP1 POP SWAP3 SWAP2 POP POP JUMP JUMPDEST PUSH1 0x0 DUP2 MLOAD SWAP1 POP SWAP2 SWAP1 POP JUMP JUMPDEST PUSH1 0x0 DUP2 SWAP1 POP PUSH1 0x20 DUP3 ADD SWAP1 POP SWAP2 SWAP1 POP JUMP JUMPDEST PUSH1 0x0 PUSH3 0x8DF DUP3 MLOAD PUSH3 0x735 JUMP JUMPDEST DUP1 SWAP2 POP POP SWAP2 SWAP1 POP JUMP JUMPDEST PUSH1 0x0 PUSH3 0x8F5 DUP3 PUSH3 0x8B6 JUMP JUMPDEST DUP3 PUSH3 0x901 DUP5 PUSH3 0x8C1 JUMP JUMPDEST SWAP1 POP PUSH3 0x90E DUP2 PUSH3 0x8D1 JUMP JUMPDEST SWAP3 POP PUSH1 0x20 DUP3 LT ISZERO PUSH3 0x951 JUMPI PUSH3 0x94C PUSH32 0xFFFFFFFFFFFFFFFFFFFFFFFFFFFFFFFFFFFFFFFFFFFFFFFFFFFFFFFFFFFFFFFF DUP4 PUSH1 0x20 SUB PUSH1 0x8 MUL PUSH3 0x4A1 JUMP JUMPDEST DUP4 AND SWAP3 POP JUMPDEST POP POP SWAP2 SWAP1 POP JUMP JUMPDEST PUSH1 0x80 MLOAD PUSH1 0xA0 MLOAD PUSH1 0xC0 MLOAD PUSH1 0xE0 MLOAD PUSH2 0x100 MLOAD PUSH2 0x120 MLOAD PUSH2 0x140 MLOAD PUSH2 0x2E27 PUSH3 0x9B3 PUSH1 0x0 CODECOPY PUSH1 0x0 PUSH2 0x6B5 ADD MSTORE PUSH1 0x0 PUSH2 0x681 ADD MSTORE PUSH1 0x0 PUSH2 0x161C ADD MSTORE PUSH1 0x0 PUSH2 0x15FB ADD MSTORE PUSH1 0x0 PUSH2 0x1180 ADD MSTORE PUSH1 0x0 PUSH2 0x11D6 ADD MSTORE PUSH1 0x0 PUSH2 0x11FF ADD MSTORE PUSH2 0x2E27 PUSH1 0x0 RETURN INVALID PUSH1 0x80 PUSH1 0x40 MSTORE PUSH1 0x4 CALLDATASIZE LT PUSH2 0x109 JUMPI PUSH1 0x0 CALLDATALOAD PUSH1 0xE0 SHR DUP1 PUSH4 0x84B0196E GT PUSH2 0x95 JUMPI DUP1 PUSH4 0xA9059CBB GT PUSH2 0x64 JUMPI DUP1 PUSH4 0xA9059CBB EQ PUSH2 0x3AF JUMPI DUP1 PUSH4 0xD505ACCF EQ PUSH2 0x3EC JUMPI DUP1 PUSH4 0xD5ABEB01 EQ PUSH2 0x415 JUMPI DUP1 PUSH4 0xD96A094A EQ PUSH2 0x440 JUMPI DUP1 PUSH4 0xDD62ED3E EQ PUSH2 0x45C JUMPI PUSH2 0x109 JUMP JUMPDEST DUP1 PUSH4 0x84B0196E EQ PUSH2 0x2EB JUMPI DUP1 PUSH4 0x95D89B41 EQ PUSH2 0x31C JUMPI DUP1 PUSH4 0x9D1B464A EQ PUSH2 0x347 JUMPI DUP1 PUSH4 0xA457C2D7 EQ PUSH2 0x372 JUMPI PUSH2 0x109 JUMP JUMPDEST DUP1 PUSH4 0x313CE567 GT PUSH2 0xDC JUMPI DUP1 PUSH4 0x313CE567 EQ PUSH2 0x1DE JUMPI DUP1 PUSH4 0x3644E515 EQ PUSH2 0x209 JUMPI DUP1 PUSH4 0x39509351 EQ PUSH2 0x234 JUMPI DUP1 PUSH4 0x70A08231 EQ PUSH2 0x271 JUMPI DUP1 PUSH4 0x7ECEBE00 EQ PUSH2 0x2AE JUMPI PUSH2 0x109 JUMP JUMPDEST DUP1 PUSH4 0x6FDDE03 EQ PUSH2 0x10E JUMPI DUP1 PUSH4 0x95EA7B3 EQ PUSH2 0x139 JUMPI DUP1 PUSH4 0x18160DDD EQ PUSH2 0x176 JUMPI DUP1 PUSH4 0x23B872DD EQ PUSH2 0x1A1 JUMPI JUMPDEST PUSH1 0x0 DUP1 REVERT JUMPDEST CALLVALUE DUP1 ISZERO PUSH2 0x11A JUMPI PUSH1 0x0 DUP1 REVERT JUMPDEST POP PUSH2 0x123 PUSH2 0x499 JUMP JUMPDEST PUSH1 0x40 MLOAD PUSH2 0x130 SWAP2 SWAP1 PUSH2 0x1BB5 JUMP JUMPDEST PUSH1 0x40 MLOAD DUP1 SWAP2 SUB SWAP1 RETURN JUMPDEST CALLVALUE DUP1 ISZERO PUSH2 0x145 JUMPI PUSH1 0x0 DUP1 REVERT JUMPDEST POP PUSH2 0x160 PUSH1 0x4 DUP1 CALLDATASIZE SUB DUP2 ADD SWAP1 PUSH2 0x15B SWAP2 SWAP1 PUSH2 0x1C70 JUMP JUMPDEST PUSH2 0x52B JUMP JUMPDEST PUSH1 0x40 MLOAD PUSH2 0x16D SWAP2 SWAP1 PUSH2 0x1CCB JUMP JUMPDEST PUSH1 0x40 MLOAD DUP1 SWAP2 SUB SWAP1 RETURN JUMPDEST CALLVALUE DUP1 ISZERO PUSH2 0x182 JUMPI PUSH1 0x0 DUP1 REVERT JUMPDEST POP PUSH2 0x18B PUSH2 0x54E JUMP JUMPDEST PUSH1 0x40 MLOAD PUSH2 0x198 SWAP2 SWAP1 PUSH2 0x1CF5 JUMP JUMPDEST PUSH1 0x40 MLOAD DUP1 SWAP2 SUB SWAP1 RETURN JUMPDEST CALLVALUE DUP1 ISZERO PUSH2 0x1AD JUMPI PUSH1 0x0 DUP1 REVERT JUMPDEST POP PUSH2 0x1C8 PUSH1 0x4 DUP1 CALLDATASIZE SUB DUP2 ADD SWAP1 PUSH2 0x1C3 SWAP2 SWAP1 PUSH2 0x1D10 JUMP JUMPDEST PUSH2 0x558 JUMP JUMPDEST PUSH1 0x40 MLOAD PUSH2 0x1D5 SWAP2 SWAP1 PUSH2 0x1CCB JUMP JUMPDEST PUSH1 0x40 MLOAD DUP1 SWAP2 SUB SWAP1 RETURN JUMPDEST CALLVALUE DUP1 ISZERO PUSH2 0x1EA JUMPI PUSH1 0x0 DUP1 REVERT JUMPDEST POP PUSH2 0x1F3 PUSH2 0x587 JUMP JUMPDEST PUSH1 0x40 MLOAD PUSH2 0x200 SWAP2 SWAP1 PUSH2 0x1D7F JUMP JUMPDEST PUSH1 0x40 MLOAD DUP1 SWAP2 SUB SWAP1 RETURN JUMPDEST CALLVALUE DUP1 ISZERO PUSH2 0x215 JUMPI PUSH1 0x0 DUP1 REVERT JUMPDEST POP PUSH2 0x21E PUSH2 0x590 JUMP JUMPDEST PUSH1 0x40 MLOAD PUSH2 0x22B SWAP2 SWAP1 PUSH2 0x1DB3 JUMP JUMPDEST PUSH1 0x40 MLOAD DUP1 SWAP2 SUB SWAP1 RETURN JUMPDEST CALLVALUE DUP1 ISZERO PUSH2 0x240 JUMPI PUSH1 0x0 DUP1 REVERT JUMPDEST POP PUSH2 0x25B PUSH1 0x4 DUP1 CALLDATASIZE SUB DUP2 ADD SWAP1 PUSH2 0x256 SWAP2 SWAP1 PUSH2 0x1C70 JUMP JUMPDEST PUSH2 0x59F JUMP JUMPDEST PUSH1 0x40 MLOAD PUSH2 0x268 SWAP2 SWAP1 PUSH2 0x1CCB JUMP JUMPDEST PUSH1 0x40 MLOAD DUP1 SWAP2 SUB SWAP1 RETURN JUMPDEST CALLVALUE DUP1 ISZERO PUSH2 0x27D JUMPI PUSH1 0x0 DUP1 REVERT JUMPDEST POP PUSH2 0x298 PUSH1 0x4 DUP1 CALLDATASIZE SUB DUP2 ADD SWAP1 PUSH2 0x293 SWAP2 SWAP1 PUSH2 0x1DCE JUMP JUMPDEST PUSH2 0x5D6 JUMP JUMPDEST PUSH1 0x40 MLOAD PUSH2 0x2A5 SWAP2 SWAP1 PUSH2 0x1CF5 JUMP JUMPDEST PUSH1 0x40 MLOAD DUP1 SWAP2 SUB SWAP1 RETURN JUMPDEST CALLVALUE DUP1 ISZERO PUSH2 0x2BA JUMPI PUSH1 0x0 DUP1 REVERT JUMPDEST POP PUSH2 0x2D5 PUSH1 0x4 DUP1 CALLDATASIZE SUB DUP2 ADD SWAP1 PUSH2 0x2D0 SWAP2 SWAP1 PUSH2 0x1DCE JUMP JUMPDEST PUSH2 0x61E JUMP JUMPDEST PUSH1 0x40 MLOAD PUSH2 0x2E2 SWAP2 SWAP1 PUSH2 0x1CF5 JUMP JUMPDEST PUSH1 0x40 MLOAD DUP1 SWAP2 SUB SWAP1 RETURN JUMPDEST CALLVALUE DUP1 ISZERO PUSH2 0x2F7 JUMPI PUSH1 0x0 DUP1 REVERT JUMPDEST POP PUSH2 0x300 PUSH2 0x66E JUMP JUMPDEST PUSH1 0x40 MLOAD PUSH2 0x313 SWAP8 SWAP7 SWAP6 SWAP5 SWAP4 SWAP3 SWAP2 SWAP1 PUSH2 0x1F03 JUMP JUMPDEST PUSH1 0x40 MLOAD DUP1 SWAP2 SUB SWAP1 RETURN JUMPDEST CALLVALUE DUP1 ISZERO PUSH2 0x328 JUMPI PUSH1 0x0 DUP1 REVERT JUMPDEST POP PUSH2 0x331 PUSH2 0x770 JUMP JUMPDEST PUSH1 0x40 MLOAD PUSH2 0x33E SWAP2 SWAP1 PUSH2 0x1BB5 JUMP JUMPDEST PUSH1 0x40 MLOAD DUP1 SWAP2 SUB SWAP1 RETURN JUMPDEST CALLVALUE DUP1 ISZERO PUSH2 0x353 JUMPI PUSH1 0x0 DUP1 REVERT JUMPDEST POP PUSH2 0x35C PUSH2 0x802 JUMP JUMPDEST PUSH1 0x40 MLOAD PUSH2 0x369 SWAP2 SWAP1 PUSH2 0x1CF5 JUMP JUMPDEST PUSH1 0x40 MLOAD DUP1 SWAP2 SUB SWAP1 RETURN JUMPDEST CALLVALUE DUP1 ISZERO PUSH2 0x37E JUMPI PUSH1 0x0 DUP1 REVERT JUMPDEST POP PUSH2 0x399 PUSH1 0x4 DUP1 CALLDATASIZE SUB DUP2 ADD SWAP1 PUSH2 0x394 SWAP2 SWAP1 PUSH2 0x1C70 JUMP JUMPDEST PUSH2 0x847 JUMP JUMPDEST PUSH1 0x40 MLOAD PUSH2 0x3A6 SWAP2 SWAP1 PUSH2 0x1CCB JUMP JUMPDEST PUSH1 0x40 MLOAD DUP1 SWAP2 SUB SWAP1 RETURN JUMPDEST CALLVALUE DUP1 ISZERO PUSH2 0x3BB JUMPI PUSH1 0x0 DUP1 REVERT JUMPDEST POP PUSH2 0x3D6 PUSH1 0x4 DUP1 CALLDATASIZE SUB DUP2 ADD SWAP1 PUSH2 0x3D1 SWAP2 SWAP1 PUSH2 0x1C70 JUMP JUMPDEST PUSH2 0x8BE JUMP JUMPDEST PUSH1 0x40 MLOAD PUSH2 0x3E3 SWAP2 SWAP1 PUSH2 0x1CCB JUMP JUMPDEST PUSH1 0x40 MLOAD DUP1 SWAP2 SUB SWAP1 RETURN JUMPDEST CALLVALUE DUP1 ISZERO PUSH2 0x3F8 JUMPI PUSH1 0x0 DUP1 REVERT JUMPDEST POP PUSH2 0x413 PUSH1 0x4 DUP1 CALLDATASIZE SUB DUP2 ADD SWAP1 PUSH2 0x40E SWAP2 SWAP1 PUSH2 0x1FDF JUMP JUMPDEST PUSH2 0x8E1 JUMP JUMPDEST STOP JUMPDEST CALLVALUE DUP1 ISZERO PUSH2 0x421 JUMPI PUSH1 0x0 DUP1 REVERT JUMPDEST POP PUSH2 0x42A PUSH2 0xA23 JUMP JUMPDEST PUSH1 0x40 MLOAD PUSH2 0x437 SWAP2 SWAP1 PUSH2 0x1CF5 JUMP JUMPDEST PUSH1 0x40 MLOAD DUP1 SWAP2 SUB SWAP1 RETURN JUMPDEST PUSH2 0x45A PUSH1 0x4 DUP1 CALLDATASIZE SUB DUP2 ADD SWAP1 PUSH2 0x455 SWAP2 SWAP1 PUSH2 0x2081 JUMP JUMPDEST PUSH2 0xA29 JUMP JUMPDEST STOP JUMPDEST CALLVALUE DUP1 ISZERO PUSH2 0x468 JUMPI PUSH1 0x0 DUP1 REVERT JUMPDEST POP PUSH2 0x483 PUSH1 0x4 DUP1 CALLDATASIZE SUB DUP2 ADD SWAP1 PUSH2 0x47E SWAP2 SWAP1 PUSH2 0x20AE JUMP JUMPDEST PUSH2 0xBD4 JUMP JUMPDEST PUSH1 0x40 MLOAD PUSH2 0x490 SWAP2 SWAP1 PUSH2 0x1CF5 JUMP JUMPDEST PUSH1 0x40 MLOAD DUP1 SWAP2 SUB SWAP1 RETURN JUMPDEST PUSH1 0x60 PUSH1 0x3 DUP1 SLOAD PUSH2 0x4A8 SWAP1 PUSH2 0x211D JUMP JUMPDEST DUP1 PUSH1 0x1F ADD PUSH1 0x20 DUP1 SWAP2 DIV MUL PUSH1 0x20 ADD PUSH1 0x40 MLOAD SWAP1 DUP2 ADD PUSH1 0x40 MSTORE DUP1 SWAP3 SWAP2 SWAP1 DUP2 DUP2 MSTORE PUSH1 0x20 ADD DUP3 DUP1 SLOAD PUSH2 0x4D4 SWAP1 PUSH2 0x211D JUMP JUMPDEST DUP1 ISZERO PUSH2 0x521 JUMPI DUP1 PUSH1 0x1F LT PUSH2 0x4F6 JUMPI PUSH2 0x100 DUP1 DUP4 SLOAD DIV MUL DUP4 MSTORE SWAP2 PUSH1 0x20 ADD SWAP2 PUSH2 0x521 JUMP JUMPDEST DUP3 ADD SWAP2 SWAP1 PUSH1 0x0 MSTORE PUSH1 0x20 PUSH1 0x0 KECCAK256 SWAP1 JUMPDEST DUP2 SLOAD DUP2 MSTORE SWAP1 PUSH1 0x1 ADD SWAP1 PUSH1 0x20 ADD DUP1 DUP4 GT PUSH2 0x504 JUMPI DUP3 SWAP1 SUB PUSH1 0x1F AND DUP3 ADD SWAP2 JUMPDEST POP POP POP POP POP SWAP1 POP SWAP1 JUMP JUMPDEST PUSH1 0x0 DUP1 PUSH2 0x536 PUSH2 0xCA9 JUMP JUMPDEST SWAP1 POP PUSH2 0x543 DUP2 DUP6 DUP6 PUSH2 0xCB1 JUMP JUMPDEST PUSH1 0x1 SWAP2 POP POP SWAP3 SWAP2 POP POP JUMP JUMPDEST PUSH1 0x0 PUSH1 0x2 SLOAD SWAP1 POP SWAP1 JUMP JUMPDEST PUSH1 0x0 DUP1 PUSH2 0x563 PUSH2 0xCA9 JUMP JUMPDEST SWAP1 POP PUSH2 0x570 DUP6 DUP3 DUP6 PUSH2 0xE7A JUMP JUMPDEST PUSH2 0x57B DUP6 DUP6 DUP6 PUSH2 0xF06 JUMP JUMPDEST PUSH1 0x1 SWAP2 POP POP SWAP4 SWAP3 POP POP POP JUMP JUMPDEST PUSH1 0x0 PUSH1 0x12 SWAP1 POP SWAP1 JUMP JUMPDEST PUSH1 0x0 PUSH2 0x59A PUSH2 0x117C JUMP JUMPDEST SWAP1 POP SWAP1 JUMP JUMPDEST PUSH1 0x0 DUP1 PUSH2 0x5AA PUSH2 0xCA9 JUMP JUMPDEST SWAP1 POP PUSH2 0x5CB DUP2 DUP6 DUP6 PUSH2 0x5BC DUP6 DUP10 PUSH2 0xBD4 JUMP JUMPDEST PUSH2 0x5C6 SWAP2 SWAP1 PUSH2 0x217D JUMP JUMPDEST PUSH2 0xCB1 JUMP JUMPDEST PUSH1 0x1 SWAP2 POP POP SWAP3 SWAP2 POP POP JUMP JUMPDEST PUSH1 0x0 DUP1 PUSH1 0x0 DUP4 PUSH20 0xFFFFFFFFFFFFFFFFFFFFFFFFFFFFFFFFFFFFFFFF AND PUSH20 0xFFFFFFFFFFFFFFFFFFFFFFFFFFFFFFFFFFFFFFFF AND DUP2 MSTORE PUSH1 0x20 ADD SWAP1 DUP2 MSTORE PUSH1 0x20 ADD PUSH1 0x0 KECCAK256 SLOAD SWAP1 POP SWAP2 SWAP1 POP JUMP JUMPDEST PUSH1 0x0 PUSH2 0x667 PUSH1 0x7 PUSH1 0x0 DUP5 PUSH20 0xFFFFFFFFFFFFFFFFFFFFFFFFFFFFFFFFFFFFFFFF AND PUSH20 0xFFFFFFFFFFFFFFFFFFFFFFFFFFFFFFFFFFFFFFFF AND DUP2 MSTORE PUSH1 0x20 ADD SWAP1 DUP2 MSTORE PUSH1 0x20 ADD PUSH1 0x0 KECCAK256 PUSH2 0x1233 JUMP JUMPDEST SWAP1 POP SWAP2 SWAP1 POP JUMP JUMPDEST PUSH1 0x0 PUSH1 0x60 DUP1 PUSH1 0x0 DUP1 PUSH1 0x0 PUSH1 0x60 PUSH2 0x6AE PUSH1 0x5 PUSH32 0x0 PUSH2 0x1241 SWAP1 SWAP2 SWAP1 PUSH4 0xFFFFFFFF AND JUMP JUMPDEST PUSH2 0x6E2 PUSH1 0x6 PUSH32 0x0 PUSH2 0x1241 SWAP1 SWAP2 SWAP1 PUSH4 0xFFFFFFFF AND JUMP JUMPDEST CHAINID ADDRESS PUSH1 0x0 DUP1 SHL PUSH1 0x0 PUSH8 0xFFFFFFFFFFFFFFFF DUP2 GT ISZERO PUSH2 0x703 JUMPI PUSH2 0x702 PUSH2 0x21B1 JUMP JUMPDEST JUMPDEST PUSH1 0x40 MLOAD SWAP1 DUP1 DUP3 MSTORE DUP1 PUSH1 0x20 MUL PUSH1 0x20 ADD DUP3 ADD PUSH1 0x40 MSTORE DUP1 ISZERO PUSH2 0x731 JUMPI DUP2 PUSH1 0x20 ADD PUSH1 0x20 DUP3 MUL DUP1 CALLDATASIZE DUP4 CALLDATACOPY DUP1 DUP3 ADD SWAP2 POP POP SWAP1 POP JUMPDEST POP PUSH32 0xF00000000000000000000000000000000000000000000000000000000000000 SWAP6 SWAP5 SWAP4 SWAP3 SWAP2 SWAP1 SWAP7 POP SWAP7 POP SWAP7 POP SWAP7 POP SWAP7 POP SWAP7 POP SWAP7 POP SWAP1 SWAP2 SWAP3 SWAP4 SWAP5 SWAP6 SWAP7 JUMP JUMPDEST PUSH1 0x60 PUSH1 0x4 DUP1 SLOAD PUSH2 0x77F SWAP1 PUSH2 0x211D JUMP JUMPDEST DUP1 PUSH1 0x1F ADD PUSH1 0x20 DUP1 SWAP2 DIV MUL PUSH1 0x20 ADD PUSH1 0x40 MLOAD SWAP1 DUP2 ADD PUSH1 0x40 MSTORE DUP1 SWAP3 SWAP2 SWAP1 DUP2 DUP2 MSTORE PUSH1 0x20 ADD DUP3 DUP1 SLOAD PUSH2 0x7AB SWAP1 PUSH2 0x211D JUMP JUMPDEST DUP1 ISZERO PUSH2 0x7F8 JUMPI DUP1 PUSH1 0x1F LT PUSH2 0x7CD JUMPI PUSH2 0x100 DUP1 DUP4 SLOAD DIV MUL DUP4 MSTORE SWAP2 PUSH1 0x20 ADD SWAP2 PUSH2 0x7F8 JUMP JUMPDEST DUP3 ADD SWAP2 SWAP1 PUSH1 0x0 MSTORE PUSH1 0x20 PUSH1 0x0 KECCAK256 SWAP1 JUMPDEST DUP2 SLOAD DUP2 MSTORE SWAP1 PUSH1 0x1 ADD SWAP1 PUSH1 0x20 ADD DUP1 DUP4 GT PUSH2 0x7DB JUMPI DUP3 SWAP1 SUB PUSH1 0x1F AND DUP3 ADD SWAP2 JUMPDEST POP POP POP POP POP SWAP1 POP SWAP1 JUMP JUMPDEST PUSH1 0x0 PUSH2 0x818 PUSH8 0x75D1B0822A569F9C PUSH1 0xC0 SHL PUSH2 0x12F1 JUMP JUMPDEST PUSH2 0x82C PUSH8 0x2966DB270F93EF3C PUSH1 0xC0 SHL PUSH2 0x12F1 JUMP JUMPDEST PUSH2 0x840 PUSH8 0x96A1D935BF6A7E86 PUSH1 0xC0 SHL PUSH2 0x12F1 JUMP JUMPDEST PUSH1 0x64 SWAP1 POP SWAP1 JUMP JUMPDEST PUSH1 0x0 DUP1 PUSH2 0x852 PUSH2 0xCA9 JUMP JUMPDEST SWAP1 POP PUSH1 0x0 PUSH2 0x860 DUP3 DUP7 PUSH2 0xBD4 JUMP JUMPDEST SWAP1 POP DUP4 DUP2 LT ISZERO PUSH2 0x8A5 JUMPI PUSH1 0x40 MLOAD PUSH32 0x8C379A000000000000000000000000000000000000000000000000000000000 DUP2 MSTORE PUSH1 0x4 ADD PUSH2 0x89C SWAP1 PUSH2 0x2252 JUMP JUMPDEST PUSH1 0x40 MLOAD DUP1 SWAP2 SUB SWAP1 REVERT JUMPDEST PUSH2 0x8B2 DUP3 DUP7 DUP7 DUP5 SUB PUSH2 0xCB1 JUMP JUMPDEST PUSH1 0x1 SWAP3 POP POP POP SWAP3 SWAP2 POP POP JUMP JUMPDEST PUSH1 0x0 DUP1 PUSH2 0x8C9 PUSH2 0xCA9 JUMP JUMPDEST SWAP1 POP PUSH2 0x8D6 DUP2 DUP6 DUP6 PUSH2 0xF06 JUMP JUMPDEST PUSH1 0x1 SWAP2 POP POP SWAP3 SWAP2 POP POP JUMP JUMPDEST DUP4 TIMESTAMP GT ISZERO PUSH2 0x924 JUMPI PUSH1 0x40 MLOAD PUSH32 0x8C379A000000000000000000000000000000000000000000000000000000000 DUP2 MSTORE PUSH1 0x4 ADD PUSH2 0x91B SWAP1 PUSH2 0x22BE JUMP JUMPDEST PUSH1 0x40 MLOAD DUP1 SWAP2 SUB SWAP1 REVERT JUMPDEST PUSH1 0x0 PUSH32 0x6E71EDAE12B1B97F4D1F60370FEF10105FA2FAAE0126114A169C64845D6126C9 DUP9 DUP9 DUP9 PUSH2 0x953 DUP13 PUSH2 0x12F4 JUMP JUMPDEST DUP10 PUSH1 0x40 MLOAD PUSH1 0x20 ADD PUSH2 0x969 SWAP7 SWAP6 SWAP5 SWAP4 SWAP3 SWAP2 SWAP1 PUSH2 0x22DE JUMP JUMPDEST PUSH1 0x40 MLOAD PUSH1 0x20 DUP2 DUP4 SUB SUB DUP2 MSTORE SWAP1 PUSH1 0x40 MSTORE DUP1 MLOAD SWAP1 PUSH1 0x20 ADD KECCAK256 SWAP1 POP PUSH1 0x0 PUSH2 0x98C DUP3 PUSH2 0x1352 JUMP JUMPDEST SWAP1 POP PUSH1 0x0 PUSH2 0x99C DUP3 DUP8 DUP8 DUP8 PUSH2 0x136C JUMP JUMPDEST SWAP1 POP DUP10 PUSH20 0xFFFFFFFFFFFFFFFFFFFFFFFFFFFFFFFFFFFFFFFF AND DUP2 PUSH20 0xFFFFFFFFFFFFFFFFFFFFFFFFFFFFFFFFFFFFFFFF AND EQ PUSH2 0xA0C JUMPI PUSH1 0x40 MLOAD PUSH32 0x8C379A000000000000000000000000000000000000000000000000000000000 DUP2 MSTORE PUSH1 0x4 ADD PUSH2 0xA03 SWAP1 PUSH2 0x238B JUMP JUMPDEST PUSH1 0x40 MLOAD DUP1 SWAP2 SUB SWAP1 REVERT JUMPDEST PUSH2 0xA17 DUP11 DUP11 DUP11 PUSH2 0xCB1 JUMP JUMPDEST POP POP POP POP POP POP POP POP POP POP JUMP JUMPDEST PUSH1 0x9 SLOAD DUP2 JUMP JUMPDEST PUSH2 0xA3D PUSH8 0x3976DC4CDF7C1D72 PUSH1 0xC0 SHL PUSH2 0x12F1 JUMP JUMPDEST PUSH2 0xA51 PUSH8 0x1115690806FF2775 PUSH1 0xC0 SHL PUSH2 0x12F1 JUMP JUMPDEST PUSH2 0xA65 PUSH8 0xA7BFE76BBA90BA35 PUSH1 0xC0 SHL PUSH2 0x12F1 JUMP JUMPDEST PUSH1 0x0 PUSH2 0xA70 DUP3 PUSH2 0x1397 JUMP JUMPDEST SWAP1 POP PUSH2 0xA86 PUSH8 0xFD12633C94CBE6F2 PUSH1 0xC0 SHL PUSH2 0x12F1 JUMP JUMPDEST PUSH2 0xA9A PUSH8 0x9765BD6F4B537E4E PUSH1 0xC0 SHL PUSH2 0x12F1 JUMP JUMPDEST PUSH2 0xAAE PUSH8 0xBE188E823419265A PUSH1 0xC0 SHL PUSH2 0x12F1 JUMP JUMPDEST DUP1 CALLVALUE LT ISZERO PUSH2 0xAF1 JUMPI PUSH1 0x40 MLOAD PUSH32 0x8C379A000000000000000000000000000000000000000000000000000000000 DUP2 MSTORE PUSH1 0x4 ADD PUSH2 0xAE8 SWAP1 PUSH2 0x23F7 JUMP JUMPDEST PUSH1 0x40 MLOAD DUP1 SWAP2 SUB SWAP1 REVERT JUMPDEST PUSH2 0xB05 PUSH8 0x7884D75965415B7C PUSH1 0xC0 SHL PUSH2 0x12F1 JUMP JUMPDEST PUSH2 0xB19 PUSH8 0xD5FEBE92AF2C7EB6 PUSH1 0xC0 SHL PUSH2 0x12F1 JUMP JUMPDEST PUSH2 0xB2D PUSH8 0x482192430A090939 PUSH1 0xC0 SHL PUSH2 0x12F1 JUMP JUMPDEST DUP1 CALLVALUE GT ISZERO PUSH2 0xB8A JUMPI PUSH2 0xB49 PUSH8 0xB0665F67CFA3C0D2 PUSH1 0xC0 SHL PUSH2 0x12F1 JUMP JUMPDEST PUSH2 0xB5D PUSH8 0xFEBEEDC0DD3B9A85 PUSH1 0xC0 SHL PUSH2 0x12F1 JUMP JUMPDEST PUSH2 0xB71 PUSH8 0xC8EC4032CEFD719C PUSH1 0xC0 SHL PUSH2 0x12F1 JUMP JUMPDEST PUSH2 0xB85 DUP2 CALLVALUE PUSH2 0xB80 SWAP2 SWAP1 PUSH2 0x2417 JUMP JUMPDEST PUSH2 0x13EF JUMP JUMPDEST PUSH2 0xB9F JUMP JUMPDEST PUSH2 0xB9E PUSH8 0x94751D39646082B8 PUSH1 0xC0 SHL PUSH2 0x12F1 JUMP JUMPDEST JUMPDEST PUSH2 0xBB3 PUSH8 0x2DBFAC2572DCE531 PUSH1 0xC0 SHL PUSH2 0x12F1 JUMP JUMPDEST PUSH2 0xBC7 PUSH8 0x23323A3A8496D926 PUSH1 0xC0 SHL PUSH2 0x12F1 JUMP JUMPDEST PUSH2 0xBD0 DUP3 PUSH2 0x1475 JUMP JUMPDEST POP POP JUMP JUMPDEST PUSH1 0x0 PUSH1 0x1 PUSH1 0x0 DUP5 PUSH20 0xFFFFFFFFFFFFFFFFFFFFFFFFFFFFFFFFFFFFFFFF AND PUSH20 0xFFFFFFFFFFFFFFFFFFFFFFFFFFFFFFFFFFFFFFFF AND DUP2 MSTORE PUSH1 0x20 ADD SWAP1 DUP2 MSTORE PUSH1 0x20 ADD PUSH1 0x0 KECCAK256 PUSH1 0x0 DUP4 PUSH20 0xFFFFFFFFFFFFFFFFFFFFFFFFFFFFFFFFFFFFFFFF AND PUSH20 0xFFFFFFFFFFFFFFFFFFFFFFFFFFFFFFFFFFFFFFFF AND DUP2 MSTORE PUSH1 0x20 ADD SWAP1 DUP2 MSTORE PUSH1 0x20 ADD PUSH1 0x0 KECCAK256 SLOAD SWAP1 POP SWAP3 SWAP2 POP POP JUMP JUMPDEST PUSH1 0x0 PUSH1 0x20 DUP4 MLOAD LT ISZERO PUSH2 0xC77 JUMPI PUSH2 0xC70 DUP4 PUSH2 0x1564 JUMP JUMPDEST SWAP1 POP PUSH2 0xC99 JUMP JUMPDEST DUP3 PUSH2 0xC81 DUP4 PUSH2 0xC9F JUMP JUMPDEST PUSH1 0x0 ADD SWAP1 DUP2 PUSH2 0xC90 SWAP2 SWAP1 PUSH2 0x25F7 JUMP JUMPDEST POP PUSH1 0xFF PUSH1 0x0 SHL SWAP1 POP JUMPDEST SWAP3 SWAP2 POP POP JUMP JUMPDEST PUSH1 0x0 DUP2 SWAP1 POP SWAP2 SWAP1 POP JUMP JUMPDEST PUSH1 0x0 CALLER SWAP1 POP SWAP1 JUMP JUMPDEST PUSH1 0x0 PUSH20 0xFFFFFFFFFFFFFFFFFFFFFFFFFFFFFFFFFFFFFFFF AND DUP4 PUSH20 0xFFFFFFFFFFFFFFFFFFFFFFFFFFFFFFFFFFFFFFFF AND SUB PUSH2 0xD20 JUMPI PUSH1 0x40 MLOAD PUSH32 0x8C379A000000000000000000000000000000000000000000000000000000000 DUP2 MSTORE PUSH1 0x4 ADD PUSH2 0xD17 SWAP1 PUSH2 0x273B JUMP JUMPDEST PUSH1 0x40 MLOAD DUP1 SWAP2 SUB SWAP1 REVERT JUMPDEST PUSH1 0x0 PUSH20 0xFFFFFFFFFFFFFFFFFFFFFFFFFFFFFFFFFFFFFFFF AND DUP3 PUSH20 0xFFFFFFFFFFFFFFFFFFFFFFFFFFFFFFFFFFFFFFFF AND SUB PUSH2 0xD8F JUMPI PUSH1 0x40 MLOAD PUSH32 0x8C379A000000000000000000000000000000000000000000000000000000000 DUP2 MSTORE PUSH1 0x4 ADD PUSH2 0xD86 SWAP1 PUSH2 0x27CD JUMP JUMPDEST PUSH1 0x40 MLOAD DUP1 SWAP2 SUB SWAP1 REVERT JUMPDEST DUP1 PUSH1 0x1 PUSH1 0x0 DUP6 PUSH20 0xFFFFFFFFFFFFFFFFFFFFFFFFFFFFFFFFFFFFFFFF AND PUSH20 0xFFFFFFFFFFFFFFFFFFFFFFFFFFFFFFFFFFFFFFFF AND DUP2 MSTORE PUSH1 0x20 ADD SWAP1 DUP2 MSTORE PUSH1 0x20 ADD PUSH1 0x0 KECCAK256 PUSH1 0x0 DUP5 PUSH20 0xFFFFFFFFFFFFFFFFFFFFFFFFFFFFFFFFFFFFFFFF AND PUSH20 0xFFFFFFFFFFFFFFFFFFFFFFFFFFFFFFFFFFFFFFFF AND DUP2 MSTORE PUSH1 0x20 ADD SWAP1 DUP2 MSTORE PUSH1 0x20 ADD PUSH1 0x0 KECCAK256 DUP2 SWAP1 SSTORE POP DUP2 PUSH20 0xFFFFFFFFFFFFFFFFFFFFFFFFFFFFFFFFFFFFFFFF AND DUP4 PUSH20 0xFFFFFFFFFFFFFFFFFFFFFFFFFFFFFFFFFFFFFFFF AND PUSH32 0x8C5BE1E5EBEC7D5BD14F71427D1E84F3DD0314C0F7B2291E5B200AC8C7C3B925 DUP4 PUSH1 0x40 MLOAD PUSH2 0xE6D SWAP2 SWAP1 PUSH2 0x1CF5 JUMP JUMPDEST PUSH1 0x40 MLOAD DUP1 SWAP2 SUB SWAP1 LOG3 POP POP POP JUMP JUMPDEST PUSH1 0x0 PUSH2 0xE86 DUP5 DUP5 PUSH2 0xBD4 JUMP JUMPDEST SWAP1 POP PUSH32 0xFFFFFFFFFFFFFFFFFFFFFFFFFFFFFFFFFFFFFFFFFFFFFFFFFFFFFFFFFFFFFFFF DUP2 EQ PUSH2 0xF00 JUMPI DUP2 DUP2 LT ISZERO PUSH2 0xEF2 JUMPI PUSH1 0x40 MLOAD PUSH32 0x8C379A000000000000000000000000000000000000000000000000000000000 DUP2 MSTORE PUSH1 0x4 ADD PUSH2 0xEE9 SWAP1 PUSH2 0x2839 JUMP JUMPDEST PUSH1 0x40 MLOAD DUP1 SWAP2 SUB SWAP1 REVERT JUMPDEST PUSH2 0xEFF DUP5 DUP5 DUP5 DUP5 SUB PUSH2 0xCB1 JUMP JUMPDEST JUMPDEST POP POP POP POP JUMP JUMPDEST PUSH1 0x0 PUSH20 0xFFFFFFFFFFFFFFFFFFFFFFFFFFFFFFFFFFFFFFFF AND DUP4 PUSH20 0xFFFFFFFFFFFFFFFFFFFFFFFFFFFFFFFFFFFFFFFF AND SUB PUSH2 0xF75 JUMPI PUSH1 0x40 MLOAD PUSH32 0x8C379A000000000000000000000000000000000000000000000000000000000 DUP2 MSTORE PUSH1 0x4 ADD PUSH2 0xF6C SWAP1 PUSH2 0x28CB JUMP JUMPDEST PUSH1 0x40 MLOAD DUP1 SWAP2 SUB SWAP1 REVERT JUMPDEST PUSH1 0x0 PUSH20 0xFFFFFFFFFFFFFFFFFFFFFFFFFFFFFFFFFFFFFFFF AND DUP3 PUSH20 0xFFFFFFFFFFFFFFFFFFFFFFFFFFFFFFFFFFFFFFFF AND SUB PUSH2 0xFE4 JUMPI PUSH1 0x40 MLOAD PUSH32 0x8C379A000000000000000000000000000000000000000000000000000000000 DUP2 MSTORE PUSH1 0x4 ADD PUSH2 0xFDB SWAP1 PUSH2 0x295D JUMP JUMPDEST PUSH1 0x40 MLOAD DUP1 SWAP2 SUB SWAP1 REVERT JUMPDEST PUSH2 0xFEF DUP4 DUP4 DUP4 PUSH2 0x15CC JUMP JUMPDEST PUSH1 0x0 DUP1 PUSH1 0x0 DUP6 PUSH20 0xFFFFFFFFFFFFFFFFFFFFFFFFFFFFFFFFFFFFFFFF AND PUSH20 0xFFFFFFFFFFFFFFFFFFFFFFFFFFFFFFFFFFFFFFFF AND DUP2 MSTORE PUSH1 0x20 ADD SWAP1 DUP2 MSTORE PUSH1 0x20 ADD PUSH1 0x0 KECCAK256 SLOAD SWAP1 POP DUP2 DUP2 LT ISZERO PUSH2 0x1075 JUMPI PUSH1 0x40 MLOAD PUSH32 0x8C379A000000000000000000000000000000000000000000000000000000000 DUP2 MSTORE PUSH1 0x4 ADD PUSH2 0x106C SWAP1 PUSH2 0x29EF JUMP JUMPDEST PUSH1 0x40 MLOAD DUP1 SWAP2 SUB SWAP1 REVERT JUMPDEST DUP2 DUP2 SUB PUSH1 0x0 DUP1 DUP7 PUSH20 0xFFFFFFFFFFFFFFFFFFFFFFFFFFFFFFFFFFFFFFFF AND PUSH20 0xFFFFFFFFFFFFFFFFFFFFFFFFFFFFFFFFFFFFFFFF AND DUP2 MSTORE PUSH1 0x20 ADD SWAP1 DUP2 MSTORE PUSH1 0x20 ADD PUSH1 0x0 KECCAK256 DUP2 SWAP1 SSTORE POP DUP2 PUSH1 0x0 DUP1 DUP6 PUSH20 0xFFFFFFFFFFFFFFFFFFFFFFFFFFFFFFFFFFFFFFFF AND PUSH20 0xFFFFFFFFFFFFFFFFFFFFFFFFFFFFFFFFFFFFFFFF AND DUP2 MSTORE PUSH1 0x20 ADD SWAP1 DUP2 MSTORE PUSH1 0x20 ADD PUSH1 0x0 KECCAK256 PUSH1 0x0 DUP3 DUP3 SLOAD ADD SWAP3 POP POP DUP2 SWAP1 SSTORE POP DUP3 PUSH20 0xFFFFFFFFFFFFFFFFFFFFFFFFFFFFFFFFFFFFFFFF AND DUP5 PUSH20 0xFFFFFFFFFFFFFFFFFFFFFFFFFFFFFFFFFFFFFFFF AND PUSH32 0xDDF252AD1BE2C89B69C2B068FC378DAA952BA7F163C4A11628F55A4DF523B3EF DUP5 PUSH1 0x40 MLOAD PUSH2 0x1163 SWAP2 SWAP1 PUSH2 0x1CF5 JUMP JUMPDEST PUSH1 0x40 MLOAD DUP1 SWAP2 SUB SWAP1 LOG3 PUSH2 0x1176 DUP5 DUP5 DUP5 PUSH2 0x15D1 JUMP JUMPDEST POP POP POP POP JUMP JUMPDEST PUSH1 0x0 PUSH32 0x0 PUSH20 0xFFFFFFFFFFFFFFFFFFFFFFFFFFFFFFFFFFFFFFFF AND ADDRESS PUSH20 0xFFFFFFFFFFFFFFFFFFFFFFFFFFFFFFFFFFFFFFFF AND EQ DUP1 ISZERO PUSH2 0x11F8 JUMPI POP PUSH32 0x0 CHAINID EQ JUMPDEST ISZERO PUSH2 0x1225 JUMPI PUSH32 0x0 SWAP1 POP PUSH2 0x1230 JUMP JUMPDEST PUSH2 0x122D PUSH2 0x15D6 JUMP JUMPDEST SWAP1 POP JUMPDEST SWAP1 JUMP JUMPDEST PUSH1 0x0 DUP2 PUSH1 0x0 ADD SLOAD SWAP1 POP SWAP2 SWAP1 POP JUMP JUMPDEST PUSH1 0x60 PUSH1 0xFF PUSH1 0x0 SHL DUP4 EQ PUSH2 0x125E JUMPI PUSH2 0x1257 DUP4 PUSH2 0x166C JUMP JUMPDEST SWAP1 POP PUSH2 0x12EB JUMP JUMPDEST DUP2 DUP1 SLOAD PUSH2 0x126A SWAP1 PUSH2 0x211D JUMP JUMPDEST DUP1 PUSH1 0x1F ADD PUSH1 0x20 DUP1 SWAP2 DIV MUL PUSH1 0x20 ADD PUSH1 0x40 MLOAD SWAP1 DUP2 ADD PUSH1 0x40 MSTORE DUP1 SWAP3 SWAP2 SWAP1 DUP2 DUP2 MSTORE PUSH1 0x20 ADD DUP3 DUP1 SLOAD PUSH2 0x1296 SWAP1 PUSH2 0x211D JUMP JUMPDEST DUP1 ISZERO PUSH2 0x12E3 JUMPI DUP1 PUSH1 0x1F LT PUSH2 0x12B8 JUMPI PUSH2 0x100 DUP1 DUP4 SLOAD DIV MUL DUP4 MSTORE SWAP2 PUSH1 0x20 ADD SWAP2 PUSH2 0x12E3 JUMP JUMPDEST DUP3 ADD SWAP2 SWAP1 PUSH1 0x0 MSTORE PUSH1 0x20 PUSH1 0x0 KECCAK256 SWAP1 JUMPDEST DUP2 SLOAD DUP2 MSTORE SWAP1 PUSH1 0x1 ADD SWAP1 PUSH1 0x20 ADD DUP1 DUP4 GT PUSH2 0x12C6 JUMPI DUP3 SWAP1 SUB PUSH1 0x1F AND DUP3 ADD SWAP2 JUMPDEST POP POP POP POP POP SWAP1 POP JUMPDEST SWAP3 SWAP2 POP POP JUMP JUMPDEST POP JUMP JUMPDEST PUSH1 0x0 DUP1 PUSH1 0x7 PUSH1 0x0 DUP5 PUSH20 0xFFFFFFFFFFFFFFFFFFFFFFFFFFFFFFFFFFFFFFFF AND PUSH20 0xFFFFFFFFFFFFFFFFFFFFFFFFFFFFFFFFFFFFFFFF AND DUP2 MSTORE PUSH1 0x20 ADD SWAP1 DUP2 MSTORE PUSH1 0x20 ADD PUSH1 0x0 KECCAK256 SWAP1 POP PUSH2 0x1341 DUP2 PUSH2 0x1233 JUMP JUMPDEST SWAP2 POP PUSH2 0x134C DUP2 PUSH2 0x16E0 JUMP JUMPDEST POP SWAP2 SWAP1 POP JUMP JUMPDEST PUSH1 0x0 PUSH2 0x1365 PUSH2 0x135F PUSH2 0x117C JUMP JUMPDEST DUP4 PUSH2 0x16F6 JUMP JUMPDEST SWAP1 POP SWAP2 SWAP1 POP JUMP JUMPDEST PUSH1 0x0 DUP1 PUSH1 0x0 PUSH2 0x137D DUP8 DUP8 DUP8 DUP8 PUSH2 0x1737 JUMP JUMPDEST SWAP2 POP SWAP2 POP PUSH2 0x138A DUP2 PUSH2 0x1819 JUMP JUMPDEST DUP2 SWAP3 POP POP POP SWAP5 SWAP4 POP POP POP POP JUMP JUMPDEST PUSH1 0x0 PUSH2 0x13AD PUSH8 0xC84EFF79A108C8BE PUSH1 0xC0 SHL PUSH2 0x12F1 JUMP JUMPDEST PUSH2 0x13C1 PUSH8 0x662358958075B975 PUSH1 0xC0 SHL PUSH2 0x12F1 JUMP JUMPDEST PUSH2 0x13D5 PUSH8 0x8DEF036CE06136E7 PUSH1 0xC0 SHL PUSH2 0x12F1 JUMP JUMPDEST DUP2 PUSH2 0x13DE PUSH2 0x802 JUMP JUMPDEST PUSH2 0x13E8 SWAP2 SWAP1 PUSH2 0x2A0F JUMP JUMPDEST SWAP1 POP SWAP2 SWAP1 POP JUMP JUMPDEST PUSH2 0x1403 PUSH8 0xD9C909C8CEEBA261 PUSH1 0xC0 SHL PUSH2 0x12F1 JUMP JUMPDEST PUSH2 0x1417 PUSH8 0x8CA8E41DB1CC33B8 PUSH1 0xC0 SHL PUSH2 0x12F1 JUMP JUMPDEST PUSH2 0x142B PUSH8 0xB7E0C4606001BCD4 PUSH1 0xC0 SHL PUSH2 0x12F1 JUMP JUMPDEST CALLER PUSH20 0xFFFFFFFFFFFFFFFFFFFFFFFFFFFFFFFFFFFFFFFF AND PUSH2 0x8FC DUP3 SWAP1 DUP2 ISZERO MUL SWAP1 PUSH1 0x40 MLOAD PUSH1 0x0 PUSH1 0x40 MLOAD DUP1 DUP4 SUB DUP2 DUP6 DUP9 DUP9 CALL SWAP4 POP POP POP POP ISZERO DUP1 ISZERO PUSH2 0x1471 JUMPI RETURNDATASIZE PUSH1 0x0 DUP1 RETURNDATACOPY RETURNDATASIZE PUSH1 0x0 REVERT JUMPDEST POP POP JUMP JUMPDEST PUSH2 0x1489 PUSH8 0xC03CE0E6BB955A39 PUSH1 0xC0 SHL PUSH2 0x12F1 JUMP JUMPDEST PUSH2 0x149D PUSH8 0xB7C12ED61109B614 PUSH1 0xC0 SHL PUSH2 0x12F1 JUMP JUMPDEST PUSH2 0x14B1 PUSH8 0x6F07A34087A29215 PUSH1 0xC0 SHL PUSH2 0x12F1 JUMP JUMPDEST PUSH2 0x14C5 PUSH8 0x5654CFD3018EA79A PUSH1 0xC0 SHL PUSH2 0x12F1 JUMP JUMPDEST PUSH2 0x14CD PUSH2 0x54E JUMP JUMPDEST PUSH1 0x9 SLOAD PUSH2 0x14DA SWAP2 SWAP1 PUSH2 0x2417 JUMP JUMPDEST DUP2 LT PUSH2 0x151B JUMPI PUSH1 0x40 MLOAD PUSH32 0x8C379A000000000000000000000000000000000000000000000000000000000 DUP2 MSTORE PUSH1 0x4 ADD PUSH2 0x1512 SWAP1 PUSH2 0x2A9D JUMP JUMPDEST PUSH1 0x40 MLOAD DUP1 SWAP2 SUB SWAP1 REVERT JUMPDEST PUSH2 0x152F PUSH8 0xAD71268D2EC1A2E7 PUSH1 0xC0 SHL PUSH2 0x12F1 JUMP JUMPDEST PUSH2 0x1543 PUSH8 0x8B4BC6A66A6127AF PUSH1 0xC0 SHL PUSH2 0x12F1 JUMP JUMPDEST PUSH2 0x1557 PUSH8 0xB6111D2E6842DDA3 PUSH1 0xC0 SHL PUSH2 0x12F1 JUMP JUMPDEST PUSH2 0x1561 CALLER DUP3 PUSH2 0x197F JUMP JUMPDEST POP JUMP JUMPDEST PUSH1 0x0 DUP1 DUP3 SWAP1 POP PUSH1 0x1F DUP2 MLOAD GT ISZERO PUSH2 0x15B1 JUMPI DUP3 PUSH1 0x40 MLOAD PUSH32 0x305A27A900000000000000000000000000000000000000000000000000000000 DUP2 MSTORE PUSH1 0x4 ADD PUSH2 0x15A8 SWAP2 SWAP1 PUSH2 0x1BB5 JUMP JUMPDEST PUSH1 0x40 MLOAD DUP1 SWAP2 SUB SWAP1 REVERT JUMPDEST DUP1 MLOAD DUP2 PUSH2 0x15BD SWAP1 PUSH2 0x2AED JUMP JUMPDEST PUSH1 0x0 SHR OR PUSH1 0x0 SHL SWAP2 POP POP SWAP2 SWAP1 POP JUMP JUMPDEST POP POP POP JUMP JUMPDEST POP POP POP JUMP JUMPDEST PUSH1 0x0 PUSH32 0x8B73C3C69BB8FE3D512ECC4CF759CC79239F7B179B0FFACAA9A75D522B39400F PUSH32 0x0 PUSH32 0x0 CHAINID ADDRESS PUSH1 0x40 MLOAD PUSH1 0x20 ADD PUSH2 0x1651 SWAP6 SWAP5 SWAP4 SWAP3 SWAP2 SWAP1 PUSH2 0x2B54 JUMP JUMPDEST PUSH1 0x40 MLOAD PUSH1 0x20 DUP2 DUP4 SUB SUB DUP2 MSTORE SWAP1 PUSH1 0x40 MSTORE DUP1 MLOAD SWAP1 PUSH1 0x20 ADD KECCAK256 SWAP1 POP SWAP1 JUMP JUMPDEST PUSH1 0x60 PUSH1 0x0 PUSH2 0x1679 DUP4 PUSH2 0x1AD5 JUMP JUMPDEST SWAP1 POP PUSH1 0x0 PUSH1 0x20 PUSH8 0xFFFFFFFFFFFFFFFF DUP2 GT ISZERO PUSH2 0x1698 JUMPI PUSH2 0x1697 PUSH2 0x21B1 JUMP JUMPDEST JUMPDEST PUSH1 0x40 MLOAD SWAP1 DUP1 DUP3 MSTORE DUP1 PUSH1 0x1F ADD PUSH1 0x1F NOT AND PUSH1 0x20 ADD DUP3 ADD PUSH1 0x40 MSTORE DUP1 ISZERO PUSH2 0x16CA JUMPI DUP2 PUSH1 0x20 ADD PUSH1 0x1 DUP3 MUL DUP1 CALLDATASIZE DUP4 CALLDATACOPY DUP1 DUP3 ADD SWAP2 POP POP SWAP1 POP JUMPDEST POP SWAP1 POP DUP2 DUP2 MSTORE DUP4 PUSH1 0x20 DUP3 ADD MSTORE DUP1 SWAP3 POP POP POP SWAP2 SWAP1 POP JUMP JUMPDEST PUSH1 0x1 DUP2 PUSH1 0x0 ADD PUSH1 0x0 DUP3 DUP3 SLOAD ADD SWAP3 POP POP DUP2 SWAP1 SSTORE POP POP JUMP JUMPDEST PUSH1 0x0 PUSH1 0x40 MLOAD PUSH32 0x1901000000000000000000000000000000000000000000000000000000000000 DUP2 MSTORE DUP4 PUSH1 0x2 DUP3 ADD MSTORE DUP3 PUSH1 0x22 DUP3 ADD MSTORE PUSH1 0x42 DUP2 KECCAK256 SWAP2 POP POP SWAP3 SWAP2 POP POP JUMP JUMPDEST PUSH1 0x0 DUP1 PUSH32 0x7FFFFFFFFFFFFFFFFFFFFFFFFFFFFFFF5D576E7357A4501DDFE92F46681B20A0 DUP4 PUSH1 0x0 SHR GT ISZERO PUSH2 0x1772 JUMPI PUSH1 0x0 PUSH1 0x3 SWAP2 POP SWAP2 POP PUSH2 0x1810 JUMP JUMPDEST PUSH1 0x0 PUSH1 0x1 DUP8 DUP8 DUP8 DUP8 PUSH1 0x40 MLOAD PUSH1 0x0 DUP2 MSTORE PUSH1 0x20 ADD PUSH1 0x40 MSTORE PUSH1 0x40 MLOAD PUSH2 0x1797 SWAP5 SWAP4 SWAP3 SWAP2 SWAP1 PUSH2 0x2BA7 JUMP JUMPDEST PUSH1 0x20 PUSH1 0x40 MLOAD PUSH1 0x20 DUP2 SUB SWAP1 DUP1 DUP5 SUB SWAP1 DUP6 GAS STATICCALL ISZERO DUP1 ISZERO PUSH2 0x17B9 JUMPI RETURNDATASIZE PUSH1 0x0 DUP1 RETURNDATACOPY RETURNDATASIZE PUSH1 0x0 REVERT JUMPDEST POP POP POP PUSH1 0x20 PUSH1 0x40 MLOAD SUB MLOAD SWAP1 POP PUSH1 0x0 PUSH20 0xFFFFFFFFFFFFFFFFFFFFFFFFFFFFFFFFFFFFFFFF AND DUP2 PUSH20 0xFFFFFFFFFFFFFFFFFFFFFFFFFFFFFFFFFFFFFFFF AND SUB PUSH2 0x1807 JUMPI PUSH1 0x0 PUSH1 0x1 SWAP3 POP SWAP3 POP POP PUSH2 0x1810 JUMP JUMPDEST DUP1 PUSH1 0x0 SWAP3 POP SWAP3 POP POP JUMPDEST SWAP5 POP SWAP5 SWAP3 POP POP POP JUMP JUMPDEST PUSH1 0x0 PUSH1 0x4 DUP2 GT ISZERO PUSH2 0x182D JUMPI PUSH2 0x182C PUSH2 0x2BEC JUMP JUMPDEST JUMPDEST DUP2 PUSH1 0x4 DUP2 GT ISZERO PUSH2 0x1840 JUMPI PUSH2 0x183F PUSH2 0x2BEC JUMP JUMPDEST JUMPDEST SUB ISZERO PUSH2 0x197C JUMPI PUSH1 0x1 PUSH1 0x4 DUP2 GT ISZERO PUSH2 0x185A JUMPI PUSH2 0x1859 PUSH2 0x2BEC JUMP JUMPDEST JUMPDEST DUP2 PUSH1 0x4 DUP2 GT ISZERO PUSH2 0x186D JUMPI PUSH2 0x186C PUSH2 0x2BEC JUMP JUMPDEST JUMPDEST SUB PUSH2 0x18AD JUMPI PUSH1 0x40 MLOAD PUSH32 0x8C379A000000000000000000000000000000000000000000000000000000000 DUP2 MSTORE PUSH1 0x4 ADD PUSH2 0x18A4 SWAP1 PUSH2 0x2C67 JUMP JUMPDEST PUSH1 0x40 MLOAD DUP1 SWAP2 SUB SWAP1 REVERT JUMPDEST PUSH1 0x2 PUSH1 0x4 DUP2 GT ISZERO PUSH2 0x18C1 JUMPI PUSH2 0x18C0 PUSH2 0x2BEC JUMP JUMPDEST JUMPDEST DUP2 PUSH1 0x4 DUP2 GT ISZERO PUSH2 0x18D4 JUMPI PUSH2 0x18D3 PUSH2 0x2BEC JUMP JUMPDEST JUMPDEST SUB PUSH2 0x1914 JUMPI PUSH1 0x40 MLOAD PUSH32 0x8C379A000000000000000000000000000000000000000000000000000000000 DUP2 MSTORE PUSH1 0x4 ADD PUSH2 0x190B SWAP1 PUSH2 0x2CD3 JUMP JUMPDEST PUSH1 0x40 MLOAD DUP1 SWAP2 SUB SWAP1 REVERT JUMPDEST PUSH1 0x3 PUSH1 0x4 DUP2 GT ISZERO PUSH2 0x1928 JUMPI PUSH2 0x1927 PUSH2 0x2BEC JUMP JUMPDEST JUMPDEST DUP2 PUSH1 0x4 DUP2 GT ISZERO PUSH2 0x193B JUMPI PUSH2 0x193A PUSH2 0x2BEC JUMP JUMPDEST JUMPDEST SUB PUSH2 0x197B JUMPI PUSH1 0x40 MLOAD PUSH32 0x8C379A000000000000000000000000000000000000000000000000000000000 DUP2 MSTORE PUSH1 0x4 ADD PUSH2 0x1972 SWAP1 PUSH2 0x2D65 JUMP JUMPDEST PUSH1 0x40 MLOAD DUP1 SWAP2 SUB SWAP1 REVERT JUMPDEST JUMPDEST POP JUMP JUMPDEST PUSH1 0x0 PUSH20 0xFFFFFFFFFFFFFFFFFFFFFFFFFFFFFFFFFFFFFFFF AND DUP3 PUSH20 0xFFFFFFFFFFFFFFFFFFFFFFFFFFFFFFFFFFFFFFFF AND SUB PUSH2 0x19EE JUMPI PUSH1 0x40 MLOAD PUSH32 0x8C379A000000000000000000000000000000000000000000000000000000000 DUP2 MSTORE PUSH1 0x4 ADD PUSH2 0x19E5 SWAP1 PUSH2 0x2DD1 JUMP JUMPDEST PUSH1 0x40 MLOAD DUP1 SWAP2 SUB SWAP1 REVERT JUMPDEST PUSH2 0x19FA PUSH1 0x0 DUP4 DUP4 PUSH2 0x15CC JUMP JUMPDEST DUP1 PUSH1 0x2 PUSH1 0x0 DUP3 DUP3 SLOAD PUSH2 0x1A0C SWAP2 SWAP1 PUSH2 0x217D JUMP JUMPDEST SWAP3 POP POP DUP2 SWAP1 SSTORE POP DUP1 PUSH1 0x0 DUP1 DUP5 PUSH20 0xFFFFFFFFFFFFFFFFFFFFFFFFFFFFFFFFFFFFFFFF AND PUSH20 0xFFFFFFFFFFFFFFFFFFFFFFFFFFFFFFFFFFFFFFFF AND DUP2 MSTORE PUSH1 0x20 ADD SWAP1 DUP2 MSTORE PUSH1 0x20 ADD PUSH1 0x0 KECCAK256 PUSH1 0x0 DUP3 DUP3 SLOAD ADD SWAP3 POP POP DUP2 SWAP1 SSTORE POP DUP2 PUSH20 0xFFFFFFFFFFFFFFFFFFFFFFFFFFFFFFFFFFFFFFFF AND PUSH1 0x0 PUSH20 0xFFFFFFFFFFFFFFFFFFFFFFFFFFFFFFFFFFFFFFFF AND PUSH32 0xDDF252AD1BE2C89B69C2B068FC378DAA952BA7F163C4A11628F55A4DF523B3EF DUP4 PUSH1 0x40 MLOAD PUSH2 0x1ABD SWAP2 SWAP1 PUSH2 0x1CF5 JUMP JUMPDEST PUSH1 0x40 MLOAD DUP1 SWAP2 SUB SWAP1 LOG3 PUSH2 0x1AD1 PUSH1 0x0 DUP4 DUP4 PUSH2 0x15D1 JUMP JUMPDEST POP POP JUMP JUMPDEST PUSH1 0x0 DUP1 PUSH1 0xFF DUP4 PUSH1 0x0 SHR AND SWAP1 POP PUSH1 0x1F DUP2 GT ISZERO PUSH2 0x1B1C JUMPI PUSH1 0x40 MLOAD PUSH32 0xB3512B0C00000000000000000000000000000000000000000000000000000000 DUP2 MSTORE PUSH1 0x4 ADD PUSH1 0x40 MLOAD DUP1 SWAP2 SUB SWAP1 REVERT JUMPDEST DUP1 SWAP2 POP POP SWAP2 SWAP1 POP JUMP JUMPDEST PUSH1 0x0 DUP2 MLOAD SWAP1 POP SWAP2 SWAP1 POP JUMP JUMPDEST PUSH1 0x0 DUP3 DUP3 MSTORE PUSH1 0x20 DUP3 ADD SWAP1 POP SWAP3 SWAP2 POP POP JUMP JUMPDEST PUSH1 0x0 JUMPDEST DUP4 DUP2 LT ISZERO PUSH2 0x1B5F JUMPI DUP1 DUP3 ADD MLOAD DUP2 DUP5 ADD MSTORE PUSH1 0x20 DUP2 ADD SWAP1 POP PUSH2 0x1B44 JUMP JUMPDEST PUSH1 0x0 DUP5 DUP5 ADD MSTORE POP POP POP POP JUMP JUMPDEST PUSH1 0x0 PUSH1 0x1F NOT PUSH1 0x1F DUP4 ADD AND SWAP1 POP SWAP2 SWAP1 POP JUMP JUMPDEST PUSH1 0x0 PUSH2 0x1B87 DUP3 PUSH2 0x1B25 JUMP JUMPDEST PUSH2 0x1B91 DUP2 DUP6 PUSH2 0x1B30 JUMP JUMPDEST SWAP4 POP PUSH2 0x1BA1 DUP2 DUP6 PUSH1 0x20 DUP7 ADD PUSH2 0x1B41 JUMP JUMPDEST PUSH2 0x1BAA DUP2 PUSH2 0x1B6B JUMP JUMPDEST DUP5 ADD SWAP2 POP POP SWAP3 SWAP2 POP POP JUMP JUMPDEST PUSH1 0x0 PUSH1 0x20 DUP3 ADD SWAP1 POP DUP2 DUP2 SUB PUSH1 0x0 DUP4 ADD MSTORE PUSH2 0x1BCF DUP2 DUP5 PUSH2 0x1B7C JUMP JUMPDEST SWAP1 POP SWAP3 SWAP2 POP POP JUMP JUMPDEST PUSH1 0x0 DUP1 REVERT JUMPDEST PUSH1 0x0 PUSH20 0xFFFFFFFFFFFFFFFFFFFFFFFFFFFFFFFFFFFFFFFF DUP3 AND SWAP1 POP SWAP2 SWAP1 POP JUMP JUMPDEST PUSH1 0x0 PUSH2 0x1C07 DUP3 PUSH2 0x1BDC JUMP JUMPDEST SWAP1 POP SWAP2 SWAP1 POP JUMP JUMPDEST PUSH2 0x1C17 DUP2 PUSH2 0x1BFC JUMP JUMPDEST DUP2 EQ PUSH2 0x1C22 JUMPI PUSH1 0x0 DUP1 REVERT JUMPDEST POP JUMP JUMPDEST PUSH1 0x0 DUP2 CALLDATALOAD SWAP1 POP PUSH2 0x1C34 DUP2 PUSH2 0x1C0E JUMP JUMPDEST SWAP3 SWAP2 POP POP JUMP JUMPDEST PUSH1 0x0 DUP2 SWAP1 POP SWAP2 SWAP1 POP JUMP JUMPDEST PUSH2 0x1C4D DUP2 PUSH2 0x1C3A JUMP JUMPDEST DUP2 EQ PUSH2 0x1C58 JUMPI PUSH1 0x0 DUP1 REVERT JUMPDEST POP JUMP JUMPDEST PUSH1 0x0 DUP2 CALLDATALOAD SWAP1 POP PUSH2 0x1C6A DUP2 PUSH2 0x1C44 JUMP JUMPDEST SWAP3 SWAP2 POP POP JUMP JUMPDEST PUSH1 0x0 DUP1 PUSH1 0x40 DUP4 DUP6 SUB SLT ISZERO PUSH2 0x1C87 JUMPI PUSH2 0x1C86 PUSH2 0x1BD7 JUMP JUMPDEST JUMPDEST PUSH1 0x0 PUSH2 0x1C95 DUP6 DUP3 DUP7 ADD PUSH2 0x1C25 JUMP JUMPDEST SWAP3 POP POP PUSH1 0x20 PUSH2 0x1CA6 DUP6 DUP3 DUP7 ADD PUSH2 0x1C5B JUMP JUMPDEST SWAP2 POP POP SWAP3 POP SWAP3 SWAP1 POP JUMP JUMPDEST PUSH1 0x0 DUP2 ISZERO ISZERO SWAP1 POP SWAP2 SWAP1 POP JUMP JUMPDEST PUSH2 0x1CC5 DUP2 PUSH2 0x1CB0 JUMP JUMPDEST DUP3 MSTORE POP POP JUMP JUMPDEST PUSH1 0x0 PUSH1 0x20 DUP3 ADD SWAP1 POP PUSH2 0x1CE0 PUSH1 0x0 DUP4 ADD DUP5 PUSH2 0x1CBC JUMP JUMPDEST SWAP3 SWAP2 POP POP JUMP JUMPDEST PUSH2 0x1CEF DUP2 PUSH2 0x1C3A JUMP JUMPDEST DUP3 MSTORE POP POP JUMP JUMPDEST PUSH1 0x0 PUSH1 0x20 DUP3 ADD SWAP1 POP PUSH2 0x1D0A PUSH1 0x0 DUP4 ADD DUP5 PUSH2 0x1CE6 JUMP JUMPDEST SWAP3 SWAP2 POP POP JUMP JUMPDEST PUSH1 0x0 DUP1 PUSH1 0x0 PUSH1 0x60 DUP5 DUP7 SUB SLT ISZERO PUSH2 0x1D29 JUMPI PUSH2 0x1D28 PUSH2 0x1BD7 JUMP JUMPDEST JUMPDEST PUSH1 0x0 PUSH2 0x1D37 DUP7 DUP3 DUP8 ADD PUSH2 0x1C25 JUMP JUMPDEST SWAP4 POP POP PUSH1 0x20 PUSH2 0x1D48 DUP7 DUP3 DUP8 ADD PUSH2 0x1C25 JUMP JUMPDEST SWAP3 POP POP PUSH1 0x40 PUSH2 0x1D59 DUP7 DUP3 DUP8 ADD PUSH2 0x1C5B JUMP JUMPDEST SWAP2 POP POP SWAP3 POP SWAP3 POP SWAP3 JUMP JUMPDEST PUSH1 0x0 PUSH1 0xFF DUP3 AND SWAP1 POP SWAP2 SWAP1 POP JUMP JUMPDEST PUSH2 0x1D79 DUP2 PUSH2 0x1D63 JUMP JUMPDEST DUP3 MSTORE POP POP JUMP JUMPDEST PUSH1 0x0 PUSH1 0x20 DUP3 ADD SWAP1 POP PUSH2 0x1D94 PUSH1 0x0 DUP4 ADD DUP5 PUSH2 0x1D70 JUMP JUMPDEST SWAP3 SWAP2 POP POP JUMP JUMPDEST PUSH1 0x0 DUP2 SWAP1 POP SWAP2 SWAP1 POP JUMP JUMPDEST PUSH2 0x1DAD DUP2 PUSH2 0x1D9A JUMP JUMPDEST DUP3 MSTORE POP POP JUMP JUMPDEST PUSH1 0x0 PUSH1 0x20 DUP3 ADD SWAP1 POP PUSH2 0x1DC8 PUSH1 0x0 DUP4 ADD DUP5 PUSH2 0x1DA4 JUMP JUMPDEST SWAP3 SWAP2 POP POP JUMP JUMPDEST PUSH1 0x0 PUSH1 0x20 DUP3 DUP5 SUB SLT ISZERO PUSH2 0x1DE4 JUMPI PUSH2 0x1DE3 PUSH2 0x1BD7 JUMP JUMPDEST JUMPDEST PUSH1 0x0 PUSH2 0x1DF2 DUP5 DUP3 DUP6 ADD PUSH2 0x1C25 JUMP JUMPDEST SWAP2 POP POP SWAP3 SWAP2 POP POP JUMP JUMPDEST PUSH1 0x0 PUSH32 0xFF00000000000000000000000000000000000000000000000000000000000000 DUP3 AND SWAP1 POP SWAP2 SWAP1 POP JUMP JUMPDEST PUSH2 0x1E30 DUP2 PUSH2 0x1DFB JUMP JUMPDEST DUP3 MSTORE POP POP JUMP JUMPDEST PUSH2 0x1E3F DUP2 PUSH2 0x1BFC JUMP JUMPDEST DUP3 MSTORE POP POP JUMP JUMPDEST PUSH1 0x0 DUP2 MLOAD SWAP1 POP SWAP2 SWAP1 POP JUMP JUMPDEST PUSH1 0x0 DUP3 DUP3 MSTORE PUSH1 0x20 DUP3 ADD SWAP1 POP SWAP3 SWAP2 POP POP JUMP JUMPDEST PUSH1 0x0 DUP2 SWAP1 POP PUSH1 0x20 DUP3 ADD SWAP1 POP SWAP2 SWAP1 POP JUMP JUMPDEST PUSH2 0x1E7A DUP2 PUSH2 0x1C3A JUMP JUMPDEST DUP3 MSTORE POP POP JUMP JUMPDEST PUSH1 0x0 PUSH2 0x1E8C DUP4 DUP4 PUSH2 0x1E71 JUMP JUMPDEST PUSH1 0x20 DUP4 ADD SWAP1 POP SWAP3 SWAP2 POP POP JUMP JUMPDEST PUSH1 0x0 PUSH1 0x20 DUP3 ADD SWAP1 POP SWAP2 SWAP1 POP JUMP JUMPDEST PUSH1 0x0 PUSH2 0x1EB0 DUP3 PUSH2 0x1E45 JUMP JUMPDEST PUSH2 0x1EBA DUP2 DUP6 PUSH2 0x1E50 JUMP JUMPDEST SWAP4 POP PUSH2 0x1EC5 DUP4 PUSH2 0x1E61 JUMP JUMPDEST DUP1 PUSH1 0x0 JUMPDEST DUP4 DUP2 LT ISZERO PUSH2 0x1EF6 JUMPI DUP2 MLOAD PUSH2 0x1EDD DUP9 DUP3 PUSH2 0x1E80 JUMP JUMPDEST SWAP8 POP PUSH2 0x1EE8 DUP4 PUSH2 0x1E98 JUMP JUMPDEST SWAP3 POP POP PUSH1 0x1 DUP2 ADD SWAP1 POP PUSH2 0x1EC9 JUMP JUMPDEST POP DUP6 SWAP4 POP POP POP POP SWAP3 SWAP2 POP POP JUMP JUMPDEST PUSH1 0x0 PUSH1 0xE0 DUP3 ADD SWAP1 POP PUSH2 0x1F18 PUSH1 0x0 DUP4 ADD DUP11 PUSH2 0x1E27 JUMP JUMPDEST DUP2 DUP2 SUB PUSH1 0x20 DUP4 ADD MSTORE PUSH2 0x1F2A DUP2 DUP10 PUSH2 0x1B7C JUMP JUMPDEST SWAP1 POP DUP2 DUP2 SUB PUSH1 0x40 DUP4 ADD MSTORE PUSH2 0x1F3E DUP2 DUP9 PUSH2 0x1B7C JUMP JUMPDEST SWAP1 POP PUSH2 0x1F4D PUSH1 0x60 DUP4 ADD DUP8 PUSH2 0x1CE6 JUMP JUMPDEST PUSH2 0x1F5A PUSH1 0x80 DUP4 ADD DUP7 PUSH2 0x1E36 JUMP JUMPDEST PUSH2 0x1F67 PUSH1 0xA0 DUP4 ADD DUP6 PUSH2 0x1DA4 JUMP JUMPDEST DUP2 DUP2 SUB PUSH1 0xC0 DUP4 ADD MSTORE PUSH2 0x1F79 DUP2 DUP5 PUSH2 0x1EA5 JUMP JUMPDEST SWAP1 POP SWAP9 SWAP8 POP POP POP POP POP POP POP POP JUMP JUMPDEST PUSH2 0x1F90 DUP2 PUSH2 0x1D63 JUMP JUMPDEST DUP2 EQ PUSH2 0x1F9B JUMPI PUSH1 0x0 DUP1 REVERT JUMPDEST POP JUMP JUMPDEST PUSH1 0x0 DUP2 CALLDATALOAD SWAP1 POP PUSH2 0x1FAD DUP2 PUSH2 0x1F87 JUMP JUMPDEST SWAP3 SWAP2 POP POP JUMP JUMPDEST PUSH2 0x1FBC DUP2 PUSH2 0x1D9A JUMP JUMPDEST DUP2 EQ PUSH2 0x1FC7 JUMPI PUSH1 0x0 DUP1 REVERT JUMPDEST POP JUMP JUMPDEST PUSH1 0x0 DUP2 CALLDATALOAD SWAP1 POP PUSH2 0x1FD9 DUP2 PUSH2 0x1FB3 JUMP JUMPDEST SWAP3 SWAP2 POP POP JUMP JUMPDEST PUSH1 0x0 DUP1 PUSH1 0x0 DUP1 PUSH1 0x0 DUP1 PUSH1 0x0 PUSH1 0xE0 DUP9 DUP11 SUB SLT ISZERO PUSH2 0x1FFE JUMPI PUSH2 0x1FFD PUSH2 0x1BD7 JUMP JUMPDEST JUMPDEST PUSH1 0x0 PUSH2 0x200C DUP11 DUP3 DUP12 ADD PUSH2 0x1C25 JUMP JUMPDEST SWAP8 POP POP PUSH1 0x20 PUSH2 0x201D DUP11 DUP3 DUP12 ADD PUSH2 0x1C25 JUMP JUMPDEST SWAP7 POP POP PUSH1 0x40 PUSH2 0x202E DUP11 DUP3 DUP12 ADD PUSH2 0x1C5B JUMP JUMPDEST SWAP6 POP POP PUSH1 0x60 PUSH2 0x203F DUP11 DUP3 DUP12 ADD PUSH2 0x1C5B JUMP JUMPDEST SWAP5 POP POP PUSH1 0x80 PUSH2 0x2050 DUP11 DUP3 DUP12 ADD PUSH2 0x1F9E JUMP JUMPDEST SWAP4 POP POP PUSH1 0xA0 PUSH2 0x2061 DUP11 DUP3 DUP12 ADD PUSH2 0x1FCA JUMP JUMPDEST SWAP3 POP POP PUSH1 0xC0 PUSH2 0x2072 DUP11 DUP3 DUP12 ADD PUSH2 0x1FCA JUMP JUMPDEST SWAP2 POP POP SWAP3 SWAP6 SWAP9 SWAP2 SWAP5 SWAP8 POP SWAP3 SWAP6 POP JUMP JUMPDEST PUSH1 0x0 PUSH1 0x20 DUP3 DUP5 SUB SLT ISZERO PUSH2 0x2097 JUMPI PUSH2 0x2096 PUSH2 0x1BD7 JUMP JUMPDEST JUMPDEST PUSH1 0x0 PUSH2 0x20A5 DUP5 DUP3 DUP6 ADD PUSH2 0x1C5B JUMP JUMPDEST SWAP2 POP POP SWAP3 SWAP2 POP POP JUMP JUMPDEST PUSH1 0x0 DUP1 PUSH1 0x40 DUP4 DUP6 SUB SLT ISZERO PUSH2 0x20C5 JUMPI PUSH2 0x20C4 PUSH2 0x1BD7 JUMP JUMPDEST JUMPDEST PUSH1 0x0 PUSH2 0x20D3 DUP6 DUP3 DUP7 ADD PUSH2 0x1C25 JUMP JUMPDEST SWAP3 POP POP PUSH1 0x20 PUSH2 0x20E4 DUP6 DUP3 DUP7 ADD PUSH2 0x1C25 JUMP JUMPDEST SWAP2 POP POP SWAP3 POP SWAP3 SWAP1 POP JUMP JUMPDEST PUSH32 0x4E487B7100000000000000000000000000000000000000000000000000000000 PUSH1 0x0 MSTORE PUSH1 0x22 PUSH1 0x4 MSTORE PUSH1 0x24 PUSH1 0x0 REVERT JUMPDEST PUSH1 0x0 PUSH1 0x2 DUP3 DIV SWAP1 POP PUSH1 0x1 DUP3 AND DUP1 PUSH2 0x2135 JUMPI PUSH1 0x7F DUP3 AND SWAP2 POP JUMPDEST PUSH1 0x20 DUP3 LT DUP2 SUB PUSH2 0x2148 JUMPI PUSH2 0x2147 PUSH2 0x20EE JUMP JUMPDEST JUMPDEST POP SWAP2 SWAP1 POP JUMP JUMPDEST PUSH32 0x4E487B7100000000000000000000000000000000000000000000000000000000 PUSH1 0x0 MSTORE PUSH1 0x11 PUSH1 0x4 MSTORE PUSH1 0x24 PUSH1 0x0 REVERT JUMPDEST PUSH1 0x0 PUSH2 0x2188 DUP3 PUSH2 0x1C3A JUMP JUMPDEST SWAP2 POP PUSH2 0x2193 DUP4 PUSH2 0x1C3A JUMP JUMPDEST SWAP3 POP DUP3 DUP3 ADD SWAP1 POP DUP1 DUP3 GT ISZERO PUSH2 0x21AB JUMPI PUSH2 0x21AA PUSH2 0x214E JUMP JUMPDEST JUMPDEST SWAP3 SWAP2 POP POP JUMP JUMPDEST PUSH32 0x4E487B7100000000000000000000000000000000000000000000000000000000 PUSH1 0x0 MSTORE PUSH1 0x41 PUSH1 0x4 MSTORE PUSH1 0x24 PUSH1 0x0 REVERT JUMPDEST PUSH32 0x45524332303A2064656372656173656420616C6C6F77616E63652062656C6F77 PUSH1 0x0 DUP3 ADD MSTORE PUSH32 0x207A65726F000000000000000000000000000000000000000000000000000000 PUSH1 0x20 DUP3 ADD MSTORE POP JUMP JUMPDEST PUSH1 0x0 PUSH2 0x223C PUSH1 0x25 DUP4 PUSH2 0x1B30 JUMP JUMPDEST SWAP2 POP PUSH2 0x2247 DUP3 PUSH2 0x21E0 JUMP JUMPDEST PUSH1 0x40 DUP3 ADD SWAP1 POP SWAP2 SWAP1 POP JUMP JUMPDEST PUSH1 0x0 PUSH1 0x20 DUP3 ADD SWAP1 POP DUP2 DUP2 SUB PUSH1 0x0 DUP4 ADD MSTORE PUSH2 0x226B DUP2 PUSH2 0x222F JUMP JUMPDEST SWAP1 POP SWAP2 SWAP1 POP JUMP JUMPDEST PUSH32 0x45524332305065726D69743A206578706972656420646561646C696E65000000 PUSH1 0x0 DUP3 ADD MSTORE POP JUMP JUMPDEST PUSH1 0x0 PUSH2 0x22A8 PUSH1 0x1D DUP4 PUSH2 0x1B30 JUMP JUMPDEST SWAP2 POP PUSH2 0x22B3 DUP3 PUSH2 0x2272 JUMP JUMPDEST PUSH1 0x20 DUP3 ADD SWAP1 POP SWAP2 SWAP1 POP JUMP JUMPDEST PUSH1 0x0 PUSH1 0x20 DUP3 ADD SWAP1 POP DUP2 DUP2 SUB PUSH1 0x0 DUP4 ADD MSTORE PUSH2 0x22D7 DUP2 PUSH2 0x229B JUMP JUMPDEST SWAP1 POP SWAP2 SWAP1 POP JUMP JUMPDEST PUSH1 0x0 PUSH1 0xC0 DUP3 ADD SWAP1 POP PUSH2 0x22F3 PUSH1 0x0 DUP4 ADD DUP10 PUSH2 0x1DA4 JUMP JUMPDEST PUSH2 0x2300 PUSH1 0x20 DUP4 ADD DUP9 PUSH2 0x1E36 JUMP JUMPDEST PUSH2 0x230D PUSH1 0x40 DUP4 ADD DUP8 PUSH2 0x1E36 JUMP JUMPDEST PUSH2 0x231A PUSH1 0x60 DUP4 ADD DUP7 PUSH2 0x1CE6 JUMP JUMPDEST PUSH2 0x2327 PUSH1 0x80 DUP4 ADD DUP6 PUSH2 0x1CE6 JUMP JUMPDEST PUSH2 0x2334 PUSH1 0xA0 DUP4 ADD DUP5 PUSH2 0x1CE6 JUMP JUMPDEST SWAP8 SWAP7 POP POP POP POP POP POP POP JUMP JUMPDEST PUSH32 0x45524332305065726D69743A20696E76616C6964207369676E61747572650000 PUSH1 0x0 DUP3 ADD MSTORE POP JUMP JUMPDEST PUSH1 0x0 PUSH2 0x2375 PUSH1 0x1E DUP4 PUSH2 0x1B30 JUMP JUMPDEST SWAP2 POP PUSH2 0x2380 DUP3 PUSH2 0x233F JUMP JUMPDEST PUSH1 0x20 DUP3 ADD SWAP1 POP SWAP2 SWAP1 POP JUMP JUMPDEST PUSH1 0x0 PUSH1 0x20 DUP3 ADD SWAP1 POP DUP2 DUP2 SUB PUSH1 0x0 DUP4 ADD MSTORE PUSH2 0x23A4 DUP2 PUSH2 0x2368 JUMP JUMPDEST SWAP1 POP SWAP2 SWAP1 POP JUMP JUMPDEST PUSH32 0x496E73756666696369656E7420616D6F756E7400000000000000000000000000 PUSH1 0x0 DUP3 ADD MSTORE POP JUMP JUMPDEST PUSH1 0x0 PUSH2 0x23E1 PUSH1 0x13 DUP4 PUSH2 0x1B30 JUMP JUMPDEST SWAP2 POP PUSH2 0x23EC DUP3 PUSH2 0x23AB JUMP JUMPDEST PUSH1 0x20 DUP3 ADD SWAP1 POP SWAP2 SWAP1 POP JUMP JUMPDEST PUSH1 0x0 PUSH1 0x20 DUP3 ADD SWAP1 POP DUP2 DUP2 SUB PUSH1 0x0 DUP4 ADD MSTORE PUSH2 0x2410 DUP2 PUSH2 0x23D4 JUMP JUMPDEST SWAP1 POP SWAP2 SWAP1 POP JUMP JUMPDEST PUSH1 0x0 PUSH2 0x2422 DUP3 PUSH2 0x1C3A JUMP JUMPDEST SWAP2 POP PUSH2 0x242D DUP4 PUSH2 0x1C3A JUMP JUMPDEST SWAP3 POP DUP3 DUP3 SUB SWAP1 POP DUP2 DUP2 GT ISZERO PUSH2 0x2445 JUMPI PUSH2 0x2444 PUSH2 0x214E JUMP JUMPDEST JUMPDEST SWAP3 SWAP2 POP POP JUMP JUMPDEST PUSH1 0x0 DUP2 SWAP1 POP DUP2 PUSH1 0x0 MSTORE PUSH1 0x20 PUSH1 0x0 KECCAK256 SWAP1 POP SWAP2 SWAP1 POP JUMP JUMPDEST PUSH1 0x0 PUSH1 0x20 PUSH1 0x1F DUP4 ADD DIV SWAP1 POP SWAP2 SWAP1 POP JUMP JUMPDEST PUSH1 0x0 DUP3 DUP3 SHL SWAP1 POP SWAP3 SWAP2 POP POP JUMP JUMPDEST PUSH1 0x0 PUSH1 0x8 DUP4 MUL PUSH2 0x24AD PUSH32 0xFFFFFFFFFFFFFFFFFFFFFFFFFFFFFFFFFFFFFFFFFFFFFFFFFFFFFFFFFFFFFFFF DUP3 PUSH2 0x2470 JUMP JUMPDEST PUSH2 0x24B7 DUP7 DUP4 PUSH2 0x2470 JUMP JUMPDEST SWAP6 POP DUP1 NOT DUP5 AND SWAP4 POP DUP1 DUP7 AND DUP5 OR SWAP3 POP POP POP SWAP4 SWAP3 POP POP POP JUMP JUMPDEST PUSH1 0x0 DUP2 SWAP1 POP SWAP2 SWAP1 POP JUMP JUMPDEST PUSH1 0x0 PUSH2 0x24F4 PUSH2 0x24EF PUSH2 0x24EA DUP5 PUSH2 0x1C3A JUMP JUMPDEST PUSH2 0x24CF JUMP JUMPDEST PUSH2 0x1C3A JUMP JUMPDEST SWAP1 POP SWAP2 SWAP1 POP JUMP JUMPDEST PUSH1 0x0 DUP2 SWAP1 POP SWAP2 SWAP1 POP JUMP JUMPDEST PUSH2 0x250E DUP4 PUSH2 0x24D9 JUMP JUMPDEST PUSH2 0x2522 PUSH2 0x251A DUP3 PUSH2 0x24FB JUMP JUMPDEST DUP5 DUP5 SLOAD PUSH2 0x247D JUMP JUMPDEST DUP3 SSTORE POP POP POP POP JUMP JUMPDEST PUSH1 0x0 SWAP1 JUMP JUMPDEST PUSH2 0x2537 PUSH2 0x252A JUMP JUMPDEST PUSH2 0x2542 DUP2 DUP5 DUP5 PUSH2 0x2505 JUMP JUMPDEST POP POP POP JUMP JUMPDEST JUMPDEST DUP2 DUP2 LT ISZERO PUSH2 0x2566 JUMPI PUSH2 0x255B PUSH1 0x0 DUP3 PUSH2 0x252F JUMP JUMPDEST PUSH1 0x1 DUP2 ADD SWAP1 POP PUSH2 0x2548 JUMP JUMPDEST POP POP JUMP JUMPDEST PUSH1 0x1F DUP3 GT ISZERO PUSH2 0x25AB JUMPI PUSH2 0x257C DUP2 PUSH2 0x244B JUMP JUMPDEST PUSH2 0x2585 DUP5 PUSH2 0x2460 JUMP JUMPDEST DUP2 ADD PUSH1 0x20 DUP6 LT ISZERO PUSH2 0x2594 JUMPI DUP2 SWAP1 POP JUMPDEST PUSH2 0x25A8 PUSH2 0x25A0 DUP6 PUSH2 0x2460 JUMP JUMPDEST DUP4 ADD DUP3 PUSH2 0x2547 JUMP JUMPDEST POP POP JUMPDEST POP POP POP JUMP JUMPDEST PUSH1 0x0 DUP3 DUP3 SHR SWAP1 POP SWAP3 SWAP2 POP POP JUMP JUMPDEST PUSH1 0x0 PUSH2 0x25CE PUSH1 0x0 NOT DUP5 PUSH1 0x8 MUL PUSH2 0x25B0 JUMP JUMPDEST NOT DUP1 DUP4 AND SWAP2 POP POP SWAP3 SWAP2 POP POP JUMP JUMPDEST PUSH1 0x0 PUSH2 0x25E7 DUP4 DUP4 PUSH2 0x25BD JUMP JUMPDEST SWAP2 POP DUP3 PUSH1 0x2 MUL DUP3 OR SWAP1 POP SWAP3 SWAP2 POP POP JUMP JUMPDEST PUSH2 0x2600 DUP3 PUSH2 0x1B25 JUMP JUMPDEST PUSH8 0xFFFFFFFFFFFFFFFF DUP2 GT ISZERO PUSH2 0x2619 JUMPI PUSH2 0x2618 PUSH2 0x21B1 JUMP JUMPDEST JUMPDEST PUSH2 0x2623 DUP3 SLOAD PUSH2 0x211D JUMP JUMPDEST PUSH2 0x262E DUP3 DUP3 DUP6 PUSH2 0x256A JUMP JUMPDEST PUSH1 0x0 PUSH1 0x20 SWAP1 POP PUSH1 0x1F DUP4 GT PUSH1 0x1 DUP2 EQ PUSH2 0x2661 JUMPI PUSH1 0x0 DUP5 ISZERO PUSH2 0x264F JUMPI DUP3 DUP8 ADD MLOAD SWAP1 POP JUMPDEST PUSH2 0x2659 DUP6 DUP3 PUSH2 0x25DB JUMP JUMPDEST DUP7 SSTORE POP PUSH2 0x26C1 JUMP JUMPDEST PUSH1 0x1F NOT DUP5 AND PUSH2 0x266F DUP7 PUSH2 0x244B JUMP JUMPDEST PUSH1 0x0 JUMPDEST DUP3 DUP2 LT ISZERO PUSH2 0x2697 JUMPI DUP5 DUP10 ADD MLOAD DUP3 SSTORE PUSH1 0x1 DUP3 ADD SWAP2 POP PUSH1 0x20 DUP6 ADD SWAP5 POP PUSH1 0x20 DUP2 ADD SWAP1 POP PUSH2 0x2672 JUMP JUMPDEST DUP7 DUP4 LT ISZERO PUSH2 0x26B4 JUMPI DUP5 DUP10 ADD MLOAD PUSH2 0x26B0 PUSH1 0x1F DUP10 AND DUP3 PUSH2 0x25BD JUMP JUMPDEST DUP4 SSTORE POP JUMPDEST PUSH1 0x1 PUSH1 0x2 DUP9 MUL ADD DUP9 SSTORE POP POP POP JUMPDEST POP POP POP POP POP POP JUMP JUMPDEST PUSH32 0x45524332303A20617070726F76652066726F6D20746865207A65726F20616464 PUSH1 0x0 DUP3 ADD MSTORE PUSH32 0x7265737300000000000000000000000000000000000000000000000000000000 PUSH1 0x20 DUP3 ADD MSTORE POP JUMP JUMPDEST PUSH1 0x0 PUSH2 0x2725 PUSH1 0x24 DUP4 PUSH2 0x1B30 JUMP JUMPDEST SWAP2 POP PUSH2 0x2730 DUP3 PUSH2 0x26C9 JUMP JUMPDEST PUSH1 0x40 DUP3 ADD SWAP1 POP SWAP2 SWAP1 POP JUMP JUMPDEST PUSH1 0x0 PUSH1 0x20 DUP3 ADD SWAP1 POP DUP2 DUP2 SUB PUSH1 0x0 DUP4 ADD MSTORE PUSH2 0x2754 DUP2 PUSH2 0x2718 JUMP JUMPDEST SWAP1 POP SWAP2 SWAP1 POP JUMP JUMPDEST PUSH32 0x45524332303A20617070726F766520746F20746865207A65726F206164647265 PUSH1 0x0 DUP3 ADD MSTORE PUSH32 0x7373000000000000000000000000000000000000000000000000000000000000 PUSH1 0x20 DUP3 ADD MSTORE POP JUMP JUMPDEST PUSH1 0x0 PUSH2 0x27B7 PUSH1 0x22 DUP4 PUSH2 0x1B30 JUMP JUMPDEST SWAP2 POP PUSH2 0x27C2 DUP3 PUSH2 0x275B JUMP JUMPDEST PUSH1 0x40 DUP3 ADD SWAP1 POP SWAP2 SWAP1 POP JUMP JUMPDEST PUSH1 0x0 PUSH1 0x20 DUP3 ADD SWAP1 POP DUP2 DUP2 SUB PUSH1 0x0 DUP4 ADD MSTORE PUSH2 0x27E6 DUP2 PUSH2 0x27AA JUMP JUMPDEST SWAP1 POP SWAP2 SWAP1 POP JUMP JUMPDEST PUSH32 0x45524332303A20696E73756666696369656E7420616C6C6F77616E6365000000 PUSH1 0x0 DUP3 ADD MSTORE POP JUMP JUMPDEST PUSH1 0x0 PUSH2 0x2823 PUSH1 0x1D DUP4 PUSH2 0x1B30 JUMP JUMPDEST SWAP2 POP PUSH2 0x282E DUP3 PUSH2 0x27ED JUMP JUMPDEST PUSH1 0x20 DUP3 ADD SWAP1 POP SWAP2 SWAP1 POP JUMP JUMPDEST PUSH1 0x0 PUSH1 0x20 DUP3 ADD SWAP1 POP DUP2 DUP2 SUB PUSH1 0x0 DUP4 ADD MSTORE PUSH2 0x2852 DUP2 PUSH2 0x2816 JUMP JUMPDEST SWAP1 POP SWAP2 SWAP1 POP JUMP JUMPDEST PUSH32 0x45524332303A207472616E736665722066726F6D20746865207A65726F206164 PUSH1 0x0 DUP3 ADD MSTORE PUSH32 0x6472657373000000000000000000000000000000000000000000000000000000 PUSH1 0x20 DUP3 ADD MSTORE POP JUMP JUMPDEST PUSH1 0x0 PUSH2 0x28B5 PUSH1 0x25 DUP4 PUSH2 0x1B30 JUMP JUMPDEST SWAP2 POP PUSH2 0x28C0 DUP3 PUSH2 0x2859 JUMP JUMPDEST PUSH1 0x40 DUP3 ADD SWAP1 POP SWAP2 SWAP1 POP JUMP JUMPDEST PUSH1 0x0 PUSH1 0x20 DUP3 ADD SWAP1 POP DUP2 DUP2 SUB PUSH1 0x0 DUP4 ADD MSTORE PUSH2 0x28E4 DUP2 PUSH2 0x28A8 JUMP JUMPDEST SWAP1 POP SWAP2 SWAP1 POP JUMP JUMPDEST PUSH32 0x45524332303A207472616E7366657220746F20746865207A65726F2061646472 PUSH1 0x0 DUP3 ADD MSTORE PUSH32 0x6573730000000000000000000000000000000000000000000000000000000000 PUSH1 0x20 DUP3 ADD MSTORE POP JUMP JUMPDEST PUSH1 0x0 PUSH2 0x2947 PUSH1 0x23 DUP4 PUSH2 0x1B30 JUMP JUMPDEST SWAP2 POP PUSH2 0x2952 DUP3 PUSH2 0x28EB JUMP JUMPDEST PUSH1 0x40 DUP3 ADD SWAP1 POP SWAP2 SWAP1 POP JUMP JUMPDEST PUSH1 0x0 PUSH1 0x20 DUP3 ADD SWAP1 POP DUP2 DUP2 SUB PUSH1 0x0 DUP4 ADD MSTORE PUSH2 0x2976 DUP2 PUSH2 0x293A JUMP JUMPDEST SWAP1 POP SWAP2 SWAP1 POP JUMP JUMPDEST PUSH32 0x45524332303A207472616E7366657220616D6F756E7420657863656564732062 PUSH1 0x0 DUP3 ADD MSTORE PUSH32 0x616C616E63650000000000000000000000000000000000000000000000000000 PUSH1 0x20 DUP3 ADD MSTORE POP JUMP JUMPDEST PUSH1 0x0 PUSH2 0x29D9 PUSH1 0x26 DUP4 PUSH2 0x1B30 JUMP JUMPDEST SWAP2 POP PUSH2 0x29E4 DUP3 PUSH2 0x297D JUMP JUMPDEST PUSH1 0x40 DUP3 ADD SWAP1 POP SWAP2 SWAP1 POP JUMP JUMPDEST PUSH1 0x0 PUSH1 0x20 DUP3 ADD SWAP1 POP DUP2 DUP2 SUB PUSH1 0x0 DUP4 ADD MSTORE PUSH2 0x2A08 DUP2 PUSH2 0x29CC JUMP JUMPDEST SWAP1 POP SWAP2 SWAP1 POP JUMP JUMPDEST PUSH1 0x0 PUSH2 0x2A1A DUP3 PUSH2 0x1C3A JUMP JUMPDEST SWAP2 POP PUSH2 0x2A25 DUP4 PUSH2 0x1C3A JUMP JUMPDEST SWAP3 POP DUP3 DUP3 MUL PUSH2 0x2A33 DUP2 PUSH2 0x1C3A JUMP JUMPDEST SWAP2 POP DUP3 DUP3 DIV DUP5 EQ DUP4 ISZERO OR PUSH2 0x2A4A JUMPI PUSH2 0x2A49 PUSH2 0x214E JUMP JUMPDEST JUMPDEST POP SWAP3 SWAP2 POP POP JUMP JUMPDEST PUSH32 0x4C696D6974206578636565646564000000000000000000000000000000000000 PUSH1 0x0 DUP3 ADD MSTORE POP JUMP JUMPDEST PUSH1 0x0 PUSH2 0x2A87 PUSH1 0xE DUP4 PUSH2 0x1B30 JUMP JUMPDEST SWAP2 POP PUSH2 0x2A92 DUP3 PUSH2 0x2A51 JUMP JUMPDEST PUSH1 0x20 DUP3 ADD SWAP1 POP SWAP2 SWAP1 POP JUMP JUMPDEST PUSH1 0x0 PUSH1 0x20 DUP3 ADD SWAP1 POP DUP2 DUP2 SUB PUSH1 0x0 DUP4 ADD MSTORE PUSH2 0x2AB6 DUP2 PUSH2 0x2A7A JUMP JUMPDEST SWAP1 POP SWAP2 SWAP1 POP JUMP JUMPDEST PUSH1 0x0 DUP2 MLOAD SWAP1 POP SWAP2 SWAP1 POP JUMP JUMPDEST PUSH1 0x0 DUP2 SWAP1 POP PUSH1 0x20 DUP3 ADD SWAP1 POP SWAP2 SWAP1 POP JUMP JUMPDEST PUSH1 0x0 PUSH2 0x2AE4 DUP3 MLOAD PUSH2 0x1D9A JUMP JUMPDEST DUP1 SWAP2 POP POP SWAP2 SWAP1 POP JUMP JUMPDEST PUSH1 0x0 PUSH2 0x2AF8 DUP3 PUSH2 0x2ABD JUMP JUMPDEST DUP3 PUSH2 0x2B02 DUP5 PUSH2 0x2AC8 JUMP JUMPDEST SWAP1 POP PUSH2 0x2B0D DUP2 PUSH2 0x2AD8 JUMP JUMPDEST SWAP3 POP PUSH1 0x20 DUP3 LT ISZERO PUSH2 0x2B4D JUMPI PUSH2 0x2B48 PUSH32 0xFFFFFFFFFFFFFFFFFFFFFFFFFFFFFFFFFFFFFFFFFFFFFFFFFFFFFFFFFFFFFFFF DUP4 PUSH1 0x20 SUB PUSH1 0x8 MUL PUSH2 0x2470 JUMP JUMPDEST DUP4 AND SWAP3 POP JUMPDEST POP POP SWAP2 SWAP1 POP JUMP JUMPDEST PUSH1 0x0 PUSH1 0xA0 DUP3 ADD SWAP1 POP PUSH2 0x2B69 PUSH1 0x0 DUP4 ADD DUP9 PUSH2 0x1DA4 JUMP JUMPDEST PUSH2 0x2B76 PUSH1 0x20 DUP4 ADD DUP8 PUSH2 0x1DA4 JUMP JUMPDEST PUSH2 0x2B83 PUSH1 0x40 DUP4 ADD DUP7 PUSH2 0x1DA4 JUMP JUMPDEST PUSH2 0x2B90 PUSH1 0x60 DUP4 ADD DUP6 PUSH2 0x1CE6 JUMP JUMPDEST PUSH2 0x2B9D PUSH1 0x80 DUP4 ADD DUP5 PUSH2 0x1E36 JUMP JUMPDEST SWAP7 SWAP6 POP POP POP POP POP POP JUMP JUMPDEST PUSH1 0x0 PUSH1 0x80 DUP3 ADD SWAP1 POP PUSH2 0x2BBC PUSH1 0x0 DUP4 ADD DUP8 PUSH2 0x1DA4 JUMP JUMPDEST PUSH2 0x2BC9 PUSH1 0x20 DUP4 ADD DUP7 PUSH2 0x1D70 JUMP JUMPDEST PUSH2 0x2BD6 PUSH1 0x40 DUP4 ADD DUP6 PUSH2 0x1DA4 JUMP JUMPDEST PUSH2 0x2BE3 PUSH1 0x60 DUP4 ADD DUP5 PUSH2 0x1DA4 JUMP JUMPDEST SWAP6 SWAP5 POP POP POP POP POP JUMP JUMPDEST PUSH32 0x4E487B7100000000000000000000000000000000000000000000000000000000 PUSH1 0x0 MSTORE PUSH1 0x21 PUSH1 0x4 MSTORE PUSH1 0x24 PUSH1 0x0 REVERT JUMPDEST PUSH32 0x45434453413A20696E76616C6964207369676E61747572650000000000000000 PUSH1 0x0 DUP3 ADD MSTORE POP JUMP JUMPDEST PUSH1 0x0 PUSH2 0x2C51 PUSH1 0x18 DUP4 PUSH2 0x1B30 JUMP JUMPDEST SWAP2 POP PUSH2 0x2C5C DUP3 PUSH2 0x2C1B JUMP JUMPDEST PUSH1 0x20 DUP3 ADD SWAP1 POP SWAP2 SWAP1 POP JUMP JUMPDEST PUSH1 0x0 PUSH1 0x20 DUP3 ADD SWAP1 POP DUP2 DUP2 SUB PUSH1 0x0 DUP4 ADD MSTORE PUSH2 0x2C80 DUP2 PUSH2 0x2C44 JUMP JUMPDEST SWAP1 POP SWAP2 SWAP1 POP JUMP JUMPDEST PUSH32 0x45434453413A20696E76616C6964207369676E6174757265206C656E67746800 PUSH1 0x0 DUP3 ADD MSTORE POP JUMP JUMPDEST PUSH1 0x0 PUSH2 0x2CBD PUSH1 0x1F DUP4 PUSH2 0x1B30 JUMP JUMPDEST SWAP2 POP PUSH2 0x2CC8 DUP3 PUSH2 0x2C87 JUMP JUMPDEST PUSH1 0x20 DUP3 ADD SWAP1 POP SWAP2 SWAP1 POP JUMP JUMPDEST PUSH1 0x0 PUSH1 0x20 DUP3 ADD SWAP1 POP DUP2 DUP2 SUB PUSH1 0x0 DUP4 ADD MSTORE PUSH2 0x2CEC DUP2 PUSH2 0x2CB0 JUMP JUMPDEST SWAP1 POP SWAP2 SWAP1 POP JUMP JUMPDEST PUSH32 0x45434453413A20696E76616C6964207369676E6174757265202773272076616C PUSH1 0x0 DUP3 ADD MSTORE PUSH32 0x7565000000000000000000000000000000000000000000000000000000000000 PUSH1 0x20 DUP3 ADD MSTORE POP JUMP JUMPDEST PUSH1 0x0 PUSH2 0x2D4F PUSH1 0x22 DUP4 PUSH2 0x1B30 JUMP JUMPDEST SWAP2 POP PUSH2 0x2D5A DUP3 PUSH2 0x2CF3 JUMP JUMPDEST PUSH1 0x40 DUP3 ADD SWAP1 POP SWAP2 SWAP1 POP JUMP JUMPDEST PUSH1 0x0 PUSH1 0x20 DUP3 ADD SWAP1 POP DUP2 DUP2 SUB PUSH1 0x0 DUP4 ADD MSTORE PUSH2 0x2D7E DUP2 PUSH2 0x2D42 JUMP JUMPDEST SWAP1 POP SWAP2 SWAP1 POP JUMP JUMPDEST PUSH32 0x45524332303A206D696E7420746F20746865207A65726F206164647265737300 PUSH1 0x0 DUP3 ADD MSTORE POP JUMP JUMPDEST PUSH1 0x0 PUSH2 0x2DBB PUSH1 0x1F DUP4 PUSH2 0x1B30 JUMP JUMPDEST SWAP2 POP PUSH2 0x2DC6 DUP3 PUSH2 0x2D85 JUMP JUMPDEST PUSH1 0x20 DUP3 ADD SWAP1 POP SWAP2 SWAP1 POP JUMP JUMPDEST PUSH1 0x0 PUSH1 0x20 DUP3 ADD SWAP1 POP DUP2 DUP2 SUB PUSH1 0x0 DUP4 ADD MSTORE PUSH2 0x2DEA DUP2 PUSH2 0x2DAE JUMP JUMPDEST SWAP1 POP SWAP2 SWAP1 POP JUMP INVALID LOG2 PUSH5 0x6970667358 0x22 SLT KECCAK256 SWAP11 PUSH3 0x5206F1 DUP13 MLOAD LOG4 0x4F SMOD 0xAB 0xBF SWAP7 GASLIMIT PUSH15 0x138C3A3A4FC98AC7F0BB5EA8242623 0xC6 0xB9 PUSH5 0x736F6C6343 STOP ADDMOD GT STOP CALLER "},"methodIdentifiers":{"DOMAIN_SEPARATOR()":"3644e515","allowance(address,address)":"dd62ed3e","approve(address,uint256)":"095ea7b3","balanceOf(address)":"70a08231","buy(uint256)":"d96a094a","currentPrice()":"9d1b464a","decimals()":"313ce567","decreaseAllowance(address,uint256)":"a457c2d7","eip712Domain()":"84b0196e","increaseAllowance(address,uint256)":"39509351","maxSupply()":"d5abeb01","name()":"06fdde03","nonces(address)":"7ecebe00","permit(address,address,uint256,uint256,uint8,bytes32,bytes32)":"d505accf","symbol()":"95d89b41","totalSupply()":"18160ddd","transfer(address,uint256)":"a9059cbb","transferFrom(address,address,uint256)":"23b872dd"}},"storageLayout":{"storage":[{"astId":1437,"contract":"contracts/MyToken.sol:UniqToken","label":"_balances","offset":0,"slot":"0","type":"t_mapping(t_address,t_uint256)"},{"astId":1443,"contract":"contracts/MyToken.sol:UniqToken","label":"_allowances","offset":0,"slot":"1","type":"t_mapping(t_address,t_mapping(t_address,t_uint256))"},{"astId":1445,"contract":"contracts/MyToken.sol:UniqToken","label":"_totalSupply","offset":0,"slot":"2","type":"t_uint256"},{"astId":1447,"contract":"contracts/MyToken.sol:UniqToken","label":"_name","offset":0,"slot":"3","type":"t_string_storage"},{"astId":1449,"contract":"contracts/MyToken.sol:UniqToken","label":"_symbol","offset":0,"slot":"4","type":"t_string_storage"},{"astId":4790,"contract":"contracts/MyToken.sol:UniqToken","label":"_nameFallback","offset":0,"slot":"5","type":"t_string_storage"},{"astId":4792,"contract":"contracts/MyToken.sol:UniqToken","label":"_versionFallback","offset":0,"slot":"6","type":"t_string_storage"},{"astId":2109,"contract":"contracts/MyToken.sol:UniqToken","label":"_nonces","offset":0,"slot":"7","type":"t_mapping(t_address,t_struct(Counter)3768_storage)"},{"astId":2117,"contract":"contracts/MyToken.sol:UniqToken","label":"_PERMIT_TYPEHASH_DEPRECATED_SLOT","offset":0,"slot":"8","type":"t_bytes32"},{"astId":6219,"contract":"contracts/MyToken.sol:UniqToken","label":"maxSupply","offset":0,"slot":"9","type":"t_uint256"}],"types":{"t_address":{"encoding":"inplace","label":"address","numberOfBytes":"20"},"t_bytes32":{"encoding":"inplace","label":"bytes32","numberOfBytes":"32"},"t_mapping(t_address,t_mapping(t_address,t_uint256))":{"encoding":"mapping","key":"t_address","label":"mapping(address => mapping(address => uint256))","numberOfBytes":"32","value":"t_mapping(t_address,t_uint256)"},"t_mapping(t_address,t_struct(Counter)3768_storage)":{"encoding":"mapping","key":"t_address","label":"mapping(address => struct Counters.Counter)","numberOfBytes":"32","value":"t_struct(Counter)3768_storage"},"t_mapping(t_address,t_uint256)":{"encoding":"mapping","key":"t_address","label":"mapping(address => uint256)","numberOfBytes":"32","value":"t_uint256"},"t_string_storage":{"encoding":"bytes","label":"string","numberOfBytes":"32"},"t_struct(Counter)3768_storage":{"encoding":"inplace","label":"struct Counters.Counter","members":[{"astId":3767,"contract":"contracts/MyToken.sol:UniqToken","label":"_value","offset":0,"slot":"0","type":"t_uint256"}],"numberOfBytes":"32"},"t_uint256":{"encoding":"inplace","label":"uint256","numberOfBytes":"32"}}}}}}